{
	"contracts/NFTLending.sol": {
		"NFTLending": {
			"abi": [
				{
					"inputs": [
						{
							"internalType": "address",
							"name": "_fractionalizer",
							"type": "address"
						},
						{
							"internalType": "uint256",
							"name": "_offer_phase_duration",
							"type": "uint256"
						},
						{
							"internalType": "uint256",
							"name": "_cooldown_phase_duration",
							"type": "uint256"
						}
					],
					"stateMutability": "nonpayable",
					"type": "constructor"
				},
				{
					"anonymous": false,
					"inputs": [
						{
							"indexed": true,
							"internalType": "uint256",
							"name": "loan_id",
							"type": "uint256"
						},
						{
							"indexed": true,
							"internalType": "address",
							"name": "borrower",
							"type": "address"
						}
					],
					"name": "NewLoanAdEvent",
					"type": "event"
				},
				{
					"inputs": [],
					"name": "CreditScore",
					"outputs": [
						{
							"internalType": "uint256",
							"name": "",
							"type": "uint256"
						}
					],
					"stateMutability": "view",
					"type": "function"
				},
				{
					"inputs": [],
					"name": "LoanId",
					"outputs": [
						{
							"internalType": "uint256",
							"name": "",
							"type": "uint256"
						}
					],
					"stateMutability": "view",
					"type": "function"
				},
				{
					"inputs": [],
					"name": "OfferId",
					"outputs": [
						{
							"internalType": "uint256",
							"name": "",
							"type": "uint256"
						}
					],
					"stateMutability": "view",
					"type": "function"
				},
				{
					"inputs": [],
					"name": "Time",
					"outputs": [
						{
							"internalType": "uint256",
							"name": "",
							"type": "uint256"
						}
					],
					"stateMutability": "view",
					"type": "function"
				},
				{
					"inputs": [],
					"name": "TokenId",
					"outputs": [
						{
							"internalType": "uint256",
							"name": "",
							"type": "uint256"
						}
					],
					"stateMutability": "view",
					"type": "function"
				},
				{
					"inputs": [
						{
							"internalType": "uint256",
							"name": "",
							"type": "uint256"
						},
						{
							"internalType": "address",
							"name": "",
							"type": "address"
						}
					],
					"name": "active_offer_id",
					"outputs": [
						{
							"internalType": "uint256",
							"name": "",
							"type": "uint256"
						}
					],
					"stateMutability": "view",
					"type": "function"
				},
				{
					"inputs": [],
					"name": "admin",
					"outputs": [
						{
							"internalType": "address",
							"name": "",
							"type": "address"
						}
					],
					"stateMutability": "view",
					"type": "function"
				},
				{
					"inputs": [
						{
							"internalType": "uint256",
							"name": "loan_id",
							"type": "uint256"
						}
					],
					"name": "cancel_loan",
					"outputs": [],
					"stateMutability": "nonpayable",
					"type": "function"
				},
				{
					"inputs": [
						{
							"internalType": "uint256",
							"name": "loan_id",
							"type": "uint256"
						}
					],
					"name": "claim_loan_default",
					"outputs": [],
					"stateMutability": "nonpayable",
					"type": "function"
				},
				{
					"inputs": [],
					"name": "cooldown_phase_duration",
					"outputs": [
						{
							"internalType": "uint256",
							"name": "",
							"type": "uint256"
						}
					],
					"stateMutability": "view",
					"type": "function"
				},
				{
					"inputs": [],
					"name": "fractionalizer",
					"outputs": [
						{
							"internalType": "address",
							"name": "",
							"type": "address"
						}
					],
					"stateMutability": "view",
					"type": "function"
				},
				{
					"inputs": [],
					"name": "get_cancellation_charges",
					"outputs": [
						{
							"internalType": "uint256",
							"name": "",
							"type": "uint256"
						}
					],
					"stateMutability": "pure",
					"type": "function"
				},
				{
					"inputs": [
						{
							"internalType": "address",
							"name": "account",
							"type": "address"
						},
						{
							"internalType": "uint256",
							"name": "borrow_amount",
							"type": "uint256"
						},
						{
							"internalType": "uint256",
							"name": "loan_period",
							"type": "uint256"
						}
					],
					"name": "get_collateral_required",
					"outputs": [
						{
							"internalType": "uint256",
							"name": "",
							"type": "uint256"
						}
					],
					"stateMutability": "view",
					"type": "function"
				},
				{
					"inputs": [
						{
							"internalType": "uint256",
							"name": "loan_id",
							"type": "uint256"
						}
					],
					"name": "is_offer_phase",
					"outputs": [
						{
							"internalType": "bool",
							"name": "",
							"type": "bool"
						}
					],
					"stateMutability": "view",
					"type": "function"
				},
				{
					"inputs": [
						{
							"internalType": "uint256",
							"name": "token_id",
							"type": "uint256"
						},
						{
							"internalType": "uint256",
							"name": "shares_to_lock",
							"type": "uint256"
						},
						{
							"internalType": "uint256",
							"name": "amount_asked",
							"type": "uint256"
						},
						{
							"internalType": "uint256",
							"name": "loan_period",
							"type": "uint256"
						}
					],
					"name": "list_advertisement",
					"outputs": [
						{
							"internalType": "uint256",
							"name": "",
							"type": "uint256"
						}
					],
					"stateMutability": "payable",
					"type": "function"
				},
				{
					"inputs": [],
					"name": "loan_nonce",
					"outputs": [
						{
							"internalType": "uint256",
							"name": "",
							"type": "uint256"
						}
					],
					"stateMutability": "view",
					"type": "function"
				},
				{
					"inputs": [
						{
							"internalType": "uint256",
							"name": "",
							"type": "uint256"
						}
					],
					"name": "loan_stats",
					"outputs": [
						{
							"internalType": "uint256",
							"name": "start_timestamp",
							"type": "uint256"
						},
						{
							"internalType": "uint256",
							"name": "raised",
							"type": "uint256"
						},
						{
							"internalType": "uint256",
							"name": "limit_left",
							"type": "uint256"
						},
						{
							"internalType": "uint256",
							"name": "interest",
							"type": "uint256"
						},
						{
							"internalType": "uint256",
							"name": "repaid",
							"type": "uint256"
						},
						{
							"internalType": "enum NFTLending.LoanStatus",
							"name": "loan_status",
							"type": "uint8"
						}
					],
					"stateMutability": "view",
					"type": "function"
				},
				{
					"inputs": [
						{
							"internalType": "uint256",
							"name": "",
							"type": "uint256"
						}
					],
					"name": "loans",
					"outputs": [
						{
							"internalType": "address",
							"name": "borrower",
							"type": "address"
						},
						{
							"internalType": "uint256",
							"name": "token_id",
							"type": "uint256"
						},
						{
							"internalType": "uint256",
							"name": "shares_locked",
							"type": "uint256"
						},
						{
							"internalType": "uint256",
							"name": "amount_asked",
							"type": "uint256"
						},
						{
							"internalType": "uint256",
							"name": "security_deposit",
							"type": "uint256"
						},
						{
							"internalType": "uint256",
							"name": "loan_period",
							"type": "uint256"
						},
						{
							"internalType": "uint256",
							"name": "listing_timestamp",
							"type": "uint256"
						}
					],
					"stateMutability": "view",
					"type": "function"
				},
				{
					"inputs": [
						{
							"internalType": "uint256",
							"name": "loan_id",
							"type": "uint256"
						},
						{
							"internalType": "uint256",
							"name": "interest",
							"type": "uint256"
						}
					],
					"name": "make_offer",
					"outputs": [
						{
							"internalType": "uint256",
							"name": "offer_id",
							"type": "uint256"
						}
					],
					"stateMutability": "payable",
					"type": "function"
				},
				{
					"inputs": [],
					"name": "offer_phase_duration",
					"outputs": [
						{
							"internalType": "uint256",
							"name": "",
							"type": "uint256"
						}
					],
					"stateMutability": "view",
					"type": "function"
				},
				{
					"inputs": [
						{
							"internalType": "uint256",
							"name": "",
							"type": "uint256"
						},
						{
							"internalType": "uint256",
							"name": "",
							"type": "uint256"
						}
					],
					"name": "offers",
					"outputs": [
						{
							"internalType": "address",
							"name": "lender",
							"type": "address"
						},
						{
							"internalType": "uint256",
							"name": "amount",
							"type": "uint256"
						},
						{
							"internalType": "uint256",
							"name": "interest",
							"type": "uint256"
						},
						{
							"internalType": "enum NFTLending.OfferStatus",
							"name": "status",
							"type": "uint8"
						}
					],
					"stateMutability": "view",
					"type": "function"
				},
				{
					"inputs": [
						{
							"internalType": "uint256",
							"name": "",
							"type": "uint256"
						}
					],
					"name": "offers_nonce",
					"outputs": [
						{
							"internalType": "uint256",
							"name": "",
							"type": "uint256"
						}
					],
					"stateMutability": "view",
					"type": "function"
				},
				{
					"inputs": [
						{
							"internalType": "uint256",
							"name": "loan_id",
							"type": "uint256"
						}
					],
					"name": "repay_loan",
					"outputs": [],
					"stateMutability": "payable",
					"type": "function"
				},
				{
					"inputs": [
						{
							"internalType": "uint256",
							"name": "loan_id",
							"type": "uint256"
						},
						{
							"internalType": "uint256",
							"name": "offer_id",
							"type": "uint256"
						},
						{
							"internalType": "bool",
							"name": "response",
							"type": "bool"
						}
					],
					"name": "respond_to_offer",
					"outputs": [],
					"stateMutability": "nonpayable",
					"type": "function"
				},
				{
					"inputs": [
						{
							"internalType": "address",
							"name": "operator",
							"type": "address"
						}
					],
					"name": "signal_erc1155_support",
					"outputs": [
						{
							"internalType": "bytes",
							"name": "",
							"type": "bytes"
						}
					],
					"stateMutability": "view",
					"type": "function"
				},
				{
					"inputs": [
						{
							"internalType": "uint256",
							"name": "loan_id",
							"type": "uint256"
						}
					],
					"name": "start_loan",
					"outputs": [],
					"stateMutability": "nonpayable",
					"type": "function"
				},
				{
					"inputs": [
						{
							"internalType": "uint256",
							"name": "loan_id",
							"type": "uint256"
						}
					],
					"name": "withdraw_offer",
					"outputs": [
						{
							"internalType": "uint256",
							"name": "",
							"type": "uint256"
						}
					],
					"stateMutability": "nonpayable",
					"type": "function"
				}
			],
			"devdoc": {
				"kind": "dev",
				"methods": {},
				"version": 1
			},
			"evm": {
				"assembly": "    /* \"contracts/NFTLending.sol\":57:32195  contract NFTLending {... */\n  mstore(0x40, 0x80)\n    /* \"contracts/NFTLending.sol\":2299:2635  constructor(address _fractionalizer, uint _offer_phase_duration, uint _cooldown_phase_duration) {... */\n  callvalue\n  dup1\n  iszero\n  tag_1\n  jumpi\n  0x00\n  dup1\n  revert\ntag_1:\n  pop\n  mload(0x40)\n  sub(codesize, bytecodeSize)\n  dup1\n  bytecodeSize\n  dup4\n  codecopy\n  dup2\n  dup2\n  add\n  0x40\n  mstore\n  dup2\n  add\n  swap1\n  tag_2\n  swap2\n  swap1\n  tag_3\n  jump\t// in\ntag_2:\n    /* \"contracts/NFTLending.sol\":2418:2428  msg.sender */\n  caller\n    /* \"contracts/NFTLending.sol\":2410:2415  admin */\n  0x05\n  0x00\n    /* \"contracts/NFTLending.sol\":2410:2428  admin = msg.sender */\n  0x0100\n  exp\n  dup2\n  sload\n  dup2\n  0xffffffffffffffffffffffffffffffffffffffff\n  mul\n  not\n  and\n  swap1\n  dup4\n  0xffffffffffffffffffffffffffffffffffffffff\n  and\n  mul\n  or\n  swap1\n  sstore\n  pop\n    /* \"contracts/NFTLending.sol\":2459:2474  _fractionalizer */\n  dup3\n    /* \"contracts/NFTLending.sol\":2442:2456  fractionalizer */\n  0x06\n  0x00\n    /* \"contracts/NFTLending.sol\":2442:2474  fractionalizer = _fractionalizer */\n  0x0100\n  exp\n  dup2\n  sload\n  dup2\n  0xffffffffffffffffffffffffffffffffffffffff\n  mul\n  not\n  and\n  swap1\n  dup4\n  0xffffffffffffffffffffffffffffffffffffffff\n  and\n  mul\n  or\n  swap1\n  sstore\n  pop\n    /* \"contracts/NFTLending.sol\":2501:2502  0 */\n  0x00\n    /* \"contracts/NFTLending.sol\":2488:2498  loan_nonce */\n  0x07\n    /* \"contracts/NFTLending.sol\":2488:2502  loan_nonce = 0 */\n  dup2\n  swap1\n  sstore\n  pop\n    /* \"contracts/NFTLending.sol\":2539:2560  _offer_phase_duration */\n  dup2\n    /* \"contracts/NFTLending.sol\":2516:2536  offer_phase_duration */\n  0x08\n    /* \"contracts/NFTLending.sol\":2516:2560  offer_phase_duration = _offer_phase_duration */\n  dup2\n  swap1\n  sstore\n  pop\n    /* \"contracts/NFTLending.sol\":2600:2624  _cooldown_phase_duration */\n  dup1\n    /* \"contracts/NFTLending.sol\":2574:2597  cooldown_phase_duration */\n  0x09\n    /* \"contracts/NFTLending.sol\":2574:2624  cooldown_phase_duration = _cooldown_phase_duration */\n  dup2\n  swap1\n  sstore\n  pop\n    /* \"contracts/NFTLending.sol\":2299:2635  constructor(address _fractionalizer, uint _offer_phase_duration, uint _cooldown_phase_duration) {... */\n  pop\n  pop\n  pop\n    /* \"contracts/NFTLending.sol\":57:32195  contract NFTLending {... */\n  jump(tag_6)\n    /* \"#utility.yul\":88:205   */\ntag_8:\n    /* \"#utility.yul\":197:198   */\n  0x00\n    /* \"#utility.yul\":194:195   */\n  dup1\n    /* \"#utility.yul\":187:199   */\n  revert\n    /* \"#utility.yul\":334:460   */\ntag_10:\n    /* \"#utility.yul\":371:378   */\n  0x00\n    /* \"#utility.yul\":411:453   */\n  0xffffffffffffffffffffffffffffffffffffffff\n    /* \"#utility.yul\":404:409   */\n  dup3\n    /* \"#utility.yul\":400:454   */\n  and\n    /* \"#utility.yul\":389:454   */\n  swap1\n  pop\n    /* \"#utility.yul\":334:460   */\n  swap2\n  swap1\n  pop\n  jump\t// out\n    /* \"#utility.yul\":466:562   */\ntag_11:\n    /* \"#utility.yul\":503:510   */\n  0x00\n    /* \"#utility.yul\":532:556   */\n  tag_23\n    /* \"#utility.yul\":550:555   */\n  dup3\n    /* \"#utility.yul\":532:556   */\n  tag_10\n  jump\t// in\ntag_23:\n    /* \"#utility.yul\":521:556   */\n  swap1\n  pop\n    /* \"#utility.yul\":466:562   */\n  swap2\n  swap1\n  pop\n  jump\t// out\n    /* \"#utility.yul\":568:690   */\ntag_12:\n    /* \"#utility.yul\":641:665   */\n  tag_25\n    /* \"#utility.yul\":659:664   */\n  dup2\n    /* \"#utility.yul\":641:665   */\n  tag_11\n  jump\t// in\ntag_25:\n    /* \"#utility.yul\":634:639   */\n  dup2\n    /* \"#utility.yul\":631:666   */\n  eq\n    /* \"#utility.yul\":621:684   */\n  tag_26\n  jumpi\n    /* \"#utility.yul\":680:681   */\n  0x00\n    /* \"#utility.yul\":677:678   */\n  dup1\n    /* \"#utility.yul\":670:682   */\n  revert\n    /* \"#utility.yul\":621:684   */\ntag_26:\n    /* \"#utility.yul\":568:690   */\n  pop\n  jump\t// out\n    /* \"#utility.yul\":696:839   */\ntag_13:\n    /* \"#utility.yul\":753:758   */\n  0x00\n    /* \"#utility.yul\":784:790   */\n  dup2\n    /* \"#utility.yul\":778:791   */\n  mload\n    /* \"#utility.yul\":769:791   */\n  swap1\n  pop\n    /* \"#utility.yul\":800:833   */\n  tag_28\n    /* \"#utility.yul\":827:832   */\n  dup2\n    /* \"#utility.yul\":800:833   */\n  tag_12\n  jump\t// in\ntag_28:\n    /* \"#utility.yul\":696:839   */\n  swap3\n  swap2\n  pop\n  pop\n  jump\t// out\n    /* \"#utility.yul\":845:922   */\ntag_14:\n    /* \"#utility.yul\":882:889   */\n  0x00\n    /* \"#utility.yul\":911:916   */\n  dup2\n    /* \"#utility.yul\":900:916   */\n  swap1\n  pop\n    /* \"#utility.yul\":845:922   */\n  swap2\n  swap1\n  pop\n  jump\t// out\n    /* \"#utility.yul\":928:1050   */\ntag_15:\n    /* \"#utility.yul\":1001:1025   */\n  tag_31\n    /* \"#utility.yul\":1019:1024   */\n  dup2\n    /* \"#utility.yul\":1001:1025   */\n  tag_14\n  jump\t// in\ntag_31:\n    /* \"#utility.yul\":994:999   */\n  dup2\n    /* \"#utility.yul\":991:1026   */\n  eq\n    /* \"#utility.yul\":981:1044   */\n  tag_32\n  jumpi\n    /* \"#utility.yul\":1040:1041   */\n  0x00\n    /* \"#utility.yul\":1037:1038   */\n  dup1\n    /* \"#utility.yul\":1030:1042   */\n  revert\n    /* \"#utility.yul\":981:1044   */\ntag_32:\n    /* \"#utility.yul\":928:1050   */\n  pop\n  jump\t// out\n    /* \"#utility.yul\":1056:1199   */\ntag_16:\n    /* \"#utility.yul\":1113:1118   */\n  0x00\n    /* \"#utility.yul\":1144:1150   */\n  dup2\n    /* \"#utility.yul\":1138:1151   */\n  mload\n    /* \"#utility.yul\":1129:1151   */\n  swap1\n  pop\n    /* \"#utility.yul\":1160:1193   */\n  tag_34\n    /* \"#utility.yul\":1187:1192   */\n  dup2\n    /* \"#utility.yul\":1160:1193   */\n  tag_15\n  jump\t// in\ntag_34:\n    /* \"#utility.yul\":1056:1199   */\n  swap3\n  swap2\n  pop\n  pop\n  jump\t// out\n    /* \"#utility.yul\":1205:1868   */\ntag_3:\n    /* \"#utility.yul\":1293:1299   */\n  0x00\n    /* \"#utility.yul\":1301:1307   */\n  dup1\n    /* \"#utility.yul\":1309:1315   */\n  0x00\n    /* \"#utility.yul\":1358:1360   */\n  0x60\n    /* \"#utility.yul\":1346:1355   */\n  dup5\n    /* \"#utility.yul\":1337:1344   */\n  dup7\n    /* \"#utility.yul\":1333:1356   */\n  sub\n    /* \"#utility.yul\":1329:1361   */\n  slt\n    /* \"#utility.yul\":1326:1445   */\n  iszero\n  tag_36\n  jumpi\n    /* \"#utility.yul\":1364:1443   */\n  tag_37\n  tag_8\n  jump\t// in\ntag_37:\n    /* \"#utility.yul\":1326:1445   */\ntag_36:\n    /* \"#utility.yul\":1484:1485   */\n  0x00\n    /* \"#utility.yul\":1509:1573   */\n  tag_38\n    /* \"#utility.yul\":1565:1572   */\n  dup7\n    /* \"#utility.yul\":1556:1562   */\n  dup3\n    /* \"#utility.yul\":1545:1554   */\n  dup8\n    /* \"#utility.yul\":1541:1563   */\n  add\n    /* \"#utility.yul\":1509:1573   */\n  tag_13\n  jump\t// in\ntag_38:\n    /* \"#utility.yul\":1499:1573   */\n  swap4\n  pop\n    /* \"#utility.yul\":1455:1583   */\n  pop\n    /* \"#utility.yul\":1622:1624   */\n  0x20\n    /* \"#utility.yul\":1648:1712   */\n  tag_39\n    /* \"#utility.yul\":1704:1711   */\n  dup7\n    /* \"#utility.yul\":1695:1701   */\n  dup3\n    /* \"#utility.yul\":1684:1693   */\n  dup8\n    /* \"#utility.yul\":1680:1702   */\n  add\n    /* \"#utility.yul\":1648:1712   */\n  tag_16\n  jump\t// in\ntag_39:\n    /* \"#utility.yul\":1638:1712   */\n  swap3\n  pop\n    /* \"#utility.yul\":1593:1722   */\n  pop\n    /* \"#utility.yul\":1761:1763   */\n  0x40\n    /* \"#utility.yul\":1787:1851   */\n  tag_40\n    /* \"#utility.yul\":1843:1850   */\n  dup7\n    /* \"#utility.yul\":1834:1840   */\n  dup3\n    /* \"#utility.yul\":1823:1832   */\n  dup8\n    /* \"#utility.yul\":1819:1841   */\n  add\n    /* \"#utility.yul\":1787:1851   */\n  tag_16\n  jump\t// in\ntag_40:\n    /* \"#utility.yul\":1777:1851   */\n  swap2\n  pop\n    /* \"#utility.yul\":1732:1861   */\n  pop\n    /* \"#utility.yul\":1205:1868   */\n  swap3\n  pop\n  swap3\n  pop\n  swap3\n  jump\t// out\n    /* \"contracts/NFTLending.sol\":57:32195  contract NFTLending {... */\ntag_6:\n  dataSize(sub_0)\n  dup1\n  dataOffset(sub_0)\n  0x00\n  codecopy\n  0x00\n  return\nstop\n\nsub_0: assembly {\n        /* \"contracts/NFTLending.sol\":57:32195  contract NFTLending {... */\n      mstore(0x40, 0x80)\n      jumpi(tag_1, lt(calldatasize, 0x04))\n      shr(0xe0, calldataload(0x00))\n      dup1\n      0x9624eca5\n      gt\n      tag_29\n      jumpi\n      dup1\n      0xe1ec3c68\n      gt\n      tag_30\n      jumpi\n      dup1\n      0xf851a440\n      gt\n      tag_31\n      jumpi\n      dup1\n      0xf851a440\n      eq\n      tag_25\n      jumpi\n      dup1\n      0xf8e157ea\n      eq\n      tag_26\n      jumpi\n      dup1\n      0xfa914222\n      eq\n      tag_27\n      jumpi\n      dup1\n      0xfbeb52a4\n      eq\n      tag_28\n      jumpi\n      jump(tag_1)\n    tag_31:\n      dup1\n      0xe1ec3c68\n      eq\n      tag_22\n      jumpi\n      dup1\n      0xf4cff8b4\n      eq\n      tag_23\n      jumpi\n      dup1\n      0xf81d7f5b\n      eq\n      tag_24\n      jumpi\n      jump(tag_1)\n    tag_30:\n      dup1\n      0xd03b0e49\n      gt\n      tag_32\n      jumpi\n      dup1\n      0xd03b0e49\n      eq\n      tag_18\n      jumpi\n      dup1\n      0xdb6f6c11\n      eq\n      tag_19\n      jumpi\n      dup1\n      0xdd186b3e\n      eq\n      tag_20\n      jumpi\n      dup1\n      0xe139a68f\n      eq\n      tag_21\n      jumpi\n      jump(tag_1)\n    tag_32:\n      dup1\n      0x9624eca5\n      eq\n      tag_15\n      jumpi\n      dup1\n      0x9ffb8b49\n      eq\n      tag_16\n      jumpi\n      dup1\n      0xc3f647e8\n      eq\n      tag_17\n      jumpi\n      jump(tag_1)\n    tag_29:\n      dup1\n      0x6110d500\n      gt\n      tag_33\n      jumpi\n      dup1\n      0x729c7e83\n      gt\n      tag_34\n      jumpi\n      dup1\n      0x729c7e83\n      eq\n      tag_11\n      jumpi\n      dup1\n      0x77b3f5f2\n      eq\n      tag_12\n      jumpi\n      dup1\n      0x77f27bee\n      eq\n      tag_13\n      jumpi\n      dup1\n      0x8736f1a7\n      eq\n      tag_14\n      jumpi\n      jump(tag_1)\n    tag_34:\n      dup1\n      0x6110d500\n      eq\n      tag_8\n      jumpi\n      dup1\n      0x6a99e312\n      eq\n      tag_9\n      jumpi\n      dup1\n      0x7078480a\n      eq\n      tag_10\n      jumpi\n      jump(tag_1)\n    tag_33:\n      dup1\n      0x3cc52b30\n      eq\n      tag_2\n      jumpi\n      dup1\n      0x466e3a3b\n      eq\n      tag_3\n      jumpi\n      dup1\n      0x4d03a9a5\n      eq\n      tag_4\n      jumpi\n      dup1\n      0x52ef5cef\n      eq\n      tag_5\n      jumpi\n      dup1\n      0x57f3aef7\n      eq\n      tag_6\n      jumpi\n      dup1\n      0x6032cd95\n      eq\n      tag_7\n      jumpi\n    tag_1:\n      0x00\n      dup1\n      revert\n        /* \"contracts/NFTLending.sol\":157:180  uint public CreditScore */\n    tag_2:\n      callvalue\n      dup1\n      iszero\n      tag_35\n      jumpi\n      0x00\n      dup1\n      revert\n    tag_35:\n      pop\n      tag_36\n      tag_37\n      jump\t// in\n    tag_36:\n      mload(0x40)\n      tag_38\n      swap2\n      swap1\n      tag_39\n      jump\t// in\n    tag_38:\n      mload(0x40)\n      dup1\n      swap2\n      sub\n      swap1\n      return\n        /* \"contracts/NFTLending.sol\":30706:32188  function get_collateral_required(address account, uint borrow_amount, uint loan_period) public view returns (uint) {... */\n    tag_3:\n      callvalue\n      dup1\n      iszero\n      tag_40\n      jumpi\n      0x00\n      dup1\n      revert\n    tag_40:\n      pop\n      tag_41\n      0x04\n      dup1\n      calldatasize\n      sub\n      dup2\n      add\n      swap1\n      tag_42\n      swap2\n      swap1\n      tag_43\n      jump\t// in\n    tag_42:\n      tag_44\n      jump\t// in\n    tag_41:\n      mload(0x40)\n      tag_45\n      swap2\n      swap1\n      tag_39\n      jump\t// in\n    tag_45:\n      mload(0x40)\n      dup1\n      swap2\n      sub\n      swap1\n      return\n        /* \"contracts/NFTLending.sol\":2145:2206  mapping(uint => mapping(uint => OfferMetadata)) public offers */\n    tag_4:\n      callvalue\n      dup1\n      iszero\n      tag_46\n      jumpi\n      0x00\n      dup1\n      revert\n    tag_46:\n      pop\n      tag_47\n      0x04\n      dup1\n      calldatasize\n      sub\n      dup2\n      add\n      swap1\n      tag_48\n      swap2\n      swap1\n      tag_49\n      jump\t// in\n    tag_48:\n      tag_50\n      jump\t// in\n    tag_47:\n      mload(0x40)\n      tag_51\n      swap5\n      swap4\n      swap3\n      swap2\n      swap1\n      tag_52\n      jump\t// in\n    tag_51:\n      mload(0x40)\n      dup1\n      swap2\n      sub\n      swap1\n      return\n        /* \"contracts/NFTLending.sol\":11135:12764  function cancel_loan(uint loan_id) public {... */\n    tag_5:\n      callvalue\n      dup1\n      iszero\n      tag_53\n      jumpi\n      0x00\n      dup1\n      revert\n    tag_53:\n      pop\n      tag_54\n      0x04\n      dup1\n      calldatasize\n      sub\n      dup2\n      add\n      swap1\n      tag_55\n      swap2\n      swap1\n      tag_56\n      jump\t// in\n    tag_55:\n      tag_57\n      jump\t// in\n    tag_54:\n      stop\n        /* \"contracts/NFTLending.sol\":2716:2945  function signal_erc1155_support (address operator) public view returns (bytes memory) {... */\n    tag_6:\n      callvalue\n      dup1\n      iszero\n      tag_58\n      jumpi\n      0x00\n      dup1\n      revert\n    tag_58:\n      pop\n      tag_59\n      0x04\n      dup1\n      calldatasize\n      sub\n      dup2\n      add\n      swap1\n      tag_60\n      swap2\n      swap1\n      tag_61\n      jump\t// in\n    tag_60:\n      tag_62\n      jump\t// in\n    tag_59:\n      mload(0x40)\n      tag_63\n      swap2\n      swap1\n      tag_64\n      jump\t// in\n    tag_63:\n      mload(0x40)\n      dup1\n      swap2\n      sub\n      swap1\n      return\n        /* \"contracts/NFTLending.sol\":1812:1834  uint public loan_nonce */\n    tag_7:\n      callvalue\n      dup1\n      iszero\n      tag_65\n      jumpi\n      0x00\n      dup1\n      revert\n    tag_65:\n      pop\n      tag_66\n      tag_67\n      jump\t// in\n    tag_66:\n      mload(0x40)\n      tag_68\n      swap2\n      swap1\n      tag_39\n      jump\t// in\n    tag_68:\n      mload(0x40)\n      dup1\n      swap2\n      sub\n      swap1\n      return\n        /* \"contracts/NFTLending.sol\":3174:4644  function withdraw_offer(uint loan_id) public returns (uint) {... */\n    tag_8:\n      callvalue\n      dup1\n      iszero\n      tag_69\n      jumpi\n      0x00\n      dup1\n      revert\n    tag_69:\n      pop\n      tag_70\n      0x04\n      dup1\n      calldatasize\n      sub\n      dup2\n      add\n      swap1\n      tag_71\n      swap2\n      swap1\n      tag_56\n      jump\t// in\n    tag_71:\n      tag_72\n      jump\t// in\n    tag_70:\n      mload(0x40)\n      tag_73\n      swap2\n      swap1\n      tag_39\n      jump\t// in\n    tag_73:\n      mload(0x40)\n      dup1\n      swap2\n      sub\n      swap1\n      return\n        /* \"contracts/NFTLending.sol\":8530:10071  function list_advertisement(uint token_id, uint shares_to_lock, uint amount_asked, uint loan_period) public payable returns (uint) {... */\n    tag_9:\n      tag_74\n      0x04\n      dup1\n      calldatasize\n      sub\n      dup2\n      add\n      swap1\n      tag_75\n      swap2\n      swap1\n      tag_76\n      jump\t// in\n    tag_75:\n      tag_77\n      jump\t// in\n    tag_74:\n      mload(0x40)\n      tag_78\n      swap2\n      swap1\n      tag_39\n      jump\t// in\n    tag_78:\n      mload(0x40)\n      dup1\n      swap2\n      sub\n      swap1\n      return\n        /* \"contracts/NFTLending.sol\":1886:1921  uint public cooldown_phase_duration */\n    tag_10:\n      callvalue\n      dup1\n      iszero\n      tag_79\n      jumpi\n      0x00\n      dup1\n      revert\n    tag_79:\n      pop\n      tag_80\n      tag_81\n      jump\t// in\n    tag_80:\n      mload(0x40)\n      tag_82\n      swap2\n      swap1\n      tag_39\n      jump\t// in\n    tag_82:\n      mload(0x40)\n      dup1\n      swap2\n      sub\n      swap1\n      return\n        /* \"contracts/NFTLending.sol\":13358:14892  function repay_loan(uint loan_id) public payable  {... */\n    tag_11:\n      tag_83\n      0x04\n      dup1\n      calldatasize\n      sub\n      dup2\n      add\n      swap1\n      tag_84\n      swap2\n      swap1\n      tag_56\n      jump\t// in\n    tag_84:\n      tag_85\n      jump\t// in\n    tag_83:\n      stop\n        /* \"contracts/NFTLending.sol\":10081:11088  function start_loan(uint loan_id) public {... */\n    tag_12:\n      callvalue\n      dup1\n      iszero\n      tag_86\n      jumpi\n      0x00\n      dup1\n      revert\n    tag_86:\n      pop\n      tag_87\n      0x04\n      dup1\n      calldatasize\n      sub\n      dup2\n      add\n      swap1\n      tag_88\n      swap2\n      swap1\n      tag_56\n      jump\t// in\n    tag_88:\n      tag_89\n      jump\t// in\n    tag_87:\n      stop\n        /* \"contracts/NFTLending.sol\":16799:18754  function make_offer(uint loan_id, uint interest) public payable returns (uint offer_id) {... */\n    tag_13:\n      tag_90\n      0x04\n      dup1\n      calldatasize\n      sub\n      dup2\n      add\n      swap1\n      tag_91\n      swap2\n      swap1\n      tag_49\n      jump\t// in\n    tag_91:\n      tag_92\n      jump\t// in\n    tag_90:\n      mload(0x40)\n      tag_93\n      swap2\n      swap1\n      tag_39\n      jump\t// in\n    tag_93:\n      mload(0x40)\n      dup1\n      swap2\n      sub\n      swap1\n      return\n        /* \"contracts/NFTLending.sol\":2031:2075  mapping(uint => LoanStats) public loan_stats */\n    tag_14:\n      callvalue\n      dup1\n      iszero\n      tag_94\n      jumpi\n      0x00\n      dup1\n      revert\n    tag_94:\n      pop\n      tag_95\n      0x04\n      dup1\n      calldatasize\n      sub\n      dup2\n      add\n      swap1\n      tag_96\n      swap2\n      swap1\n      tag_56\n      jump\t// in\n    tag_96:\n      tag_97\n      jump\t// in\n    tag_95:\n      mload(0x40)\n      tag_98\n      swap7\n      swap6\n      swap5\n      swap4\n      swap3\n      swap2\n      swap1\n      tag_99\n      jump\t// in\n    tag_98:\n      mload(0x40)\n      dup1\n      swap2\n      sub\n      swap1\n      return\n        /* \"contracts/NFTLending.sol\":5025:8079  function respond_to_offer(uint loan_id, uint offer_id, bool response) public  {... */\n    tag_15:\n      callvalue\n      dup1\n      iszero\n      tag_100\n      jumpi\n      0x00\n      dup1\n      revert\n    tag_100:\n      pop\n      tag_101\n      0x04\n      dup1\n      calldatasize\n      sub\n      dup2\n      add\n      swap1\n      tag_102\n      swap2\n      swap1\n      tag_103\n      jump\t// in\n    tag_102:\n      tag_104\n      jump\t// in\n    tag_101:\n      stop\n        /* \"contracts/NFTLending.sol\":83:102  uint public TokenId */\n    tag_16:\n      callvalue\n      dup1\n      iszero\n      tag_105\n      jumpi\n      0x00\n      dup1\n      revert\n    tag_105:\n      pop\n      tag_106\n      tag_107\n      jump\t// in\n    tag_106:\n      mload(0x40)\n      tag_108\n      swap2\n      swap1\n      tag_39\n      jump\t// in\n    tag_108:\n      mload(0x40)\n      dup1\n      swap2\n      sub\n      swap1\n      return\n        /* \"contracts/NFTLending.sol\":12929:13312  function get_cancellation_charges() public pure returns (uint) {... */\n    tag_17:\n      callvalue\n      dup1\n      iszero\n      tag_109\n      jumpi\n      0x00\n      dup1\n      revert\n    tag_109:\n      pop\n      tag_110\n      tag_111\n      jump\t// in\n    tag_110:\n      mload(0x40)\n      tag_112\n      swap2\n      swap1\n      tag_39\n      jump\t// in\n    tag_112:\n      mload(0x40)\n      dup1\n      swap2\n      sub\n      swap1\n      return\n        /* \"contracts/NFTLending.sol\":1773:1802  address public fractionalizer */\n    tag_18:\n      callvalue\n      dup1\n      iszero\n      tag_113\n      jumpi\n      0x00\n      dup1\n      revert\n    tag_113:\n      pop\n      tag_114\n      tag_115\n      jump\t// in\n    tag_114:\n      mload(0x40)\n      tag_116\n      swap2\n      swap1\n      tag_117\n      jump\t// in\n    tag_116:\n      mload(0x40)\n      dup1\n      swap2\n      sub\n      swap1\n      return\n        /* \"contracts/NFTLending.sol\":108:126  uint public LoanId */\n    tag_19:\n      callvalue\n      dup1\n      iszero\n      tag_118\n      jumpi\n      0x00\n      dup1\n      revert\n    tag_118:\n      pop\n      tag_119\n      tag_120\n      jump\t// in\n    tag_119:\n      mload(0x40)\n      tag_121\n      swap2\n      swap1\n      tag_39\n      jump\t// in\n    tag_121:\n      mload(0x40)\n      dup1\n      swap2\n      sub\n      swap1\n      return\n        /* \"contracts/NFTLending.sol\":2094:2135  mapping(uint => uint) public offers_nonce */\n    tag_20:\n      callvalue\n      dup1\n      iszero\n      tag_122\n      jumpi\n      0x00\n      dup1\n      revert\n    tag_122:\n      pop\n      tag_123\n      0x04\n      dup1\n      calldatasize\n      sub\n      dup2\n      add\n      swap1\n      tag_124\n      swap2\n      swap1\n      tag_56\n      jump\t// in\n    tag_124:\n      tag_125\n      jump\t// in\n    tag_123:\n      mload(0x40)\n      tag_126\n      swap2\n      swap1\n      tag_39\n      jump\t// in\n    tag_126:\n      mload(0x40)\n      dup1\n      swap2\n      sub\n      swap1\n      return\n        /* \"contracts/NFTLending.sol\":132:151  uint public OfferId */\n    tag_21:\n      callvalue\n      dup1\n      iszero\n      tag_127\n      jumpi\n      0x00\n      dup1\n      revert\n    tag_127:\n      pop\n      tag_128\n      tag_129\n      jump\t// in\n    tag_128:\n      mload(0x40)\n      tag_130\n      swap2\n      swap1\n      tag_39\n      jump\t// in\n    tag_130:\n      mload(0x40)\n      dup1\n      swap2\n      sub\n      swap1\n      return\n        /* \"contracts/NFTLending.sol\":1979:2021  mapping(uint => LoanMetadata) public loans */\n    tag_22:\n      callvalue\n      dup1\n      iszero\n      tag_131\n      jumpi\n      0x00\n      dup1\n      revert\n    tag_131:\n      pop\n      tag_132\n      0x04\n      dup1\n      calldatasize\n      sub\n      dup2\n      add\n      swap1\n      tag_133\n      swap2\n      swap1\n      tag_56\n      jump\t// in\n    tag_133:\n      tag_134\n      jump\t// in\n    tag_132:\n      mload(0x40)\n      tag_135\n      swap8\n      swap7\n      swap6\n      swap5\n      swap4\n      swap3\n      swap2\n      swap1\n      tag_136\n      jump\t// in\n    tag_135:\n      mload(0x40)\n      dup1\n      swap2\n      sub\n      swap1\n      return\n        /* \"contracts/NFTLending.sol\":18994:19411  function is_offer_phase(uint loan_id) public view returns (bool) {... */\n    tag_23:\n      callvalue\n      dup1\n      iszero\n      tag_137\n      jumpi\n      0x00\n      dup1\n      revert\n    tag_137:\n      pop\n      tag_138\n      0x04\n      dup1\n      calldatasize\n      sub\n      dup2\n      add\n      swap1\n      tag_139\n      swap2\n      swap1\n      tag_56\n      jump\t// in\n    tag_139:\n      tag_140\n      jump\t// in\n    tag_138:\n      mload(0x40)\n      tag_141\n      swap2\n      swap1\n      tag_142\n      jump\t// in\n    tag_141:\n      mload(0x40)\n      dup1\n      swap2\n      sub\n      swap1\n      return\n        /* \"contracts/NFTLending.sol\":15120:16499  function claim_loan_default(uint loan_id) public {... */\n    tag_24:\n      callvalue\n      dup1\n      iszero\n      tag_143\n      jumpi\n      0x00\n      dup1\n      revert\n    tag_143:\n      pop\n      tag_144\n      0x04\n      dup1\n      calldatasize\n      sub\n      dup2\n      add\n      swap1\n      tag_145\n      swap2\n      swap1\n      tag_56\n      jump\t// in\n    tag_145:\n      tag_146\n      jump\t// in\n    tag_144:\n      stop\n        /* \"contracts/NFTLending.sol\":1743:1763  address public admin */\n    tag_25:\n      callvalue\n      dup1\n      iszero\n      tag_147\n      jumpi\n      0x00\n      dup1\n      revert\n    tag_147:\n      pop\n      tag_148\n      tag_149\n      jump\t// in\n    tag_148:\n      mload(0x40)\n      tag_150\n      swap2\n      swap1\n      tag_117\n      jump\t// in\n    tag_150:\n      mload(0x40)\n      dup1\n      swap2\n      sub\n      swap1\n      return\n        /* \"contracts/NFTLending.sol\":186:202  uint public Time */\n    tag_26:\n      callvalue\n      dup1\n      iszero\n      tag_151\n      jumpi\n      0x00\n      dup1\n      revert\n    tag_151:\n      pop\n      tag_152\n      tag_153\n      jump\t// in\n    tag_152:\n      mload(0x40)\n      tag_154\n      swap2\n      swap1\n      tag_39\n      jump\t// in\n    tag_154:\n      mload(0x40)\n      dup1\n      swap2\n      sub\n      swap1\n      return\n        /* \"contracts/NFTLending.sol\":1844:1876  uint public offer_phase_duration */\n    tag_27:\n      callvalue\n      dup1\n      iszero\n      tag_155\n      jumpi\n      0x00\n      dup1\n      revert\n    tag_155:\n      pop\n      tag_156\n      tag_157\n      jump\t// in\n    tag_156:\n      mload(0x40)\n      tag_158\n      swap2\n      swap1\n      tag_39\n      jump\t// in\n    tag_158:\n      mload(0x40)\n      dup1\n      swap2\n      sub\n      swap1\n      return\n        /* \"contracts/NFTLending.sol\":2216:2280  mapping(uint => mapping(address => uint)) public active_offer_id */\n    tag_28:\n      callvalue\n      dup1\n      iszero\n      tag_159\n      jumpi\n      0x00\n      dup1\n      revert\n    tag_159:\n      pop\n      tag_160\n      0x04\n      dup1\n      calldatasize\n      sub\n      dup2\n      add\n      swap1\n      tag_161\n      swap2\n      swap1\n      tag_162\n      jump\t// in\n    tag_161:\n      tag_163\n      jump\t// in\n    tag_160:\n      mload(0x40)\n      tag_164\n      swap2\n      swap1\n      tag_39\n      jump\t// in\n    tag_164:\n      mload(0x40)\n      dup1\n      swap2\n      sub\n      swap1\n      return\n        /* \"contracts/NFTLending.sol\":157:180  uint public CreditScore */\n    tag_37:\n      sload(0x03)\n      dup2\n      jump\t// out\n        /* \"contracts/NFTLending.sol\":30706:32188  function get_collateral_required(address account, uint borrow_amount, uint loan_period) public view returns (uint) {... */\n    tag_44:\n        /* \"contracts/NFTLending.sol\":30815:30819  uint */\n      0x00\n        /* \"contracts/NFTLending.sol\":30882:30892  uint score */\n      dup1\n        /* \"contracts/NFTLending.sol\":30895:30907  credit_score */\n      0x0a\n        /* \"contracts/NFTLending.sol\":30895:30916  credit_score[account] */\n      0x00\n        /* \"contracts/NFTLending.sol\":30908:30915  account */\n      dup7\n        /* \"contracts/NFTLending.sol\":30895:30916  credit_score[account] */\n      0xffffffffffffffffffffffffffffffffffffffff\n      and\n      0xffffffffffffffffffffffffffffffffffffffff\n      and\n      dup2\n      mstore\n      0x20\n      add\n      swap1\n      dup2\n      mstore\n      0x20\n      add\n      0x00\n      keccak256\n      sload\n        /* \"contracts/NFTLending.sol\":30882:30916  uint score = credit_score[account] */\n      swap1\n      pop\n        /* \"contracts/NFTLending.sol\":31001:31004  100 */\n      0x64\n        /* \"contracts/NFTLending.sol\":30993:30998  score */\n      dup2\n        /* \"contracts/NFTLending.sol\":30993:31004  score < 100 */\n      lt\n        /* \"contracts/NFTLending.sol\":30989:31184  if (score < 100) {... */\n      iszero\n      tag_166\n      jumpi\n        /* \"contracts/NFTLending.sol\":31156:31169  borrow_amount */\n      dup4\n        /* \"contracts/NFTLending.sol\":31149:31169  return borrow_amount */\n      swap2\n      pop\n      pop\n      jump(tag_165)\n        /* \"contracts/NFTLending.sol\":30989:31184  if (score < 100) {... */\n    tag_166:\n        /* \"contracts/NFTLending.sol\":31243:31256  uint DECIMALS */\n      0x00\n        /* \"contracts/NFTLending.sol\":31259:31264  10000 */\n      0x2710\n        /* \"contracts/NFTLending.sol\":31243:31264  uint DECIMALS = 10000 */\n      swap1\n      pop\n        /* \"contracts/NFTLending.sol\":31332:31351  uint PER_DAY_CHARGE */\n      0x00\n        /* \"contracts/NFTLending.sol\":31354:31355  1 */\n      0x01\n        /* \"contracts/NFTLending.sol\":31332:31355  uint PER_DAY_CHARGE = 1 */\n      swap1\n      pop\n        /* \"contracts/NFTLending.sol\":31428:31436  uint DAY */\n      0x00\n        /* \"contracts/NFTLending.sol\":31439:31447  86400000 */\n      0x05265c00\n        /* \"contracts/NFTLending.sol\":31428:31447  uint DAY = 86400000 */\n      swap1\n      pop\n        /* \"contracts/NFTLending.sol\":31581:31600  uint borrow_percent */\n      0x00\n        /* \"contracts/NFTLending.sol\":31631:31636  score */\n      dup5\n        /* \"contracts/NFTLending.sol\":31622:31627  score */\n      dup6\n        /* \"contracts/NFTLending.sol\":31618:31619  3 */\n      0x03\n        /* \"contracts/NFTLending.sol\":31618:31627  3 * score */\n      tag_167\n      swap2\n      swap1\n      tag_168\n      jump\t// in\n    tag_167:\n        /* \"contracts/NFTLending.sol\":31611:31615  4000 */\n      0x0fa0\n        /* \"contracts/NFTLending.sol\":31611:31627  4000 - 3 * score */\n      tag_169\n      swap2\n      swap1\n      tag_170\n      jump\t// in\n    tag_169:\n        /* \"contracts/NFTLending.sol\":31604:31607  100 */\n      0x64\n        /* \"contracts/NFTLending.sol\":31604:31628  100 * (4000 - 3 * score) */\n      tag_171\n      swap2\n      swap1\n      tag_168\n      jump\t// in\n    tag_171:\n        /* \"contracts/NFTLending.sol\":31604:31636  100 * (4000 - 3 * score) / score */\n      tag_172\n      swap2\n      swap1\n      tag_173\n      jump\t// in\n    tag_172:\n        /* \"contracts/NFTLending.sol\":31581:31637  uint borrow_percent = (100 * (4000 - 3 * score) / score) */\n      swap1\n      pop\n        /* \"contracts/NFTLending.sol\":31724:31743  uint period_percent */\n      0x00\n        /* \"contracts/NFTLending.sol\":31779:31782  DAY */\n      dup3\n        /* \"contracts/NFTLending.sol\":31761:31775  PER_DAY_CHARGE */\n      dup5\n        /* \"contracts/NFTLending.sol\":31747:31758  loan_period */\n      dup10\n        /* \"contracts/NFTLending.sol\":31747:31775  loan_period * PER_DAY_CHARGE */\n      tag_174\n      swap2\n      swap1\n      tag_168\n      jump\t// in\n    tag_174:\n        /* \"contracts/NFTLending.sol\":31746:31782  (loan_period * PER_DAY_CHARGE) / DAY */\n      tag_175\n      swap2\n      swap1\n      tag_173\n      jump\t// in\n    tag_175:\n        /* \"contracts/NFTLending.sol\":31724:31782  uint period_percent = (loan_period * PER_DAY_CHARGE) / DAY */\n      swap1\n      pop\n        /* \"contracts/NFTLending.sol\":31944:31962  uint total_percent */\n      0x00\n        /* \"contracts/NFTLending.sol\":31982:31996  period_percent */\n      dup2\n        /* \"contracts/NFTLending.sol\":31965:31979  borrow_percent */\n      dup4\n        /* \"contracts/NFTLending.sol\":31965:31996  borrow_percent + period_percent */\n      tag_176\n      swap2\n      swap1\n      tag_177\n      jump\t// in\n    tag_176:\n        /* \"contracts/NFTLending.sol\":31944:31996  uint total_percent = borrow_percent + period_percent */\n      swap1\n      pop\n        /* \"contracts/NFTLending.sol\":32090:32103  uint security */\n      0x00\n        /* \"contracts/NFTLending.sol\":32140:32148  DECIMALS */\n      dup7\n        /* \"contracts/NFTLending.sol\":32123:32136  total_percent */\n      dup3\n        /* \"contracts/NFTLending.sol\":32107:32120  borrow_amount */\n      dup13\n        /* \"contracts/NFTLending.sol\":32107:32136  borrow_amount * total_percent */\n      tag_178\n      swap2\n      swap1\n      tag_168\n      jump\t// in\n    tag_178:\n        /* \"contracts/NFTLending.sol\":32106:32148  (borrow_amount * total_percent) / DECIMALS */\n      tag_179\n      swap2\n      swap1\n      tag_173\n      jump\t// in\n    tag_179:\n        /* \"contracts/NFTLending.sol\":32090:32148  uint security = (borrow_amount * total_percent) / DECIMALS */\n      swap1\n      pop\n        /* \"contracts/NFTLending.sol\":32169:32177  security */\n      dup1\n        /* \"contracts/NFTLending.sol\":32162:32177  return security */\n      swap9\n      pop\n      pop\n      pop\n      pop\n      pop\n      pop\n      pop\n      pop\n      pop\n        /* \"contracts/NFTLending.sol\":30706:32188  function get_collateral_required(address account, uint borrow_amount, uint loan_period) public view returns (uint) {... */\n    tag_165:\n      swap4\n      swap3\n      pop\n      pop\n      pop\n      jump\t// out\n        /* \"contracts/NFTLending.sol\":2145:2206  mapping(uint => mapping(uint => OfferMetadata)) public offers */\n    tag_50:\n      mstore(0x20, 0x0e)\n      dup2\n      0x00\n      mstore\n      mstore(0x20, keccak256(0x00, 0x40))\n      dup1\n      0x00\n      mstore\n      keccak256(0x00, 0x40)\n      0x00\n      swap2\n      pop\n      swap2\n      pop\n      pop\n      dup1\n      0x00\n      add\n      0x00\n      swap1\n      sload\n      swap1\n      0x0100\n      exp\n      swap1\n      div\n      0xffffffffffffffffffffffffffffffffffffffff\n      and\n      swap1\n      dup1\n      0x01\n      add\n      sload\n      swap1\n      dup1\n      0x02\n      add\n      sload\n      swap1\n      dup1\n      0x03\n      add\n      0x00\n      swap1\n      sload\n      swap1\n      0x0100\n      exp\n      swap1\n      div\n      0xff\n      and\n      swap1\n      pop\n      dup5\n      jump\t// out\n        /* \"contracts/NFTLending.sol\":11135:12764  function cancel_loan(uint loan_id) public {... */\n    tag_57:\n        /* \"contracts/NFTLending.sol\":11191:11205  address caller */\n      0x00\n        /* \"contracts/NFTLending.sol\":11208:11218  msg.sender */\n      caller\n        /* \"contracts/NFTLending.sol\":11191:11218  address caller = msg.sender */\n      swap1\n      pop\n        /* \"contracts/NFTLending.sol\":11316:11350  LoanMetadata storage loan_metadata */\n      0x00\n        /* \"contracts/NFTLending.sol\":11353:11358  loans */\n      0x0b\n        /* \"contracts/NFTLending.sol\":11353:11367  loans[loan_id] */\n      0x00\n        /* \"contracts/NFTLending.sol\":11359:11366  loan_id */\n      dup5\n        /* \"contracts/NFTLending.sol\":11353:11367  loans[loan_id] */\n      dup2\n      mstore\n      0x20\n      add\n      swap1\n      dup2\n      mstore\n      0x20\n      add\n      0x00\n      keccak256\n        /* \"contracts/NFTLending.sol\":11316:11367  LoanMetadata storage loan_metadata = loans[loan_id] */\n      swap1\n      pop\n        /* \"contracts/NFTLending.sol\":11381:11411  LoanStats storage loan_stats_4 */\n      0x00\n        /* \"contracts/NFTLending.sol\":11414:11424  loan_stats */\n      0x0c\n        /* \"contracts/NFTLending.sol\":11414:11433  loan_stats[loan_id] */\n      0x00\n        /* \"contracts/NFTLending.sol\":11425:11432  loan_id */\n      dup6\n        /* \"contracts/NFTLending.sol\":11414:11433  loan_stats[loan_id] */\n      dup2\n      mstore\n      0x20\n      add\n      swap1\n      dup2\n      mstore\n      0x20\n      add\n      0x00\n      keccak256\n        /* \"contracts/NFTLending.sol\":11381:11433  LoanStats storage loan_stats_4 = loan_stats[loan_id] */\n      swap1\n      pop\n        /* \"contracts/NFTLending.sol\":11448:11457  uint time */\n      0x00\n        /* \"contracts/NFTLending.sol\":11465:11480  block.timestamp */\n      timestamp\n        /* \"contracts/NFTLending.sol\":11448:11481  uint time = uint(block.timestamp) */\n      swap1\n      pop\n        /* \"contracts/NFTLending.sol\":11495:11513  uint cooldown_time */\n      0x00\n        /* \"contracts/NFTLending.sol\":11573:11596  cooldown_phase_duration */\n      sload(0x09)\n        /* \"contracts/NFTLending.sol\":11550:11570  offer_phase_duration */\n      sload(0x08)\n        /* \"contracts/NFTLending.sol\":11516:11529  loan_metadata */\n      dup6\n        /* \"contracts/NFTLending.sol\":11516:11547  loan_metadata.listing_timestamp */\n      0x06\n      add\n      sload\n        /* \"contracts/NFTLending.sol\":11516:11570  loan_metadata.listing_timestamp + offer_phase_duration */\n      tag_181\n      swap2\n      swap1\n      tag_177\n      jump\t// in\n    tag_181:\n        /* \"contracts/NFTLending.sol\":11516:11596  loan_metadata.listing_timestamp + offer_phase_duration + cooldown_phase_duration */\n      tag_182\n      swap2\n      swap1\n      tag_177\n      jump\t// in\n    tag_182:\n        /* \"contracts/NFTLending.sol\":11495:11596  uint cooldown_time = loan_metadata.listing_timestamp + offer_phase_duration + cooldown_phase_duration */\n      swap1\n      pop\n        /* \"contracts/NFTLending.sol\":11717:11730  cooldown_time */\n      dup1\n        /* \"contracts/NFTLending.sol\":11710:11714  time */\n      dup3\n        /* \"contracts/NFTLending.sol\":11710:11730  time > cooldown_time */\n      gt\n        /* \"contracts/NFTLending.sol\":11710:11766  time > cooldown_time || caller == loan_metadata.borrower */\n      dup1\n      tag_183\n      jumpi\n      pop\n        /* \"contracts/NFTLending.sol\":11744:11757  loan_metadata */\n      dup4\n        /* \"contracts/NFTLending.sol\":11744:11766  loan_metadata.borrower */\n      0x00\n      add\n      0x00\n      swap1\n      sload\n      swap1\n      0x0100\n      exp\n      swap1\n      div\n      0xffffffffffffffffffffffffffffffffffffffff\n      and\n        /* \"contracts/NFTLending.sol\":11734:11766  caller == loan_metadata.borrower */\n      0xffffffffffffffffffffffffffffffffffffffff\n      and\n        /* \"contracts/NFTLending.sol\":11734:11740  caller */\n      dup6\n        /* \"contracts/NFTLending.sol\":11734:11766  caller == loan_metadata.borrower */\n      0xffffffffffffffffffffffffffffffffffffffff\n      and\n      eq\n        /* \"contracts/NFTLending.sol\":11710:11766  time > cooldown_time || caller == loan_metadata.borrower */\n    tag_183:\n        /* \"contracts/NFTLending.sol\":11702:11784  require(time > cooldown_time || caller == loan_metadata.borrower, \"NotAuthorized\") */\n      tag_184\n      jumpi\n      mload(0x40)\n      0x08c379a000000000000000000000000000000000000000000000000000000000\n      dup2\n      mstore\n      0x04\n      add\n      tag_185\n      swap1\n      tag_186\n      jump\t// in\n    tag_185:\n      mload(0x40)\n      dup1\n      swap2\n      sub\n      swap1\n      revert\n    tag_184:\n        /* \"contracts/NFTLending.sol\":11834:11849  LoanStatus.OPEN */\n      0x00\n        /* \"contracts/NFTLending.sol\":11806:11849  loan_stats_4.loan_status == LoanStatus.OPEN */\n      0x03\n      dup2\n      gt\n      iszero\n      tag_187\n      jumpi\n      tag_188\n      tag_189\n      jump\t// in\n    tag_188:\n    tag_187:\n        /* \"contracts/NFTLending.sol\":11806:11818  loan_stats_4 */\n      dup4\n        /* \"contracts/NFTLending.sol\":11806:11830  loan_stats_4.loan_status */\n      0x05\n      add\n      0x00\n      swap1\n      sload\n      swap1\n      0x0100\n      exp\n      swap1\n      div\n      0xff\n      and\n        /* \"contracts/NFTLending.sol\":11806:11849  loan_stats_4.loan_status == LoanStatus.OPEN */\n      0x03\n      dup2\n      gt\n      iszero\n      tag_190\n      jumpi\n      tag_191\n      tag_189\n      jump\t// in\n    tag_191:\n    tag_190:\n      eq\n        /* \"contracts/NFTLending.sol\":11798:11867  require(loan_stats_4.loan_status == LoanStatus.OPEN, \"LoanIsNotOpen\") */\n      tag_192\n      jumpi\n      mload(0x40)\n      0x08c379a000000000000000000000000000000000000000000000000000000000\n      dup2\n      mstore\n      0x04\n      add\n      tag_193\n      swap1\n      tag_194\n      jump\t// in\n    tag_193:\n      mload(0x40)\n      dup1\n      swap2\n      sub\n      swap1\n      revert\n    tag_192:\n        /* \"contracts/NFTLending.sol\":11978:12003  uint cancellation_charges */\n      0x00\n        /* \"contracts/NFTLending.sol\":12006:12032  get_cancellation_charges() */\n      tag_195\n        /* \"contracts/NFTLending.sol\":12006:12030  get_cancellation_charges */\n      tag_111\n        /* \"contracts/NFTLending.sol\":12006:12032  get_cancellation_charges() */\n      jump\t// in\n    tag_195:\n        /* \"contracts/NFTLending.sol\":11978:12032  uint cancellation_charges = get_cancellation_charges() */\n      swap1\n      pop\n        /* \"contracts/NFTLending.sol\":12046:12057  uint amount */\n      0x00\n        /* \"contracts/NFTLending.sol\":12093:12113  cancellation_charges */\n      dup2\n        /* \"contracts/NFTLending.sol\":12060:12073  loan_metadata */\n      dup7\n        /* \"contracts/NFTLending.sol\":12060:12090  loan_metadata.security_deposit */\n      0x04\n      add\n      sload\n        /* \"contracts/NFTLending.sol\":12060:12113  loan_metadata.security_deposit - cancellation_charges */\n      tag_196\n      swap2\n      swap1\n      tag_170\n      jump\t// in\n    tag_196:\n        /* \"contracts/NFTLending.sol\":12046:12113  uint amount = loan_metadata.security_deposit - cancellation_charges */\n      swap1\n      pop\n        /* \"contracts/NFTLending.sol\":12270:12271  0 */\n      0x00\n        /* \"contracts/NFTLending.sol\":12261:12267  amount */\n      dup2\n        /* \"contracts/NFTLending.sol\":12261:12271  amount > 0 */\n      gt\n        /* \"contracts/NFTLending.sol\":12261:12320  amount > 0 && !payable(loan_metadata.borrower).send(amount) */\n      dup1\n      iszero\n      tag_197\n      jumpi\n      pop\n        /* \"contracts/NFTLending.sol\":12284:12297  loan_metadata */\n      dup6\n        /* \"contracts/NFTLending.sol\":12284:12306  loan_metadata.borrower */\n      0x00\n      add\n      0x00\n      swap1\n      sload\n      swap1\n      0x0100\n      exp\n      swap1\n      div\n      0xffffffffffffffffffffffffffffffffffffffff\n      and\n        /* \"contracts/NFTLending.sol\":12276:12312  payable(loan_metadata.borrower).send */\n      0xffffffffffffffffffffffffffffffffffffffff\n      and\n        /* \"contracts/NFTLending.sol\":12276:12320  payable(loan_metadata.borrower).send(amount) */\n      0x08fc\n        /* \"contracts/NFTLending.sol\":12313:12319  amount */\n      dup3\n        /* \"contracts/NFTLending.sol\":12276:12320  payable(loan_metadata.borrower).send(amount) */\n      swap1\n      dup2\n      iszero\n      mul\n      swap1\n      mload(0x40)\n      0x00\n      mload(0x40)\n      dup1\n      dup4\n      sub\n      dup2\n      dup6\n      dup9\n      dup9\n      call\n      swap4\n      pop\n      pop\n      pop\n      pop\n        /* \"contracts/NFTLending.sol\":12275:12320  !payable(loan_metadata.borrower).send(amount) */\n      iszero\n        /* \"contracts/NFTLending.sol\":12261:12320  amount > 0 && !payable(loan_metadata.borrower).send(amount) */\n    tag_197:\n        /* \"contracts/NFTLending.sol\":12257:12379  if (amount > 0 && !payable(loan_metadata.borrower).send(amount)) {... */\n      iszero\n      tag_199\n      jumpi\n        /* \"contracts/NFTLending.sol\":12340:12364  revert(\"WithdrawFailed\") */\n      mload(0x40)\n      0x08c379a000000000000000000000000000000000000000000000000000000000\n      dup2\n      mstore\n      0x04\n      add\n      tag_200\n      swap1\n      tag_201\n      jump\t// in\n    tag_200:\n      mload(0x40)\n      dup1\n      swap2\n      sub\n      swap1\n      revert\n        /* \"contracts/NFTLending.sol\":12257:12379  if (amount > 0 && !payable(loan_metadata.borrower).send(amount)) {... */\n    tag_199:\n        /* \"contracts/NFTLending.sol\":12456:12486  ref_reject_all_offers(loan_id) */\n      tag_202\n        /* \"contracts/NFTLending.sol\":12478:12485  loan_id */\n      dup9\n        /* \"contracts/NFTLending.sol\":12456:12477  ref_reject_all_offers */\n      tag_203\n        /* \"contracts/NFTLending.sol\":12456:12486  ref_reject_all_offers(loan_id) */\n      jump\t// in\n    tag_202:\n        /* \"contracts/NFTLending.sol\":12564:12589  transfer_fractional_nft() */\n      tag_204\n        /* \"contracts/NFTLending.sol\":12564:12587  transfer_fractional_nft */\n      tag_205\n        /* \"contracts/NFTLending.sol\":12564:12589  transfer_fractional_nft() */\n      jump\t// in\n    tag_204:\n        /* \"contracts/NFTLending.sol\":12684:12704  LoanStatus.CANCELLED */\n      0x03\n        /* \"contracts/NFTLending.sol\":12657:12669  loan_stats_4 */\n      dup6\n        /* \"contracts/NFTLending.sol\":12657:12681  loan_stats_4.loan_status */\n      0x05\n      add\n      0x00\n        /* \"contracts/NFTLending.sol\":12657:12704  loan_stats_4.loan_status = LoanStatus.CANCELLED */\n      0x0100\n      exp\n      dup2\n      sload\n      dup2\n      0xff\n      mul\n      not\n      and\n      swap1\n      dup4\n      0x03\n      dup2\n      gt\n      iszero\n      tag_206\n      jumpi\n      tag_207\n      tag_189\n      jump\t// in\n    tag_207:\n    tag_206:\n      mul\n      or\n      swap1\n      sstore\n      pop\n        /* \"contracts/NFTLending.sol\":12740:12752  loan_stats_4 */\n      dup5\n        /* \"contracts/NFTLending.sol\":12718:12728  loan_stats */\n      0x0c\n        /* \"contracts/NFTLending.sol\":12718:12737  loan_stats[loan_id] */\n      0x00\n        /* \"contracts/NFTLending.sol\":12729:12736  loan_id */\n      dup11\n        /* \"contracts/NFTLending.sol\":12718:12737  loan_stats[loan_id] */\n      dup2\n      mstore\n      0x20\n      add\n      swap1\n      dup2\n      mstore\n      0x20\n      add\n      0x00\n      keccak256\n        /* \"contracts/NFTLending.sol\":12718:12752  loan_stats[loan_id] = loan_stats_4 */\n      0x00\n      dup3\n      add\n      sload\n      dup2\n      0x00\n      add\n      sstore\n      0x01\n      dup3\n      add\n      sload\n      dup2\n      0x01\n      add\n      sstore\n      0x02\n      dup3\n      add\n      sload\n      dup2\n      0x02\n      add\n      sstore\n      0x03\n      dup3\n      add\n      sload\n      dup2\n      0x03\n      add\n      sstore\n      0x04\n      dup3\n      add\n      sload\n      dup2\n      0x04\n      add\n      sstore\n      0x05\n      dup3\n      add\n      0x00\n      swap1\n      sload\n      swap1\n      0x0100\n      exp\n      swap1\n      div\n      0xff\n      and\n      dup2\n      0x05\n      add\n      exp(0x0100, 0x00)\n      dup2\n      sload\n      dup2\n      0xff\n      mul\n      not\n      and\n      swap1\n      dup4\n      0x03\n      dup2\n      gt\n      iszero\n      tag_208\n      jumpi\n      tag_209\n      tag_189\n      jump\t// in\n    tag_209:\n    tag_208:\n      mul\n      or\n      swap1\n      sstore\n      pop\n      swap1\n      pop\n      pop\n        /* \"contracts/NFTLending.sol\":11177:12764  {... */\n      pop\n      pop\n      pop\n      pop\n      pop\n      pop\n      pop\n        /* \"contracts/NFTLending.sol\":11135:12764  function cancel_loan(uint loan_id) public {... */\n      pop\n      jump\t// out\n        /* \"contracts/NFTLending.sol\":2716:2945  function signal_erc1155_support (address operator) public view returns (bytes memory) {... */\n    tag_62:\n        /* \"contracts/NFTLending.sol\":2788:2800  bytes memory */\n      0x60\n        /* \"contracts/NFTLending.sol\":2840:2850  msg.sender */\n      caller\n        /* \"contracts/NFTLending.sol\":2828:2850  operator == msg.sender */\n      0xffffffffffffffffffffffffffffffffffffffff\n      and\n        /* \"contracts/NFTLending.sol\":2828:2836  operator */\n      dup3\n        /* \"contracts/NFTLending.sol\":2828:2850  operator == msg.sender */\n      0xffffffffffffffffffffffffffffffffffffffff\n      and\n      eq\n        /* \"contracts/NFTLending.sol\":2820:2851  require(operator == msg.sender) */\n      tag_211\n      jumpi\n      0x00\n      dup1\n      revert\n    tag_211:\n        /* \"contracts/NFTLending.sol\":2869:2883  return hex\"00\" */\n      mload(0x40)\n      dup1\n      0x40\n      add\n      0x40\n      mstore\n      dup1\n      0x01\n      dup2\n      mstore\n      0x20\n      add\n      0x00\n      dup2\n      mstore\n      pop\n      swap1\n      pop\n        /* \"contracts/NFTLending.sol\":2716:2945  function signal_erc1155_support (address operator) public view returns (bytes memory) {... */\n      swap2\n      swap1\n      pop\n      jump\t// out\n        /* \"contracts/NFTLending.sol\":1812:1834  uint public loan_nonce */\n    tag_67:\n      sload(0x07)\n      dup2\n      jump\t// out\n        /* \"contracts/NFTLending.sol\":3174:4644  function withdraw_offer(uint loan_id) public returns (uint) {... */\n    tag_72:\n        /* \"contracts/NFTLending.sol\":3228:3232  uint */\n      0x00\n        /* \"contracts/NFTLending.sol\":3288:3302  address caller */\n      dup1\n        /* \"contracts/NFTLending.sol\":3305:3315  msg.sender */\n      caller\n        /* \"contracts/NFTLending.sol\":3288:3315  address caller = msg.sender */\n      swap1\n      pop\n        /* \"contracts/NFTLending.sol\":3382:3415  LoanMetadata memory loan_metadata */\n      0x00\n        /* \"contracts/NFTLending.sol\":3418:3423  loans */\n      0x0b\n        /* \"contracts/NFTLending.sol\":3418:3432  loans[loan_id] */\n      0x00\n        /* \"contracts/NFTLending.sol\":3424:3431  loan_id */\n      dup6\n        /* \"contracts/NFTLending.sol\":3418:3432  loans[loan_id] */\n      dup2\n      mstore\n      0x20\n      add\n      swap1\n      dup2\n      mstore\n      0x20\n      add\n      0x00\n      keccak256\n        /* \"contracts/NFTLending.sol\":3382:3432  LoanMetadata memory loan_metadata = loans[loan_id] */\n      mload(0x40)\n      dup1\n      0xe0\n      add\n      0x40\n      mstore\n      swap1\n      dup2\n      0x00\n      dup3\n      add\n      0x00\n      swap1\n      sload\n      swap1\n      0x0100\n      exp\n      swap1\n      div\n      0xffffffffffffffffffffffffffffffffffffffff\n      and\n      0xffffffffffffffffffffffffffffffffffffffff\n      and\n      0xffffffffffffffffffffffffffffffffffffffff\n      and\n      dup2\n      mstore\n      0x20\n      add\n      0x01\n      dup3\n      add\n      sload\n      dup2\n      mstore\n      0x20\n      add\n      0x02\n      dup3\n      add\n      sload\n      dup2\n      mstore\n      0x20\n      add\n      0x03\n      dup3\n      add\n      sload\n      dup2\n      mstore\n      0x20\n      add\n      0x04\n      dup3\n      add\n      sload\n      dup2\n      mstore\n      0x20\n      add\n      0x05\n      dup3\n      add\n      sload\n      dup2\n      mstore\n      0x20\n      add\n      0x06\n      dup3\n      add\n      sload\n      dup2\n      mstore\n      pop\n      pop\n      swap1\n      pop\n        /* \"contracts/NFTLending.sol\":3446:3475  LoanStats memory loan_stats_0 */\n      0x00\n        /* \"contracts/NFTLending.sol\":3478:3488  loan_stats */\n      0x0c\n        /* \"contracts/NFTLending.sol\":3478:3497  loan_stats[loan_id] */\n      0x00\n        /* \"contracts/NFTLending.sol\":3489:3496  loan_id */\n      dup7\n        /* \"contracts/NFTLending.sol\":3478:3497  loan_stats[loan_id] */\n      dup2\n      mstore\n      0x20\n      add\n      swap1\n      dup2\n      mstore\n      0x20\n      add\n      0x00\n      keccak256\n        /* \"contracts/NFTLending.sol\":3446:3497  LoanStats memory loan_stats_0 = loan_stats[loan_id] */\n      mload(0x40)\n      dup1\n      0xc0\n      add\n      0x40\n      mstore\n      swap1\n      dup2\n      0x00\n      dup3\n      add\n      sload\n      dup2\n      mstore\n      0x20\n      add\n      0x01\n      dup3\n      add\n      sload\n      dup2\n      mstore\n      0x20\n      add\n      0x02\n      dup3\n      add\n      sload\n      dup2\n      mstore\n      0x20\n      add\n      0x03\n      dup3\n      add\n      sload\n      dup2\n      mstore\n      0x20\n      add\n      0x04\n      dup3\n      add\n      sload\n      dup2\n      mstore\n      0x20\n      add\n      0x05\n      dup3\n      add\n      0x00\n      swap1\n      sload\n      swap1\n      0x0100\n      exp\n      swap1\n      div\n      0xff\n      and\n      0x03\n      dup2\n      gt\n      iszero\n      tag_213\n      jumpi\n      tag_214\n      tag_189\n      jump\t// in\n    tag_214:\n    tag_213:\n      0x03\n      dup2\n      gt\n      iszero\n      tag_215\n      jumpi\n      tag_216\n      tag_189\n      jump\t// in\n    tag_216:\n    tag_215:\n      dup2\n      mstore\n      pop\n      pop\n      swap1\n      pop\n        /* \"contracts/NFTLending.sol\":3602:3649  ref_is_offer_phase(loan_metadata, loan_stats_0) */\n      tag_217\n        /* \"contracts/NFTLending.sol\":3621:3634  loan_metadata */\n      dup3\n        /* \"contracts/NFTLending.sol\":3636:3648  loan_stats_0 */\n      dup3\n        /* \"contracts/NFTLending.sol\":3602:3620  ref_is_offer_phase */\n      tag_218\n        /* \"contracts/NFTLending.sol\":3602:3649  ref_is_offer_phase(loan_metadata, loan_stats_0) */\n      jump\t// in\n    tag_217:\n        /* \"contracts/NFTLending.sol\":3577:3705  require(... */\n      tag_219\n      jumpi\n      mload(0x40)\n      0x08c379a000000000000000000000000000000000000000000000000000000000\n      dup2\n      mstore\n      0x04\n      add\n      tag_220\n      swap1\n      tag_221\n      jump\t// in\n    tag_220:\n      mload(0x40)\n      dup1\n      swap2\n      sub\n      swap1\n      revert\n    tag_219:\n        /* \"contracts/NFTLending.sol\":3808:3823  active_offer_id */\n      0x0f\n        /* \"contracts/NFTLending.sol\":3808:3832  active_offer_id[loan_id] */\n      0x00\n        /* \"contracts/NFTLending.sol\":3824:3831  loan_id */\n      dup7\n        /* \"contracts/NFTLending.sol\":3808:3832  active_offer_id[loan_id] */\n      dup2\n      mstore\n      0x20\n      add\n      swap1\n      dup2\n      mstore\n      0x20\n      add\n      0x00\n      keccak256\n        /* \"contracts/NFTLending.sol\":3808:3840  active_offer_id[loan_id][caller] */\n      0x00\n        /* \"contracts/NFTLending.sol\":3833:3839  caller */\n      dup5\n        /* \"contracts/NFTLending.sol\":3808:3840  active_offer_id[loan_id][caller] */\n      0xffffffffffffffffffffffffffffffffffffffff\n      and\n      0xffffffffffffffffffffffffffffffffffffffff\n      and\n      dup2\n      mstore\n      0x20\n      add\n      swap1\n      dup2\n      mstore\n      0x20\n      add\n      0x00\n      keccak256\n      sload\n        /* \"contracts/NFTLending.sol\":3798:3805  OfferId */\n      0x02\n        /* \"contracts/NFTLending.sol\":3798:3840  OfferId = active_offer_id[loan_id][caller] */\n      dup2\n      swap1\n      sstore\n      pop\n        /* \"contracts/NFTLending.sol\":3854:3880  OfferMetadata memory offer */\n      0x00\n        /* \"contracts/NFTLending.sol\":3883:3889  offers */\n      0x0e\n        /* \"contracts/NFTLending.sol\":3883:3898  offers[loan_id] */\n      0x00\n        /* \"contracts/NFTLending.sol\":3890:3897  loan_id */\n      dup8\n        /* \"contracts/NFTLending.sol\":3883:3898  offers[loan_id] */\n      dup2\n      mstore\n      0x20\n      add\n      swap1\n      dup2\n      mstore\n      0x20\n      add\n      0x00\n      keccak256\n        /* \"contracts/NFTLending.sol\":3883:3907  offers[loan_id][OfferId] */\n      0x00\n        /* \"contracts/NFTLending.sol\":3899:3906  OfferId */\n      sload(0x02)\n        /* \"contracts/NFTLending.sol\":3883:3907  offers[loan_id][OfferId] */\n      dup2\n      mstore\n      0x20\n      add\n      swap1\n      dup2\n      mstore\n      0x20\n      add\n      0x00\n      keccak256\n        /* \"contracts/NFTLending.sol\":3854:3907  OfferMetadata memory offer = offers[loan_id][OfferId] */\n      mload(0x40)\n      dup1\n      0x80\n      add\n      0x40\n      mstore\n      swap1\n      dup2\n      0x00\n      dup3\n      add\n      0x00\n      swap1\n      sload\n      swap1\n      0x0100\n      exp\n      swap1\n      div\n      0xffffffffffffffffffffffffffffffffffffffff\n      and\n      0xffffffffffffffffffffffffffffffffffffffff\n      and\n      0xffffffffffffffffffffffffffffffffffffffff\n      and\n      dup2\n      mstore\n      0x20\n      add\n      0x01\n      dup3\n      add\n      sload\n      dup2\n      mstore\n      0x20\n      add\n      0x02\n      dup3\n      add\n      sload\n      dup2\n      mstore\n      0x20\n      add\n      0x03\n      dup3\n      add\n      0x00\n      swap1\n      sload\n      swap1\n      0x0100\n      exp\n      swap1\n      div\n      0xff\n      and\n      0x03\n      dup2\n      gt\n      iszero\n      tag_222\n      jumpi\n      tag_223\n      tag_189\n      jump\t// in\n    tag_223:\n    tag_222:\n      0x03\n      dup2\n      gt\n      iszero\n      tag_224\n      jumpi\n      tag_225\n      tag_189\n      jump\t// in\n    tag_225:\n    tag_224:\n      dup2\n      mstore\n      pop\n      pop\n      swap1\n      pop\n        /* \"contracts/NFTLending.sol\":4024:4043  OfferStatus.PENDING */\n      0x00\n        /* \"contracts/NFTLending.sol\":4008:4043  offer.status == OfferStatus.PENDING */\n      0x03\n      dup2\n      gt\n      iszero\n      tag_226\n      jumpi\n      tag_227\n      tag_189\n      jump\t// in\n    tag_227:\n    tag_226:\n        /* \"contracts/NFTLending.sol\":4008:4013  offer */\n      dup2\n        /* \"contracts/NFTLending.sol\":4008:4020  offer.status */\n      0x60\n      add\n      mload\n        /* \"contracts/NFTLending.sol\":4008:4043  offer.status == OfferStatus.PENDING */\n      0x03\n      dup2\n      gt\n      iszero\n      tag_228\n      jumpi\n      tag_229\n      tag_189\n      jump\t// in\n    tag_229:\n    tag_228:\n      eq\n        /* \"contracts/NFTLending.sol\":3983:4110  require(... */\n      tag_230\n      jumpi\n      mload(0x40)\n      0x08c379a000000000000000000000000000000000000000000000000000000000\n      dup2\n      mstore\n      0x04\n      add\n      tag_231\n      swap1\n      tag_232\n      jump\t// in\n    tag_231:\n      mload(0x40)\n      dup1\n      swap2\n      sub\n      swap1\n      revert\n    tag_230:\n        /* \"contracts/NFTLending.sol\":4274:4280  caller */\n      dup4\n        /* \"contracts/NFTLending.sol\":4266:4286  payable(caller).send */\n      0xffffffffffffffffffffffffffffffffffffffff\n      and\n        /* \"contracts/NFTLending.sol\":4266:4300  payable(caller).send(offer.amount) */\n      0x08fc\n        /* \"contracts/NFTLending.sol\":4287:4292  offer */\n      dup3\n        /* \"contracts/NFTLending.sol\":4287:4299  offer.amount */\n      0x20\n      add\n      mload\n        /* \"contracts/NFTLending.sol\":4266:4300  payable(caller).send(offer.amount) */\n      swap1\n      dup2\n      iszero\n      mul\n      swap1\n      mload(0x40)\n      0x00\n      mload(0x40)\n      dup1\n      dup4\n      sub\n      dup2\n      dup6\n      dup9\n      dup9\n      call\n      swap4\n      pop\n      pop\n      pop\n      pop\n        /* \"contracts/NFTLending.sol\":4261:4360  if (!payable(caller).send(offer.amount)) {... */\n      tag_234\n      jumpi\n        /* \"contracts/NFTLending.sol\":4320:4345  revert(\"Withdraw failed\") */\n      mload(0x40)\n      0x08c379a000000000000000000000000000000000000000000000000000000000\n      dup2\n      mstore\n      0x04\n      add\n      tag_235\n      swap1\n      tag_236\n      jump\t// in\n    tag_235:\n      mload(0x40)\n      dup1\n      swap2\n      sub\n      swap1\n      revert\n        /* \"contracts/NFTLending.sol\":4261:4360  if (!payable(caller).send(offer.amount)) {... */\n    tag_234:\n        /* \"contracts/NFTLending.sol\":4432:4453  OfferStatus.WITHDRAWN */\n      0x03\n        /* \"contracts/NFTLending.sol\":4417:4422  offer */\n      dup2\n        /* \"contracts/NFTLending.sol\":4417:4429  offer.status */\n      0x60\n      add\n        /* \"contracts/NFTLending.sol\":4417:4453  offer.status = OfferStatus.WITHDRAWN */\n      swap1\n      0x03\n      dup2\n      gt\n      iszero\n      tag_237\n      jumpi\n      tag_238\n      tag_189\n      jump\t// in\n    tag_238:\n    tag_237:\n      swap1\n      dup2\n      0x03\n      dup2\n      gt\n      iszero\n      tag_239\n      jumpi\n      tag_240\n      tag_189\n      jump\t// in\n    tag_240:\n    tag_239:\n      dup2\n      mstore\n      pop\n      pop\n        /* \"contracts/NFTLending.sol\":4494:4499  offer */\n      dup1\n        /* \"contracts/NFTLending.sol\":4467:4473  offers */\n      0x0e\n        /* \"contracts/NFTLending.sol\":4467:4482  offers[loan_id] */\n      0x00\n        /* \"contracts/NFTLending.sol\":4474:4481  loan_id */\n      dup9\n        /* \"contracts/NFTLending.sol\":4467:4482  offers[loan_id] */\n      dup2\n      mstore\n      0x20\n      add\n      swap1\n      dup2\n      mstore\n      0x20\n      add\n      0x00\n      keccak256\n        /* \"contracts/NFTLending.sol\":4467:4491  offers[loan_id][OfferId] */\n      0x00\n        /* \"contracts/NFTLending.sol\":4483:4490  OfferId */\n      sload(0x02)\n        /* \"contracts/NFTLending.sol\":4467:4491  offers[loan_id][OfferId] */\n      dup2\n      mstore\n      0x20\n      add\n      swap1\n      dup2\n      mstore\n      0x20\n      add\n      0x00\n      keccak256\n        /* \"contracts/NFTLending.sol\":4467:4499  offers[loan_id][OfferId] = offer */\n      0x00\n      dup3\n      add\n      mload\n      dup2\n      0x00\n      add\n      exp(0x0100, 0x00)\n      dup2\n      sload\n      dup2\n      0xffffffffffffffffffffffffffffffffffffffff\n      mul\n      not\n      and\n      swap1\n      dup4\n      0xffffffffffffffffffffffffffffffffffffffff\n      and\n      mul\n      or\n      swap1\n      sstore\n      pop\n      0x20\n      dup3\n      add\n      mload\n      dup2\n      0x01\n      add\n      sstore\n      0x40\n      dup3\n      add\n      mload\n      dup2\n      0x02\n      add\n      sstore\n      0x60\n      dup3\n      add\n      mload\n      dup2\n      0x03\n      add\n      exp(0x0100, 0x00)\n      dup2\n      sload\n      dup2\n      0xff\n      mul\n      not\n      and\n      swap1\n      dup4\n      0x03\n      dup2\n      gt\n      iszero\n      tag_241\n      jumpi\n      tag_242\n      tag_189\n      jump\t// in\n    tag_242:\n    tag_241:\n      mul\n      or\n      swap1\n      sstore\n      pop\n      swap1\n      pop\n      pop\n        /* \"contracts/NFTLending.sol\":4520:4535  active_offer_id */\n      0x0f\n        /* \"contracts/NFTLending.sol\":4520:4544  active_offer_id[loan_id] */\n      0x00\n        /* \"contracts/NFTLending.sol\":4536:4543  loan_id */\n      dup8\n        /* \"contracts/NFTLending.sol\":4520:4544  active_offer_id[loan_id] */\n      dup2\n      mstore\n      0x20\n      add\n      swap1\n      dup2\n      mstore\n      0x20\n      add\n      0x00\n      keccak256\n        /* \"contracts/NFTLending.sol\":4520:4552  active_offer_id[loan_id][caller] */\n      0x00\n        /* \"contracts/NFTLending.sol\":4545:4551  caller */\n      dup6\n        /* \"contracts/NFTLending.sol\":4520:4552  active_offer_id[loan_id][caller] */\n      0xffffffffffffffffffffffffffffffffffffffff\n      and\n      0xffffffffffffffffffffffffffffffffffffffff\n      and\n      dup2\n      mstore\n      0x20\n      add\n      swap1\n      dup2\n      mstore\n      0x20\n      add\n      0x00\n      keccak256\n        /* \"contracts/NFTLending.sol\":4513:4552  delete active_offer_id[loan_id][caller] */\n      0x00\n      swap1\n      sstore\n        /* \"contracts/NFTLending.sol\":4626:4633  OfferId */\n      sload(0x02)\n        /* \"contracts/NFTLending.sol\":4619:4633  return OfferId */\n      swap5\n      pop\n      pop\n      pop\n      pop\n      pop\n        /* \"contracts/NFTLending.sol\":3174:4644  function withdraw_offer(uint loan_id) public returns (uint) {... */\n      swap2\n      swap1\n      pop\n      jump\t// out\n        /* \"contracts/NFTLending.sol\":8530:10071  function list_advertisement(uint token_id, uint shares_to_lock, uint amount_asked, uint loan_period) public payable returns (uint) {... */\n    tag_77:\n        /* \"contracts/NFTLending.sol\":8655:8659  uint */\n      0x00\n        /* \"contracts/NFTLending.sol\":8733:8747  address caller */\n      dup1\n        /* \"contracts/NFTLending.sol\":8750:8760  msg.sender */\n      caller\n        /* \"contracts/NFTLending.sol\":8733:8760  address caller = msg.sender */\n      swap1\n      pop\n        /* \"contracts/NFTLending.sol\":8798:8799  0 */\n      0x00\n        /* \"contracts/NFTLending.sol\":8783:8795  amount_asked */\n      dup5\n        /* \"contracts/NFTLending.sol\":8783:8799  amount_asked > 0 */\n      gt\n        /* \"contracts/NFTLending.sol\":8775:8813  require(amount_asked > 0, \"ZeroValue\") */\n      tag_244\n      jumpi\n      mload(0x40)\n      0x08c379a000000000000000000000000000000000000000000000000000000000\n      dup2\n      mstore\n      0x04\n      add\n      tag_245\n      swap1\n      tag_246\n      jump\t// in\n    tag_245:\n      mload(0x40)\n      dup1\n      swap2\n      sub\n      swap1\n      revert\n    tag_244:\n        /* \"contracts/NFTLending.sol\":8893:8914  uint required_deposit */\n      0x00\n        /* \"contracts/NFTLending.sol\":8917:8975  get_collateral_required(caller, amount_asked, loan_period) */\n      tag_247\n        /* \"contracts/NFTLending.sol\":8941:8947  caller */\n      dup3\n        /* \"contracts/NFTLending.sol\":8949:8961  amount_asked */\n      dup7\n        /* \"contracts/NFTLending.sol\":8963:8974  loan_period */\n      dup7\n        /* \"contracts/NFTLending.sol\":8917:8940  get_collateral_required */\n      tag_44\n        /* \"contracts/NFTLending.sol\":8917:8975  get_collateral_required(caller, amount_asked, loan_period) */\n      jump\t// in\n    tag_247:\n        /* \"contracts/NFTLending.sol\":8893:8975  uint required_deposit = get_collateral_required(caller, amount_asked, loan_period) */\n      swap1\n      pop\n        /* \"contracts/NFTLending.sol\":9010:9026  required_deposit */\n      dup1\n        /* \"contracts/NFTLending.sol\":8997:9006  msg.value */\n      callvalue\n        /* \"contracts/NFTLending.sol\":8997:9026  msg.value >= required_deposit */\n      lt\n      iszero\n        /* \"contracts/NFTLending.sol\":8989:9058  require(msg.value >= required_deposit, \"InsufficientSecurityDeposit\") */\n      tag_248\n      jumpi\n      mload(0x40)\n      0x08c379a000000000000000000000000000000000000000000000000000000000\n      dup2\n      mstore\n      0x04\n      add\n      tag_249\n      swap1\n      tag_250\n      jump\t// in\n    tag_249:\n      mload(0x40)\n      dup1\n      swap2\n      sub\n      swap1\n      revert\n    tag_248:\n        /* \"contracts/NFTLending.sol\":9206:9239  LoanMetadata memory loan_metadata */\n      0x00\n        /* \"contracts/NFTLending.sol\":9242:9570  LoanMetadata({... */\n      mload(0x40)\n      dup1\n      0xe0\n      add\n      0x40\n      mstore\n      dup1\n        /* \"contracts/NFTLending.sol\":9283:9289  caller */\n      dup5\n        /* \"contracts/NFTLending.sol\":9242:9570  LoanMetadata({... */\n      0xffffffffffffffffffffffffffffffffffffffff\n      and\n      dup2\n      mstore\n      0x20\n      add\n        /* \"contracts/NFTLending.sol\":9317:9325  token_id */\n      dup10\n        /* \"contracts/NFTLending.sol\":9242:9570  LoanMetadata({... */\n      dup2\n      mstore\n      0x20\n      add\n        /* \"contracts/NFTLending.sol\":9358:9372  shares_to_lock */\n      dup9\n        /* \"contracts/NFTLending.sol\":9242:9570  LoanMetadata({... */\n      dup2\n      mstore\n      0x20\n      add\n        /* \"contracts/NFTLending.sol\":9404:9416  amount_asked */\n      dup8\n        /* \"contracts/NFTLending.sol\":9242:9570  LoanMetadata({... */\n      dup2\n      mstore\n      0x20\n      add\n        /* \"contracts/NFTLending.sol\":9452:9461  msg.value */\n      callvalue\n        /* \"contracts/NFTLending.sol\":9242:9570  LoanMetadata({... */\n      dup2\n      mstore\n      0x20\n      add\n        /* \"contracts/NFTLending.sol\":9492:9503  loan_period */\n      dup7\n        /* \"contracts/NFTLending.sol\":9242:9570  LoanMetadata({... */\n      dup2\n      mstore\n      0x20\n      add\n        /* \"contracts/NFTLending.sol\":9540:9555  block.timestamp */\n      timestamp\n        /* \"contracts/NFTLending.sol\":9242:9570  LoanMetadata({... */\n      dup2\n      mstore\n      pop\n        /* \"contracts/NFTLending.sol\":9206:9570  LoanMetadata memory loan_metadata = LoanMetadata({... */\n      swap1\n      pop\n        /* \"contracts/NFTLending.sol\":9585:9614  LoanStats memory loan_stats_2 */\n      0x00\n        /* \"contracts/NFTLending.sol\":9617:9849  LoanStats({... */\n      mload(0x40)\n      dup1\n      0xc0\n      add\n      0x40\n      mstore\n      dup1\n        /* \"contracts/NFTLending.sol\":9662:9663  0 */\n      0x00\n        /* \"contracts/NFTLending.sol\":9617:9849  LoanStats({... */\n      dup2\n      mstore\n      0x20\n      add\n        /* \"contracts/NFTLending.sol\":9689:9690  0 */\n      0x00\n        /* \"contracts/NFTLending.sol\":9617:9849  LoanStats({... */\n      dup2\n      mstore\n      0x20\n      add\n        /* \"contracts/NFTLending.sol\":9720:9732  amount_asked */\n      dup9\n        /* \"contracts/NFTLending.sol\":9617:9849  LoanStats({... */\n      dup2\n      mstore\n      0x20\n      add\n        /* \"contracts/NFTLending.sol\":9760:9761  0 */\n      0x00\n        /* \"contracts/NFTLending.sol\":9617:9849  LoanStats({... */\n      dup2\n      mstore\n      0x20\n      add\n        /* \"contracts/NFTLending.sol\":9787:9788  0 */\n      0x00\n        /* \"contracts/NFTLending.sol\":9617:9849  LoanStats({... */\n      dup2\n      mstore\n      0x20\n      add\n        /* \"contracts/NFTLending.sol\":9819:9834  LoanStatus.OPEN */\n      0x00\n        /* \"contracts/NFTLending.sol\":9617:9849  LoanStats({... */\n      0x03\n      dup2\n      gt\n      iszero\n      tag_251\n      jumpi\n      tag_252\n      tag_189\n      jump\t// in\n    tag_252:\n    tag_251:\n      dup2\n      mstore\n      pop\n        /* \"contracts/NFTLending.sol\":9585:9849  LoanStats memory loan_stats_2 = LoanStats({... */\n      swap1\n      pop\n        /* \"contracts/NFTLending.sol\":9864:9874  loan_nonce */\n      0x07\n      0x00\n        /* \"contracts/NFTLending.sol\":9864:9876  loan_nonce++ */\n      dup2\n      sload\n      dup1\n      swap3\n      swap2\n      swap1\n      tag_253\n      swap1\n      tag_254\n      jump\t// in\n    tag_253:\n      swap2\n      swap1\n      pop\n      sstore\n      pop\n        /* \"contracts/NFTLending.sol\":9910:9923  loan_metadata */\n      dup2\n        /* \"contracts/NFTLending.sol\":9890:9895  loans */\n      0x0b\n        /* \"contracts/NFTLending.sol\":9890:9907  loans[loan_nonce] */\n      0x00\n        /* \"contracts/NFTLending.sol\":9896:9906  loan_nonce */\n      sload(0x07)\n        /* \"contracts/NFTLending.sol\":9890:9907  loans[loan_nonce] */\n      dup2\n      mstore\n      0x20\n      add\n      swap1\n      dup2\n      mstore\n      0x20\n      add\n      0x00\n      keccak256\n        /* \"contracts/NFTLending.sol\":9890:9923  loans[loan_nonce] = loan_metadata */\n      0x00\n      dup3\n      add\n      mload\n      dup2\n      0x00\n      add\n      exp(0x0100, 0x00)\n      dup2\n      sload\n      dup2\n      0xffffffffffffffffffffffffffffffffffffffff\n      mul\n      not\n      and\n      swap1\n      dup4\n      0xffffffffffffffffffffffffffffffffffffffff\n      and\n      mul\n      or\n      swap1\n      sstore\n      pop\n      0x20\n      dup3\n      add\n      mload\n      dup2\n      0x01\n      add\n      sstore\n      0x40\n      dup3\n      add\n      mload\n      dup2\n      0x02\n      add\n      sstore\n      0x60\n      dup3\n      add\n      mload\n      dup2\n      0x03\n      add\n      sstore\n      0x80\n      dup3\n      add\n      mload\n      dup2\n      0x04\n      add\n      sstore\n      0xa0\n      dup3\n      add\n      mload\n      dup2\n      0x05\n      add\n      sstore\n      0xc0\n      dup3\n      add\n      mload\n      dup2\n      0x06\n      add\n      sstore\n      swap1\n      pop\n      pop\n        /* \"contracts/NFTLending.sol\":9962:9974  loan_stats_2 */\n      dup1\n        /* \"contracts/NFTLending.sol\":9937:9947  loan_stats */\n      0x0c\n        /* \"contracts/NFTLending.sol\":9937:9959  loan_stats[loan_nonce] */\n      0x00\n        /* \"contracts/NFTLending.sol\":9948:9958  loan_nonce */\n      sload(0x07)\n        /* \"contracts/NFTLending.sol\":9937:9959  loan_stats[loan_nonce] */\n      dup2\n      mstore\n      0x20\n      add\n      swap1\n      dup2\n      mstore\n      0x20\n      add\n      0x00\n      keccak256\n        /* \"contracts/NFTLending.sol\":9937:9974  loan_stats[loan_nonce] = loan_stats_2 */\n      0x00\n      dup3\n      add\n      mload\n      dup2\n      0x00\n      add\n      sstore\n      0x20\n      dup3\n      add\n      mload\n      dup2\n      0x01\n      add\n      sstore\n      0x40\n      dup3\n      add\n      mload\n      dup2\n      0x02\n      add\n      sstore\n      0x60\n      dup3\n      add\n      mload\n      dup2\n      0x03\n      add\n      sstore\n      0x80\n      dup3\n      add\n      mload\n      dup2\n      0x04\n      add\n      sstore\n      0xa0\n      dup3\n      add\n      mload\n      dup2\n      0x05\n      add\n      exp(0x0100, 0x00)\n      dup2\n      sload\n      dup2\n      0xff\n      mul\n      not\n      and\n      swap1\n      dup4\n      0x03\n      dup2\n      gt\n      iszero\n      tag_255\n      jumpi\n      tag_256\n      tag_189\n      jump\t// in\n    tag_256:\n    tag_255:\n      mul\n      or\n      swap1\n      sstore\n      pop\n      swap1\n      pop\n      pop\n        /* \"contracts/NFTLending.sol\":10021:10027  caller */\n      dup4\n        /* \"contracts/NFTLending.sol\":9994:10028  NewLoanAdEvent(loan_nonce, caller) */\n      0xffffffffffffffffffffffffffffffffffffffff\n      and\n        /* \"contracts/NFTLending.sol\":10009:10019  loan_nonce */\n      sload(0x07)\n        /* \"contracts/NFTLending.sol\":9994:10028  NewLoanAdEvent(loan_nonce, caller) */\n      0xde07ebe06c2610c0407853fae114c6d634a0d873b6fb8f8b5652ed1410aa1f75\n      mload(0x40)\n      mload(0x40)\n      dup1\n      swap2\n      sub\n      swap1\n      log3\n        /* \"contracts/NFTLending.sol\":10050:10060  loan_nonce */\n      sload(0x07)\n        /* \"contracts/NFTLending.sol\":10043:10060  return loan_nonce */\n      swap5\n      pop\n      pop\n      pop\n      pop\n      pop\n        /* \"contracts/NFTLending.sol\":8530:10071  function list_advertisement(uint token_id, uint shares_to_lock, uint amount_asked, uint loan_period) public payable returns (uint) {... */\n      swap5\n      swap4\n      pop\n      pop\n      pop\n      pop\n      jump\t// out\n        /* \"contracts/NFTLending.sol\":1886:1921  uint public cooldown_phase_duration */\n    tag_81:\n      sload(0x09)\n      dup2\n      jump\t// out\n        /* \"contracts/NFTLending.sol\":13358:14892  function repay_loan(uint loan_id) public payable  {... */\n    tag_85:\n        /* \"contracts/NFTLending.sol\":13505:13539  LoanMetadata storage loan_metadata */\n      0x00\n        /* \"contracts/NFTLending.sol\":13542:13547  loans */\n      0x0b\n        /* \"contracts/NFTLending.sol\":13542:13556  loans[loan_id] */\n      0x00\n        /* \"contracts/NFTLending.sol\":13548:13555  loan_id */\n      dup4\n        /* \"contracts/NFTLending.sol\":13542:13556  loans[loan_id] */\n      dup2\n      mstore\n      0x20\n      add\n      swap1\n      dup2\n      mstore\n      0x20\n      add\n      0x00\n      keccak256\n        /* \"contracts/NFTLending.sol\":13505:13556  LoanMetadata storage loan_metadata = loans[loan_id] */\n      swap1\n      pop\n        /* \"contracts/NFTLending.sol\":13570:13600  LoanStats storage loan_stats_5 */\n      0x00\n        /* \"contracts/NFTLending.sol\":13603:13613  loan_stats */\n      0x0c\n        /* \"contracts/NFTLending.sol\":13603:13622  loan_stats[loan_id] */\n      0x00\n        /* \"contracts/NFTLending.sol\":13614:13621  loan_id */\n      dup5\n        /* \"contracts/NFTLending.sol\":13603:13622  loan_stats[loan_id] */\n      dup2\n      mstore\n      0x20\n      add\n      swap1\n      dup2\n      mstore\n      0x20\n      add\n      0x00\n      keccak256\n        /* \"contracts/NFTLending.sol\":13570:13622  LoanStats storage loan_stats_5 = loan_stats[loan_id] */\n      swap1\n      pop\n        /* \"contracts/NFTLending.sol\":13716:13733  LoanStatus.ACTIVE */\n      0x01\n        /* \"contracts/NFTLending.sol\":13688:13733  loan_stats_5.loan_status == LoanStatus.ACTIVE */\n      0x03\n      dup2\n      gt\n      iszero\n      tag_258\n      jumpi\n      tag_259\n      tag_189\n      jump\t// in\n    tag_259:\n    tag_258:\n        /* \"contracts/NFTLending.sol\":13688:13700  loan_stats_5 */\n      dup2\n        /* \"contracts/NFTLending.sol\":13688:13712  loan_stats_5.loan_status */\n      0x05\n      add\n      0x00\n      swap1\n      sload\n      swap1\n      0x0100\n      exp\n      swap1\n      div\n      0xff\n      and\n        /* \"contracts/NFTLending.sol\":13688:13733  loan_stats_5.loan_status == LoanStatus.ACTIVE */\n      0x03\n      dup2\n      gt\n      iszero\n      tag_260\n      jumpi\n      tag_261\n      tag_189\n      jump\t// in\n    tag_261:\n    tag_260:\n      eq\n        /* \"contracts/NFTLending.sol\":13680:13753  require(loan_stats_5.loan_status == LoanStatus.ACTIVE, \"LoanIsNotActive\") */\n      tag_262\n      jumpi\n      mload(0x40)\n      0x08c379a000000000000000000000000000000000000000000000000000000000\n      dup2\n      mstore\n      0x04\n      add\n      tag_263\n      swap1\n      tag_264\n      jump\t// in\n    tag_263:\n      mload(0x40)\n      dup1\n      swap2\n      sub\n      swap1\n      revert\n    tag_262:\n        /* \"contracts/NFTLending.sol\":13768:13777  uint time */\n      0x00\n        /* \"contracts/NFTLending.sol\":13785:13800  block.timestamp */\n      timestamp\n        /* \"contracts/NFTLending.sol\":13768:13801  uint time = uint(block.timestamp) */\n      swap1\n      pop\n        /* \"contracts/NFTLending.sol\":13815:13831  uint loan_expiry */\n      0x00\n        /* \"contracts/NFTLending.sol\":13865:13878  loan_metadata */\n      dup4\n        /* \"contracts/NFTLending.sol\":13865:13890  loan_metadata.loan_period */\n      0x05\n      add\n      sload\n        /* \"contracts/NFTLending.sol\":13834:13846  loan_stats_5 */\n      dup4\n        /* \"contracts/NFTLending.sol\":13834:13862  loan_stats_5.start_timestamp */\n      0x00\n      add\n      sload\n        /* \"contracts/NFTLending.sol\":13834:13890  loan_stats_5.start_timestamp + loan_metadata.loan_period */\n      tag_265\n      swap2\n      swap1\n      tag_177\n      jump\t// in\n    tag_265:\n        /* \"contracts/NFTLending.sol\":13815:13890  uint loan_expiry = loan_stats_5.start_timestamp + loan_metadata.loan_period */\n      swap1\n      pop\n        /* \"contracts/NFTLending.sol\":14000:14011  loan_expiry */\n      dup1\n        /* \"contracts/NFTLending.sol\":13992:13996  time */\n      dup3\n        /* \"contracts/NFTLending.sol\":13992:14011  time <= loan_expiry */\n      gt\n      iszero\n        /* \"contracts/NFTLending.sol\":13984:14046  require(time <= loan_expiry, \"LoanRepaymentPeriodAlreadyOver\") */\n      tag_266\n      jumpi\n      mload(0x40)\n      0x08c379a000000000000000000000000000000000000000000000000000000000\n      dup2\n      mstore\n      0x04\n      add\n      tag_267\n      swap1\n      tag_268\n      jump\t// in\n    tag_267:\n      mload(0x40)\n      dup1\n      swap2\n      sub\n      swap1\n      revert\n    tag_266:\n        /* \"contracts/NFTLending.sol\":14159:14168  msg.value */\n      callvalue\n        /* \"contracts/NFTLending.sol\":14131:14143  loan_stats_5 */\n      dup4\n        /* \"contracts/NFTLending.sol\":14131:14150  loan_stats_5.repaid */\n      0x04\n      add\n      0x00\n        /* \"contracts/NFTLending.sol\":14131:14169  loan_stats_5.repaid += uint(msg.value) */\n      dup3\n      dup3\n      sload\n      tag_269\n      swap2\n      swap1\n      tag_177\n      jump\t// in\n    tag_269:\n      swap3\n      pop\n      pop\n      dup2\n      swap1\n      sstore\n      pop\n        /* \"contracts/NFTLending.sol\":14302:14314  loan_stats_5 */\n      dup3\n        /* \"contracts/NFTLending.sol\":14302:14323  loan_stats_5.interest */\n      0x03\n      add\n      sload\n        /* \"contracts/NFTLending.sol\":14280:14292  loan_stats_5 */\n      dup4\n        /* \"contracts/NFTLending.sol\":14280:14299  loan_stats_5.raised */\n      0x01\n      add\n      sload\n        /* \"contracts/NFTLending.sol\":14280:14323  loan_stats_5.raised + loan_stats_5.interest */\n      tag_270\n      swap2\n      swap1\n      tag_177\n      jump\t// in\n    tag_270:\n        /* \"contracts/NFTLending.sol\":14257:14269  loan_stats_5 */\n      dup4\n        /* \"contracts/NFTLending.sol\":14257:14276  loan_stats_5.repaid */\n      0x04\n      add\n      sload\n        /* \"contracts/NFTLending.sol\":14257:14323  loan_stats_5.repaid >= loan_stats_5.raised + loan_stats_5.interest */\n      lt\n        /* \"contracts/NFTLending.sol\":14253:14760  if (loan_stats_5.repaid >= loan_stats_5.raised + loan_stats_5.interest) {... */\n      tag_271\n      jumpi\n        /* \"contracts/NFTLending.sol\":14408:14461  ref_settle_loan(loan_id, loan_metadata, loan_stats_5) */\n      tag_272\n        /* \"contracts/NFTLending.sol\":14424:14431  loan_id */\n      dup6\n        /* \"contracts/NFTLending.sol\":14433:14446  loan_metadata */\n      dup6\n        /* \"contracts/NFTLending.sol\":14448:14460  loan_stats_5 */\n      dup6\n        /* \"contracts/NFTLending.sol\":14408:14423  ref_settle_loan */\n      tag_273\n        /* \"contracts/NFTLending.sol\":14408:14461  ref_settle_loan(loan_id, loan_metadata, loan_stats_5) */\n      jump\t// in\n    tag_272:\n        /* \"contracts/NFTLending.sol\":14588:14628  inc_credit_score(loan_metadata.borrower) */\n      tag_274\n        /* \"contracts/NFTLending.sol\":14605:14618  loan_metadata */\n      dup5\n        /* \"contracts/NFTLending.sol\":14605:14627  loan_metadata.borrower */\n      0x00\n      add\n      0x00\n      swap1\n      sload\n      swap1\n      0x0100\n      exp\n      swap1\n      div\n      0xffffffffffffffffffffffffffffffffffffffff\n      and\n        /* \"contracts/NFTLending.sol\":14588:14604  inc_credit_score */\n      tag_275\n        /* \"contracts/NFTLending.sol\":14588:14628  inc_credit_score(loan_metadata.borrower) */\n      jump\t// in\n    tag_274:\n        /* \"contracts/NFTLending.sol\":14728:14745  LoanStatus.CLOSED */\n      0x02\n        /* \"contracts/NFTLending.sol\":14701:14713  loan_stats_5 */\n      dup4\n        /* \"contracts/NFTLending.sol\":14701:14725  loan_stats_5.loan_status */\n      0x05\n      add\n      0x00\n        /* \"contracts/NFTLending.sol\":14701:14745  loan_stats_5.loan_status = LoanStatus.CLOSED */\n      0x0100\n      exp\n      dup2\n      sload\n      dup2\n      0xff\n      mul\n      not\n      and\n      swap1\n      dup4\n      0x03\n      dup2\n      gt\n      iszero\n      tag_276\n      jumpi\n      tag_277\n      tag_189\n      jump\t// in\n    tag_277:\n    tag_276:\n      mul\n      or\n      swap1\n      sstore\n      pop\n        /* \"contracts/NFTLending.sol\":14253:14760  if (loan_stats_5.repaid >= loan_stats_5.raised + loan_stats_5.interest) {... */\n    tag_271:\n        /* \"contracts/NFTLending.sol\":14869:14881  loan_stats_5 */\n      dup3\n        /* \"contracts/NFTLending.sol\":14847:14857  loan_stats */\n      0x0c\n        /* \"contracts/NFTLending.sol\":14847:14866  loan_stats[loan_id] */\n      0x00\n        /* \"contracts/NFTLending.sol\":14858:14865  loan_id */\n      dup8\n        /* \"contracts/NFTLending.sol\":14847:14866  loan_stats[loan_id] */\n      dup2\n      mstore\n      0x20\n      add\n      swap1\n      dup2\n      mstore\n      0x20\n      add\n      0x00\n      keccak256\n        /* \"contracts/NFTLending.sol\":14847:14881  loan_stats[loan_id] = loan_stats_5 */\n      0x00\n      dup3\n      add\n      sload\n      dup2\n      0x00\n      add\n      sstore\n      0x01\n      dup3\n      add\n      sload\n      dup2\n      0x01\n      add\n      sstore\n      0x02\n      dup3\n      add\n      sload\n      dup2\n      0x02\n      add\n      sstore\n      0x03\n      dup3\n      add\n      sload\n      dup2\n      0x03\n      add\n      sstore\n      0x04\n      dup3\n      add\n      sload\n      dup2\n      0x04\n      add\n      sstore\n      0x05\n      dup3\n      add\n      0x00\n      swap1\n      sload\n      swap1\n      0x0100\n      exp\n      swap1\n      div\n      0xff\n      and\n      dup2\n      0x05\n      add\n      exp(0x0100, 0x00)\n      dup2\n      sload\n      dup2\n      0xff\n      mul\n      not\n      and\n      swap1\n      dup4\n      0x03\n      dup2\n      gt\n      iszero\n      tag_278\n      jumpi\n      tag_279\n      tag_189\n      jump\t// in\n    tag_279:\n    tag_278:\n      mul\n      or\n      swap1\n      sstore\n      pop\n      swap1\n      pop\n      pop\n        /* \"contracts/NFTLending.sol\":13408:14892  {... */\n      pop\n      pop\n      pop\n      pop\n        /* \"contracts/NFTLending.sol\":13358:14892  function repay_loan(uint loan_id) public payable  {... */\n      pop\n      jump\t// out\n        /* \"contracts/NFTLending.sol\":10081:11088  function start_loan(uint loan_id) public {... */\n    tag_89:\n        /* \"contracts/NFTLending.sol\":10136:10150  address caller */\n      0x00\n        /* \"contracts/NFTLending.sol\":10153:10163  msg.sender */\n      caller\n        /* \"contracts/NFTLending.sol\":10136:10163  address caller = msg.sender */\n      swap1\n      pop\n        /* \"contracts/NFTLending.sol\":10261:10295  LoanMetadata storage loan_metadata */\n      0x00\n        /* \"contracts/NFTLending.sol\":10298:10303  loans */\n      0x0b\n        /* \"contracts/NFTLending.sol\":10298:10312  loans[loan_id] */\n      0x00\n        /* \"contracts/NFTLending.sol\":10304:10311  loan_id */\n      dup5\n        /* \"contracts/NFTLending.sol\":10298:10312  loans[loan_id] */\n      dup2\n      mstore\n      0x20\n      add\n      swap1\n      dup2\n      mstore\n      0x20\n      add\n      0x00\n      keccak256\n        /* \"contracts/NFTLending.sol\":10261:10312  LoanMetadata storage loan_metadata = loans[loan_id] */\n      swap1\n      pop\n        /* \"contracts/NFTLending.sol\":10326:10356  LoanStats storage loan_stats_3 */\n      0x00\n        /* \"contracts/NFTLending.sol\":10359:10369  loan_stats */\n      0x0c\n        /* \"contracts/NFTLending.sol\":10359:10378  loan_stats[loan_id] */\n      0x00\n        /* \"contracts/NFTLending.sol\":10370:10377  loan_id */\n      dup6\n        /* \"contracts/NFTLending.sol\":10359:10378  loan_stats[loan_id] */\n      dup2\n      mstore\n      0x20\n      add\n      swap1\n      dup2\n      mstore\n      0x20\n      add\n      0x00\n      keccak256\n        /* \"contracts/NFTLending.sol\":10326:10378  LoanStats storage loan_stats_3 = loan_stats[loan_id] */\n      swap1\n      pop\n        /* \"contracts/NFTLending.sol\":10411:10424  loan_metadata */\n      dup2\n        /* \"contracts/NFTLending.sol\":10411:10433  loan_metadata.borrower */\n      0x00\n      add\n      0x00\n      swap1\n      sload\n      swap1\n      0x0100\n      exp\n      swap1\n      div\n      0xffffffffffffffffffffffffffffffffffffffff\n      and\n        /* \"contracts/NFTLending.sol\":10401:10433  caller == loan_metadata.borrower */\n      0xffffffffffffffffffffffffffffffffffffffff\n      and\n        /* \"contracts/NFTLending.sol\":10401:10407  caller */\n      dup4\n        /* \"contracts/NFTLending.sol\":10401:10433  caller == loan_metadata.borrower */\n      0xffffffffffffffffffffffffffffffffffffffff\n      and\n      eq\n        /* \"contracts/NFTLending.sol\":10393:10451  require(caller == loan_metadata.borrower, \"NotAuthorized\") */\n      tag_281\n      jumpi\n      mload(0x40)\n      0x08c379a000000000000000000000000000000000000000000000000000000000\n      dup2\n      mstore\n      0x04\n      add\n      tag_282\n      swap1\n      tag_186\n      jump\t// in\n    tag_282:\n      mload(0x40)\n      dup1\n      swap2\n      sub\n      swap1\n      revert\n    tag_281:\n        /* \"contracts/NFTLending.sol\":10501:10516  LoanStatus.OPEN */\n      0x00\n        /* \"contracts/NFTLending.sol\":10473:10516  loan_stats_3.loan_status == LoanStatus.OPEN */\n      0x03\n      dup2\n      gt\n      iszero\n      tag_283\n      jumpi\n      tag_284\n      tag_189\n      jump\t// in\n    tag_284:\n    tag_283:\n        /* \"contracts/NFTLending.sol\":10473:10485  loan_stats_3 */\n      dup2\n        /* \"contracts/NFTLending.sol\":10473:10497  loan_stats_3.loan_status */\n      0x05\n      add\n      0x00\n      swap1\n      sload\n      swap1\n      0x0100\n      exp\n      swap1\n      div\n      0xff\n      and\n        /* \"contracts/NFTLending.sol\":10473:10516  loan_stats_3.loan_status == LoanStatus.OPEN */\n      0x03\n      dup2\n      gt\n      iszero\n      tag_285\n      jumpi\n      tag_286\n      tag_189\n      jump\t// in\n    tag_286:\n    tag_285:\n      eq\n        /* \"contracts/NFTLending.sol\":10465:10534  require(loan_stats_3.loan_status == LoanStatus.OPEN, \"LoanIsNotOpen\") */\n      tag_287\n      jumpi\n      mload(0x40)\n      0x08c379a000000000000000000000000000000000000000000000000000000000\n      dup2\n      mstore\n      0x04\n      add\n      tag_288\n      swap1\n      tag_194\n      jump\t// in\n    tag_288:\n      mload(0x40)\n      dup1\n      swap2\n      sub\n      swap1\n      revert\n    tag_287:\n        /* \"contracts/NFTLending.sol\":10578:10579  0 */\n      0x00\n        /* \"contracts/NFTLending.sol\":10556:10568  loan_stats_3 */\n      dup2\n        /* \"contracts/NFTLending.sol\":10556:10575  loan_stats_3.raised */\n      0x01\n      add\n      sload\n        /* \"contracts/NFTLending.sol\":10556:10579  loan_stats_3.raised > 0 */\n      gt\n        /* \"contracts/NFTLending.sol\":10548:10593  require(loan_stats_3.raised > 0, \"ZeroValue\") */\n      tag_289\n      jumpi\n      mload(0x40)\n      0x08c379a000000000000000000000000000000000000000000000000000000000\n      dup2\n      mstore\n      0x04\n      add\n      tag_290\n      swap1\n      tag_246\n      jump\t// in\n    tag_290:\n      mload(0x40)\n      dup1\n      swap2\n      sub\n      swap1\n      revert\n    tag_289:\n        /* \"contracts/NFTLending.sol\":10651:10660  uint time */\n      0x00\n        /* \"contracts/NFTLending.sol\":10668:10683  block.timestamp */\n      timestamp\n        /* \"contracts/NFTLending.sol\":10651:10684  uint time = uint(block.timestamp) */\n      swap1\n      pop\n        /* \"contracts/NFTLending.sol\":10698:10716  uint cooldown_time */\n      0x00\n        /* \"contracts/NFTLending.sol\":10776:10799  cooldown_phase_duration */\n      sload(0x09)\n        /* \"contracts/NFTLending.sol\":10753:10773  offer_phase_duration */\n      sload(0x08)\n        /* \"contracts/NFTLending.sol\":10719:10732  loan_metadata */\n      dup6\n        /* \"contracts/NFTLending.sol\":10719:10750  loan_metadata.listing_timestamp */\n      0x06\n      add\n      sload\n        /* \"contracts/NFTLending.sol\":10719:10773  loan_metadata.listing_timestamp + offer_phase_duration */\n      tag_291\n      swap2\n      swap1\n      tag_177\n      jump\t// in\n    tag_291:\n        /* \"contracts/NFTLending.sol\":10719:10799  loan_metadata.listing_timestamp + offer_phase_duration + cooldown_phase_duration */\n      tag_292\n      swap2\n      swap1\n      tag_177\n      jump\t// in\n    tag_292:\n        /* \"contracts/NFTLending.sol\":10698:10799  uint cooldown_time = loan_metadata.listing_timestamp + offer_phase_duration + cooldown_phase_duration */\n      swap1\n      pop\n        /* \"contracts/NFTLending.sol\":10829:10842  cooldown_time */\n      dup1\n        /* \"contracts/NFTLending.sol\":10821:10825  time */\n      dup3\n        /* \"contracts/NFTLending.sol\":10821:10842  time <= cooldown_time */\n      gt\n      iszero\n        /* \"contracts/NFTLending.sol\":10813:10861  require(time <= cooldown_time, \"LoanHasExpired\") */\n      tag_293\n      jumpi\n      mload(0x40)\n      0x08c379a000000000000000000000000000000000000000000000000000000000\n      dup2\n      mstore\n      0x04\n      add\n      tag_294\n      swap1\n      tag_295\n      jump\t// in\n    tag_294:\n      mload(0x40)\n      dup1\n      swap2\n      sub\n      swap1\n      revert\n    tag_293:\n        /* \"contracts/NFTLending.sol\":10936:10981  ref_start_loan(loan_id, loan_stats_3, caller) */\n      tag_296\n        /* \"contracts/NFTLending.sol\":10951:10958  loan_id */\n      dup7\n        /* \"contracts/NFTLending.sol\":10960:10972  loan_stats_3 */\n      dup5\n        /* \"contracts/NFTLending.sol\":10974:10980  caller */\n      dup8\n        /* \"contracts/NFTLending.sol\":10936:10950  ref_start_loan */\n      tag_297\n        /* \"contracts/NFTLending.sol\":10936:10981  ref_start_loan(loan_id, loan_stats_3, caller) */\n      jump\t// in\n    tag_296:\n        /* \"contracts/NFTLending.sol\":10122:11088  {... */\n      pop\n      pop\n      pop\n      pop\n      pop\n        /* \"contracts/NFTLending.sol\":10081:11088  function start_loan(uint loan_id) public {... */\n      pop\n      jump\t// out\n        /* \"contracts/NFTLending.sol\":16799:18754  function make_offer(uint loan_id, uint interest) public payable returns (uint offer_id) {... */\n    tag_92:\n        /* \"contracts/NFTLending.sol\":16872:16885  uint offer_id */\n      0x00\n        /* \"contracts/NFTLending.sol\":16963:16977  address caller */\n      dup1\n        /* \"contracts/NFTLending.sol\":16980:16990  msg.sender */\n      caller\n        /* \"contracts/NFTLending.sol\":16963:16990  address caller = msg.sender */\n      swap1\n      pop\n        /* \"contracts/NFTLending.sol\":17098:17109  uint amount */\n      0x00\n        /* \"contracts/NFTLending.sol\":17112:17121  msg.value */\n      callvalue\n        /* \"contracts/NFTLending.sol\":17098:17121  uint amount = msg.value */\n      swap1\n      pop\n        /* \"contracts/NFTLending.sol\":17152:17153  0 */\n      0x00\n        /* \"contracts/NFTLending.sol\":17143:17149  amount */\n      dup2\n        /* \"contracts/NFTLending.sol\":17143:17153  amount > 0 */\n      gt\n        /* \"contracts/NFTLending.sol\":17135:17203  require(amount > 0, \"ZeroValue: No value sent with the transaction\") */\n      tag_299\n      jumpi\n      mload(0x40)\n      0x08c379a000000000000000000000000000000000000000000000000000000000\n      dup2\n      mstore\n      0x04\n      add\n      tag_300\n      swap1\n      tag_301\n      jump\t// in\n    tag_300:\n      mload(0x40)\n      dup1\n      swap2\n      sub\n      swap1\n      revert\n    tag_299:\n        /* \"contracts/NFTLending.sol\":17272:17305  LoanMetadata memory loan_metadata */\n      0x00\n        /* \"contracts/NFTLending.sol\":17308:17313  loans */\n      0x0b\n        /* \"contracts/NFTLending.sol\":17308:17322  loans[loan_id] */\n      0x00\n        /* \"contracts/NFTLending.sol\":17314:17321  loan_id */\n      dup8\n        /* \"contracts/NFTLending.sol\":17308:17322  loans[loan_id] */\n      dup2\n      mstore\n      0x20\n      add\n      swap1\n      dup2\n      mstore\n      0x20\n      add\n      0x00\n      keccak256\n        /* \"contracts/NFTLending.sol\":17272:17322  LoanMetadata memory loan_metadata = loans[loan_id] */\n      mload(0x40)\n      dup1\n      0xe0\n      add\n      0x40\n      mstore\n      swap1\n      dup2\n      0x00\n      dup3\n      add\n      0x00\n      swap1\n      sload\n      swap1\n      0x0100\n      exp\n      swap1\n      div\n      0xffffffffffffffffffffffffffffffffffffffff\n      and\n      0xffffffffffffffffffffffffffffffffffffffff\n      and\n      0xffffffffffffffffffffffffffffffffffffffff\n      and\n      dup2\n      mstore\n      0x20\n      add\n      0x01\n      dup3\n      add\n      sload\n      dup2\n      mstore\n      0x20\n      add\n      0x02\n      dup3\n      add\n      sload\n      dup2\n      mstore\n      0x20\n      add\n      0x03\n      dup3\n      add\n      sload\n      dup2\n      mstore\n      0x20\n      add\n      0x04\n      dup3\n      add\n      sload\n      dup2\n      mstore\n      0x20\n      add\n      0x05\n      dup3\n      add\n      sload\n      dup2\n      mstore\n      0x20\n      add\n      0x06\n      dup3\n      add\n      sload\n      dup2\n      mstore\n      pop\n      pop\n      swap1\n      pop\n        /* \"contracts/NFTLending.sol\":17336:17365  LoanStats memory loan_stats_7 */\n      0x00\n        /* \"contracts/NFTLending.sol\":17368:17378  loan_stats */\n      0x0c\n        /* \"contracts/NFTLending.sol\":17368:17387  loan_stats[loan_id] */\n      0x00\n        /* \"contracts/NFTLending.sol\":17379:17386  loan_id */\n      dup9\n        /* \"contracts/NFTLending.sol\":17368:17387  loan_stats[loan_id] */\n      dup2\n      mstore\n      0x20\n      add\n      swap1\n      dup2\n      mstore\n      0x20\n      add\n      0x00\n      keccak256\n        /* \"contracts/NFTLending.sol\":17336:17387  LoanStats memory loan_stats_7 = loan_stats[loan_id] */\n      mload(0x40)\n      dup1\n      0xc0\n      add\n      0x40\n      mstore\n      swap1\n      dup2\n      0x00\n      dup3\n      add\n      sload\n      dup2\n      mstore\n      0x20\n      add\n      0x01\n      dup3\n      add\n      sload\n      dup2\n      mstore\n      0x20\n      add\n      0x02\n      dup3\n      add\n      sload\n      dup2\n      mstore\n      0x20\n      add\n      0x03\n      dup3\n      add\n      sload\n      dup2\n      mstore\n      0x20\n      add\n      0x04\n      dup3\n      add\n      sload\n      dup2\n      mstore\n      0x20\n      add\n      0x05\n      dup3\n      add\n      0x00\n      swap1\n      sload\n      swap1\n      0x0100\n      exp\n      swap1\n      div\n      0xff\n      and\n      0x03\n      dup2\n      gt\n      iszero\n      tag_302\n      jumpi\n      tag_303\n      tag_189\n      jump\t// in\n    tag_303:\n    tag_302:\n      0x03\n      dup2\n      gt\n      iszero\n      tag_304\n      jumpi\n      tag_305\n      tag_189\n      jump\t// in\n    tag_305:\n    tag_304:\n      dup2\n      mstore\n      pop\n      pop\n      swap1\n      pop\n        /* \"contracts/NFTLending.sol\":17471:17518  ref_is_offer_phase(loan_metadata, loan_stats_7) */\n      tag_306\n        /* \"contracts/NFTLending.sol\":17490:17503  loan_metadata */\n      dup3\n        /* \"contracts/NFTLending.sol\":17505:17517  loan_stats_7 */\n      dup3\n        /* \"contracts/NFTLending.sol\":17471:17489  ref_is_offer_phase */\n      tag_218\n        /* \"contracts/NFTLending.sol\":17471:17518  ref_is_offer_phase(loan_metadata, loan_stats_7) */\n      jump\t// in\n    tag_306:\n      pop\n        /* \"contracts/NFTLending.sol\":17658:17659  0 */\n      0x00\n        /* \"contracts/NFTLending.sol\":17622:17637  active_offer_id */\n      0x0f\n        /* \"contracts/NFTLending.sol\":17622:17646  active_offer_id[loan_id] */\n      0x00\n        /* \"contracts/NFTLending.sol\":17638:17645  loan_id */\n      dup10\n        /* \"contracts/NFTLending.sol\":17622:17646  active_offer_id[loan_id] */\n      dup2\n      mstore\n      0x20\n      add\n      swap1\n      dup2\n      mstore\n      0x20\n      add\n      0x00\n      keccak256\n        /* \"contracts/NFTLending.sol\":17622:17654  active_offer_id[loan_id][caller] */\n      0x00\n        /* \"contracts/NFTLending.sol\":17647:17653  caller */\n      dup7\n        /* \"contracts/NFTLending.sol\":17622:17654  active_offer_id[loan_id][caller] */\n      0xffffffffffffffffffffffffffffffffffffffff\n      and\n      0xffffffffffffffffffffffffffffffffffffffff\n      and\n      dup2\n      mstore\n      0x20\n      add\n      swap1\n      dup2\n      mstore\n      0x20\n      add\n      0x00\n      keccak256\n      sload\n        /* \"contracts/NFTLending.sol\":17622:17659  active_offer_id[loan_id][caller] == 0 */\n      eq\n        /* \"contracts/NFTLending.sol\":17614:17741  require(active_offer_id[loan_id][caller] == 0, \"ActiveOfferAlreadyExists: You have already made an active offer for this loan\") */\n      tag_307\n      jumpi\n      mload(0x40)\n      0x08c379a000000000000000000000000000000000000000000000000000000000\n      dup2\n      mstore\n      0x04\n      add\n      tag_308\n      swap1\n      tag_309\n      jump\t// in\n    tag_308:\n      mload(0x40)\n      dup1\n      swap2\n      sub\n      swap1\n      revert\n    tag_307:\n        /* \"contracts/NFTLending.sol\":17866:17878  loan_stats_7 */\n      dup1\n        /* \"contracts/NFTLending.sol\":17866:17889  loan_stats_7.limit_left */\n      0x40\n      add\n      mload\n        /* \"contracts/NFTLending.sol\":17856:17862  amount */\n      dup4\n        /* \"contracts/NFTLending.sol\":17856:17889  amount <= loan_stats_7.limit_left */\n      gt\n      iszero\n        /* \"contracts/NFTLending.sol\":17848:17978  require(amount <= loan_stats_7.limit_left, \"ExcessiveLendingAmountSent: Lending amount exceeds the remaining limit for this loan\") */\n      tag_310\n      jumpi\n      mload(0x40)\n      0x08c379a000000000000000000000000000000000000000000000000000000000\n      dup2\n      mstore\n      0x04\n      add\n      tag_311\n      swap1\n      tag_312\n      jump\t// in\n    tag_311:\n      mload(0x40)\n      dup1\n      swap2\n      sub\n      swap1\n      revert\n    tag_310:\n        /* \"contracts/NFTLending.sol\":18057:18069  offers_nonce */\n      0x0d\n        /* \"contracts/NFTLending.sol\":18057:18078  offers_nonce[loan_id] */\n      0x00\n        /* \"contracts/NFTLending.sol\":18070:18077  loan_id */\n      dup9\n        /* \"contracts/NFTLending.sol\":18057:18078  offers_nonce[loan_id] */\n      dup2\n      mstore\n      0x20\n      add\n      swap1\n      dup2\n      mstore\n      0x20\n      add\n      0x00\n      keccak256\n      sload\n        /* \"contracts/NFTLending.sol\":18046:18078  offer_id = offers_nonce[loan_id] */\n      swap5\n      pop\n        /* \"contracts/NFTLending.sol\":18194:18220  OfferMetadata memory offer */\n      0x00\n        /* \"contracts/NFTLending.sol\":18223:18397  OfferMetadata({... */\n      mload(0x40)\n      dup1\n      0x80\n      add\n      0x40\n      mstore\n      dup1\n        /* \"contracts/NFTLending.sol\":18263:18269  caller */\n      dup7\n        /* \"contracts/NFTLending.sol\":18223:18397  OfferMetadata({... */\n      0xffffffffffffffffffffffffffffffffffffffff\n      and\n      dup2\n      mstore\n      0x20\n      add\n        /* \"contracts/NFTLending.sol\":18295:18301  amount */\n      dup6\n        /* \"contracts/NFTLending.sol\":18223:18397  OfferMetadata({... */\n      dup2\n      mstore\n      0x20\n      add\n        /* \"contracts/NFTLending.sol\":18329:18337  interest */\n      dup9\n        /* \"contracts/NFTLending.sol\":18223:18397  OfferMetadata({... */\n      dup2\n      mstore\n      0x20\n      add\n        /* \"contracts/NFTLending.sol\":18363:18382  OfferStatus.PENDING */\n      0x00\n        /* \"contracts/NFTLending.sol\":18223:18397  OfferMetadata({... */\n      0x03\n      dup2\n      gt\n      iszero\n      tag_313\n      jumpi\n      tag_314\n      tag_189\n      jump\t// in\n    tag_314:\n    tag_313:\n      dup2\n      mstore\n      pop\n        /* \"contracts/NFTLending.sol\":18194:18397  OfferMetadata memory offer = OfferMetadata({... */\n      swap1\n      pop\n        /* \"contracts/NFTLending.sol\":18535:18540  offer */\n      dup1\n        /* \"contracts/NFTLending.sol\":18507:18513  offers */\n      0x0e\n        /* \"contracts/NFTLending.sol\":18507:18522  offers[loan_id] */\n      0x00\n        /* \"contracts/NFTLending.sol\":18514:18521  loan_id */\n      dup11\n        /* \"contracts/NFTLending.sol\":18507:18522  offers[loan_id] */\n      dup2\n      mstore\n      0x20\n      add\n      swap1\n      dup2\n      mstore\n      0x20\n      add\n      0x00\n      keccak256\n        /* \"contracts/NFTLending.sol\":18507:18532  offers[loan_id][offer_id] */\n      0x00\n        /* \"contracts/NFTLending.sol\":18523:18531  offer_id */\n      dup9\n        /* \"contracts/NFTLending.sol\":18507:18532  offers[loan_id][offer_id] */\n      dup2\n      mstore\n      0x20\n      add\n      swap1\n      dup2\n      mstore\n      0x20\n      add\n      0x00\n      keccak256\n        /* \"contracts/NFTLending.sol\":18507:18540  offers[loan_id][offer_id] = offer */\n      0x00\n      dup3\n      add\n      mload\n      dup2\n      0x00\n      add\n      exp(0x0100, 0x00)\n      dup2\n      sload\n      dup2\n      0xffffffffffffffffffffffffffffffffffffffff\n      mul\n      not\n      and\n      swap1\n      dup4\n      0xffffffffffffffffffffffffffffffffffffffff\n      and\n      mul\n      or\n      swap1\n      sstore\n      pop\n      0x20\n      dup3\n      add\n      mload\n      dup2\n      0x01\n      add\n      sstore\n      0x40\n      dup3\n      add\n      mload\n      dup2\n      0x02\n      add\n      sstore\n      0x60\n      dup3\n      add\n      mload\n      dup2\n      0x03\n      add\n      exp(0x0100, 0x00)\n      dup2\n      sload\n      dup2\n      0xff\n      mul\n      not\n      and\n      swap1\n      dup4\n      0x03\n      dup2\n      gt\n      iszero\n      tag_315\n      jumpi\n      tag_316\n      tag_189\n      jump\t// in\n    tag_316:\n    tag_315:\n      mul\n      or\n      swap1\n      sstore\n      pop\n      swap1\n      pop\n      pop\n        /* \"contracts/NFTLending.sol\":18589:18597  offer_id */\n      dup6\n        /* \"contracts/NFTLending.sol\":18554:18569  active_offer_id */\n      0x0f\n        /* \"contracts/NFTLending.sol\":18554:18578  active_offer_id[loan_id] */\n      0x00\n        /* \"contracts/NFTLending.sol\":18570:18577  loan_id */\n      dup11\n        /* \"contracts/NFTLending.sol\":18554:18578  active_offer_id[loan_id] */\n      dup2\n      mstore\n      0x20\n      add\n      swap1\n      dup2\n      mstore\n      0x20\n      add\n      0x00\n      keccak256\n        /* \"contracts/NFTLending.sol\":18554:18586  active_offer_id[loan_id][caller] */\n      0x00\n        /* \"contracts/NFTLending.sol\":18579:18585  caller */\n      dup8\n        /* \"contracts/NFTLending.sol\":18554:18586  active_offer_id[loan_id][caller] */\n      0xffffffffffffffffffffffffffffffffffffffff\n      and\n      0xffffffffffffffffffffffffffffffffffffffff\n      and\n      dup2\n      mstore\n      0x20\n      add\n      swap1\n      dup2\n      mstore\n      0x20\n      add\n      0x00\n      keccak256\n        /* \"contracts/NFTLending.sol\":18554:18597  active_offer_id[loan_id][caller] = offer_id */\n      dup2\n      swap1\n      sstore\n      pop\n        /* \"contracts/NFTLending.sol\":18646:18647  1 */\n      0x01\n        /* \"contracts/NFTLending.sol\":18635:18643  offer_id */\n      dup7\n        /* \"contracts/NFTLending.sol\":18635:18647  offer_id + 1 */\n      tag_317\n      swap2\n      swap1\n      tag_177\n      jump\t// in\n    tag_317:\n        /* \"contracts/NFTLending.sol\":18611:18623  offers_nonce */\n      0x0d\n        /* \"contracts/NFTLending.sol\":18611:18632  offers_nonce[loan_id] */\n      0x00\n        /* \"contracts/NFTLending.sol\":18624:18631  loan_id */\n      dup11\n        /* \"contracts/NFTLending.sol\":18611:18632  offers_nonce[loan_id] */\n      dup2\n      mstore\n      0x20\n      add\n      swap1\n      dup2\n      mstore\n      0x20\n      add\n      0x00\n      keccak256\n        /* \"contracts/NFTLending.sol\":18611:18647  offers_nonce[loan_id] = offer_id + 1 */\n      dup2\n      swap1\n      sstore\n      pop\n        /* \"contracts/NFTLending.sol\":18728:18743  return offer_id */\n      pop\n      pop\n      pop\n      pop\n      pop\n        /* \"contracts/NFTLending.sol\":16799:18754  function make_offer(uint loan_id, uint interest) public payable returns (uint offer_id) {... */\n      swap3\n      swap2\n      pop\n      pop\n      jump\t// out\n        /* \"contracts/NFTLending.sol\":2031:2075  mapping(uint => LoanStats) public loan_stats */\n    tag_97:\n      mstore(0x20, 0x0c)\n      dup1\n      0x00\n      mstore\n      keccak256(0x00, 0x40)\n      0x00\n      swap2\n      pop\n      swap1\n      pop\n      dup1\n      0x00\n      add\n      sload\n      swap1\n      dup1\n      0x01\n      add\n      sload\n      swap1\n      dup1\n      0x02\n      add\n      sload\n      swap1\n      dup1\n      0x03\n      add\n      sload\n      swap1\n      dup1\n      0x04\n      add\n      sload\n      swap1\n      dup1\n      0x05\n      add\n      0x00\n      swap1\n      sload\n      swap1\n      0x0100\n      exp\n      swap1\n      div\n      0xff\n      and\n      swap1\n      pop\n      dup7\n      jump\t// out\n        /* \"contracts/NFTLending.sol\":5025:8079  function respond_to_offer(uint loan_id, uint offer_id, bool response) public  {... */\n    tag_104:\n        /* \"contracts/NFTLending.sol\":5168:5182  address caller */\n      0x00\n        /* \"contracts/NFTLending.sol\":5185:5195  msg.sender */\n      caller\n        /* \"contracts/NFTLending.sol\":5168:5195  address caller = msg.sender */\n      swap1\n      pop\n        /* \"contracts/NFTLending.sol\":5262:5296  LoanMetadata storage loan_metadata */\n      0x00\n        /* \"contracts/NFTLending.sol\":5299:5304  loans */\n      0x0b\n        /* \"contracts/NFTLending.sol\":5299:5313  loans[loan_id] */\n      0x00\n        /* \"contracts/NFTLending.sol\":5305:5312  loan_id */\n      dup7\n        /* \"contracts/NFTLending.sol\":5299:5313  loans[loan_id] */\n      dup2\n      mstore\n      0x20\n      add\n      swap1\n      dup2\n      mstore\n      0x20\n      add\n      0x00\n      keccak256\n        /* \"contracts/NFTLending.sol\":5262:5313  LoanMetadata storage loan_metadata = loans[loan_id] */\n      swap1\n      pop\n        /* \"contracts/NFTLending.sol\":5327:5357  LoanStats storage loan_stats_1 */\n      0x00\n        /* \"contracts/NFTLending.sol\":5360:5370  loan_stats */\n      0x0c\n        /* \"contracts/NFTLending.sol\":5360:5379  loan_stats[loan_id] */\n      0x00\n        /* \"contracts/NFTLending.sol\":5371:5378  loan_id */\n      dup8\n        /* \"contracts/NFTLending.sol\":5360:5379  loan_stats[loan_id] */\n      dup2\n      mstore\n      0x20\n      add\n      swap1\n      dup2\n      mstore\n      0x20\n      add\n      0x00\n      keccak256\n        /* \"contracts/NFTLending.sol\":5327:5379  LoanStats storage loan_stats_1 = loan_stats[loan_id] */\n      swap1\n      pop\n        /* \"contracts/NFTLending.sol\":5492:5505  loan_metadata */\n      dup2\n        /* \"contracts/NFTLending.sol\":5492:5514  loan_metadata.borrower */\n      0x00\n      add\n      0x00\n      swap1\n      sload\n      swap1\n      0x0100\n      exp\n      swap1\n      div\n      0xffffffffffffffffffffffffffffffffffffffff\n      and\n        /* \"contracts/NFTLending.sol\":5482:5514  caller == loan_metadata.borrower */\n      0xffffffffffffffffffffffffffffffffffffffff\n      and\n        /* \"contracts/NFTLending.sol\":5482:5488  caller */\n      dup4\n        /* \"contracts/NFTLending.sol\":5482:5514  caller == loan_metadata.borrower */\n      0xffffffffffffffffffffffffffffffffffffffff\n      and\n      eq\n        /* \"contracts/NFTLending.sol\":5457:5586  require(... */\n      tag_319\n      jumpi\n      mload(0x40)\n      0x08c379a000000000000000000000000000000000000000000000000000000000\n      dup2\n      mstore\n      0x04\n      add\n      tag_320\n      swap1\n      tag_321\n      jump\t// in\n    tag_320:\n      mload(0x40)\n      dup1\n      swap2\n      sub\n      swap1\n      revert\n    tag_319:\n        /* \"contracts/NFTLending.sol\":5719:5734  LoanStatus.OPEN */\n      0x00\n        /* \"contracts/NFTLending.sol\":5691:5734  loan_stats_1.loan_status == LoanStatus.OPEN */\n      0x03\n      dup2\n      gt\n      iszero\n      tag_322\n      jumpi\n      tag_323\n      tag_189\n      jump\t// in\n    tag_323:\n    tag_322:\n        /* \"contracts/NFTLending.sol\":5691:5703  loan_stats_1 */\n      dup2\n        /* \"contracts/NFTLending.sol\":5691:5715  loan_stats_1.loan_status */\n      0x05\n      add\n      0x00\n      swap1\n      sload\n      swap1\n      0x0100\n      exp\n      swap1\n      div\n      0xff\n      and\n        /* \"contracts/NFTLending.sol\":5691:5734  loan_stats_1.loan_status == LoanStatus.OPEN */\n      0x03\n      dup2\n      gt\n      iszero\n      tag_324\n      jumpi\n      tag_325\n      tag_189\n      jump\t// in\n    tag_325:\n    tag_324:\n      eq\n        /* \"contracts/NFTLending.sol\":5666:5798  require(... */\n      tag_326\n      jumpi\n      mload(0x40)\n      0x08c379a000000000000000000000000000000000000000000000000000000000\n      dup2\n      mstore\n      0x04\n      add\n      tag_327\n      swap1\n      tag_328\n      jump\t// in\n    tag_327:\n      mload(0x40)\n      dup1\n      swap2\n      sub\n      swap1\n      revert\n    tag_326:\n        /* \"contracts/NFTLending.sol\":5891:5900  uint time */\n      0x00\n        /* \"contracts/NFTLending.sol\":5903:5918  block.timestamp */\n      timestamp\n        /* \"contracts/NFTLending.sol\":5891:5918  uint time = block.timestamp */\n      swap1\n      pop\n        /* \"contracts/NFTLending.sol\":5932:5950  uint cooldown_time */\n      0x00\n        /* \"contracts/NFTLending.sol\":6010:6033  cooldown_phase_duration */\n      sload(0x09)\n        /* \"contracts/NFTLending.sol\":5987:6007  offer_phase_duration */\n      sload(0x08)\n        /* \"contracts/NFTLending.sol\":5953:5966  loan_metadata */\n      dup6\n        /* \"contracts/NFTLending.sol\":5953:5984  loan_metadata.listing_timestamp */\n      0x06\n      add\n      sload\n        /* \"contracts/NFTLending.sol\":5953:6007  loan_metadata.listing_timestamp + offer_phase_duration */\n      tag_329\n      swap2\n      swap1\n      tag_177\n      jump\t// in\n    tag_329:\n        /* \"contracts/NFTLending.sol\":5953:6033  loan_metadata.listing_timestamp + offer_phase_duration + cooldown_phase_duration */\n      tag_330\n      swap2\n      swap1\n      tag_177\n      jump\t// in\n    tag_330:\n        /* \"contracts/NFTLending.sol\":5932:6033  uint cooldown_time = loan_metadata.listing_timestamp + offer_phase_duration + cooldown_phase_duration */\n      swap1\n      pop\n        /* \"contracts/NFTLending.sol\":6080:6093  cooldown_time */\n      dup1\n        /* \"contracts/NFTLending.sol\":6072:6076  time */\n      dup3\n        /* \"contracts/NFTLending.sol\":6072:6093  time <= cooldown_time */\n      gt\n      iszero\n        /* \"contracts/NFTLending.sol\":6047:6174  require(... */\n      tag_331\n      jumpi\n      mload(0x40)\n      0x08c379a000000000000000000000000000000000000000000000000000000000\n      dup2\n      mstore\n      0x04\n      add\n      tag_332\n      swap1\n      tag_333\n      jump\t// in\n    tag_332:\n      mload(0x40)\n      dup1\n      swap2\n      sub\n      swap1\n      revert\n    tag_331:\n        /* \"contracts/NFTLending.sol\":6255:6282  OfferMetadata storage offer */\n      0x00\n        /* \"contracts/NFTLending.sol\":6285:6291  offers */\n      0x0e\n        /* \"contracts/NFTLending.sol\":6285:6300  offers[loan_id] */\n      0x00\n        /* \"contracts/NFTLending.sol\":6292:6299  loan_id */\n      dup11\n        /* \"contracts/NFTLending.sol\":6285:6300  offers[loan_id] */\n      dup2\n      mstore\n      0x20\n      add\n      swap1\n      dup2\n      mstore\n      0x20\n      add\n      0x00\n      keccak256\n        /* \"contracts/NFTLending.sol\":6285:6310  offers[loan_id][offer_id] */\n      0x00\n        /* \"contracts/NFTLending.sol\":6301:6309  offer_id */\n      dup10\n        /* \"contracts/NFTLending.sol\":6285:6310  offers[loan_id][offer_id] */\n      dup2\n      mstore\n      0x20\n      add\n      swap1\n      dup2\n      mstore\n      0x20\n      add\n      0x00\n      keccak256\n        /* \"contracts/NFTLending.sol\":6255:6310  OfferMetadata storage offer = offers[loan_id][offer_id] */\n      swap1\n      pop\n        /* \"contracts/NFTLending.sol\":6424:6443  OfferStatus.PENDING */\n      0x00\n        /* \"contracts/NFTLending.sol\":6408:6443  offer.status == OfferStatus.PENDING */\n      0x03\n      dup2\n      gt\n      iszero\n      tag_334\n      jumpi\n      tag_335\n      tag_189\n      jump\t// in\n    tag_335:\n    tag_334:\n        /* \"contracts/NFTLending.sol\":6408:6413  offer */\n      dup2\n        /* \"contracts/NFTLending.sol\":6408:6420  offer.status */\n      0x03\n      add\n      0x00\n      swap1\n      sload\n      swap1\n      0x0100\n      exp\n      swap1\n      div\n      0xff\n      and\n        /* \"contracts/NFTLending.sol\":6408:6443  offer.status == OfferStatus.PENDING */\n      0x03\n      dup2\n      gt\n      iszero\n      tag_336\n      jumpi\n      tag_337\n      tag_189\n      jump\t// in\n    tag_337:\n    tag_336:\n      eq\n        /* \"contracts/NFTLending.sol\":6383:6510  require(... */\n      tag_338\n      jumpi\n      mload(0x40)\n      0x08c379a000000000000000000000000000000000000000000000000000000000\n      dup2\n      mstore\n      0x04\n      add\n      tag_339\n      swap1\n      tag_232\n      jump\t// in\n    tag_339:\n      mload(0x40)\n      dup1\n      swap2\n      sub\n      swap1\n      revert\n    tag_338:\n        /* \"contracts/NFTLending.sol\":6610:6615  false */\n      0x00\n        /* \"contracts/NFTLending.sol\":6598:6615  response == false */\n      iszero\n      iszero\n        /* \"contracts/NFTLending.sol\":6598:6606  response */\n      dup8\n        /* \"contracts/NFTLending.sol\":6598:6615  response == false */\n      iszero\n      iszero\n      sub\n        /* \"contracts/NFTLending.sol\":6594:7987  if (response == false) {... */\n      tag_340\n      jumpi\n        /* \"contracts/NFTLending.sol\":6724:6766  ref_reject_offer(loan_id, offer_id, offer) */\n      tag_341\n        /* \"contracts/NFTLending.sol\":6741:6748  loan_id */\n      dup10\n        /* \"contracts/NFTLending.sol\":6750:6758  offer_id */\n      dup10\n        /* \"contracts/NFTLending.sol\":6760:6765  offer */\n      dup4\n        /* \"contracts/NFTLending.sol\":6724:6740  ref_reject_offer */\n      tag_342\n        /* \"contracts/NFTLending.sol\":6724:6766  ref_reject_offer(loan_id, offer_id, offer) */\n      jump\t// in\n    tag_341:\n        /* \"contracts/NFTLending.sol\":6594:7987  if (response == false) {... */\n      jump(tag_343)\n    tag_340:\n        /* \"contracts/NFTLending.sol\":6991:7003  loan_stats_1 */\n      dup4\n        /* \"contracts/NFTLending.sol\":6991:7014  loan_stats_1.limit_left */\n      0x02\n      add\n      sload\n        /* \"contracts/NFTLending.sol\":6975:6980  offer */\n      dup2\n        /* \"contracts/NFTLending.sol\":6975:6987  offer.amount */\n      0x01\n      add\n      sload\n        /* \"contracts/NFTLending.sol\":6975:7014  offer.amount <= loan_stats_1.limit_left */\n      gt\n      iszero\n        /* \"contracts/NFTLending.sol\":6946:7101  require(... */\n      tag_344\n      jumpi\n      mload(0x40)\n      0x08c379a000000000000000000000000000000000000000000000000000000000\n      dup2\n      mstore\n      0x04\n      add\n      tag_345\n      swap1\n      tag_346\n      jump\t// in\n    tag_345:\n      mload(0x40)\n      dup1\n      swap2\n      sub\n      swap1\n      revert\n    tag_344:\n        /* \"contracts/NFTLending.sol\":7190:7210  OfferStatus.ACCEPTED */\n      0x01\n        /* \"contracts/NFTLending.sol\":7175:7180  offer */\n      dup2\n        /* \"contracts/NFTLending.sol\":7175:7187  offer.status */\n      0x03\n      add\n      0x00\n        /* \"contracts/NFTLending.sol\":7175:7210  offer.status = OfferStatus.ACCEPTED */\n      0x0100\n      exp\n      dup2\n      sload\n      dup2\n      0xff\n      mul\n      not\n      and\n      swap1\n      dup4\n      0x03\n      dup2\n      gt\n      iszero\n      tag_347\n      jumpi\n      tag_348\n      tag_189\n      jump\t// in\n    tag_348:\n    tag_347:\n      mul\n      or\n      swap1\n      sstore\n      pop\n        /* \"contracts/NFTLending.sol\":7256:7261  offer */\n      dup1\n        /* \"contracts/NFTLending.sol\":7228:7234  offers */\n      0x0e\n        /* \"contracts/NFTLending.sol\":7228:7243  offers[loan_id] */\n      0x00\n        /* \"contracts/NFTLending.sol\":7235:7242  loan_id */\n      dup12\n        /* \"contracts/NFTLending.sol\":7228:7243  offers[loan_id] */\n      dup2\n      mstore\n      0x20\n      add\n      swap1\n      dup2\n      mstore\n      0x20\n      add\n      0x00\n      keccak256\n        /* \"contracts/NFTLending.sol\":7228:7253  offers[loan_id][offer_id] */\n      0x00\n        /* \"contracts/NFTLending.sol\":7244:7252  offer_id */\n      dup11\n        /* \"contracts/NFTLending.sol\":7228:7253  offers[loan_id][offer_id] */\n      dup2\n      mstore\n      0x20\n      add\n      swap1\n      dup2\n      mstore\n      0x20\n      add\n      0x00\n      keccak256\n        /* \"contracts/NFTLending.sol\":7228:7261  offers[loan_id][offer_id] = offer */\n      0x00\n      dup3\n      add\n      0x00\n      swap1\n      sload\n      swap1\n      0x0100\n      exp\n      swap1\n      div\n      0xffffffffffffffffffffffffffffffffffffffff\n      and\n      dup2\n      0x00\n      add\n      exp(0x0100, 0x00)\n      dup2\n      sload\n      dup2\n      0xffffffffffffffffffffffffffffffffffffffff\n      mul\n      not\n      and\n      swap1\n      dup4\n      0xffffffffffffffffffffffffffffffffffffffff\n      and\n      mul\n      or\n      swap1\n      sstore\n      pop\n      0x01\n      dup3\n      add\n      sload\n      dup2\n      0x01\n      add\n      sstore\n      0x02\n      dup3\n      add\n      sload\n      dup2\n      0x02\n      add\n      sstore\n      0x03\n      dup3\n      add\n      0x00\n      swap1\n      sload\n      swap1\n      0x0100\n      exp\n      swap1\n      div\n      0xff\n      and\n      dup2\n      0x03\n      add\n      exp(0x0100, 0x00)\n      dup2\n      sload\n      dup2\n      0xff\n      mul\n      not\n      and\n      swap1\n      dup4\n      0x03\n      dup2\n      gt\n      iszero\n      tag_349\n      jumpi\n      tag_350\n      tag_189\n      jump\t// in\n    tag_350:\n    tag_349:\n      mul\n      or\n      swap1\n      sstore\n      pop\n      swap1\n      pop\n      pop\n        /* \"contracts/NFTLending.sol\":7381:7386  offer */\n      dup1\n        /* \"contracts/NFTLending.sol\":7381:7393  offer.amount */\n      0x01\n      add\n      sload\n        /* \"contracts/NFTLending.sol\":7358:7370  loan_stats_1 */\n      dup5\n        /* \"contracts/NFTLending.sol\":7358:7377  loan_stats_1.raised */\n      0x01\n      add\n      0x00\n        /* \"contracts/NFTLending.sol\":7358:7393  loan_stats_1.raised += offer.amount */\n      dup3\n      dup3\n      sload\n      tag_351\n      swap2\n      swap1\n      tag_177\n      jump\t// in\n    tag_351:\n      swap3\n      pop\n      pop\n      dup2\n      swap1\n      sstore\n      pop\n        /* \"contracts/NFTLending.sol\":7438:7443  offer */\n      dup1\n        /* \"contracts/NFTLending.sol\":7438:7450  offer.amount */\n      0x01\n      add\n      sload\n        /* \"contracts/NFTLending.sol\":7411:7423  loan_stats_1 */\n      dup5\n        /* \"contracts/NFTLending.sol\":7411:7434  loan_stats_1.limit_left */\n      0x02\n      add\n      0x00\n        /* \"contracts/NFTLending.sol\":7411:7450  loan_stats_1.limit_left -= offer.amount */\n      dup3\n      dup3\n      sload\n      tag_352\n      swap2\n      swap1\n      tag_170\n      jump\t// in\n    tag_352:\n      swap3\n      pop\n      pop\n      dup2\n      swap1\n      sstore\n      pop\n        /* \"contracts/NFTLending.sol\":7493:7498  offer */\n      dup1\n        /* \"contracts/NFTLending.sol\":7493:7507  offer.interest */\n      0x02\n      add\n      sload\n        /* \"contracts/NFTLending.sol\":7468:7480  loan_stats_1 */\n      dup5\n        /* \"contracts/NFTLending.sol\":7468:7489  loan_stats_1.interest */\n      0x03\n      add\n      0x00\n        /* \"contracts/NFTLending.sol\":7468:7507  loan_stats_1.interest += offer.interest */\n      dup3\n      dup3\n      sload\n      tag_353\n      swap2\n      swap1\n      tag_177\n      jump\t// in\n    tag_353:\n      swap3\n      pop\n      pop\n      dup2\n      swap1\n      sstore\n      pop\n        /* \"contracts/NFTLending.sol\":7618:7619  0 */\n      0x00\n        /* \"contracts/NFTLending.sol\":7591:7603  loan_stats_1 */\n      dup5\n        /* \"contracts/NFTLending.sol\":7591:7614  loan_stats_1.limit_left */\n      0x02\n      add\n      sload\n        /* \"contracts/NFTLending.sol\":7591:7619  loan_stats_1.limit_left == 0 */\n      sub\n        /* \"contracts/NFTLending.sol\":7587:7973  if (loan_stats_1.limit_left == 0) {... */\n      tag_354\n      jumpi\n        /* \"contracts/NFTLending.sol\":7738:7783  ref_start_loan(loan_id, loan_stats_1, caller) */\n      tag_355\n        /* \"contracts/NFTLending.sol\":7753:7760  loan_id */\n      dup10\n        /* \"contracts/NFTLending.sol\":7762:7774  loan_stats_1 */\n      dup6\n        /* \"contracts/NFTLending.sol\":7776:7782  caller */\n      dup9\n        /* \"contracts/NFTLending.sol\":7738:7752  ref_start_loan */\n      tag_297\n        /* \"contracts/NFTLending.sol\":7738:7783  ref_start_loan(loan_id, loan_stats_1, caller) */\n      jump\t// in\n    tag_355:\n        /* \"contracts/NFTLending.sol\":7587:7973  if (loan_stats_1.limit_left == 0) {... */\n      jump(tag_356)\n    tag_354:\n        /* \"contracts/NFTLending.sol\":7942:7954  loan_stats_1 */\n      dup4\n        /* \"contracts/NFTLending.sol\":7920:7930  loan_stats */\n      0x0c\n        /* \"contracts/NFTLending.sol\":7920:7939  loan_stats[loan_id] */\n      0x00\n        /* \"contracts/NFTLending.sol\":7931:7938  loan_id */\n      dup12\n        /* \"contracts/NFTLending.sol\":7920:7939  loan_stats[loan_id] */\n      dup2\n      mstore\n      0x20\n      add\n      swap1\n      dup2\n      mstore\n      0x20\n      add\n      0x00\n      keccak256\n        /* \"contracts/NFTLending.sol\":7920:7954  loan_stats[loan_id] = loan_stats_1 */\n      0x00\n      dup3\n      add\n      sload\n      dup2\n      0x00\n      add\n      sstore\n      0x01\n      dup3\n      add\n      sload\n      dup2\n      0x01\n      add\n      sstore\n      0x02\n      dup3\n      add\n      sload\n      dup2\n      0x02\n      add\n      sstore\n      0x03\n      dup3\n      add\n      sload\n      dup2\n      0x03\n      add\n      sstore\n      0x04\n      dup3\n      add\n      sload\n      dup2\n      0x04\n      add\n      sstore\n      0x05\n      dup3\n      add\n      0x00\n      swap1\n      sload\n      swap1\n      0x0100\n      exp\n      swap1\n      div\n      0xff\n      and\n      dup2\n      0x05\n      add\n      exp(0x0100, 0x00)\n      dup2\n      sload\n      dup2\n      0xff\n      mul\n      not\n      and\n      swap1\n      dup4\n      0x03\n      dup2\n      gt\n      iszero\n      tag_357\n      jumpi\n      tag_358\n      tag_189\n      jump\t// in\n    tag_358:\n    tag_357:\n      mul\n      or\n      swap1\n      sstore\n      pop\n      swap1\n      pop\n      pop\n        /* \"contracts/NFTLending.sol\":7587:7973  if (loan_stats_1.limit_left == 0) {... */\n    tag_356:\n        /* \"contracts/NFTLending.sol\":6594:7987  if (response == false) {... */\n    tag_343:\n        /* \"contracts/NFTLending.sol\":5103:8079  {... */\n      pop\n      pop\n      pop\n      pop\n      pop\n      pop\n        /* \"contracts/NFTLending.sol\":5025:8079  function respond_to_offer(uint loan_id, uint offer_id, bool response) public  {... */\n      pop\n      pop\n      pop\n      jump\t// out\n        /* \"contracts/NFTLending.sol\":83:102  uint public TokenId */\n    tag_107:\n      sload(0x00)\n      dup2\n      jump\t// out\n        /* \"contracts/NFTLending.sol\":12929:13312  function get_cancellation_charges() public pure returns (uint) {... */\n    tag_111:\n        /* \"contracts/NFTLending.sol\":12986:12990  uint */\n      0x00\n        /* \"contracts/NFTLending.sol\":13064:13077  uint decimals */\n      dup1\n        /* \"contracts/NFTLending.sol\":13080:13081  6 */\n      0x06\n        /* \"contracts/NFTLending.sol\":13064:13081  uint decimals = 6 */\n      swap1\n      pop\n        /* \"contracts/NFTLending.sol\":13137:13149  uint charges */\n      0x00\n        /* \"contracts/NFTLending.sol\":13152:13153  1 */\n      0x01\n        /* \"contracts/NFTLending.sol\":13137:13153  uint charges = 1 */\n      swap1\n      pop\n        /* \"contracts/NFTLending.sol\":13292:13300  decimals */\n      dup2\n        /* \"contracts/NFTLending.sol\":13283:13285  10 */\n      0x0a\n        /* \"contracts/NFTLending.sol\":13283:13301  10**uint(decimals) */\n      tag_360\n      swap2\n      swap1\n      tag_361\n      jump\t// in\n    tag_360:\n        /* \"contracts/NFTLending.sol\":13273:13280  charges */\n      dup2\n        /* \"contracts/NFTLending.sol\":13273:13301  charges * 10**uint(decimals) */\n      tag_362\n      swap2\n      swap1\n      tag_168\n      jump\t// in\n    tag_362:\n        /* \"contracts/NFTLending.sol\":13266:13301  return charges * 10**uint(decimals) */\n      swap3\n      pop\n      pop\n      pop\n        /* \"contracts/NFTLending.sol\":12929:13312  function get_cancellation_charges() public pure returns (uint) {... */\n      swap1\n      jump\t// out\n        /* \"contracts/NFTLending.sol\":1773:1802  address public fractionalizer */\n    tag_115:\n      0x06\n      0x00\n      swap1\n      sload\n      swap1\n      0x0100\n      exp\n      swap1\n      div\n      0xffffffffffffffffffffffffffffffffffffffff\n      and\n      dup2\n      jump\t// out\n        /* \"contracts/NFTLending.sol\":108:126  uint public LoanId */\n    tag_120:\n      sload(0x01)\n      dup2\n      jump\t// out\n        /* \"contracts/NFTLending.sol\":2094:2135  mapping(uint => uint) public offers_nonce */\n    tag_125:\n      mstore(0x20, 0x0d)\n      dup1\n      0x00\n      mstore\n      keccak256(0x00, 0x40)\n      0x00\n      swap2\n      pop\n      swap1\n      pop\n      sload\n      dup2\n      jump\t// out\n        /* \"contracts/NFTLending.sol\":132:151  uint public OfferId */\n    tag_129:\n      sload(0x02)\n      dup2\n      jump\t// out\n        /* \"contracts/NFTLending.sol\":1979:2021  mapping(uint => LoanMetadata) public loans */\n    tag_134:\n      mstore(0x20, 0x0b)\n      dup1\n      0x00\n      mstore\n      keccak256(0x00, 0x40)\n      0x00\n      swap2\n      pop\n      swap1\n      pop\n      dup1\n      0x00\n      add\n      0x00\n      swap1\n      sload\n      swap1\n      0x0100\n      exp\n      swap1\n      div\n      0xffffffffffffffffffffffffffffffffffffffff\n      and\n      swap1\n      dup1\n      0x01\n      add\n      sload\n      swap1\n      dup1\n      0x02\n      add\n      sload\n      swap1\n      dup1\n      0x03\n      add\n      sload\n      swap1\n      dup1\n      0x04\n      add\n      sload\n      swap1\n      dup1\n      0x05\n      add\n      sload\n      swap1\n      dup1\n      0x06\n      add\n      sload\n      swap1\n      pop\n      dup8\n      jump\t// out\n        /* \"contracts/NFTLending.sol\":18994:19411  function is_offer_phase(uint loan_id) public view returns (bool) {... */\n    tag_140:\n        /* \"contracts/NFTLending.sol\":19053:19057  bool */\n      0x00\n        /* \"contracts/NFTLending.sol\":19127:19160  LoanMetadata memory loan_metadata */\n      dup1\n        /* \"contracts/NFTLending.sol\":19163:19168  loans */\n      0x0b\n        /* \"contracts/NFTLending.sol\":19163:19177  loans[loan_id] */\n      0x00\n        /* \"contracts/NFTLending.sol\":19169:19176  loan_id */\n      dup5\n        /* \"contracts/NFTLending.sol\":19163:19177  loans[loan_id] */\n      dup2\n      mstore\n      0x20\n      add\n      swap1\n      dup2\n      mstore\n      0x20\n      add\n      0x00\n      keccak256\n        /* \"contracts/NFTLending.sol\":19127:19177  LoanMetadata memory loan_metadata = loans[loan_id] */\n      mload(0x40)\n      dup1\n      0xe0\n      add\n      0x40\n      mstore\n      swap1\n      dup2\n      0x00\n      dup3\n      add\n      0x00\n      swap1\n      sload\n      swap1\n      0x0100\n      exp\n      swap1\n      div\n      0xffffffffffffffffffffffffffffffffffffffff\n      and\n      0xffffffffffffffffffffffffffffffffffffffff\n      and\n      0xffffffffffffffffffffffffffffffffffffffff\n      and\n      dup2\n      mstore\n      0x20\n      add\n      0x01\n      dup3\n      add\n      sload\n      dup2\n      mstore\n      0x20\n      add\n      0x02\n      dup3\n      add\n      sload\n      dup2\n      mstore\n      0x20\n      add\n      0x03\n      dup3\n      add\n      sload\n      dup2\n      mstore\n      0x20\n      add\n      0x04\n      dup3\n      add\n      sload\n      dup2\n      mstore\n      0x20\n      add\n      0x05\n      dup3\n      add\n      sload\n      dup2\n      mstore\n      0x20\n      add\n      0x06\n      dup3\n      add\n      sload\n      dup2\n      mstore\n      pop\n      pop\n      swap1\n      pop\n        /* \"contracts/NFTLending.sol\":19191:19220  LoanStats memory loan_stats_8 */\n      0x00\n        /* \"contracts/NFTLending.sol\":19223:19233  loan_stats */\n      0x0c\n        /* \"contracts/NFTLending.sol\":19223:19242  loan_stats[loan_id] */\n      0x00\n        /* \"contracts/NFTLending.sol\":19234:19241  loan_id */\n      dup6\n        /* \"contracts/NFTLending.sol\":19223:19242  loan_stats[loan_id] */\n      dup2\n      mstore\n      0x20\n      add\n      swap1\n      dup2\n      mstore\n      0x20\n      add\n      0x00\n      keccak256\n        /* \"contracts/NFTLending.sol\":19191:19242  LoanStats memory loan_stats_8 = loan_stats[loan_id] */\n      mload(0x40)\n      dup1\n      0xc0\n      add\n      0x40\n      mstore\n      swap1\n      dup2\n      0x00\n      dup3\n      add\n      sload\n      dup2\n      mstore\n      0x20\n      add\n      0x01\n      dup3\n      add\n      sload\n      dup2\n      mstore\n      0x20\n      add\n      0x02\n      dup3\n      add\n      sload\n      dup2\n      mstore\n      0x20\n      add\n      0x03\n      dup3\n      add\n      sload\n      dup2\n      mstore\n      0x20\n      add\n      0x04\n      dup3\n      add\n      sload\n      dup2\n      mstore\n      0x20\n      add\n      0x05\n      dup3\n      add\n      0x00\n      swap1\n      sload\n      swap1\n      0x0100\n      exp\n      swap1\n      div\n      0xff\n      and\n      0x03\n      dup2\n      gt\n      iszero\n      tag_364\n      jumpi\n      tag_365\n      tag_189\n      jump\t// in\n    tag_365:\n    tag_364:\n      0x03\n      dup2\n      gt\n      iszero\n      tag_366\n      jumpi\n      tag_367\n      tag_189\n      jump\t// in\n    tag_367:\n    tag_366:\n      dup2\n      mstore\n      pop\n      pop\n      swap1\n      pop\n        /* \"contracts/NFTLending.sol\":19353:19400  ref_is_offer_phase(loan_metadata, loan_stats_8) */\n      tag_368\n        /* \"contracts/NFTLending.sol\":19372:19385  loan_metadata */\n      dup3\n        /* \"contracts/NFTLending.sol\":19387:19399  loan_stats_8 */\n      dup3\n        /* \"contracts/NFTLending.sol\":19353:19371  ref_is_offer_phase */\n      tag_218\n        /* \"contracts/NFTLending.sol\":19353:19400  ref_is_offer_phase(loan_metadata, loan_stats_8) */\n      jump\t// in\n    tag_368:\n        /* \"contracts/NFTLending.sol\":19346:19400  return ref_is_offer_phase(loan_metadata, loan_stats_8) */\n      swap3\n      pop\n      pop\n      pop\n        /* \"contracts/NFTLending.sol\":18994:19411  function is_offer_phase(uint loan_id) public view returns (bool) {... */\n      swap2\n      swap1\n      pop\n      jump\t// out\n        /* \"contracts/NFTLending.sol\":15120:16499  function claim_loan_default(uint loan_id) public {... */\n    tag_146:\n        /* \"contracts/NFTLending.sol\":15261:15295  LoanMetadata storage loan_metadata */\n      0x00\n        /* \"contracts/NFTLending.sol\":15298:15303  loans */\n      0x0b\n        /* \"contracts/NFTLending.sol\":15298:15312  loans[loan_id] */\n      0x00\n        /* \"contracts/NFTLending.sol\":15304:15311  loan_id */\n      dup4\n        /* \"contracts/NFTLending.sol\":15298:15312  loans[loan_id] */\n      dup2\n      mstore\n      0x20\n      add\n      swap1\n      dup2\n      mstore\n      0x20\n      add\n      0x00\n      keccak256\n        /* \"contracts/NFTLending.sol\":15261:15312  LoanMetadata storage loan_metadata = loans[loan_id] */\n      swap1\n      pop\n        /* \"contracts/NFTLending.sol\":15326:15356  LoanStats storage loan_stats_6 */\n      0x00\n        /* \"contracts/NFTLending.sol\":15359:15369  loan_stats */\n      0x0c\n        /* \"contracts/NFTLending.sol\":15359:15378  loan_stats[loan_id] */\n      0x00\n        /* \"contracts/NFTLending.sol\":15370:15377  loan_id */\n      dup5\n        /* \"contracts/NFTLending.sol\":15359:15378  loan_stats[loan_id] */\n      dup2\n      mstore\n      0x20\n      add\n      swap1\n      dup2\n      mstore\n      0x20\n      add\n      0x00\n      keccak256\n        /* \"contracts/NFTLending.sol\":15326:15378  LoanStats storage loan_stats_6 = loan_stats[loan_id] */\n      swap1\n      pop\n        /* \"contracts/NFTLending.sol\":15521:15538  LoanStatus.ACTIVE */\n      0x01\n        /* \"contracts/NFTLending.sol\":15493:15538  loan_stats_6.loan_status == LoanStatus.ACTIVE */\n      0x03\n      dup2\n      gt\n      iszero\n      tag_370\n      jumpi\n      tag_371\n      tag_189\n      jump\t// in\n    tag_371:\n    tag_370:\n        /* \"contracts/NFTLending.sol\":15493:15505  loan_stats_6 */\n      dup2\n        /* \"contracts/NFTLending.sol\":15493:15517  loan_stats_6.loan_status */\n      0x05\n      add\n      0x00\n      swap1\n      sload\n      swap1\n      0x0100\n      exp\n      swap1\n      div\n      0xff\n      and\n        /* \"contracts/NFTLending.sol\":15493:15538  loan_stats_6.loan_status == LoanStatus.ACTIVE */\n      0x03\n      dup2\n      gt\n      iszero\n      tag_372\n      jumpi\n      tag_373\n      tag_189\n      jump\t// in\n    tag_373:\n    tag_372:\n      eq\n        /* \"contracts/NFTLending.sol\":15485:15561  require(loan_stats_6.loan_status == LoanStatus.ACTIVE, \"Loan is not active\") */\n      tag_374\n      jumpi\n      mload(0x40)\n      0x08c379a000000000000000000000000000000000000000000000000000000000\n      dup2\n      mstore\n      0x04\n      add\n      tag_375\n      swap1\n      tag_376\n      jump\t// in\n    tag_375:\n      mload(0x40)\n      dup1\n      swap2\n      sub\n      swap1\n      revert\n    tag_374:\n        /* \"contracts/NFTLending.sol\":15623:15632  uint time */\n      0x00\n        /* \"contracts/NFTLending.sol\":15635:15650  block.timestamp */\n      timestamp\n        /* \"contracts/NFTLending.sol\":15623:15650  uint time = block.timestamp */\n      swap1\n      pop\n        /* \"contracts/NFTLending.sol\":15743:15759  uint loan_expiry */\n      0x00\n        /* \"contracts/NFTLending.sol\":15793:15806  loan_metadata */\n      dup4\n        /* \"contracts/NFTLending.sol\":15793:15818  loan_metadata.loan_period */\n      0x05\n      add\n      sload\n        /* \"contracts/NFTLending.sol\":15762:15774  loan_stats_6 */\n      dup4\n        /* \"contracts/NFTLending.sol\":15762:15790  loan_stats_6.start_timestamp */\n      0x00\n      add\n      sload\n        /* \"contracts/NFTLending.sol\":15762:15818  loan_stats_6.start_timestamp + loan_metadata.loan_period */\n      tag_377\n      swap2\n      swap1\n      tag_177\n      jump\t// in\n    tag_377:\n        /* \"contracts/NFTLending.sol\":15743:15818  uint loan_expiry = loan_stats_6.start_timestamp + loan_metadata.loan_period */\n      swap1\n      pop\n        /* \"contracts/NFTLending.sol\":15963:15974  loan_expiry */\n      dup1\n        /* \"contracts/NFTLending.sol\":15956:15960  time */\n      dup3\n        /* \"contracts/NFTLending.sol\":15956:15974  time > loan_expiry */\n      gt\n        /* \"contracts/NFTLending.sol\":15948:15999  require(time > loan_expiry, \"Loan has not expired\") */\n      tag_378\n      jumpi\n      mload(0x40)\n      0x08c379a000000000000000000000000000000000000000000000000000000000\n      dup2\n      mstore\n      0x04\n      add\n      tag_379\n      swap1\n      tag_380\n      jump\t// in\n    tag_379:\n      mload(0x40)\n      dup1\n      swap2\n      sub\n      swap1\n      revert\n    tag_378:\n        /* \"contracts/NFTLending.sol\":16086:16139  ref_settle_loan(loan_id, loan_metadata, loan_stats_6) */\n      tag_381\n        /* \"contracts/NFTLending.sol\":16102:16109  loan_id */\n      dup6\n        /* \"contracts/NFTLending.sol\":16111:16124  loan_metadata */\n      dup6\n        /* \"contracts/NFTLending.sol\":16126:16138  loan_stats_6 */\n      dup6\n        /* \"contracts/NFTLending.sol\":16086:16101  ref_settle_loan */\n      tag_273\n        /* \"contracts/NFTLending.sol\":16086:16139  ref_settle_loan(loan_id, loan_metadata, loan_stats_6) */\n      jump\t// in\n    tag_381:\n        /* \"contracts/NFTLending.sol\":16209:16249  dec_credit_score(loan_metadata.borrower) */\n      tag_382\n        /* \"contracts/NFTLending.sol\":16226:16239  loan_metadata */\n      dup5\n        /* \"contracts/NFTLending.sol\":16226:16248  loan_metadata.borrower */\n      0x00\n      add\n      0x00\n      swap1\n      sload\n      swap1\n      0x0100\n      exp\n      swap1\n      div\n      0xffffffffffffffffffffffffffffffffffffffff\n      and\n        /* \"contracts/NFTLending.sol\":16209:16225  dec_credit_score */\n      tag_383\n        /* \"contracts/NFTLending.sol\":16209:16249  dec_credit_score(loan_metadata.borrower) */\n      jump\t// in\n    tag_382:\n        /* \"contracts/NFTLending.sol\":16370:16387  LoanStatus.CLOSED */\n      0x02\n        /* \"contracts/NFTLending.sol\":16343:16355  loan_stats_6 */\n      dup4\n        /* \"contracts/NFTLending.sol\":16343:16367  loan_stats_6.loan_status */\n      0x05\n      add\n      0x00\n        /* \"contracts/NFTLending.sol\":16343:16387  loan_stats_6.loan_status = LoanStatus.CLOSED */\n      0x0100\n      exp\n      dup2\n      sload\n      dup2\n      0xff\n      mul\n      not\n      and\n      swap1\n      dup4\n      0x03\n      dup2\n      gt\n      iszero\n      tag_384\n      jumpi\n      tag_385\n      tag_189\n      jump\t// in\n    tag_385:\n    tag_384:\n      mul\n      or\n      swap1\n      sstore\n      pop\n        /* \"contracts/NFTLending.sol\":16476:16488  loan_stats_6 */\n      dup3\n        /* \"contracts/NFTLending.sol\":16454:16464  loan_stats */\n      0x0c\n        /* \"contracts/NFTLending.sol\":16454:16473  loan_stats[loan_id] */\n      0x00\n        /* \"contracts/NFTLending.sol\":16465:16472  loan_id */\n      dup8\n        /* \"contracts/NFTLending.sol\":16454:16473  loan_stats[loan_id] */\n      dup2\n      mstore\n      0x20\n      add\n      swap1\n      dup2\n      mstore\n      0x20\n      add\n      0x00\n      keccak256\n        /* \"contracts/NFTLending.sol\":16454:16488  loan_stats[loan_id] = loan_stats_6 */\n      0x00\n      dup3\n      add\n      sload\n      dup2\n      0x00\n      add\n      sstore\n      0x01\n      dup3\n      add\n      sload\n      dup2\n      0x01\n      add\n      sstore\n      0x02\n      dup3\n      add\n      sload\n      dup2\n      0x02\n      add\n      sstore\n      0x03\n      dup3\n      add\n      sload\n      dup2\n      0x03\n      add\n      sstore\n      0x04\n      dup3\n      add\n      sload\n      dup2\n      0x04\n      add\n      sstore\n      0x05\n      dup3\n      add\n      0x00\n      swap1\n      sload\n      swap1\n      0x0100\n      exp\n      swap1\n      div\n      0xff\n      and\n      dup2\n      0x05\n      add\n      exp(0x0100, 0x00)\n      dup2\n      sload\n      dup2\n      0xff\n      mul\n      not\n      and\n      swap1\n      dup4\n      0x03\n      dup2\n      gt\n      iszero\n      tag_386\n      jumpi\n      tag_387\n      tag_189\n      jump\t// in\n    tag_387:\n    tag_386:\n      mul\n      or\n      swap1\n      sstore\n      pop\n      swap1\n      pop\n      pop\n        /* \"contracts/NFTLending.sol\":15169:16499  {... */\n      pop\n      pop\n      pop\n      pop\n        /* \"contracts/NFTLending.sol\":15120:16499  function claim_loan_default(uint loan_id) public {... */\n      pop\n      jump\t// out\n        /* \"contracts/NFTLending.sol\":1743:1763  address public admin */\n    tag_149:\n      0x05\n      0x00\n      swap1\n      sload\n      swap1\n      0x0100\n      exp\n      swap1\n      div\n      0xffffffffffffffffffffffffffffffffffffffff\n      and\n      dup2\n      jump\t// out\n        /* \"contracts/NFTLending.sol\":186:202  uint public Time */\n    tag_153:\n      sload(0x04)\n      dup2\n      jump\t// out\n        /* \"contracts/NFTLending.sol\":1844:1876  uint public offer_phase_duration */\n    tag_157:\n      sload(0x08)\n      dup2\n      jump\t// out\n        /* \"contracts/NFTLending.sol\":2216:2280  mapping(uint => mapping(address => uint)) public active_offer_id */\n    tag_163:\n      mstore(0x20, 0x0f)\n      dup2\n      0x00\n      mstore\n      mstore(0x20, keccak256(0x00, 0x40))\n      dup1\n      0x00\n      mstore\n      keccak256(0x00, 0x40)\n      0x00\n      swap2\n      pop\n      swap2\n      pop\n      pop\n      sload\n      dup2\n      jump\t// out\n        /* \"contracts/NFTLending.sol\":22464:23168  function ref_reject_all_offers(uint loan_id) internal {... */\n    tag_203:\n        /* \"contracts/NFTLending.sol\":22532:22549  uint total_offers */\n      0x00\n        /* \"contracts/NFTLending.sol\":22552:22564  offers_nonce */\n      0x0d\n        /* \"contracts/NFTLending.sol\":22552:22573  offers_nonce[loan_id] */\n      0x00\n        /* \"contracts/NFTLending.sol\":22565:22572  loan_id */\n      dup4\n        /* \"contracts/NFTLending.sol\":22552:22573  offers_nonce[loan_id] */\n      dup2\n      mstore\n      0x20\n      add\n      swap1\n      dup2\n      mstore\n      0x20\n      add\n      0x00\n      keccak256\n      sload\n        /* \"contracts/NFTLending.sol\":22532:22573  uint total_offers = offers_nonce[loan_id] */\n      swap1\n      pop\n        /* \"contracts/NFTLending.sol\":22593:22606  uint offer_id */\n      0x00\n        /* \"contracts/NFTLending.sol\":22588:23157  for (uint offer_id = 0; offer_id < total_offers; offer_id++) {... */\n    tag_389:\n        /* \"contracts/NFTLending.sol\":22623:22635  total_offers */\n      dup2\n        /* \"contracts/NFTLending.sol\":22612:22620  offer_id */\n      dup2\n        /* \"contracts/NFTLending.sol\":22612:22635  offer_id < total_offers */\n      lt\n        /* \"contracts/NFTLending.sol\":22588:23157  for (uint offer_id = 0; offer_id < total_offers; offer_id++) {... */\n      iszero\n      tag_390\n      jumpi\n        /* \"contracts/NFTLending.sol\":22739:22766  OfferMetadata storage offer */\n      0x00\n        /* \"contracts/NFTLending.sol\":22769:22775  offers */\n      0x0e\n        /* \"contracts/NFTLending.sol\":22769:22784  offers[loan_id] */\n      0x00\n        /* \"contracts/NFTLending.sol\":22776:22783  loan_id */\n      dup6\n        /* \"contracts/NFTLending.sol\":22769:22784  offers[loan_id] */\n      dup2\n      mstore\n      0x20\n      add\n      swap1\n      dup2\n      mstore\n      0x20\n      add\n      0x00\n      keccak256\n        /* \"contracts/NFTLending.sol\":22769:22794  offers[loan_id][offer_id] */\n      0x00\n        /* \"contracts/NFTLending.sol\":22785:22793  offer_id */\n      dup4\n        /* \"contracts/NFTLending.sol\":22769:22794  offers[loan_id][offer_id] */\n      dup2\n      mstore\n      0x20\n      add\n      swap1\n      dup2\n      mstore\n      0x20\n      add\n      0x00\n      keccak256\n        /* \"contracts/NFTLending.sol\":22739:22794  OfferMetadata storage offer = offers[loan_id][offer_id] */\n      swap1\n      pop\n        /* \"contracts/NFTLending.sol\":22929:22948  OfferStatus.PENDING */\n      0x00\n        /* \"contracts/NFTLending.sol\":22913:22948  offer.status == OfferStatus.PENDING */\n      0x03\n      dup2\n      gt\n      iszero\n      tag_392\n      jumpi\n      tag_393\n      tag_189\n      jump\t// in\n    tag_393:\n    tag_392:\n        /* \"contracts/NFTLending.sol\":22913:22918  offer */\n      dup2\n        /* \"contracts/NFTLending.sol\":22913:22925  offer.status */\n      0x03\n      add\n      0x00\n      swap1\n      sload\n      swap1\n      0x0100\n      exp\n      swap1\n      div\n      0xff\n      and\n        /* \"contracts/NFTLending.sol\":22913:22948  offer.status == OfferStatus.PENDING */\n      0x03\n      dup2\n      gt\n      iszero\n      tag_394\n      jumpi\n      tag_395\n      tag_189\n      jump\t// in\n    tag_395:\n    tag_394:\n      eq\n        /* \"contracts/NFTLending.sol\":22913:22988  offer.status == OfferStatus.PENDING || offer.status == OfferStatus.ACCEPTED */\n      dup1\n      tag_396\n      jumpi\n      pop\n        /* \"contracts/NFTLending.sol\":22968:22988  OfferStatus.ACCEPTED */\n      0x01\n        /* \"contracts/NFTLending.sol\":22952:22988  offer.status == OfferStatus.ACCEPTED */\n      0x03\n      dup2\n      gt\n      iszero\n      tag_397\n      jumpi\n      tag_398\n      tag_189\n      jump\t// in\n    tag_398:\n    tag_397:\n        /* \"contracts/NFTLending.sol\":22952:22957  offer */\n      dup2\n        /* \"contracts/NFTLending.sol\":22952:22964  offer.status */\n      0x03\n      add\n      0x00\n      swap1\n      sload\n      swap1\n      0x0100\n      exp\n      swap1\n      div\n      0xff\n      and\n        /* \"contracts/NFTLending.sol\":22952:22988  offer.status == OfferStatus.ACCEPTED */\n      0x03\n      dup2\n      gt\n      iszero\n      tag_399\n      jumpi\n      tag_400\n      tag_189\n      jump\t// in\n    tag_400:\n    tag_399:\n      eq\n        /* \"contracts/NFTLending.sol\":22913:22988  offer.status == OfferStatus.PENDING || offer.status == OfferStatus.ACCEPTED */\n    tag_396:\n        /* \"contracts/NFTLending.sol\":22909:23143  if (offer.status == OfferStatus.PENDING || offer.status == OfferStatus.ACCEPTED) {... */\n      iszero\n      tag_401\n      jumpi\n        /* \"contracts/NFTLending.sol\":23082:23124  ref_reject_offer(loan_id, offer_id, offer) */\n      tag_402\n        /* \"contracts/NFTLending.sol\":23099:23106  loan_id */\n      dup5\n        /* \"contracts/NFTLending.sol\":23108:23116  offer_id */\n      dup4\n        /* \"contracts/NFTLending.sol\":23118:23123  offer */\n      dup4\n        /* \"contracts/NFTLending.sol\":23082:23098  ref_reject_offer */\n      tag_342\n        /* \"contracts/NFTLending.sol\":23082:23124  ref_reject_offer(loan_id, offer_id, offer) */\n      jump\t// in\n    tag_402:\n        /* \"contracts/NFTLending.sol\":22909:23143  if (offer.status == OfferStatus.PENDING || offer.status == OfferStatus.ACCEPTED) {... */\n    tag_401:\n        /* \"contracts/NFTLending.sol\":22649:23157  {... */\n      pop\n        /* \"contracts/NFTLending.sol\":22637:22647  offer_id++ */\n      dup1\n      dup1\n      tag_403\n      swap1\n      tag_254\n      jump\t// in\n    tag_403:\n      swap2\n      pop\n      pop\n        /* \"contracts/NFTLending.sol\":22588:23157  for (uint offer_id = 0; offer_id < total_offers; offer_id++) {... */\n      jump(tag_389)\n    tag_390:\n      pop\n        /* \"contracts/NFTLending.sol\":22518:23168  {... */\n      pop\n        /* \"contracts/NFTLending.sol\":22464:23168  function ref_reject_all_offers(uint loan_id) internal {... */\n      pop\n      jump\t// out\n        /* \"contracts/NFTLending.sol\":28298:30230  function transfer_fractional_nft() internal  pure {... */\n    tag_205:\n      jump\t// out\n        /* \"contracts/NFTLending.sol\":19712:20502  function ref_is_offer_phase(LoanMetadata memory loan_metadata, LoanStats memory loan_stats_9) internal view returns (bool) {... */\n    tag_218:\n        /* \"contracts/NFTLending.sol\":19829:19833  bool */\n      0x00\n        /* \"contracts/NFTLending.sol\":19974:19989  LoanStatus.OPEN */\n      dup1\n        /* \"contracts/NFTLending.sol\":19946:19989  loan_stats_9.loan_status == LoanStatus.OPEN */\n      0x03\n      dup2\n      gt\n      iszero\n      tag_406\n      jumpi\n      tag_407\n      tag_189\n      jump\t// in\n    tag_407:\n    tag_406:\n        /* \"contracts/NFTLending.sol\":19946:19958  loan_stats_9 */\n      dup3\n        /* \"contracts/NFTLending.sol\":19946:19970  loan_stats_9.loan_status */\n      0xa0\n      add\n      mload\n        /* \"contracts/NFTLending.sol\":19946:19989  loan_stats_9.loan_status == LoanStatus.OPEN */\n      0x03\n      dup2\n      gt\n      iszero\n      tag_408\n      jumpi\n      tag_409\n      tag_189\n      jump\t// in\n    tag_409:\n    tag_408:\n      eq\n        /* \"contracts/NFTLending.sol\":19921:20045  require(... */\n      tag_410\n      jumpi\n      mload(0x40)\n      0x08c379a000000000000000000000000000000000000000000000000000000000\n      dup2\n      mstore\n      0x04\n      add\n      tag_411\n      swap1\n      tag_221\n      jump\t// in\n    tag_411:\n      mload(0x40)\n      dup1\n      swap2\n      sub\n      swap1\n      revert\n    tag_410:\n        /* \"contracts/NFTLending.sol\":20121:20138  uint current_time */\n      0x00\n        /* \"contracts/NFTLending.sol\":20141:20156  block.timestamp */\n      timestamp\n        /* \"contracts/NFTLending.sol\":20121:20156  uint current_time = block.timestamp */\n      swap1\n      pop\n        /* \"contracts/NFTLending.sol\":20325:20345  offer_phase_duration */\n      sload(0x08)\n        /* \"contracts/NFTLending.sol\":20291:20304  loan_metadata */\n      dup5\n        /* \"contracts/NFTLending.sol\":20291:20322  loan_metadata.listing_timestamp */\n      0xc0\n      add\n      mload\n        /* \"contracts/NFTLending.sol\":20291:20345  loan_metadata.listing_timestamp + offer_phase_duration */\n      tag_412\n      swap2\n      swap1\n      tag_177\n      jump\t// in\n    tag_412:\n        /* \"contracts/NFTLending.sol\":20275:20287  current_time */\n      dup2\n        /* \"contracts/NFTLending.sol\":20275:20345  current_time <= loan_metadata.listing_timestamp + offer_phase_duration */\n      gt\n      iszero\n        /* \"contracts/NFTLending.sol\":20250:20401  require(... */\n      tag_413\n      jumpi\n      mload(0x40)\n      0x08c379a000000000000000000000000000000000000000000000000000000000\n      dup2\n      mstore\n      0x04\n      add\n      tag_414\n      swap1\n      tag_221\n      jump\t// in\n    tag_414:\n      mload(0x40)\n      dup1\n      swap2\n      sub\n      swap1\n      revert\n    tag_413:\n        /* \"contracts/NFTLending.sol\":20487:20491  true */\n      0x01\n        /* \"contracts/NFTLending.sol\":20480:20491  return true */\n      swap2\n      pop\n      pop\n        /* \"contracts/NFTLending.sol\":19712:20502  function ref_is_offer_phase(LoanMetadata memory loan_metadata, LoanStats memory loan_stats_9) internal view returns (bool) {... */\n      swap3\n      swap2\n      pop\n      pop\n      jump\t// out\n        /* \"contracts/NFTLending.sol\":21223:22383  function ref_settle_loan(uint loan_id, LoanMetadata storage loan_metadata, LoanStats storage loan_stats_11) internal {... */\n    tag_273:\n        /* \"contracts/NFTLending.sol\":21354:21371  uint total_offers */\n      0x00\n        /* \"contracts/NFTLending.sol\":21374:21386  offers_nonce */\n      0x0d\n        /* \"contracts/NFTLending.sol\":21374:21395  offers_nonce[loan_id] */\n      0x00\n        /* \"contracts/NFTLending.sol\":21387:21394  loan_id */\n      dup6\n        /* \"contracts/NFTLending.sol\":21374:21395  offers_nonce[loan_id] */\n      dup2\n      mstore\n      0x20\n      add\n      swap1\n      dup2\n      mstore\n      0x20\n      add\n      0x00\n      keccak256\n      sload\n        /* \"contracts/NFTLending.sol\":21354:21395  uint total_offers = offers_nonce[loan_id] */\n      swap1\n      pop\n        /* \"contracts/NFTLending.sol\":21409:21430  uint remaining_shares */\n      0x00\n        /* \"contracts/NFTLending.sol\":21433:21446  loan_metadata */\n      dup4\n        /* \"contracts/NFTLending.sol\":21433:21460  loan_metadata.shares_locked */\n      0x02\n      add\n      sload\n        /* \"contracts/NFTLending.sol\":21409:21460  uint remaining_shares = loan_metadata.shares_locked */\n      swap1\n      pop\n        /* \"contracts/NFTLending.sol\":21474:21503  uint borrower_unlocked_shares */\n      0x00\n        /* \"contracts/NFTLending.sol\":21506:21577  ref_get_borrower_settlement(loan_stats_11, loan_metadata.shares_locked) */\n      tag_416\n        /* \"contracts/NFTLending.sol\":21534:21547  loan_stats_11 */\n      dup5\n        /* \"contracts/NFTLending.sol\":21506:21577  ref_get_borrower_settlement(loan_stats_11, loan_metadata.shares_locked) */\n      mload(0x40)\n      dup1\n      0xc0\n      add\n      0x40\n      mstore\n      swap1\n      dup2\n      0x00\n      dup3\n      add\n      sload\n      dup2\n      mstore\n      0x20\n      add\n      0x01\n      dup3\n      add\n      sload\n      dup2\n      mstore\n      0x20\n      add\n      0x02\n      dup3\n      add\n      sload\n      dup2\n      mstore\n      0x20\n      add\n      0x03\n      dup3\n      add\n      sload\n      dup2\n      mstore\n      0x20\n      add\n      0x04\n      dup3\n      add\n      sload\n      dup2\n      mstore\n      0x20\n      add\n      0x05\n      dup3\n      add\n      0x00\n      swap1\n      sload\n      swap1\n      0x0100\n      exp\n      swap1\n      div\n      0xff\n      and\n      0x03\n      dup2\n      gt\n      iszero\n      tag_417\n      jumpi\n      tag_418\n      tag_189\n      jump\t// in\n    tag_418:\n    tag_417:\n      0x03\n      dup2\n      gt\n      iszero\n      tag_419\n      jumpi\n      tag_420\n      tag_189\n      jump\t// in\n    tag_420:\n    tag_419:\n      dup2\n      mstore\n      pop\n      pop\n        /* \"contracts/NFTLending.sol\":21549:21562  loan_metadata */\n      dup7\n        /* \"contracts/NFTLending.sol\":21549:21576  loan_metadata.shares_locked */\n      0x02\n      add\n      sload\n        /* \"contracts/NFTLending.sol\":21506:21533  ref_get_borrower_settlement */\n      tag_421\n        /* \"contracts/NFTLending.sol\":21506:21577  ref_get_borrower_settlement(loan_stats_11, loan_metadata.shares_locked) */\n      jump\t// in\n    tag_416:\n        /* \"contracts/NFTLending.sol\":21474:21577  uint borrower_unlocked_shares = ref_get_borrower_settlement(loan_stats_11, loan_metadata.shares_locked) */\n      swap1\n      pop\n        /* \"contracts/NFTLending.sol\":21597:21610  uint offer_id */\n      0x00\n        /* \"contracts/NFTLending.sol\":21592:22259  for (uint offer_id = 0; offer_id < total_offers; offer_id++) {... */\n    tag_422:\n        /* \"contracts/NFTLending.sol\":21627:21639  total_offers */\n      dup4\n        /* \"contracts/NFTLending.sol\":21616:21624  offer_id */\n      dup2\n        /* \"contracts/NFTLending.sol\":21616:21639  offer_id < total_offers */\n      lt\n        /* \"contracts/NFTLending.sol\":21592:22259  for (uint offer_id = 0; offer_id < total_offers; offer_id++) {... */\n      iszero\n      tag_423\n      jumpi\n        /* \"contracts/NFTLending.sol\":21671:21697  OfferMetadata memory offer */\n      0x00\n        /* \"contracts/NFTLending.sol\":21700:21706  offers */\n      0x0e\n        /* \"contracts/NFTLending.sol\":21700:21715  offers[loan_id] */\n      0x00\n        /* \"contracts/NFTLending.sol\":21707:21714  loan_id */\n      dup10\n        /* \"contracts/NFTLending.sol\":21700:21715  offers[loan_id] */\n      dup2\n      mstore\n      0x20\n      add\n      swap1\n      dup2\n      mstore\n      0x20\n      add\n      0x00\n      keccak256\n        /* \"contracts/NFTLending.sol\":21700:21725  offers[loan_id][offer_id] */\n      0x00\n        /* \"contracts/NFTLending.sol\":21716:21724  offer_id */\n      dup4\n        /* \"contracts/NFTLending.sol\":21700:21725  offers[loan_id][offer_id] */\n      dup2\n      mstore\n      0x20\n      add\n      swap1\n      dup2\n      mstore\n      0x20\n      add\n      0x00\n      keccak256\n        /* \"contracts/NFTLending.sol\":21671:21725  OfferMetadata memory offer = offers[loan_id][offer_id] */\n      mload(0x40)\n      dup1\n      0x80\n      add\n      0x40\n      mstore\n      swap1\n      dup2\n      0x00\n      dup3\n      add\n      0x00\n      swap1\n      sload\n      swap1\n      0x0100\n      exp\n      swap1\n      div\n      0xffffffffffffffffffffffffffffffffffffffff\n      and\n      0xffffffffffffffffffffffffffffffffffffffff\n      and\n      0xffffffffffffffffffffffffffffffffffffffff\n      and\n      dup2\n      mstore\n      0x20\n      add\n      0x01\n      dup3\n      add\n      sload\n      dup2\n      mstore\n      0x20\n      add\n      0x02\n      dup3\n      add\n      sload\n      dup2\n      mstore\n      0x20\n      add\n      0x03\n      dup3\n      add\n      0x00\n      swap1\n      sload\n      swap1\n      0x0100\n      exp\n      swap1\n      div\n      0xff\n      and\n      0x03\n      dup2\n      gt\n      iszero\n      tag_425\n      jumpi\n      tag_426\n      tag_189\n      jump\t// in\n    tag_426:\n    tag_425:\n      0x03\n      dup2\n      gt\n      iszero\n      tag_427\n      jumpi\n      tag_428\n      tag_189\n      jump\t// in\n    tag_428:\n    tag_427:\n      dup2\n      mstore\n      pop\n      pop\n      swap1\n      pop\n        /* \"contracts/NFTLending.sol\":21763:21783  OfferStatus.ACCEPTED */\n      0x01\n        /* \"contracts/NFTLending.sol\":21747:21783  offer.status == OfferStatus.ACCEPTED */\n      0x03\n      dup2\n      gt\n      iszero\n      tag_429\n      jumpi\n      tag_430\n      tag_189\n      jump\t// in\n    tag_430:\n    tag_429:\n        /* \"contracts/NFTLending.sol\":21747:21752  offer */\n      dup2\n        /* \"contracts/NFTLending.sol\":21747:21759  offer.status */\n      0x60\n      add\n      mload\n        /* \"contracts/NFTLending.sol\":21747:21783  offer.status == OfferStatus.ACCEPTED */\n      0x03\n      dup2\n      gt\n      iszero\n      tag_431\n      jumpi\n      tag_432\n      tag_189\n      jump\t// in\n    tag_432:\n    tag_431:\n      sub\n        /* \"contracts/NFTLending.sol\":21743:22245  if (offer.status == OfferStatus.ACCEPTED) {... */\n      tag_433\n      jumpi\n        /* \"contracts/NFTLending.sol\":21808:21818  uint funds */\n      0x00\n        /* \"contracts/NFTLending.sol\":21820:21835  uint nft_shares */\n      dup1\n        /* \"contracts/NFTLending.sol\":21839:21927  ref_get_lender_settlement(loan_metadata, loan_stats_11, offer, borrower_unlocked_shares) */\n      tag_434\n        /* \"contracts/NFTLending.sol\":21865:21878  loan_metadata */\n      dup10\n        /* \"contracts/NFTLending.sol\":21839:21927  ref_get_lender_settlement(loan_metadata, loan_stats_11, offer, borrower_unlocked_shares) */\n      mload(0x40)\n      dup1\n      0xe0\n      add\n      0x40\n      mstore\n      swap1\n      dup2\n      0x00\n      dup3\n      add\n      0x00\n      swap1\n      sload\n      swap1\n      0x0100\n      exp\n      swap1\n      div\n      0xffffffffffffffffffffffffffffffffffffffff\n      and\n      0xffffffffffffffffffffffffffffffffffffffff\n      and\n      0xffffffffffffffffffffffffffffffffffffffff\n      and\n      dup2\n      mstore\n      0x20\n      add\n      0x01\n      dup3\n      add\n      sload\n      dup2\n      mstore\n      0x20\n      add\n      0x02\n      dup3\n      add\n      sload\n      dup2\n      mstore\n      0x20\n      add\n      0x03\n      dup3\n      add\n      sload\n      dup2\n      mstore\n      0x20\n      add\n      0x04\n      dup3\n      add\n      sload\n      dup2\n      mstore\n      0x20\n      add\n      0x05\n      dup3\n      add\n      sload\n      dup2\n      mstore\n      0x20\n      add\n      0x06\n      dup3\n      add\n      sload\n      dup2\n      mstore\n      pop\n      pop\n        /* \"contracts/NFTLending.sol\":21880:21893  loan_stats_11 */\n      dup10\n        /* \"contracts/NFTLending.sol\":21839:21927  ref_get_lender_settlement(loan_metadata, loan_stats_11, offer, borrower_unlocked_shares) */\n      mload(0x40)\n      dup1\n      0xc0\n      add\n      0x40\n      mstore\n      swap1\n      dup2\n      0x00\n      dup3\n      add\n      sload\n      dup2\n      mstore\n      0x20\n      add\n      0x01\n      dup3\n      add\n      sload\n      dup2\n      mstore\n      0x20\n      add\n      0x02\n      dup3\n      add\n      sload\n      dup2\n      mstore\n      0x20\n      add\n      0x03\n      dup3\n      add\n      sload\n      dup2\n      mstore\n      0x20\n      add\n      0x04\n      dup3\n      add\n      sload\n      dup2\n      mstore\n      0x20\n      add\n      0x05\n      dup3\n      add\n      0x00\n      swap1\n      sload\n      swap1\n      0x0100\n      exp\n      swap1\n      div\n      0xff\n      and\n      0x03\n      dup2\n      gt\n      iszero\n      tag_435\n      jumpi\n      tag_436\n      tag_189\n      jump\t// in\n    tag_436:\n    tag_435:\n      0x03\n      dup2\n      gt\n      iszero\n      tag_437\n      jumpi\n      tag_438\n      tag_189\n      jump\t// in\n    tag_438:\n    tag_437:\n      dup2\n      mstore\n      pop\n      pop\n        /* \"contracts/NFTLending.sol\":21895:21900  offer */\n      dup6\n        /* \"contracts/NFTLending.sol\":21902:21926  borrower_unlocked_shares */\n      dup9\n        /* \"contracts/NFTLending.sol\":21839:21864  ref_get_lender_settlement */\n      tag_439\n        /* \"contracts/NFTLending.sol\":21839:21927  ref_get_lender_settlement(loan_metadata, loan_stats_11, offer, borrower_unlocked_shares) */\n      jump\t// in\n    tag_434:\n        /* \"contracts/NFTLending.sol\":21807:21927  (uint funds, uint nft_shares) = ref_get_lender_settlement(loan_metadata, loan_stats_11, offer, borrower_unlocked_shares) */\n      swap2\n      pop\n      swap2\n      pop\n        /* \"contracts/NFTLending.sol\":21969:21979  nft_shares */\n      dup1\n        /* \"contracts/NFTLending.sol\":21949:21979  remaining_shares -= nft_shares */\n      dup7\n      tag_440\n      swap2\n      swap1\n      tag_170\n      jump\t// in\n    tag_440:\n      swap6\n      pop\n        /* \"contracts/NFTLending.sol\":22070:22075  offer */\n      dup3\n        /* \"contracts/NFTLending.sol\":22070:22082  offer.lender */\n      0x00\n      add\n      mload\n        /* \"contracts/NFTLending.sol\":22062:22088  payable(offer.lender).send */\n      0xffffffffffffffffffffffffffffffffffffffff\n      and\n        /* \"contracts/NFTLending.sol\":22062:22095  payable(offer.lender).send(funds) */\n      0x08fc\n        /* \"contracts/NFTLending.sol\":22089:22094  funds */\n      dup4\n        /* \"contracts/NFTLending.sol\":22062:22095  payable(offer.lender).send(funds) */\n      swap1\n      dup2\n      iszero\n      mul\n      swap1\n      mload(0x40)\n      0x00\n      mload(0x40)\n      dup1\n      dup4\n      sub\n      dup2\n      dup6\n      dup9\n      dup9\n      call\n      swap4\n      pop\n      pop\n      pop\n      pop\n        /* \"contracts/NFTLending.sol\":22054:22114  require(payable(offer.lender).send(funds), \"WithdrawFailed\") */\n      tag_442\n      jumpi\n      mload(0x40)\n      0x08c379a000000000000000000000000000000000000000000000000000000000\n      dup2\n      mstore\n      0x04\n      add\n      tag_443\n      swap1\n      tag_201\n      jump\t// in\n    tag_443:\n      mload(0x40)\n      dup1\n      swap2\n      sub\n      swap1\n      revert\n    tag_442:\n        /* \"contracts/NFTLending.sol\":22201:22226  transfer_fractional_nft() */\n      tag_444\n        /* \"contracts/NFTLending.sol\":22201:22224  transfer_fractional_nft */\n      tag_205\n        /* \"contracts/NFTLending.sol\":22201:22226  transfer_fractional_nft() */\n      jump\t// in\n    tag_444:\n        /* \"contracts/NFTLending.sol\":21785:22245  {... */\n      pop\n      pop\n        /* \"contracts/NFTLending.sol\":21743:22245  if (offer.status == OfferStatus.ACCEPTED) {... */\n    tag_433:\n        /* \"contracts/NFTLending.sol\":21653:22259  {... */\n      pop\n        /* \"contracts/NFTLending.sol\":21641:21651  offer_id++ */\n      dup1\n      dup1\n      tag_445\n      swap1\n      tag_254\n      jump\t// in\n    tag_445:\n      swap2\n      pop\n      pop\n        /* \"contracts/NFTLending.sol\":21592:22259  for (uint offer_id = 0; offer_id < total_offers; offer_id++) {... */\n      jump(tag_422)\n    tag_423:\n      pop\n        /* \"contracts/NFTLending.sol\":22346:22371  transfer_fractional_nft() */\n      tag_446\n        /* \"contracts/NFTLending.sol\":22346:22369  transfer_fractional_nft */\n      tag_205\n        /* \"contracts/NFTLending.sol\":22346:22371  transfer_fractional_nft() */\n      jump\t// in\n    tag_446:\n        /* \"contracts/NFTLending.sol\":21340:22383  {... */\n      pop\n      pop\n      pop\n        /* \"contracts/NFTLending.sol\":21223:22383  function ref_settle_loan(uint loan_id, LoanMetadata storage loan_metadata, LoanStats storage loan_stats_11) internal {... */\n      pop\n      pop\n      pop\n      jump\t// out\n        /* \"contracts/NFTLending.sol\":26538:27163  function inc_credit_score(address account) internal {... */\n    tag_275:\n        /* \"contracts/NFTLending.sol\":26705:26715  uint score */\n      0x00\n        /* \"contracts/NFTLending.sol\":26718:26730  credit_score */\n      0x0a\n        /* \"contracts/NFTLending.sol\":26718:26739  credit_score[account] */\n      0x00\n        /* \"contracts/NFTLending.sol\":26731:26738  account */\n      dup4\n        /* \"contracts/NFTLending.sol\":26718:26739  credit_score[account] */\n      0xffffffffffffffffffffffffffffffffffffffff\n      and\n      0xffffffffffffffffffffffffffffffffffffffff\n      and\n      dup2\n      mstore\n      0x20\n      add\n      swap1\n      dup2\n      mstore\n      0x20\n      add\n      0x00\n      keccak256\n      sload\n        /* \"contracts/NFTLending.sol\":26705:26739  uint score = credit_score[account] */\n      swap1\n      pop\n        /* \"contracts/NFTLending.sol\":26766:26767  0 */\n      0x00\n        /* \"contracts/NFTLending.sol\":26757:26762  score */\n      dup2\n        /* \"contracts/NFTLending.sol\":26757:26767  score == 0 */\n      sub\n        /* \"contracts/NFTLending.sol\":26754:26813  if(score == 0) {... */\n      tag_448\n      jumpi\n        /* \"contracts/NFTLending.sol\":26795:26798  500 */\n      0x01f4\n        /* \"contracts/NFTLending.sol\":26787:26798  score = 500 */\n      swap1\n      pop\n        /* \"contracts/NFTLending.sol\":26754:26813  if(score == 0) {... */\n    tag_448:\n        /* \"contracts/NFTLending.sol\":26891:26893  20 */\n      0x14\n        /* \"contracts/NFTLending.sol\":26882:26893  score += 20 */\n      dup2\n      tag_449\n      swap2\n      swap1\n      tag_177\n      jump\t// in\n    tag_449:\n      swap1\n      pop\n        /* \"contracts/NFTLending.sol\":27004:27008  1000 */\n      0x03e8\n        /* \"contracts/NFTLending.sol\":26996:27001  score */\n      dup2\n        /* \"contracts/NFTLending.sol\":26996:27008  score > 1000 */\n      gt\n        /* \"contracts/NFTLending.sol\":26992:27055  if (score > 1000) {... */\n      iszero\n      tag_450\n      jumpi\n        /* \"contracts/NFTLending.sol\":27036:27040  1000 */\n      0x03e8\n        /* \"contracts/NFTLending.sol\":27028:27040  score = 1000 */\n      swap1\n      pop\n        /* \"contracts/NFTLending.sol\":26992:27055  if (score > 1000) {... */\n    tag_450:\n        /* \"contracts/NFTLending.sol\":27147:27152  score */\n      dup1\n        /* \"contracts/NFTLending.sol\":27123:27135  credit_score */\n      0x0a\n        /* \"contracts/NFTLending.sol\":27123:27144  credit_score[account] */\n      0x00\n        /* \"contracts/NFTLending.sol\":27136:27143  account */\n      dup5\n        /* \"contracts/NFTLending.sol\":27123:27144  credit_score[account] */\n      0xffffffffffffffffffffffffffffffffffffffff\n      and\n      0xffffffffffffffffffffffffffffffffffffffff\n      and\n      dup2\n      mstore\n      0x20\n      add\n      swap1\n      dup2\n      mstore\n      0x20\n      add\n      0x00\n      keccak256\n        /* \"contracts/NFTLending.sol\":27123:27152  credit_score[account] = score */\n      dup2\n      swap1\n      sstore\n      pop\n        /* \"contracts/NFTLending.sol\":26590:27163  {... */\n      pop\n        /* \"contracts/NFTLending.sol\":26538:27163  function inc_credit_score(address account) internal {... */\n      pop\n      jump\t// out\n        /* \"contracts/NFTLending.sol\":20513:21176  function ref_start_loan(uint loan_id, LoanStats storage loan_stats_10, address borrower) internal {... */\n    tag_297:\n        /* \"contracts/NFTLending.sol\":20662:20677  block.timestamp */\n      timestamp\n        /* \"contracts/NFTLending.sol\":20625:20638  loan_stats_10 */\n      dup3\n        /* \"contracts/NFTLending.sol\":20625:20654  loan_stats_10.start_timestamp */\n      0x00\n      add\n        /* \"contracts/NFTLending.sol\":20625:20678  loan_stats_10.start_timestamp = uint(block.timestamp) */\n      dup2\n      swap1\n      sstore\n      pop\n        /* \"contracts/NFTLending.sol\":20720:20737  LoanStatus.ACTIVE */\n      0x01\n        /* \"contracts/NFTLending.sol\":20692:20705  loan_stats_10 */\n      dup3\n        /* \"contracts/NFTLending.sol\":20692:20717  loan_stats_10.loan_status */\n      0x05\n      add\n      0x00\n        /* \"contracts/NFTLending.sol\":20692:20737  loan_stats_10.loan_status = LoanStatus.ACTIVE */\n      0x0100\n      exp\n      dup2\n      sload\n      dup2\n      0xff\n      mul\n      not\n      and\n      swap1\n      dup4\n      0x03\n      dup2\n      gt\n      iszero\n      tag_452\n      jumpi\n      tag_453\n      tag_189\n      jump\t// in\n    tag_453:\n    tag_452:\n      mul\n      or\n      swap1\n      sstore\n      pop\n        /* \"contracts/NFTLending.sol\":20773:20786  loan_stats_10 */\n      dup2\n        /* \"contracts/NFTLending.sol\":20751:20761  loan_stats */\n      0x0c\n        /* \"contracts/NFTLending.sol\":20751:20770  loan_stats[loan_id] */\n      0x00\n        /* \"contracts/NFTLending.sol\":20762:20769  loan_id */\n      dup6\n        /* \"contracts/NFTLending.sol\":20751:20770  loan_stats[loan_id] */\n      dup2\n      mstore\n      0x20\n      add\n      swap1\n      dup2\n      mstore\n      0x20\n      add\n      0x00\n      keccak256\n        /* \"contracts/NFTLending.sol\":20751:20786  loan_stats[loan_id] = loan_stats_10 */\n      0x00\n      dup3\n      add\n      sload\n      dup2\n      0x00\n      add\n      sstore\n      0x01\n      dup3\n      add\n      sload\n      dup2\n      0x01\n      add\n      sstore\n      0x02\n      dup3\n      add\n      sload\n      dup2\n      0x02\n      add\n      sstore\n      0x03\n      dup3\n      add\n      sload\n      dup2\n      0x03\n      add\n      sstore\n      0x04\n      dup3\n      add\n      sload\n      dup2\n      0x04\n      add\n      sstore\n      0x05\n      dup3\n      add\n      0x00\n      swap1\n      sload\n      swap1\n      0x0100\n      exp\n      swap1\n      div\n      0xff\n      and\n      dup2\n      0x05\n      add\n      exp(0x0100, 0x00)\n      dup2\n      sload\n      dup2\n      0xff\n      mul\n      not\n      and\n      swap1\n      dup4\n      0x03\n      dup2\n      gt\n      iszero\n      tag_454\n      jumpi\n      tag_455\n      tag_189\n      jump\t// in\n    tag_455:\n    tag_454:\n      mul\n      or\n      swap1\n      sstore\n      pop\n      swap1\n      pop\n      pop\n        /* \"contracts/NFTLending.sol\":20950:20958  borrower */\n      dup1\n        /* \"contracts/NFTLending.sol\":20942:20964  payable(borrower).send */\n      0xffffffffffffffffffffffffffffffffffffffff\n      and\n        /* \"contracts/NFTLending.sol\":20942:20986  payable(borrower).send(loan_stats_10.raised) */\n      0x08fc\n        /* \"contracts/NFTLending.sol\":20965:20978  loan_stats_10 */\n      dup4\n        /* \"contracts/NFTLending.sol\":20965:20985  loan_stats_10.raised */\n      0x01\n      add\n      sload\n        /* \"contracts/NFTLending.sol\":20942:20986  payable(borrower).send(loan_stats_10.raised) */\n      swap1\n      dup2\n      iszero\n      mul\n      swap1\n      mload(0x40)\n      0x00\n      mload(0x40)\n      dup1\n      dup4\n      sub\n      dup2\n      dup6\n      dup9\n      dup9\n      call\n      swap4\n      pop\n      pop\n      pop\n      pop\n        /* \"contracts/NFTLending.sol\":20937:21045  if (!payable(borrower).send(loan_stats_10.raised)) {... */\n      tag_457\n      jumpi\n        /* \"contracts/NFTLending.sol\":21006:21030  revert(\"WithdrawFailed\") */\n      mload(0x40)\n      0x08c379a000000000000000000000000000000000000000000000000000000000\n      dup2\n      mstore\n      0x04\n      add\n      tag_458\n      swap1\n      tag_201\n      jump\t// in\n    tag_458:\n      mload(0x40)\n      dup1\n      swap2\n      sub\n      swap1\n      revert\n        /* \"contracts/NFTLending.sol\":20937:21045  if (!payable(borrower).send(loan_stats_10.raised)) {... */\n    tag_457:\n        /* \"contracts/NFTLending.sol\":21130:21164  reject_all_pending_offers(loan_id) */\n      tag_459\n        /* \"contracts/NFTLending.sol\":21156:21163  loan_id */\n      dup4\n        /* \"contracts/NFTLending.sol\":21130:21155  reject_all_pending_offers */\n      tag_460\n        /* \"contracts/NFTLending.sol\":21130:21164  reject_all_pending_offers(loan_id) */\n      jump\t// in\n    tag_459:\n        /* \"contracts/NFTLending.sol\":20513:21176  function ref_start_loan(uint loan_id, LoanStats storage loan_stats_10, address borrower) internal {... */\n      pop\n      pop\n      pop\n      jump\t// out\n        /* \"contracts/NFTLending.sol\":23799:24483  function ref_reject_offer(uint loan_id, uint offer_id, OfferMetadata storage offer) internal  {... */\n    tag_342:\n        /* \"contracts/NFTLending.sol\":24051:24056  offer */\n      dup1\n        /* \"contracts/NFTLending.sol\":24051:24063  offer.lender */\n      0x00\n      add\n      0x00\n      swap1\n      sload\n      swap1\n      0x0100\n      exp\n      swap1\n      div\n      0xffffffffffffffffffffffffffffffffffffffff\n      and\n        /* \"contracts/NFTLending.sol\":24043:24069  payable(offer.lender).send */\n      0xffffffffffffffffffffffffffffffffffffffff\n      and\n        /* \"contracts/NFTLending.sol\":24043:24083  payable(offer.lender).send(offer.amount) */\n      0x08fc\n        /* \"contracts/NFTLending.sol\":24070:24075  offer */\n      dup3\n        /* \"contracts/NFTLending.sol\":24070:24082  offer.amount */\n      0x01\n      add\n      sload\n        /* \"contracts/NFTLending.sol\":24043:24083  payable(offer.lender).send(offer.amount) */\n      swap1\n      dup2\n      iszero\n      mul\n      swap1\n      mload(0x40)\n      0x00\n      mload(0x40)\n      dup1\n      dup4\n      sub\n      dup2\n      dup6\n      dup9\n      dup9\n      call\n      swap4\n      pop\n      pop\n      pop\n      pop\n        /* \"contracts/NFTLending.sol\":24038:24142  if (!payable(offer.lender).send(offer.amount)) {... */\n      tag_463\n      jumpi\n        /* \"contracts/NFTLending.sol\":24103:24127  revert(\"WithdrawFailed\") */\n      mload(0x40)\n      0x08c379a000000000000000000000000000000000000000000000000000000000\n      dup2\n      mstore\n      0x04\n      add\n      tag_464\n      swap1\n      tag_201\n      jump\t// in\n    tag_464:\n      mload(0x40)\n      dup1\n      swap2\n      sub\n      swap1\n      revert\n        /* \"contracts/NFTLending.sol\":24038:24142  if (!payable(offer.lender).send(offer.amount)) {... */\n    tag_463:\n        /* \"contracts/NFTLending.sol\":24224:24244  OfferStatus.REJECTED */\n      0x02\n        /* \"contracts/NFTLending.sol\":24209:24214  offer */\n      dup2\n        /* \"contracts/NFTLending.sol\":24209:24221  offer.status */\n      0x03\n      add\n      0x00\n        /* \"contracts/NFTLending.sol\":24209:24244  offer.status = OfferStatus.REJECTED */\n      0x0100\n      exp\n      dup2\n      sload\n      dup2\n      0xff\n      mul\n      not\n      and\n      swap1\n      dup4\n      0x03\n      dup2\n      gt\n      iszero\n      tag_465\n      jumpi\n      tag_466\n      tag_189\n      jump\t// in\n    tag_466:\n    tag_465:\n      mul\n      or\n      swap1\n      sstore\n      pop\n        /* \"contracts/NFTLending.sol\":24331:24346  active_offer_id */\n      0x0f\n        /* \"contracts/NFTLending.sol\":24331:24355  active_offer_id[loan_id] */\n      0x00\n        /* \"contracts/NFTLending.sol\":24347:24354  loan_id */\n      dup5\n        /* \"contracts/NFTLending.sol\":24331:24355  active_offer_id[loan_id] */\n      dup2\n      mstore\n      0x20\n      add\n      swap1\n      dup2\n      mstore\n      0x20\n      add\n      0x00\n      keccak256\n        /* \"contracts/NFTLending.sol\":24331:24369  active_offer_id[loan_id][offer.lender] */\n      0x00\n        /* \"contracts/NFTLending.sol\":24356:24361  offer */\n      dup3\n        /* \"contracts/NFTLending.sol\":24356:24368  offer.lender */\n      0x00\n      add\n      0x00\n      swap1\n      sload\n      swap1\n      0x0100\n      exp\n      swap1\n      div\n      0xffffffffffffffffffffffffffffffffffffffff\n      and\n        /* \"contracts/NFTLending.sol\":24331:24369  active_offer_id[loan_id][offer.lender] */\n      0xffffffffffffffffffffffffffffffffffffffff\n      and\n      0xffffffffffffffffffffffffffffffffffffffff\n      and\n      dup2\n      mstore\n      0x20\n      add\n      swap1\n      dup2\n      mstore\n      0x20\n      add\n      0x00\n      keccak256\n        /* \"contracts/NFTLending.sol\":24324:24369  delete active_offer_id[loan_id][offer.lender] */\n      0x00\n      swap1\n      sstore\n        /* \"contracts/NFTLending.sol\":24466:24471  offer */\n      dup1\n        /* \"contracts/NFTLending.sol\":24438:24444  offers */\n      0x0e\n        /* \"contracts/NFTLending.sol\":24438:24453  offers[loan_id] */\n      0x00\n        /* \"contracts/NFTLending.sol\":24445:24452  loan_id */\n      dup6\n        /* \"contracts/NFTLending.sol\":24438:24453  offers[loan_id] */\n      dup2\n      mstore\n      0x20\n      add\n      swap1\n      dup2\n      mstore\n      0x20\n      add\n      0x00\n      keccak256\n        /* \"contracts/NFTLending.sol\":24438:24463  offers[loan_id][offer_id] */\n      0x00\n        /* \"contracts/NFTLending.sol\":24454:24462  offer_id */\n      dup5\n        /* \"contracts/NFTLending.sol\":24438:24463  offers[loan_id][offer_id] */\n      dup2\n      mstore\n      0x20\n      add\n      swap1\n      dup2\n      mstore\n      0x20\n      add\n      0x00\n      keccak256\n        /* \"contracts/NFTLending.sol\":24438:24471  offers[loan_id][offer_id] = offer */\n      0x00\n      dup3\n      add\n      0x00\n      swap1\n      sload\n      swap1\n      0x0100\n      exp\n      swap1\n      div\n      0xffffffffffffffffffffffffffffffffffffffff\n      and\n      dup2\n      0x00\n      add\n      exp(0x0100, 0x00)\n      dup2\n      sload\n      dup2\n      0xffffffffffffffffffffffffffffffffffffffff\n      mul\n      not\n      and\n      swap1\n      dup4\n      0xffffffffffffffffffffffffffffffffffffffff\n      and\n      mul\n      or\n      swap1\n      sstore\n      pop\n      0x01\n      dup3\n      add\n      sload\n      dup2\n      0x01\n      add\n      sstore\n      0x02\n      dup3\n      add\n      sload\n      dup2\n      0x02\n      add\n      sstore\n      0x03\n      dup3\n      add\n      0x00\n      swap1\n      sload\n      swap1\n      0x0100\n      exp\n      swap1\n      div\n      0xff\n      and\n      dup2\n      0x03\n      add\n      exp(0x0100, 0x00)\n      dup2\n      sload\n      dup2\n      0xff\n      mul\n      not\n      and\n      swap1\n      dup4\n      0x03\n      dup2\n      gt\n      iszero\n      tag_467\n      jumpi\n      tag_468\n      tag_189\n      jump\t// in\n    tag_468:\n    tag_467:\n      mul\n      or\n      swap1\n      sstore\n      pop\n      swap1\n      pop\n      pop\n        /* \"contracts/NFTLending.sol\":23799:24483  function ref_reject_offer(uint loan_id, uint offer_id, OfferMetadata storage offer) internal  {... */\n      pop\n      pop\n      pop\n      jump\t// out\n        /* \"contracts/NFTLending.sol\":27334:27767  function dec_credit_score(address account) internal {... */\n    tag_383:\n        /* \"contracts/NFTLending.sol\":27476:27486  uint score */\n      0x00\n        /* \"contracts/NFTLending.sol\":27489:27501  credit_score */\n      0x0a\n        /* \"contracts/NFTLending.sol\":27489:27510  credit_score[account] */\n      0x00\n        /* \"contracts/NFTLending.sol\":27502:27509  account */\n      dup4\n        /* \"contracts/NFTLending.sol\":27489:27510  credit_score[account] */\n      0xffffffffffffffffffffffffffffffffffffffff\n      and\n      0xffffffffffffffffffffffffffffffffffffffff\n      and\n      dup2\n      mstore\n      0x20\n      add\n      swap1\n      dup2\n      mstore\n      0x20\n      add\n      0x00\n      keccak256\n      sload\n        /* \"contracts/NFTLending.sol\":27476:27510  uint score = credit_score[account] */\n      swap1\n      pop\n        /* \"contracts/NFTLending.sol\":27640:27643  100 */\n      0x64\n        /* \"contracts/NFTLending.sol\":27631:27643  score -= 100 */\n      dup2\n      tag_470\n      swap2\n      swap1\n      tag_170\n      jump\t// in\n    tag_470:\n      swap1\n      pop\n        /* \"contracts/NFTLending.sol\":27751:27756  score */\n      dup1\n        /* \"contracts/NFTLending.sol\":27727:27739  credit_score */\n      0x0a\n        /* \"contracts/NFTLending.sol\":27727:27748  credit_score[account] */\n      0x00\n        /* \"contracts/NFTLending.sol\":27740:27747  account */\n      dup5\n        /* \"contracts/NFTLending.sol\":27727:27748  credit_score[account] */\n      0xffffffffffffffffffffffffffffffffffffffff\n      and\n      0xffffffffffffffffffffffffffffffffffffffff\n      and\n      dup2\n      mstore\n      0x20\n      add\n      swap1\n      dup2\n      mstore\n      0x20\n      add\n      0x00\n      keccak256\n        /* \"contracts/NFTLending.sol\":27727:27756  credit_score[account] = score */\n      dup2\n      swap1\n      sstore\n      pop\n        /* \"contracts/NFTLending.sol\":27386:27767  {... */\n      pop\n        /* \"contracts/NFTLending.sol\":27334:27767  function dec_credit_score(address account) internal {... */\n      pop\n      jump\t// out\n        /* \"contracts/NFTLending.sol\":24553:25184  function ref_get_borrower_settlement(LoanStats memory loan_stats_13, uint shares_locked) internal pure returns (uint) {... */\n    tag_421:\n        /* \"contracts/NFTLending.sol\":24665:24669  uint */\n      0x00\n        /* \"contracts/NFTLending.sol\":24713:24714  0 */\n      dup1\n        /* \"contracts/NFTLending.sol\":24689:24702  loan_stats_13 */\n      dup4\n        /* \"contracts/NFTLending.sol\":24689:24709  loan_stats_13.raised */\n      0x20\n      add\n      mload\n        /* \"contracts/NFTLending.sol\":24689:24714  loan_stats_13.raised == 0 */\n      sub\n        /* \"contracts/NFTLending.sol\":24685:24769  if (loan_stats_13.raised == 0) {... */\n      tag_472\n      jumpi\n        /* \"contracts/NFTLending.sol\":24741:24754  shares_locked */\n      dup2\n        /* \"contracts/NFTLending.sol\":24734:24754  return shares_locked */\n      swap1\n      pop\n      jump(tag_471)\n        /* \"contracts/NFTLending.sol\":24685:24769  if (loan_stats_13.raised == 0) {... */\n    tag_472:\n        /* \"contracts/NFTLending.sol\":24783:24804  uint principal_repaid */\n      0x00\n        /* \"contracts/NFTLending.sol\":24830:24843  loan_stats_13 */\n      dup4\n        /* \"contracts/NFTLending.sol\":24830:24852  loan_stats_13.interest */\n      0x60\n      add\n      mload\n        /* \"contracts/NFTLending.sol\":24807:24820  loan_stats_13 */\n      dup5\n        /* \"contracts/NFTLending.sol\":24807:24827  loan_stats_13.repaid */\n      0x80\n      add\n      mload\n        /* \"contracts/NFTLending.sol\":24807:24852  loan_stats_13.repaid - loan_stats_13.interest */\n      tag_473\n      swap2\n      swap1\n      tag_170\n      jump\t// in\n    tag_473:\n        /* \"contracts/NFTLending.sol\":24783:24852  uint principal_repaid = loan_stats_13.repaid - loan_stats_13.interest */\n      swap1\n      pop\n        /* \"contracts/NFTLending.sol\":24951:24967  principal_repaid */\n      dup1\n        /* \"contracts/NFTLending.sol\":24928:24941  loan_stats_13 */\n      dup5\n        /* \"contracts/NFTLending.sol\":24928:24948  loan_stats_13.raised */\n      0x20\n      add\n      mload\n        /* \"contracts/NFTLending.sol\":24928:24967  loan_stats_13.raised < principal_repaid */\n      lt\n        /* \"contracts/NFTLending.sol\":24924:25041  if (loan_stats_13.raised < principal_repaid) {... */\n      iszero\n      tag_474\n      jumpi\n        /* \"contracts/NFTLending.sol\":25006:25019  loan_stats_13 */\n      dup4\n        /* \"contracts/NFTLending.sol\":25006:25026  loan_stats_13.raised */\n      0x20\n      add\n      mload\n        /* \"contracts/NFTLending.sol\":24987:25026  principal_repaid = loan_stats_13.raised */\n      swap1\n      pop\n        /* \"contracts/NFTLending.sol\":24924:25041  if (loan_stats_13.raised < principal_repaid) {... */\n    tag_474:\n        /* \"contracts/NFTLending.sol\":25055:25076  uint shares_to_unlock */\n      0x00\n        /* \"contracts/NFTLending.sol\":25116:25129  loan_stats_13 */\n      dup5\n        /* \"contracts/NFTLending.sol\":25116:25136  loan_stats_13.raised */\n      0x20\n      add\n      mload\n        /* \"contracts/NFTLending.sol\":25096:25112  principal_repaid */\n      dup3\n        /* \"contracts/NFTLending.sol\":25080:25093  shares_locked */\n      dup6\n        /* \"contracts/NFTLending.sol\":25080:25112  shares_locked * principal_repaid */\n      tag_475\n      swap2\n      swap1\n      tag_168\n      jump\t// in\n    tag_475:\n        /* \"contracts/NFTLending.sol\":25079:25136  (shares_locked * principal_repaid) / loan_stats_13.raised */\n      tag_476\n      swap2\n      swap1\n      tag_173\n      jump\t// in\n    tag_476:\n        /* \"contracts/NFTLending.sol\":25055:25136  uint shares_to_unlock = (shares_locked * principal_repaid) / loan_stats_13.raised */\n      swap1\n      pop\n        /* \"contracts/NFTLending.sol\":25157:25173  shares_to_unlock */\n      dup1\n        /* \"contracts/NFTLending.sol\":25150:25173  return shares_to_unlock */\n      swap3\n      pop\n      pop\n      pop\n        /* \"contracts/NFTLending.sol\":24553:25184  function ref_get_borrower_settlement(LoanStats memory loan_stats_13, uint shares_locked) internal pure returns (uint) {... */\n    tag_471:\n      swap3\n      swap2\n      pop\n      pop\n      jump\t// out\n        /* \"contracts/NFTLending.sol\":25194:26369  function ref_get_lender_settlement(LoanMetadata memory loan_metadata, LoanStats memory loan_stats_12, OfferMetadata memory offer, uint borrower_unlocked_shares) internal pure returns (uint, uint) {... */\n    tag_439:\n        /* \"contracts/NFTLending.sol\":25378:25382  uint */\n      0x00\n        /* \"contracts/NFTLending.sol\":25384:25388  uint */\n      dup1\n        /* \"contracts/NFTLending.sol\":25432:25433  0 */\n      0x00\n        /* \"contracts/NFTLending.sol\":25408:25421  loan_stats_12 */\n      dup6\n        /* \"contracts/NFTLending.sol\":25408:25428  loan_stats_12.raised */\n      0x20\n      add\n      mload\n        /* \"contracts/NFTLending.sol\":25408:25433  loan_stats_12.raised == 0 */\n      sub\n        /* \"contracts/NFTLending.sol\":25404:25492  if (loan_stats_12.raised == 0) {... */\n      tag_478\n      jumpi\n        /* \"contracts/NFTLending.sol\":25461:25466  offer */\n      dup4\n        /* \"contracts/NFTLending.sol\":25461:25473  offer.amount */\n      0x20\n      add\n      mload\n        /* \"contracts/NFTLending.sol\":25475:25476  0 */\n      0x00\n        /* \"contracts/NFTLending.sol\":25453:25477  return (offer.amount, 0) */\n      swap2\n      pop\n      swap2\n      pop\n      jump(tag_477)\n        /* \"contracts/NFTLending.sol\":25404:25492  if (loan_stats_12.raised == 0) {... */\n    tag_478:\n        /* \"contracts/NFTLending.sol\":25506:25527  uint principal_repaid */\n      0x00\n        /* \"contracts/NFTLending.sol\":25553:25566  loan_stats_12 */\n      dup6\n        /* \"contracts/NFTLending.sol\":25553:25575  loan_stats_12.interest */\n      0x60\n      add\n      mload\n        /* \"contracts/NFTLending.sol\":25530:25543  loan_stats_12 */\n      dup7\n        /* \"contracts/NFTLending.sol\":25530:25550  loan_stats_12.repaid */\n      0x80\n      add\n      mload\n        /* \"contracts/NFTLending.sol\":25530:25575  loan_stats_12.repaid - loan_stats_12.interest */\n      tag_479\n      swap2\n      swap1\n      tag_170\n      jump\t// in\n    tag_479:\n        /* \"contracts/NFTLending.sol\":25506:25575  uint principal_repaid = loan_stats_12.repaid - loan_stats_12.interest */\n      swap1\n      pop\n        /* \"contracts/NFTLending.sol\":25589:25609  uint interest_repaid */\n      0x00\n        /* \"contracts/NFTLending.sol\":25635:25651  principal_repaid */\n      dup2\n        /* \"contracts/NFTLending.sol\":25612:25625  loan_stats_12 */\n      dup8\n        /* \"contracts/NFTLending.sol\":25612:25632  loan_stats_12.repaid */\n      0x80\n      add\n      mload\n        /* \"contracts/NFTLending.sol\":25612:25651  loan_stats_12.repaid - principal_repaid */\n      tag_480\n      swap2\n      swap1\n      tag_170\n      jump\t// in\n    tag_480:\n        /* \"contracts/NFTLending.sol\":25589:25651  uint interest_repaid = loan_stats_12.repaid - principal_repaid */\n      swap1\n      pop\n        /* \"contracts/NFTLending.sol\":25800:25813  loan_metadata */\n      dup8\n        /* \"contracts/NFTLending.sol\":25800:25830  loan_metadata.security_deposit */\n      0x80\n      add\n      mload\n        /* \"contracts/NFTLending.sol\":25781:25797  principal_repaid */\n      dup3\n        /* \"contracts/NFTLending.sol\":25781:25830  principal_repaid + loan_metadata.security_deposit */\n      tag_481\n      swap2\n      swap1\n      tag_177\n      jump\t// in\n    tag_481:\n        /* \"contracts/NFTLending.sol\":25762:25830  principal_repaid = principal_repaid + loan_metadata.security_deposit */\n      swap2\n      pop\n        /* \"contracts/NFTLending.sol\":25871:25887  principal_repaid */\n      dup2\n        /* \"contracts/NFTLending.sol\":25848:25861  loan_stats_12 */\n      dup8\n        /* \"contracts/NFTLending.sol\":25848:25868  loan_stats_12.raised */\n      0x20\n      add\n      mload\n        /* \"contracts/NFTLending.sol\":25848:25887  loan_stats_12.raised < principal_repaid */\n      lt\n        /* \"contracts/NFTLending.sol\":25844:25961  if (loan_stats_12.raised < principal_repaid) {... */\n      iszero\n      tag_482\n      jumpi\n        /* \"contracts/NFTLending.sol\":25926:25939  loan_stats_12 */\n      dup7\n        /* \"contracts/NFTLending.sol\":25926:25946  loan_stats_12.raised */\n      0x20\n      add\n      mload\n        /* \"contracts/NFTLending.sol\":25907:25946  principal_repaid = loan_stats_12.raised */\n      swap2\n      pop\n        /* \"contracts/NFTLending.sol\":25844:25961  if (loan_stats_12.raised < principal_repaid) {... */\n    tag_482:\n        /* \"contracts/NFTLending.sol\":25975:25988  uint interest */\n      0x00\n        /* \"contracts/NFTLending.sol\":26028:26041  loan_stats_12 */\n      dup8\n        /* \"contracts/NFTLending.sol\":26028:26050  loan_stats_12.interest */\n      0x60\n      add\n      mload\n        /* \"contracts/NFTLending.sol\":26010:26015  offer */\n      dup8\n        /* \"contracts/NFTLending.sol\":26010:26024  offer.interest */\n      0x40\n      add\n      mload\n        /* \"contracts/NFTLending.sol\":25992:26007  interest_repaid */\n      dup4\n        /* \"contracts/NFTLending.sol\":25992:26024  interest_repaid * offer.interest */\n      tag_483\n      swap2\n      swap1\n      tag_168\n      jump\t// in\n    tag_483:\n        /* \"contracts/NFTLending.sol\":25991:26050  (interest_repaid * offer.interest) / loan_stats_12.interest */\n      tag_484\n      swap2\n      swap1\n      tag_173\n      jump\t// in\n    tag_484:\n        /* \"contracts/NFTLending.sol\":25975:26050  uint interest = (interest_repaid * offer.interest) / loan_stats_12.interest */\n      swap1\n      pop\n        /* \"contracts/NFTLending.sol\":26064:26078  uint principal */\n      0x00\n        /* \"contracts/NFTLending.sol\":26117:26130  loan_stats_12 */\n      dup9\n        /* \"contracts/NFTLending.sol\":26117:26137  loan_stats_12.raised */\n      0x20\n      add\n      mload\n        /* \"contracts/NFTLending.sol\":26101:26106  offer */\n      dup9\n        /* \"contracts/NFTLending.sol\":26101:26113  offer.amount */\n      0x20\n      add\n      mload\n        /* \"contracts/NFTLending.sol\":26082:26098  principal_repaid */\n      dup6\n        /* \"contracts/NFTLending.sol\":26082:26113  principal_repaid * offer.amount */\n      tag_485\n      swap2\n      swap1\n      tag_168\n      jump\t// in\n    tag_485:\n        /* \"contracts/NFTLending.sol\":26081:26137  (principal_repaid * offer.amount) / loan_stats_12.raised */\n      tag_486\n      swap2\n      swap1\n      tag_173\n      jump\t// in\n    tag_486:\n        /* \"contracts/NFTLending.sol\":26064:26137  uint principal = (principal_repaid * offer.amount) / loan_stats_12.raised */\n      swap1\n      pop\n        /* \"contracts/NFTLending.sol\":26152:26162  uint funds */\n      0x00\n        /* \"contracts/NFTLending.sol\":26177:26185  interest */\n      dup3\n        /* \"contracts/NFTLending.sol\":26165:26174  principal */\n      dup3\n        /* \"contracts/NFTLending.sol\":26165:26185  principal + interest */\n      tag_487\n      swap2\n      swap1\n      tag_177\n      jump\t// in\n    tag_487:\n        /* \"contracts/NFTLending.sol\":26152:26185  uint funds = principal + interest */\n      swap1\n      pop\n        /* \"contracts/NFTLending.sol\":26199:26217  uint lenders_share */\n      0x00\n        /* \"contracts/NFTLending.sol\":26294:26307  loan_stats_12 */\n      dup11\n        /* \"contracts/NFTLending.sol\":26294:26314  loan_stats_12.raised */\n      0x20\n      add\n      mload\n        /* \"contracts/NFTLending.sol\":26279:26284  offer */\n      dup11\n        /* \"contracts/NFTLending.sol\":26279:26291  offer.amount */\n      0x20\n      add\n      mload\n        /* \"contracts/NFTLending.sol\":26251:26275  borrower_unlocked_shares */\n      dup11\n        /* \"contracts/NFTLending.sol\":26221:26234  loan_metadata */\n      dup15\n        /* \"contracts/NFTLending.sol\":26221:26248  loan_metadata.shares_locked */\n      0x40\n      add\n      mload\n        /* \"contracts/NFTLending.sol\":26221:26275  loan_metadata.shares_locked - borrower_unlocked_shares */\n      tag_488\n      swap2\n      swap1\n      tag_170\n      jump\t// in\n    tag_488:\n        /* \"contracts/NFTLending.sol\":26220:26291  (loan_metadata.shares_locked - borrower_unlocked_shares) * offer.amount */\n      tag_489\n      swap2\n      swap1\n      tag_168\n      jump\t// in\n    tag_489:\n        /* \"contracts/NFTLending.sol\":26220:26314  (loan_metadata.shares_locked - borrower_unlocked_shares) * offer.amount / loan_stats_12.raised */\n      tag_490\n      swap2\n      swap1\n      tag_173\n      jump\t// in\n    tag_490:\n        /* \"contracts/NFTLending.sol\":26199:26314  uint lenders_share = (loan_metadata.shares_locked - borrower_unlocked_shares) * offer.amount / loan_stats_12.raised */\n      swap1\n      pop\n        /* \"contracts/NFTLending.sol\":26337:26342  funds */\n      dup2\n        /* \"contracts/NFTLending.sol\":26344:26357  lenders_share */\n      dup2\n        /* \"contracts/NFTLending.sol\":26329:26358  return (funds, lenders_share) */\n      swap8\n      pop\n      swap8\n      pop\n      pop\n      pop\n      pop\n      pop\n      pop\n      pop\n        /* \"contracts/NFTLending.sol\":25194:26369  function ref_get_lender_settlement(LoanMetadata memory loan_metadata, LoanStats memory loan_stats_12, OfferMetadata memory offer, uint borrower_unlocked_shares) internal pure returns (uint, uint) {... */\n    tag_477:\n      swap5\n      pop\n      swap5\n      swap3\n      pop\n      pop\n      pop\n      jump\t// out\n        /* \"contracts/NFTLending.sol\":23178:23749  function reject_all_pending_offers(uint loan_id) internal {... */\n    tag_460:\n        /* \"contracts/NFTLending.sol\":23250:23267  uint total_offers */\n      0x00\n        /* \"contracts/NFTLending.sol\":23270:23282  offers_nonce */\n      0x0d\n        /* \"contracts/NFTLending.sol\":23270:23291  offers_nonce[loan_id] */\n      0x00\n        /* \"contracts/NFTLending.sol\":23283:23290  loan_id */\n      dup4\n        /* \"contracts/NFTLending.sol\":23270:23291  offers_nonce[loan_id] */\n      dup2\n      mstore\n      0x20\n      add\n      swap1\n      dup2\n      mstore\n      0x20\n      add\n      0x00\n      keccak256\n      sload\n        /* \"contracts/NFTLending.sol\":23250:23291  uint total_offers = offers_nonce[loan_id] */\n      swap1\n      pop\n        /* \"contracts/NFTLending.sol\":23311:23324  uint offer_id */\n      0x00\n        /* \"contracts/NFTLending.sol\":23306:23739  for (uint offer_id = 0; offer_id < total_offers; offer_id++) {... */\n    tag_492:\n        /* \"contracts/NFTLending.sol\":23341:23353  total_offers */\n      dup2\n        /* \"contracts/NFTLending.sol\":23330:23338  offer_id */\n      dup2\n        /* \"contracts/NFTLending.sol\":23330:23353  offer_id < total_offers */\n      lt\n        /* \"contracts/NFTLending.sol\":23306:23739  for (uint offer_id = 0; offer_id < total_offers; offer_id++) {... */\n      iszero\n      tag_493\n      jumpi\n        /* \"contracts/NFTLending.sol\":23457:23484  OfferMetadata storage offer */\n      0x00\n        /* \"contracts/NFTLending.sol\":23487:23493  offers */\n      0x0e\n        /* \"contracts/NFTLending.sol\":23487:23502  offers[loan_id] */\n      0x00\n        /* \"contracts/NFTLending.sol\":23494:23501  loan_id */\n      dup6\n        /* \"contracts/NFTLending.sol\":23487:23502  offers[loan_id] */\n      dup2\n      mstore\n      0x20\n      add\n      swap1\n      dup2\n      mstore\n      0x20\n      add\n      0x00\n      keccak256\n        /* \"contracts/NFTLending.sol\":23487:23512  offers[loan_id][offer_id] */\n      0x00\n        /* \"contracts/NFTLending.sol\":23503:23511  offer_id */\n      dup4\n        /* \"contracts/NFTLending.sol\":23487:23512  offers[loan_id][offer_id] */\n      dup2\n      mstore\n      0x20\n      add\n      swap1\n      dup2\n      mstore\n      0x20\n      add\n      0x00\n      keccak256\n        /* \"contracts/NFTLending.sol\":23457:23512  OfferMetadata storage offer = offers[loan_id][offer_id] */\n      swap1\n      pop\n        /* \"contracts/NFTLending.sol\":23551:23570  OfferStatus.PENDING */\n      0x00\n        /* \"contracts/NFTLending.sol\":23535:23570  offer.status == OfferStatus.PENDING */\n      0x03\n      dup2\n      gt\n      iszero\n      tag_495\n      jumpi\n      tag_496\n      tag_189\n      jump\t// in\n    tag_496:\n    tag_495:\n        /* \"contracts/NFTLending.sol\":23535:23540  offer */\n      dup2\n        /* \"contracts/NFTLending.sol\":23535:23547  offer.status */\n      0x03\n      add\n      0x00\n      swap1\n      sload\n      swap1\n      0x0100\n      exp\n      swap1\n      div\n      0xff\n      and\n        /* \"contracts/NFTLending.sol\":23535:23570  offer.status == OfferStatus.PENDING */\n      0x03\n      dup2\n      gt\n      iszero\n      tag_497\n      jumpi\n      tag_498\n      tag_189\n      jump\t// in\n    tag_498:\n    tag_497:\n      sub\n        /* \"contracts/NFTLending.sol\":23531:23725  if (offer.status == OfferStatus.PENDING) {... */\n      tag_499\n      jumpi\n        /* \"contracts/NFTLending.sol\":23664:23706  ref_reject_offer(loan_id, offer_id, offer) */\n      tag_500\n        /* \"contracts/NFTLending.sol\":23681:23688  loan_id */\n      dup5\n        /* \"contracts/NFTLending.sol\":23690:23698  offer_id */\n      dup4\n        /* \"contracts/NFTLending.sol\":23700:23705  offer */\n      dup4\n        /* \"contracts/NFTLending.sol\":23664:23680  ref_reject_offer */\n      tag_342\n        /* \"contracts/NFTLending.sol\":23664:23706  ref_reject_offer(loan_id, offer_id, offer) */\n      jump\t// in\n    tag_500:\n        /* \"contracts/NFTLending.sol\":23531:23725  if (offer.status == OfferStatus.PENDING) {... */\n    tag_499:\n        /* \"contracts/NFTLending.sol\":23367:23739  {... */\n      pop\n        /* \"contracts/NFTLending.sol\":23355:23365  offer_id++ */\n      dup1\n      dup1\n      tag_501\n      swap1\n      tag_254\n      jump\t// in\n    tag_501:\n      swap2\n      pop\n      pop\n        /* \"contracts/NFTLending.sol\":23306:23739  for (uint offer_id = 0; offer_id < total_offers; offer_id++) {... */\n      jump(tag_492)\n    tag_493:\n      pop\n        /* \"contracts/NFTLending.sol\":23236:23749  {... */\n      pop\n        /* \"contracts/NFTLending.sol\":23178:23749  function reject_all_pending_offers(uint loan_id) internal {... */\n      pop\n      jump\t// out\n        /* \"#utility.yul\":7:84   */\n    tag_502:\n        /* \"#utility.yul\":44:51   */\n      0x00\n        /* \"#utility.yul\":73:78   */\n      dup2\n        /* \"#utility.yul\":62:78   */\n      swap1\n      pop\n        /* \"#utility.yul\":7:84   */\n      swap2\n      swap1\n      pop\n      jump\t// out\n        /* \"#utility.yul\":90:208   */\n    tag_503:\n        /* \"#utility.yul\":177:201   */\n      tag_580\n        /* \"#utility.yul\":195:200   */\n      dup2\n        /* \"#utility.yul\":177:201   */\n      tag_502\n      jump\t// in\n    tag_580:\n        /* \"#utility.yul\":172:175   */\n      dup3\n        /* \"#utility.yul\":165:202   */\n      mstore\n        /* \"#utility.yul\":90:208   */\n      pop\n      pop\n      jump\t// out\n        /* \"#utility.yul\":214:436   */\n    tag_39:\n        /* \"#utility.yul\":307:311   */\n      0x00\n        /* \"#utility.yul\":345:347   */\n      0x20\n        /* \"#utility.yul\":334:343   */\n      dup3\n        /* \"#utility.yul\":330:348   */\n      add\n        /* \"#utility.yul\":322:348   */\n      swap1\n      pop\n        /* \"#utility.yul\":358:429   */\n      tag_582\n        /* \"#utility.yul\":426:427   */\n      0x00\n        /* \"#utility.yul\":415:424   */\n      dup4\n        /* \"#utility.yul\":411:428   */\n      add\n        /* \"#utility.yul\":402:408   */\n      dup5\n        /* \"#utility.yul\":358:429   */\n      tag_503\n      jump\t// in\n    tag_582:\n        /* \"#utility.yul\":214:436   */\n      swap3\n      swap2\n      pop\n      pop\n      jump\t// out\n        /* \"#utility.yul\":523:640   */\n    tag_505:\n        /* \"#utility.yul\":632:633   */\n      0x00\n        /* \"#utility.yul\":629:630   */\n      dup1\n        /* \"#utility.yul\":622:634   */\n      revert\n        /* \"#utility.yul\":769:895   */\n    tag_507:\n        /* \"#utility.yul\":806:813   */\n      0x00\n        /* \"#utility.yul\":846:888   */\n      0xffffffffffffffffffffffffffffffffffffffff\n        /* \"#utility.yul\":839:844   */\n      dup3\n        /* \"#utility.yul\":835:889   */\n      and\n        /* \"#utility.yul\":824:889   */\n      swap1\n      pop\n        /* \"#utility.yul\":769:895   */\n      swap2\n      swap1\n      pop\n      jump\t// out\n        /* \"#utility.yul\":901:997   */\n    tag_508:\n        /* \"#utility.yul\":938:945   */\n      0x00\n        /* \"#utility.yul\":967:991   */\n      tag_588\n        /* \"#utility.yul\":985:990   */\n      dup3\n        /* \"#utility.yul\":967:991   */\n      tag_507\n      jump\t// in\n    tag_588:\n        /* \"#utility.yul\":956:991   */\n      swap1\n      pop\n        /* \"#utility.yul\":901:997   */\n      swap2\n      swap1\n      pop\n      jump\t// out\n        /* \"#utility.yul\":1003:1125   */\n    tag_509:\n        /* \"#utility.yul\":1076:1100   */\n      tag_590\n        /* \"#utility.yul\":1094:1099   */\n      dup2\n        /* \"#utility.yul\":1076:1100   */\n      tag_508\n      jump\t// in\n    tag_590:\n        /* \"#utility.yul\":1069:1074   */\n      dup2\n        /* \"#utility.yul\":1066:1101   */\n      eq\n        /* \"#utility.yul\":1056:1119   */\n      tag_591\n      jumpi\n        /* \"#utility.yul\":1115:1116   */\n      0x00\n        /* \"#utility.yul\":1112:1113   */\n      dup1\n        /* \"#utility.yul\":1105:1117   */\n      revert\n        /* \"#utility.yul\":1056:1119   */\n    tag_591:\n        /* \"#utility.yul\":1003:1125   */\n      pop\n      jump\t// out\n        /* \"#utility.yul\":1131:1270   */\n    tag_510:\n        /* \"#utility.yul\":1177:1182   */\n      0x00\n        /* \"#utility.yul\":1215:1221   */\n      dup2\n        /* \"#utility.yul\":1202:1222   */\n      calldataload\n        /* \"#utility.yul\":1193:1222   */\n      swap1\n      pop\n        /* \"#utility.yul\":1231:1264   */\n      tag_593\n        /* \"#utility.yul\":1258:1263   */\n      dup2\n        /* \"#utility.yul\":1231:1264   */\n      tag_509\n      jump\t// in\n    tag_593:\n        /* \"#utility.yul\":1131:1270   */\n      swap3\n      swap2\n      pop\n      pop\n      jump\t// out\n        /* \"#utility.yul\":1276:1398   */\n    tag_511:\n        /* \"#utility.yul\":1349:1373   */\n      tag_595\n        /* \"#utility.yul\":1367:1372   */\n      dup2\n        /* \"#utility.yul\":1349:1373   */\n      tag_502\n      jump\t// in\n    tag_595:\n        /* \"#utility.yul\":1342:1347   */\n      dup2\n        /* \"#utility.yul\":1339:1374   */\n      eq\n        /* \"#utility.yul\":1329:1392   */\n      tag_596\n      jumpi\n        /* \"#utility.yul\":1388:1389   */\n      0x00\n        /* \"#utility.yul\":1385:1386   */\n      dup1\n        /* \"#utility.yul\":1378:1390   */\n      revert\n        /* \"#utility.yul\":1329:1392   */\n    tag_596:\n        /* \"#utility.yul\":1276:1398   */\n      pop\n      jump\t// out\n        /* \"#utility.yul\":1404:1543   */\n    tag_512:\n        /* \"#utility.yul\":1450:1455   */\n      0x00\n        /* \"#utility.yul\":1488:1494   */\n      dup2\n        /* \"#utility.yul\":1475:1495   */\n      calldataload\n        /* \"#utility.yul\":1466:1495   */\n      swap1\n      pop\n        /* \"#utility.yul\":1504:1537   */\n      tag_598\n        /* \"#utility.yul\":1531:1536   */\n      dup2\n        /* \"#utility.yul\":1504:1537   */\n      tag_511\n      jump\t// in\n    tag_598:\n        /* \"#utility.yul\":1404:1543   */\n      swap3\n      swap2\n      pop\n      pop\n      jump\t// out\n        /* \"#utility.yul\":1549:2168   */\n    tag_43:\n        /* \"#utility.yul\":1626:1632   */\n      0x00\n        /* \"#utility.yul\":1634:1640   */\n      dup1\n        /* \"#utility.yul\":1642:1648   */\n      0x00\n        /* \"#utility.yul\":1691:1693   */\n      0x60\n        /* \"#utility.yul\":1679:1688   */\n      dup5\n        /* \"#utility.yul\":1670:1677   */\n      dup7\n        /* \"#utility.yul\":1666:1689   */\n      sub\n        /* \"#utility.yul\":1662:1694   */\n      slt\n        /* \"#utility.yul\":1659:1778   */\n      iszero\n      tag_600\n      jumpi\n        /* \"#utility.yul\":1697:1776   */\n      tag_601\n      tag_505\n      jump\t// in\n    tag_601:\n        /* \"#utility.yul\":1659:1778   */\n    tag_600:\n        /* \"#utility.yul\":1817:1818   */\n      0x00\n        /* \"#utility.yul\":1842:1895   */\n      tag_602\n        /* \"#utility.yul\":1887:1894   */\n      dup7\n        /* \"#utility.yul\":1878:1884   */\n      dup3\n        /* \"#utility.yul\":1867:1876   */\n      dup8\n        /* \"#utility.yul\":1863:1885   */\n      add\n        /* \"#utility.yul\":1842:1895   */\n      tag_510\n      jump\t// in\n    tag_602:\n        /* \"#utility.yul\":1832:1895   */\n      swap4\n      pop\n        /* \"#utility.yul\":1788:1905   */\n      pop\n        /* \"#utility.yul\":1944:1946   */\n      0x20\n        /* \"#utility.yul\":1970:2023   */\n      tag_603\n        /* \"#utility.yul\":2015:2022   */\n      dup7\n        /* \"#utility.yul\":2006:2012   */\n      dup3\n        /* \"#utility.yul\":1995:2004   */\n      dup8\n        /* \"#utility.yul\":1991:2013   */\n      add\n        /* \"#utility.yul\":1970:2023   */\n      tag_512\n      jump\t// in\n    tag_603:\n        /* \"#utility.yul\":1960:2023   */\n      swap3\n      pop\n        /* \"#utility.yul\":1915:2033   */\n      pop\n        /* \"#utility.yul\":2072:2074   */\n      0x40\n        /* \"#utility.yul\":2098:2151   */\n      tag_604\n        /* \"#utility.yul\":2143:2150   */\n      dup7\n        /* \"#utility.yul\":2134:2140   */\n      dup3\n        /* \"#utility.yul\":2123:2132   */\n      dup8\n        /* \"#utility.yul\":2119:2141   */\n      add\n        /* \"#utility.yul\":2098:2151   */\n      tag_512\n      jump\t// in\n    tag_604:\n        /* \"#utility.yul\":2088:2151   */\n      swap2\n      pop\n        /* \"#utility.yul\":2043:2161   */\n      pop\n        /* \"#utility.yul\":1549:2168   */\n      swap3\n      pop\n      swap3\n      pop\n      swap3\n      jump\t// out\n        /* \"#utility.yul\":2174:2648   */\n    tag_49:\n        /* \"#utility.yul\":2242:2248   */\n      0x00\n        /* \"#utility.yul\":2250:2256   */\n      dup1\n        /* \"#utility.yul\":2299:2301   */\n      0x40\n        /* \"#utility.yul\":2287:2296   */\n      dup4\n        /* \"#utility.yul\":2278:2285   */\n      dup6\n        /* \"#utility.yul\":2274:2297   */\n      sub\n        /* \"#utility.yul\":2270:2302   */\n      slt\n        /* \"#utility.yul\":2267:2386   */\n      iszero\n      tag_606\n      jumpi\n        /* \"#utility.yul\":2305:2384   */\n      tag_607\n      tag_505\n      jump\t// in\n    tag_607:\n        /* \"#utility.yul\":2267:2386   */\n    tag_606:\n        /* \"#utility.yul\":2425:2426   */\n      0x00\n        /* \"#utility.yul\":2450:2503   */\n      tag_608\n        /* \"#utility.yul\":2495:2502   */\n      dup6\n        /* \"#utility.yul\":2486:2492   */\n      dup3\n        /* \"#utility.yul\":2475:2484   */\n      dup7\n        /* \"#utility.yul\":2471:2493   */\n      add\n        /* \"#utility.yul\":2450:2503   */\n      tag_512\n      jump\t// in\n    tag_608:\n        /* \"#utility.yul\":2440:2503   */\n      swap3\n      pop\n        /* \"#utility.yul\":2396:2513   */\n      pop\n        /* \"#utility.yul\":2552:2554   */\n      0x20\n        /* \"#utility.yul\":2578:2631   */\n      tag_609\n        /* \"#utility.yul\":2623:2630   */\n      dup6\n        /* \"#utility.yul\":2614:2620   */\n      dup3\n        /* \"#utility.yul\":2603:2612   */\n      dup7\n        /* \"#utility.yul\":2599:2621   */\n      add\n        /* \"#utility.yul\":2578:2631   */\n      tag_512\n      jump\t// in\n    tag_609:\n        /* \"#utility.yul\":2568:2631   */\n      swap2\n      pop\n        /* \"#utility.yul\":2523:2641   */\n      pop\n        /* \"#utility.yul\":2174:2648   */\n      swap3\n      pop\n      swap3\n      swap1\n      pop\n      jump\t// out\n        /* \"#utility.yul\":2654:2772   */\n    tag_513:\n        /* \"#utility.yul\":2741:2765   */\n      tag_611\n        /* \"#utility.yul\":2759:2764   */\n      dup2\n        /* \"#utility.yul\":2741:2765   */\n      tag_508\n      jump\t// in\n    tag_611:\n        /* \"#utility.yul\":2736:2739   */\n      dup3\n        /* \"#utility.yul\":2729:2766   */\n      mstore\n        /* \"#utility.yul\":2654:2772   */\n      pop\n      pop\n      jump\t// out\n        /* \"#utility.yul\":2778:2958   */\n    tag_189:\n        /* \"#utility.yul\":2826:2903   */\n      0x4e487b7100000000000000000000000000000000000000000000000000000000\n        /* \"#utility.yul\":2823:2824   */\n      0x00\n        /* \"#utility.yul\":2816:2904   */\n      mstore\n        /* \"#utility.yul\":2923:2927   */\n      0x21\n        /* \"#utility.yul\":2920:2921   */\n      0x04\n        /* \"#utility.yul\":2913:2928   */\n      mstore\n        /* \"#utility.yul\":2947:2951   */\n      0x24\n        /* \"#utility.yul\":2944:2945   */\n      0x00\n        /* \"#utility.yul\":2937:2952   */\n      revert\n        /* \"#utility.yul\":2964:3083   */\n    tag_514:\n        /* \"#utility.yul\":3051:3052   */\n      0x04\n        /* \"#utility.yul\":3044:3049   */\n      dup2\n        /* \"#utility.yul\":3041:3053   */\n      lt\n        /* \"#utility.yul\":3031:3077   */\n      tag_614\n      jumpi\n        /* \"#utility.yul\":3057:3075   */\n      tag_615\n      tag_189\n      jump\t// in\n    tag_615:\n        /* \"#utility.yul\":3031:3077   */\n    tag_614:\n        /* \"#utility.yul\":2964:3083   */\n      pop\n      jump\t// out\n        /* \"#utility.yul\":3089:3228   */\n    tag_515:\n        /* \"#utility.yul\":3140:3147   */\n      0x00\n        /* \"#utility.yul\":3169:3174   */\n      dup2\n        /* \"#utility.yul\":3158:3174   */\n      swap1\n      pop\n        /* \"#utility.yul\":3175:3222   */\n      tag_617\n        /* \"#utility.yul\":3216:3221   */\n      dup3\n        /* \"#utility.yul\":3175:3222   */\n      tag_514\n      jump\t// in\n    tag_617:\n        /* \"#utility.yul\":3089:3228   */\n      swap2\n      swap1\n      pop\n      jump\t// out\n        /* \"#utility.yul\":3234:3373   */\n    tag_516:\n        /* \"#utility.yul\":3296:3305   */\n      0x00\n        /* \"#utility.yul\":3329:3367   */\n      tag_619\n        /* \"#utility.yul\":3361:3366   */\n      dup3\n        /* \"#utility.yul\":3329:3367   */\n      tag_515\n      jump\t// in\n    tag_619:\n        /* \"#utility.yul\":3316:3367   */\n      swap1\n      pop\n        /* \"#utility.yul\":3234:3373   */\n      swap2\n      swap1\n      pop\n      jump\t// out\n        /* \"#utility.yul\":3379:3534   */\n    tag_517:\n        /* \"#utility.yul\":3478:3527   */\n      tag_621\n        /* \"#utility.yul\":3521:3526   */\n      dup2\n        /* \"#utility.yul\":3478:3527   */\n      tag_516\n      jump\t// in\n    tag_621:\n        /* \"#utility.yul\":3473:3476   */\n      dup3\n        /* \"#utility.yul\":3466:3528   */\n      mstore\n        /* \"#utility.yul\":3379:3534   */\n      pop\n      pop\n      jump\t// out\n        /* \"#utility.yul\":3540:4117   */\n    tag_52:\n        /* \"#utility.yul\":3729:3733   */\n      0x00\n        /* \"#utility.yul\":3767:3770   */\n      0x80\n        /* \"#utility.yul\":3756:3765   */\n      dup3\n        /* \"#utility.yul\":3752:3771   */\n      add\n        /* \"#utility.yul\":3744:3771   */\n      swap1\n      pop\n        /* \"#utility.yul\":3781:3852   */\n      tag_623\n        /* \"#utility.yul\":3849:3850   */\n      0x00\n        /* \"#utility.yul\":3838:3847   */\n      dup4\n        /* \"#utility.yul\":3834:3851   */\n      add\n        /* \"#utility.yul\":3825:3831   */\n      dup8\n        /* \"#utility.yul\":3781:3852   */\n      tag_513\n      jump\t// in\n    tag_623:\n        /* \"#utility.yul\":3862:3934   */\n      tag_624\n        /* \"#utility.yul\":3930:3932   */\n      0x20\n        /* \"#utility.yul\":3919:3928   */\n      dup4\n        /* \"#utility.yul\":3915:3933   */\n      add\n        /* \"#utility.yul\":3906:3912   */\n      dup7\n        /* \"#utility.yul\":3862:3934   */\n      tag_503\n      jump\t// in\n    tag_624:\n        /* \"#utility.yul\":3944:4016   */\n      tag_625\n        /* \"#utility.yul\":4012:4014   */\n      0x40\n        /* \"#utility.yul\":4001:4010   */\n      dup4\n        /* \"#utility.yul\":3997:4015   */\n      add\n        /* \"#utility.yul\":3988:3994   */\n      dup6\n        /* \"#utility.yul\":3944:4016   */\n      tag_503\n      jump\t// in\n    tag_625:\n        /* \"#utility.yul\":4026:4110   */\n      tag_626\n        /* \"#utility.yul\":4106:4108   */\n      0x60\n        /* \"#utility.yul\":4095:4104   */\n      dup4\n        /* \"#utility.yul\":4091:4109   */\n      add\n        /* \"#utility.yul\":4082:4088   */\n      dup5\n        /* \"#utility.yul\":4026:4110   */\n      tag_517\n      jump\t// in\n    tag_626:\n        /* \"#utility.yul\":3540:4117   */\n      swap6\n      swap5\n      pop\n      pop\n      pop\n      pop\n      pop\n      jump\t// out\n        /* \"#utility.yul\":4123:4452   */\n    tag_56:\n        /* \"#utility.yul\":4182:4188   */\n      0x00\n        /* \"#utility.yul\":4231:4233   */\n      0x20\n        /* \"#utility.yul\":4219:4228   */\n      dup3\n        /* \"#utility.yul\":4210:4217   */\n      dup5\n        /* \"#utility.yul\":4206:4229   */\n      sub\n        /* \"#utility.yul\":4202:4234   */\n      slt\n        /* \"#utility.yul\":4199:4318   */\n      iszero\n      tag_628\n      jumpi\n        /* \"#utility.yul\":4237:4316   */\n      tag_629\n      tag_505\n      jump\t// in\n    tag_629:\n        /* \"#utility.yul\":4199:4318   */\n    tag_628:\n        /* \"#utility.yul\":4357:4358   */\n      0x00\n        /* \"#utility.yul\":4382:4435   */\n      tag_630\n        /* \"#utility.yul\":4427:4434   */\n      dup5\n        /* \"#utility.yul\":4418:4424   */\n      dup3\n        /* \"#utility.yul\":4407:4416   */\n      dup6\n        /* \"#utility.yul\":4403:4425   */\n      add\n        /* \"#utility.yul\":4382:4435   */\n      tag_512\n      jump\t// in\n    tag_630:\n        /* \"#utility.yul\":4372:4435   */\n      swap2\n      pop\n        /* \"#utility.yul\":4328:4445   */\n      pop\n        /* \"#utility.yul\":4123:4452   */\n      swap3\n      swap2\n      pop\n      pop\n      jump\t// out\n        /* \"#utility.yul\":4458:4787   */\n    tag_61:\n        /* \"#utility.yul\":4517:4523   */\n      0x00\n        /* \"#utility.yul\":4566:4568   */\n      0x20\n        /* \"#utility.yul\":4554:4563   */\n      dup3\n        /* \"#utility.yul\":4545:4552   */\n      dup5\n        /* \"#utility.yul\":4541:4564   */\n      sub\n        /* \"#utility.yul\":4537:4569   */\n      slt\n        /* \"#utility.yul\":4534:4653   */\n      iszero\n      tag_632\n      jumpi\n        /* \"#utility.yul\":4572:4651   */\n      tag_633\n      tag_505\n      jump\t// in\n    tag_633:\n        /* \"#utility.yul\":4534:4653   */\n    tag_632:\n        /* \"#utility.yul\":4692:4693   */\n      0x00\n        /* \"#utility.yul\":4717:4770   */\n      tag_634\n        /* \"#utility.yul\":4762:4769   */\n      dup5\n        /* \"#utility.yul\":4753:4759   */\n      dup3\n        /* \"#utility.yul\":4742:4751   */\n      dup6\n        /* \"#utility.yul\":4738:4760   */\n      add\n        /* \"#utility.yul\":4717:4770   */\n      tag_510\n      jump\t// in\n    tag_634:\n        /* \"#utility.yul\":4707:4770   */\n      swap2\n      pop\n        /* \"#utility.yul\":4663:4780   */\n      pop\n        /* \"#utility.yul\":4458:4787   */\n      swap3\n      swap2\n      pop\n      pop\n      jump\t// out\n        /* \"#utility.yul\":4793:4891   */\n    tag_518:\n        /* \"#utility.yul\":4844:4850   */\n      0x00\n        /* \"#utility.yul\":4878:4883   */\n      dup2\n        /* \"#utility.yul\":4872:4884   */\n      mload\n        /* \"#utility.yul\":4862:4884   */\n      swap1\n      pop\n        /* \"#utility.yul\":4793:4891   */\n      swap2\n      swap1\n      pop\n      jump\t// out\n        /* \"#utility.yul\":4897:5065   */\n    tag_519:\n        /* \"#utility.yul\":4980:4991   */\n      0x00\n        /* \"#utility.yul\":5014:5020   */\n      dup3\n        /* \"#utility.yul\":5009:5012   */\n      dup3\n        /* \"#utility.yul\":5002:5021   */\n      mstore\n        /* \"#utility.yul\":5054:5058   */\n      0x20\n        /* \"#utility.yul\":5049:5052   */\n      dup3\n        /* \"#utility.yul\":5045:5059   */\n      add\n        /* \"#utility.yul\":5030:5059   */\n      swap1\n      pop\n        /* \"#utility.yul\":4897:5065   */\n      swap3\n      swap2\n      pop\n      pop\n      jump\t// out\n        /* \"#utility.yul\":5071:5317   */\n    tag_520:\n        /* \"#utility.yul\":5152:5153   */\n      0x00\n        /* \"#utility.yul\":5162:5275   */\n    tag_638:\n        /* \"#utility.yul\":5176:5182   */\n      dup4\n        /* \"#utility.yul\":5173:5174   */\n      dup2\n        /* \"#utility.yul\":5170:5183   */\n      lt\n        /* \"#utility.yul\":5162:5275   */\n      iszero\n      tag_640\n      jumpi\n        /* \"#utility.yul\":5261:5262   */\n      dup1\n        /* \"#utility.yul\":5256:5259   */\n      dup3\n        /* \"#utility.yul\":5252:5263   */\n      add\n        /* \"#utility.yul\":5246:5264   */\n      mload\n        /* \"#utility.yul\":5242:5243   */\n      dup2\n        /* \"#utility.yul\":5237:5240   */\n      dup5\n        /* \"#utility.yul\":5233:5244   */\n      add\n        /* \"#utility.yul\":5226:5265   */\n      mstore\n        /* \"#utility.yul\":5198:5200   */\n      0x20\n        /* \"#utility.yul\":5195:5196   */\n      dup2\n        /* \"#utility.yul\":5191:5201   */\n      add\n        /* \"#utility.yul\":5186:5201   */\n      swap1\n      pop\n        /* \"#utility.yul\":5162:5275   */\n      jump(tag_638)\n    tag_640:\n        /* \"#utility.yul\":5309:5310   */\n      0x00\n        /* \"#utility.yul\":5300:5306   */\n      dup5\n        /* \"#utility.yul\":5295:5298   */\n      dup5\n        /* \"#utility.yul\":5291:5307   */\n      add\n        /* \"#utility.yul\":5284:5311   */\n      mstore\n        /* \"#utility.yul\":5133:5317   */\n      pop\n        /* \"#utility.yul\":5071:5317   */\n      pop\n      pop\n      pop\n      jump\t// out\n        /* \"#utility.yul\":5323:5425   */\n    tag_521:\n        /* \"#utility.yul\":5364:5370   */\n      0x00\n        /* \"#utility.yul\":5415:5417   */\n      0x1f\n        /* \"#utility.yul\":5411:5418   */\n      not\n        /* \"#utility.yul\":5406:5408   */\n      0x1f\n        /* \"#utility.yul\":5399:5404   */\n      dup4\n        /* \"#utility.yul\":5395:5409   */\n      add\n        /* \"#utility.yul\":5391:5419   */\n      and\n        /* \"#utility.yul\":5381:5419   */\n      swap1\n      pop\n        /* \"#utility.yul\":5323:5425   */\n      swap2\n      swap1\n      pop\n      jump\t// out\n        /* \"#utility.yul\":5431:5804   */\n    tag_522:\n        /* \"#utility.yul\":5517:5520   */\n      0x00\n        /* \"#utility.yul\":5545:5583   */\n      tag_643\n        /* \"#utility.yul\":5577:5582   */\n      dup3\n        /* \"#utility.yul\":5545:5583   */\n      tag_518\n      jump\t// in\n    tag_643:\n        /* \"#utility.yul\":5599:5669   */\n      tag_644\n        /* \"#utility.yul\":5662:5668   */\n      dup2\n        /* \"#utility.yul\":5657:5660   */\n      dup6\n        /* \"#utility.yul\":5599:5669   */\n      tag_519\n      jump\t// in\n    tag_644:\n        /* \"#utility.yul\":5592:5669   */\n      swap4\n      pop\n        /* \"#utility.yul\":5678:5743   */\n      tag_645\n        /* \"#utility.yul\":5736:5742   */\n      dup2\n        /* \"#utility.yul\":5731:5734   */\n      dup6\n        /* \"#utility.yul\":5724:5728   */\n      0x20\n        /* \"#utility.yul\":5717:5722   */\n      dup7\n        /* \"#utility.yul\":5713:5729   */\n      add\n        /* \"#utility.yul\":5678:5743   */\n      tag_520\n      jump\t// in\n    tag_645:\n        /* \"#utility.yul\":5768:5797   */\n      tag_646\n        /* \"#utility.yul\":5790:5796   */\n      dup2\n        /* \"#utility.yul\":5768:5797   */\n      tag_521\n      jump\t// in\n    tag_646:\n        /* \"#utility.yul\":5763:5766   */\n      dup5\n        /* \"#utility.yul\":5759:5798   */\n      add\n        /* \"#utility.yul\":5752:5798   */\n      swap2\n      pop\n        /* \"#utility.yul\":5521:5804   */\n      pop\n        /* \"#utility.yul\":5431:5804   */\n      swap3\n      swap2\n      pop\n      pop\n      jump\t// out\n        /* \"#utility.yul\":5810:6119   */\n    tag_64:\n        /* \"#utility.yul\":5921:5925   */\n      0x00\n        /* \"#utility.yul\":5959:5961   */\n      0x20\n        /* \"#utility.yul\":5948:5957   */\n      dup3\n        /* \"#utility.yul\":5944:5962   */\n      add\n        /* \"#utility.yul\":5936:5962   */\n      swap1\n      pop\n        /* \"#utility.yul\":6008:6017   */\n      dup2\n        /* \"#utility.yul\":6002:6006   */\n      dup2\n        /* \"#utility.yul\":5998:6018   */\n      sub\n        /* \"#utility.yul\":5994:5995   */\n      0x00\n        /* \"#utility.yul\":5983:5992   */\n      dup4\n        /* \"#utility.yul\":5979:5996   */\n      add\n        /* \"#utility.yul\":5972:6019   */\n      mstore\n        /* \"#utility.yul\":6036:6112   */\n      tag_648\n        /* \"#utility.yul\":6107:6111   */\n      dup2\n        /* \"#utility.yul\":6098:6104   */\n      dup5\n        /* \"#utility.yul\":6036:6112   */\n      tag_522\n      jump\t// in\n    tag_648:\n        /* \"#utility.yul\":6028:6112   */\n      swap1\n      pop\n        /* \"#utility.yul\":5810:6119   */\n      swap3\n      swap2\n      pop\n      pop\n      jump\t// out\n        /* \"#utility.yul\":6125:6890   */\n    tag_76:\n        /* \"#utility.yul\":6211:6217   */\n      0x00\n        /* \"#utility.yul\":6219:6225   */\n      dup1\n        /* \"#utility.yul\":6227:6233   */\n      0x00\n        /* \"#utility.yul\":6235:6241   */\n      dup1\n        /* \"#utility.yul\":6284:6287   */\n      0x80\n        /* \"#utility.yul\":6272:6281   */\n      dup6\n        /* \"#utility.yul\":6263:6270   */\n      dup8\n        /* \"#utility.yul\":6259:6282   */\n      sub\n        /* \"#utility.yul\":6255:6288   */\n      slt\n        /* \"#utility.yul\":6252:6372   */\n      iszero\n      tag_650\n      jumpi\n        /* \"#utility.yul\":6291:6370   */\n      tag_651\n      tag_505\n      jump\t// in\n    tag_651:\n        /* \"#utility.yul\":6252:6372   */\n    tag_650:\n        /* \"#utility.yul\":6411:6412   */\n      0x00\n        /* \"#utility.yul\":6436:6489   */\n      tag_652\n        /* \"#utility.yul\":6481:6488   */\n      dup8\n        /* \"#utility.yul\":6472:6478   */\n      dup3\n        /* \"#utility.yul\":6461:6470   */\n      dup9\n        /* \"#utility.yul\":6457:6479   */\n      add\n        /* \"#utility.yul\":6436:6489   */\n      tag_512\n      jump\t// in\n    tag_652:\n        /* \"#utility.yul\":6426:6489   */\n      swap5\n      pop\n        /* \"#utility.yul\":6382:6499   */\n      pop\n        /* \"#utility.yul\":6538:6540   */\n      0x20\n        /* \"#utility.yul\":6564:6617   */\n      tag_653\n        /* \"#utility.yul\":6609:6616   */\n      dup8\n        /* \"#utility.yul\":6600:6606   */\n      dup3\n        /* \"#utility.yul\":6589:6598   */\n      dup9\n        /* \"#utility.yul\":6585:6607   */\n      add\n        /* \"#utility.yul\":6564:6617   */\n      tag_512\n      jump\t// in\n    tag_653:\n        /* \"#utility.yul\":6554:6617   */\n      swap4\n      pop\n        /* \"#utility.yul\":6509:6627   */\n      pop\n        /* \"#utility.yul\":6666:6668   */\n      0x40\n        /* \"#utility.yul\":6692:6745   */\n      tag_654\n        /* \"#utility.yul\":6737:6744   */\n      dup8\n        /* \"#utility.yul\":6728:6734   */\n      dup3\n        /* \"#utility.yul\":6717:6726   */\n      dup9\n        /* \"#utility.yul\":6713:6735   */\n      add\n        /* \"#utility.yul\":6692:6745   */\n      tag_512\n      jump\t// in\n    tag_654:\n        /* \"#utility.yul\":6682:6745   */\n      swap3\n      pop\n        /* \"#utility.yul\":6637:6755   */\n      pop\n        /* \"#utility.yul\":6794:6796   */\n      0x60\n        /* \"#utility.yul\":6820:6873   */\n      tag_655\n        /* \"#utility.yul\":6865:6872   */\n      dup8\n        /* \"#utility.yul\":6856:6862   */\n      dup3\n        /* \"#utility.yul\":6845:6854   */\n      dup9\n        /* \"#utility.yul\":6841:6863   */\n      add\n        /* \"#utility.yul\":6820:6873   */\n      tag_512\n      jump\t// in\n    tag_655:\n        /* \"#utility.yul\":6810:6873   */\n      swap2\n      pop\n        /* \"#utility.yul\":6765:6883   */\n      pop\n        /* \"#utility.yul\":6125:6890   */\n      swap3\n      swap6\n      swap2\n      swap5\n      pop\n      swap3\n      pop\n      jump\t// out\n        /* \"#utility.yul\":6896:7014   */\n    tag_523:\n        /* \"#utility.yul\":6982:6983   */\n      0x04\n        /* \"#utility.yul\":6975:6980   */\n      dup2\n        /* \"#utility.yul\":6972:6984   */\n      lt\n        /* \"#utility.yul\":6962:7008   */\n      tag_657\n      jumpi\n        /* \"#utility.yul\":6988:7006   */\n      tag_658\n      tag_189\n      jump\t// in\n    tag_658:\n        /* \"#utility.yul\":6962:7008   */\n    tag_657:\n        /* \"#utility.yul\":6896:7014   */\n      pop\n      jump\t// out\n        /* \"#utility.yul\":7020:7157   */\n    tag_524:\n        /* \"#utility.yul\":7070:7077   */\n      0x00\n        /* \"#utility.yul\":7099:7104   */\n      dup2\n        /* \"#utility.yul\":7088:7104   */\n      swap1\n      pop\n        /* \"#utility.yul\":7105:7151   */\n      tag_660\n        /* \"#utility.yul\":7145:7150   */\n      dup3\n        /* \"#utility.yul\":7105:7151   */\n      tag_523\n      jump\t// in\n    tag_660:\n        /* \"#utility.yul\":7020:7157   */\n      swap2\n      swap1\n      pop\n      jump\t// out\n        /* \"#utility.yul\":7163:7300   */\n    tag_525:\n        /* \"#utility.yul\":7224:7233   */\n      0x00\n        /* \"#utility.yul\":7257:7294   */\n      tag_662\n        /* \"#utility.yul\":7288:7293   */\n      dup3\n        /* \"#utility.yul\":7257:7294   */\n      tag_524\n      jump\t// in\n    tag_662:\n        /* \"#utility.yul\":7244:7294   */\n      swap1\n      pop\n        /* \"#utility.yul\":7163:7300   */\n      swap2\n      swap1\n      pop\n      jump\t// out\n        /* \"#utility.yul\":7306:7459   */\n    tag_526:\n        /* \"#utility.yul\":7404:7452   */\n      tag_664\n        /* \"#utility.yul\":7446:7451   */\n      dup2\n        /* \"#utility.yul\":7404:7452   */\n      tag_525\n      jump\t// in\n    tag_664:\n        /* \"#utility.yul\":7399:7402   */\n      dup3\n        /* \"#utility.yul\":7392:7453   */\n      mstore\n        /* \"#utility.yul\":7306:7459   */\n      pop\n      pop\n      jump\t// out\n        /* \"#utility.yul\":7465:8262   */\n    tag_99:\n        /* \"#utility.yul\":7709:7713   */\n      0x00\n        /* \"#utility.yul\":7747:7750   */\n      0xc0\n        /* \"#utility.yul\":7736:7745   */\n      dup3\n        /* \"#utility.yul\":7732:7751   */\n      add\n        /* \"#utility.yul\":7724:7751   */\n      swap1\n      pop\n        /* \"#utility.yul\":7761:7832   */\n      tag_666\n        /* \"#utility.yul\":7829:7830   */\n      0x00\n        /* \"#utility.yul\":7818:7827   */\n      dup4\n        /* \"#utility.yul\":7814:7831   */\n      add\n        /* \"#utility.yul\":7805:7811   */\n      dup10\n        /* \"#utility.yul\":7761:7832   */\n      tag_503\n      jump\t// in\n    tag_666:\n        /* \"#utility.yul\":7842:7914   */\n      tag_667\n        /* \"#utility.yul\":7910:7912   */\n      0x20\n        /* \"#utility.yul\":7899:7908   */\n      dup4\n        /* \"#utility.yul\":7895:7913   */\n      add\n        /* \"#utility.yul\":7886:7892   */\n      dup9\n        /* \"#utility.yul\":7842:7914   */\n      tag_503\n      jump\t// in\n    tag_667:\n        /* \"#utility.yul\":7924:7996   */\n      tag_668\n        /* \"#utility.yul\":7992:7994   */\n      0x40\n        /* \"#utility.yul\":7981:7990   */\n      dup4\n        /* \"#utility.yul\":7977:7995   */\n      add\n        /* \"#utility.yul\":7968:7974   */\n      dup8\n        /* \"#utility.yul\":7924:7996   */\n      tag_503\n      jump\t// in\n    tag_668:\n        /* \"#utility.yul\":8006:8078   */\n      tag_669\n        /* \"#utility.yul\":8074:8076   */\n      0x60\n        /* \"#utility.yul\":8063:8072   */\n      dup4\n        /* \"#utility.yul\":8059:8077   */\n      add\n        /* \"#utility.yul\":8050:8056   */\n      dup7\n        /* \"#utility.yul\":8006:8078   */\n      tag_503\n      jump\t// in\n    tag_669:\n        /* \"#utility.yul\":8088:8161   */\n      tag_670\n        /* \"#utility.yul\":8156:8159   */\n      0x80\n        /* \"#utility.yul\":8145:8154   */\n      dup4\n        /* \"#utility.yul\":8141:8160   */\n      add\n        /* \"#utility.yul\":8132:8138   */\n      dup6\n        /* \"#utility.yul\":8088:8161   */\n      tag_503\n      jump\t// in\n    tag_670:\n        /* \"#utility.yul\":8171:8255   */\n      tag_671\n        /* \"#utility.yul\":8250:8253   */\n      0xa0\n        /* \"#utility.yul\":8239:8248   */\n      dup4\n        /* \"#utility.yul\":8235:8254   */\n      add\n        /* \"#utility.yul\":8226:8232   */\n      dup5\n        /* \"#utility.yul\":8171:8255   */\n      tag_526\n      jump\t// in\n    tag_671:\n        /* \"#utility.yul\":7465:8262   */\n      swap8\n      swap7\n      pop\n      pop\n      pop\n      pop\n      pop\n      pop\n      pop\n      jump\t// out\n        /* \"#utility.yul\":8268:8358   */\n    tag_527:\n        /* \"#utility.yul\":8302:8309   */\n      0x00\n        /* \"#utility.yul\":8345:8350   */\n      dup2\n        /* \"#utility.yul\":8338:8351   */\n      iszero\n        /* \"#utility.yul\":8331:8352   */\n      iszero\n        /* \"#utility.yul\":8320:8352   */\n      swap1\n      pop\n        /* \"#utility.yul\":8268:8358   */\n      swap2\n      swap1\n      pop\n      jump\t// out\n        /* \"#utility.yul\":8364:8480   */\n    tag_528:\n        /* \"#utility.yul\":8434:8455   */\n      tag_674\n        /* \"#utility.yul\":8449:8454   */\n      dup2\n        /* \"#utility.yul\":8434:8455   */\n      tag_527\n      jump\t// in\n    tag_674:\n        /* \"#utility.yul\":8427:8432   */\n      dup2\n        /* \"#utility.yul\":8424:8456   */\n      eq\n        /* \"#utility.yul\":8414:8474   */\n      tag_675\n      jumpi\n        /* \"#utility.yul\":8470:8471   */\n      0x00\n        /* \"#utility.yul\":8467:8468   */\n      dup1\n        /* \"#utility.yul\":8460:8472   */\n      revert\n        /* \"#utility.yul\":8414:8474   */\n    tag_675:\n        /* \"#utility.yul\":8364:8480   */\n      pop\n      jump\t// out\n        /* \"#utility.yul\":8486:8619   */\n    tag_529:\n        /* \"#utility.yul\":8529:8534   */\n      0x00\n        /* \"#utility.yul\":8567:8573   */\n      dup2\n        /* \"#utility.yul\":8554:8574   */\n      calldataload\n        /* \"#utility.yul\":8545:8574   */\n      swap1\n      pop\n        /* \"#utility.yul\":8583:8613   */\n      tag_677\n        /* \"#utility.yul\":8607:8612   */\n      dup2\n        /* \"#utility.yul\":8583:8613   */\n      tag_528\n      jump\t// in\n    tag_677:\n        /* \"#utility.yul\":8486:8619   */\n      swap3\n      swap2\n      pop\n      pop\n      jump\t// out\n        /* \"#utility.yul\":8625:9238   */\n    tag_103:\n        /* \"#utility.yul\":8699:8705   */\n      0x00\n        /* \"#utility.yul\":8707:8713   */\n      dup1\n        /* \"#utility.yul\":8715:8721   */\n      0x00\n        /* \"#utility.yul\":8764:8766   */\n      0x60\n        /* \"#utility.yul\":8752:8761   */\n      dup5\n        /* \"#utility.yul\":8743:8750   */\n      dup7\n        /* \"#utility.yul\":8739:8762   */\n      sub\n        /* \"#utility.yul\":8735:8767   */\n      slt\n        /* \"#utility.yul\":8732:8851   */\n      iszero\n      tag_679\n      jumpi\n        /* \"#utility.yul\":8770:8849   */\n      tag_680\n      tag_505\n      jump\t// in\n    tag_680:\n        /* \"#utility.yul\":8732:8851   */\n    tag_679:\n        /* \"#utility.yul\":8890:8891   */\n      0x00\n        /* \"#utility.yul\":8915:8968   */\n      tag_681\n        /* \"#utility.yul\":8960:8967   */\n      dup7\n        /* \"#utility.yul\":8951:8957   */\n      dup3\n        /* \"#utility.yul\":8940:8949   */\n      dup8\n        /* \"#utility.yul\":8936:8958   */\n      add\n        /* \"#utility.yul\":8915:8968   */\n      tag_512\n      jump\t// in\n    tag_681:\n        /* \"#utility.yul\":8905:8968   */\n      swap4\n      pop\n        /* \"#utility.yul\":8861:8978   */\n      pop\n        /* \"#utility.yul\":9017:9019   */\n      0x20\n        /* \"#utility.yul\":9043:9096   */\n      tag_682\n        /* \"#utility.yul\":9088:9095   */\n      dup7\n        /* \"#utility.yul\":9079:9085   */\n      dup3\n        /* \"#utility.yul\":9068:9077   */\n      dup8\n        /* \"#utility.yul\":9064:9086   */\n      add\n        /* \"#utility.yul\":9043:9096   */\n      tag_512\n      jump\t// in\n    tag_682:\n        /* \"#utility.yul\":9033:9096   */\n      swap3\n      pop\n        /* \"#utility.yul\":8988:9106   */\n      pop\n        /* \"#utility.yul\":9145:9147   */\n      0x40\n        /* \"#utility.yul\":9171:9221   */\n      tag_683\n        /* \"#utility.yul\":9213:9220   */\n      dup7\n        /* \"#utility.yul\":9204:9210   */\n      dup3\n        /* \"#utility.yul\":9193:9202   */\n      dup8\n        /* \"#utility.yul\":9189:9211   */\n      add\n        /* \"#utility.yul\":9171:9221   */\n      tag_529\n      jump\t// in\n    tag_683:\n        /* \"#utility.yul\":9161:9221   */\n      swap2\n      pop\n        /* \"#utility.yul\":9116:9231   */\n      pop\n        /* \"#utility.yul\":8625:9238   */\n      swap3\n      pop\n      swap3\n      pop\n      swap3\n      jump\t// out\n        /* \"#utility.yul\":9244:9466   */\n    tag_117:\n        /* \"#utility.yul\":9337:9341   */\n      0x00\n        /* \"#utility.yul\":9375:9377   */\n      0x20\n        /* \"#utility.yul\":9364:9373   */\n      dup3\n        /* \"#utility.yul\":9360:9378   */\n      add\n        /* \"#utility.yul\":9352:9378   */\n      swap1\n      pop\n        /* \"#utility.yul\":9388:9459   */\n      tag_685\n        /* \"#utility.yul\":9456:9457   */\n      0x00\n        /* \"#utility.yul\":9445:9454   */\n      dup4\n        /* \"#utility.yul\":9441:9458   */\n      add\n        /* \"#utility.yul\":9432:9438   */\n      dup5\n        /* \"#utility.yul\":9388:9459   */\n      tag_513\n      jump\t// in\n    tag_685:\n        /* \"#utility.yul\":9244:9466   */\n      swap3\n      swap2\n      pop\n      pop\n      jump\t// out\n        /* \"#utility.yul\":9472:10358   */\n    tag_136:\n        /* \"#utility.yul\":9733:9737   */\n      0x00\n        /* \"#utility.yul\":9771:9774   */\n      0xe0\n        /* \"#utility.yul\":9760:9769   */\n      dup3\n        /* \"#utility.yul\":9756:9775   */\n      add\n        /* \"#utility.yul\":9748:9775   */\n      swap1\n      pop\n        /* \"#utility.yul\":9785:9856   */\n      tag_687\n        /* \"#utility.yul\":9853:9854   */\n      0x00\n        /* \"#utility.yul\":9842:9851   */\n      dup4\n        /* \"#utility.yul\":9838:9855   */\n      add\n        /* \"#utility.yul\":9829:9835   */\n      dup11\n        /* \"#utility.yul\":9785:9856   */\n      tag_513\n      jump\t// in\n    tag_687:\n        /* \"#utility.yul\":9866:9938   */\n      tag_688\n        /* \"#utility.yul\":9934:9936   */\n      0x20\n        /* \"#utility.yul\":9923:9932   */\n      dup4\n        /* \"#utility.yul\":9919:9937   */\n      add\n        /* \"#utility.yul\":9910:9916   */\n      dup10\n        /* \"#utility.yul\":9866:9938   */\n      tag_503\n      jump\t// in\n    tag_688:\n        /* \"#utility.yul\":9948:10020   */\n      tag_689\n        /* \"#utility.yul\":10016:10018   */\n      0x40\n        /* \"#utility.yul\":10005:10014   */\n      dup4\n        /* \"#utility.yul\":10001:10019   */\n      add\n        /* \"#utility.yul\":9992:9998   */\n      dup9\n        /* \"#utility.yul\":9948:10020   */\n      tag_503\n      jump\t// in\n    tag_689:\n        /* \"#utility.yul\":10030:10102   */\n      tag_690\n        /* \"#utility.yul\":10098:10100   */\n      0x60\n        /* \"#utility.yul\":10087:10096   */\n      dup4\n        /* \"#utility.yul\":10083:10101   */\n      add\n        /* \"#utility.yul\":10074:10080   */\n      dup8\n        /* \"#utility.yul\":10030:10102   */\n      tag_503\n      jump\t// in\n    tag_690:\n        /* \"#utility.yul\":10112:10185   */\n      tag_691\n        /* \"#utility.yul\":10180:10183   */\n      0x80\n        /* \"#utility.yul\":10169:10178   */\n      dup4\n        /* \"#utility.yul\":10165:10184   */\n      add\n        /* \"#utility.yul\":10156:10162   */\n      dup7\n        /* \"#utility.yul\":10112:10185   */\n      tag_503\n      jump\t// in\n    tag_691:\n        /* \"#utility.yul\":10195:10268   */\n      tag_692\n        /* \"#utility.yul\":10263:10266   */\n      0xa0\n        /* \"#utility.yul\":10252:10261   */\n      dup4\n        /* \"#utility.yul\":10248:10267   */\n      add\n        /* \"#utility.yul\":10239:10245   */\n      dup6\n        /* \"#utility.yul\":10195:10268   */\n      tag_503\n      jump\t// in\n    tag_692:\n        /* \"#utility.yul\":10278:10351   */\n      tag_693\n        /* \"#utility.yul\":10346:10349   */\n      0xc0\n        /* \"#utility.yul\":10335:10344   */\n      dup4\n        /* \"#utility.yul\":10331:10350   */\n      add\n        /* \"#utility.yul\":10322:10328   */\n      dup5\n        /* \"#utility.yul\":10278:10351   */\n      tag_503\n      jump\t// in\n    tag_693:\n        /* \"#utility.yul\":9472:10358   */\n      swap9\n      swap8\n      pop\n      pop\n      pop\n      pop\n      pop\n      pop\n      pop\n      pop\n      jump\t// out\n        /* \"#utility.yul\":10364:10473   */\n    tag_530:\n        /* \"#utility.yul\":10445:10466   */\n      tag_695\n        /* \"#utility.yul\":10460:10465   */\n      dup2\n        /* \"#utility.yul\":10445:10466   */\n      tag_527\n      jump\t// in\n    tag_695:\n        /* \"#utility.yul\":10440:10443   */\n      dup3\n        /* \"#utility.yul\":10433:10467   */\n      mstore\n        /* \"#utility.yul\":10364:10473   */\n      pop\n      pop\n      jump\t// out\n        /* \"#utility.yul\":10479:10689   */\n    tag_142:\n        /* \"#utility.yul\":10566:10570   */\n      0x00\n        /* \"#utility.yul\":10604:10606   */\n      0x20\n        /* \"#utility.yul\":10593:10602   */\n      dup3\n        /* \"#utility.yul\":10589:10607   */\n      add\n        /* \"#utility.yul\":10581:10607   */\n      swap1\n      pop\n        /* \"#utility.yul\":10617:10682   */\n      tag_697\n        /* \"#utility.yul\":10679:10680   */\n      0x00\n        /* \"#utility.yul\":10668:10677   */\n      dup4\n        /* \"#utility.yul\":10664:10681   */\n      add\n        /* \"#utility.yul\":10655:10661   */\n      dup5\n        /* \"#utility.yul\":10617:10682   */\n      tag_530\n      jump\t// in\n    tag_697:\n        /* \"#utility.yul\":10479:10689   */\n      swap3\n      swap2\n      pop\n      pop\n      jump\t// out\n        /* \"#utility.yul\":10695:11169   */\n    tag_162:\n        /* \"#utility.yul\":10763:10769   */\n      0x00\n        /* \"#utility.yul\":10771:10777   */\n      dup1\n        /* \"#utility.yul\":10820:10822   */\n      0x40\n        /* \"#utility.yul\":10808:10817   */\n      dup4\n        /* \"#utility.yul\":10799:10806   */\n      dup6\n        /* \"#utility.yul\":10795:10818   */\n      sub\n        /* \"#utility.yul\":10791:10823   */\n      slt\n        /* \"#utility.yul\":10788:10907   */\n      iszero\n      tag_699\n      jumpi\n        /* \"#utility.yul\":10826:10905   */\n      tag_700\n      tag_505\n      jump\t// in\n    tag_700:\n        /* \"#utility.yul\":10788:10907   */\n    tag_699:\n        /* \"#utility.yul\":10946:10947   */\n      0x00\n        /* \"#utility.yul\":10971:11024   */\n      tag_701\n        /* \"#utility.yul\":11016:11023   */\n      dup6\n        /* \"#utility.yul\":11007:11013   */\n      dup3\n        /* \"#utility.yul\":10996:11005   */\n      dup7\n        /* \"#utility.yul\":10992:11014   */\n      add\n        /* \"#utility.yul\":10971:11024   */\n      tag_512\n      jump\t// in\n    tag_701:\n        /* \"#utility.yul\":10961:11024   */\n      swap3\n      pop\n        /* \"#utility.yul\":10917:11034   */\n      pop\n        /* \"#utility.yul\":11073:11075   */\n      0x20\n        /* \"#utility.yul\":11099:11152   */\n      tag_702\n        /* \"#utility.yul\":11144:11151   */\n      dup6\n        /* \"#utility.yul\":11135:11141   */\n      dup3\n        /* \"#utility.yul\":11124:11133   */\n      dup7\n        /* \"#utility.yul\":11120:11142   */\n      add\n        /* \"#utility.yul\":11099:11152   */\n      tag_510\n      jump\t// in\n    tag_702:\n        /* \"#utility.yul\":11089:11152   */\n      swap2\n      pop\n        /* \"#utility.yul\":11044:11162   */\n      pop\n        /* \"#utility.yul\":10695:11169   */\n      swap3\n      pop\n      swap3\n      swap1\n      pop\n      jump\t// out\n        /* \"#utility.yul\":11175:11355   */\n    tag_531:\n        /* \"#utility.yul\":11223:11300   */\n      0x4e487b7100000000000000000000000000000000000000000000000000000000\n        /* \"#utility.yul\":11220:11221   */\n      0x00\n        /* \"#utility.yul\":11213:11301   */\n      mstore\n        /* \"#utility.yul\":11320:11324   */\n      0x11\n        /* \"#utility.yul\":11317:11318   */\n      0x04\n        /* \"#utility.yul\":11310:11325   */\n      mstore\n        /* \"#utility.yul\":11344:11348   */\n      0x24\n        /* \"#utility.yul\":11341:11342   */\n      0x00\n        /* \"#utility.yul\":11334:11349   */\n      revert\n        /* \"#utility.yul\":11361:11771   */\n    tag_168:\n        /* \"#utility.yul\":11401:11408   */\n      0x00\n        /* \"#utility.yul\":11424:11444   */\n      tag_705\n        /* \"#utility.yul\":11442:11443   */\n      dup3\n        /* \"#utility.yul\":11424:11444   */\n      tag_502\n      jump\t// in\n    tag_705:\n        /* \"#utility.yul\":11419:11444   */\n      swap2\n      pop\n        /* \"#utility.yul\":11458:11478   */\n      tag_706\n        /* \"#utility.yul\":11476:11477   */\n      dup4\n        /* \"#utility.yul\":11458:11478   */\n      tag_502\n      jump\t// in\n    tag_706:\n        /* \"#utility.yul\":11453:11478   */\n      swap3\n      pop\n        /* \"#utility.yul\":11513:11514   */\n      dup3\n        /* \"#utility.yul\":11510:11511   */\n      dup3\n        /* \"#utility.yul\":11506:11515   */\n      mul\n        /* \"#utility.yul\":11535:11565   */\n      tag_707\n        /* \"#utility.yul\":11553:11564   */\n      dup2\n        /* \"#utility.yul\":11535:11565   */\n      tag_502\n      jump\t// in\n    tag_707:\n        /* \"#utility.yul\":11524:11565   */\n      swap2\n      pop\n        /* \"#utility.yul\":11714:11715   */\n      dup3\n        /* \"#utility.yul\":11705:11712   */\n      dup3\n        /* \"#utility.yul\":11701:11716   */\n      div\n        /* \"#utility.yul\":11698:11699   */\n      dup5\n        /* \"#utility.yul\":11695:11717   */\n      eq\n        /* \"#utility.yul\":11675:11676   */\n      dup4\n        /* \"#utility.yul\":11668:11677   */\n      iszero\n        /* \"#utility.yul\":11648:11731   */\n      or\n        /* \"#utility.yul\":11625:11764   */\n      tag_708\n      jumpi\n        /* \"#utility.yul\":11744:11762   */\n      tag_709\n      tag_531\n      jump\t// in\n    tag_709:\n        /* \"#utility.yul\":11625:11764   */\n    tag_708:\n        /* \"#utility.yul\":11409:11771   */\n      pop\n        /* \"#utility.yul\":11361:11771   */\n      swap3\n      swap2\n      pop\n      pop\n      jump\t// out\n        /* \"#utility.yul\":11777:11971   */\n    tag_170:\n        /* \"#utility.yul\":11817:11821   */\n      0x00\n        /* \"#utility.yul\":11837:11857   */\n      tag_711\n        /* \"#utility.yul\":11855:11856   */\n      dup3\n        /* \"#utility.yul\":11837:11857   */\n      tag_502\n      jump\t// in\n    tag_711:\n        /* \"#utility.yul\":11832:11857   */\n      swap2\n      pop\n        /* \"#utility.yul\":11871:11891   */\n      tag_712\n        /* \"#utility.yul\":11889:11890   */\n      dup4\n        /* \"#utility.yul\":11871:11891   */\n      tag_502\n      jump\t// in\n    tag_712:\n        /* \"#utility.yul\":11866:11891   */\n      swap3\n      pop\n        /* \"#utility.yul\":11915:11916   */\n      dup3\n        /* \"#utility.yul\":11912:11913   */\n      dup3\n        /* \"#utility.yul\":11908:11917   */\n      sub\n        /* \"#utility.yul\":11900:11917   */\n      swap1\n      pop\n        /* \"#utility.yul\":11939:11940   */\n      dup2\n        /* \"#utility.yul\":11933:11937   */\n      dup2\n        /* \"#utility.yul\":11930:11941   */\n      gt\n        /* \"#utility.yul\":11927:11964   */\n      iszero\n      tag_713\n      jumpi\n        /* \"#utility.yul\":11944:11962   */\n      tag_714\n      tag_531\n      jump\t// in\n    tag_714:\n        /* \"#utility.yul\":11927:11964   */\n    tag_713:\n        /* \"#utility.yul\":11777:11971   */\n      swap3\n      swap2\n      pop\n      pop\n      jump\t// out\n        /* \"#utility.yul\":11977:12157   */\n    tag_532:\n        /* \"#utility.yul\":12025:12102   */\n      0x4e487b7100000000000000000000000000000000000000000000000000000000\n        /* \"#utility.yul\":12022:12023   */\n      0x00\n        /* \"#utility.yul\":12015:12103   */\n      mstore\n        /* \"#utility.yul\":12122:12126   */\n      0x12\n        /* \"#utility.yul\":12119:12120   */\n      0x04\n        /* \"#utility.yul\":12112:12127   */\n      mstore\n        /* \"#utility.yul\":12146:12150   */\n      0x24\n        /* \"#utility.yul\":12143:12144   */\n      0x00\n        /* \"#utility.yul\":12136:12151   */\n      revert\n        /* \"#utility.yul\":12163:12348   */\n    tag_173:\n        /* \"#utility.yul\":12203:12204   */\n      0x00\n        /* \"#utility.yul\":12220:12240   */\n      tag_717\n        /* \"#utility.yul\":12238:12239   */\n      dup3\n        /* \"#utility.yul\":12220:12240   */\n      tag_502\n      jump\t// in\n    tag_717:\n        /* \"#utility.yul\":12215:12240   */\n      swap2\n      pop\n        /* \"#utility.yul\":12254:12274   */\n      tag_718\n        /* \"#utility.yul\":12272:12273   */\n      dup4\n        /* \"#utility.yul\":12254:12274   */\n      tag_502\n      jump\t// in\n    tag_718:\n        /* \"#utility.yul\":12249:12274   */\n      swap3\n      pop\n        /* \"#utility.yul\":12293:12294   */\n      dup3\n        /* \"#utility.yul\":12283:12318   */\n      tag_719\n      jumpi\n        /* \"#utility.yul\":12298:12316   */\n      tag_720\n      tag_532\n      jump\t// in\n    tag_720:\n        /* \"#utility.yul\":12283:12318   */\n    tag_719:\n        /* \"#utility.yul\":12340:12341   */\n      dup3\n        /* \"#utility.yul\":12337:12338   */\n      dup3\n        /* \"#utility.yul\":12333:12342   */\n      div\n        /* \"#utility.yul\":12328:12342   */\n      swap1\n      pop\n        /* \"#utility.yul\":12163:12348   */\n      swap3\n      swap2\n      pop\n      pop\n      jump\t// out\n        /* \"#utility.yul\":12354:12545   */\n    tag_177:\n        /* \"#utility.yul\":12394:12397   */\n      0x00\n        /* \"#utility.yul\":12413:12433   */\n      tag_722\n        /* \"#utility.yul\":12431:12432   */\n      dup3\n        /* \"#utility.yul\":12413:12433   */\n      tag_502\n      jump\t// in\n    tag_722:\n        /* \"#utility.yul\":12408:12433   */\n      swap2\n      pop\n        /* \"#utility.yul\":12447:12467   */\n      tag_723\n        /* \"#utility.yul\":12465:12466   */\n      dup4\n        /* \"#utility.yul\":12447:12467   */\n      tag_502\n      jump\t// in\n    tag_723:\n        /* \"#utility.yul\":12442:12467   */\n      swap3\n      pop\n        /* \"#utility.yul\":12490:12491   */\n      dup3\n        /* \"#utility.yul\":12487:12488   */\n      dup3\n        /* \"#utility.yul\":12483:12492   */\n      add\n        /* \"#utility.yul\":12476:12492   */\n      swap1\n      pop\n        /* \"#utility.yul\":12511:12514   */\n      dup1\n        /* \"#utility.yul\":12508:12509   */\n      dup3\n        /* \"#utility.yul\":12505:12515   */\n      gt\n        /* \"#utility.yul\":12502:12538   */\n      iszero\n      tag_724\n      jumpi\n        /* \"#utility.yul\":12518:12536   */\n      tag_725\n      tag_531\n      jump\t// in\n    tag_725:\n        /* \"#utility.yul\":12502:12538   */\n    tag_724:\n        /* \"#utility.yul\":12354:12545   */\n      swap3\n      swap2\n      pop\n      pop\n      jump\t// out\n        /* \"#utility.yul\":12551:12720   */\n    tag_533:\n        /* \"#utility.yul\":12635:12646   */\n      0x00\n        /* \"#utility.yul\":12669:12675   */\n      dup3\n        /* \"#utility.yul\":12664:12667   */\n      dup3\n        /* \"#utility.yul\":12657:12676   */\n      mstore\n        /* \"#utility.yul\":12709:12713   */\n      0x20\n        /* \"#utility.yul\":12704:12707   */\n      dup3\n        /* \"#utility.yul\":12700:12714   */\n      add\n        /* \"#utility.yul\":12685:12714   */\n      swap1\n      pop\n        /* \"#utility.yul\":12551:12720   */\n      swap3\n      swap2\n      pop\n      pop\n      jump\t// out\n        /* \"#utility.yul\":12726:12889   */\n    tag_534:\n        /* \"#utility.yul\":12866:12881   */\n      0x4e6f74417574686f72697a656400000000000000000000000000000000000000\n        /* \"#utility.yul\":12862:12863   */\n      0x00\n        /* \"#utility.yul\":12854:12860   */\n      dup3\n        /* \"#utility.yul\":12850:12864   */\n      add\n        /* \"#utility.yul\":12843:12882   */\n      mstore\n        /* \"#utility.yul\":12726:12889   */\n      pop\n      jump\t// out\n        /* \"#utility.yul\":12895:13261   */\n    tag_535:\n        /* \"#utility.yul\":13037:13040   */\n      0x00\n        /* \"#utility.yul\":13058:13125   */\n      tag_729\n        /* \"#utility.yul\":13122:13124   */\n      0x0d\n        /* \"#utility.yul\":13117:13120   */\n      dup4\n        /* \"#utility.yul\":13058:13125   */\n      tag_533\n      jump\t// in\n    tag_729:\n        /* \"#utility.yul\":13051:13125   */\n      swap2\n      pop\n        /* \"#utility.yul\":13134:13227   */\n      tag_730\n        /* \"#utility.yul\":13223:13226   */\n      dup3\n        /* \"#utility.yul\":13134:13227   */\n      tag_534\n      jump\t// in\n    tag_730:\n        /* \"#utility.yul\":13252:13254   */\n      0x20\n        /* \"#utility.yul\":13247:13250   */\n      dup3\n        /* \"#utility.yul\":13243:13255   */\n      add\n        /* \"#utility.yul\":13236:13255   */\n      swap1\n      pop\n        /* \"#utility.yul\":12895:13261   */\n      swap2\n      swap1\n      pop\n      jump\t// out\n        /* \"#utility.yul\":13267:13686   */\n    tag_186:\n        /* \"#utility.yul\":13433:13437   */\n      0x00\n        /* \"#utility.yul\":13471:13473   */\n      0x20\n        /* \"#utility.yul\":13460:13469   */\n      dup3\n        /* \"#utility.yul\":13456:13474   */\n      add\n        /* \"#utility.yul\":13448:13474   */\n      swap1\n      pop\n        /* \"#utility.yul\":13520:13529   */\n      dup2\n        /* \"#utility.yul\":13514:13518   */\n      dup2\n        /* \"#utility.yul\":13510:13530   */\n      sub\n        /* \"#utility.yul\":13506:13507   */\n      0x00\n        /* \"#utility.yul\":13495:13504   */\n      dup4\n        /* \"#utility.yul\":13491:13508   */\n      add\n        /* \"#utility.yul\":13484:13531   */\n      mstore\n        /* \"#utility.yul\":13548:13679   */\n      tag_732\n        /* \"#utility.yul\":13674:13678   */\n      dup2\n        /* \"#utility.yul\":13548:13679   */\n      tag_535\n      jump\t// in\n    tag_732:\n        /* \"#utility.yul\":13540:13679   */\n      swap1\n      pop\n        /* \"#utility.yul\":13267:13686   */\n      swap2\n      swap1\n      pop\n      jump\t// out\n        /* \"#utility.yul\":13692:13855   */\n    tag_536:\n        /* \"#utility.yul\":13832:13847   */\n      0x4c6f616e49734e6f744f70656e00000000000000000000000000000000000000\n        /* \"#utility.yul\":13828:13829   */\n      0x00\n        /* \"#utility.yul\":13820:13826   */\n      dup3\n        /* \"#utility.yul\":13816:13830   */\n      add\n        /* \"#utility.yul\":13809:13848   */\n      mstore\n        /* \"#utility.yul\":13692:13855   */\n      pop\n      jump\t// out\n        /* \"#utility.yul\":13861:14227   */\n    tag_537:\n        /* \"#utility.yul\":14003:14006   */\n      0x00\n        /* \"#utility.yul\":14024:14091   */\n      tag_735\n        /* \"#utility.yul\":14088:14090   */\n      0x0d\n        /* \"#utility.yul\":14083:14086   */\n      dup4\n        /* \"#utility.yul\":14024:14091   */\n      tag_533\n      jump\t// in\n    tag_735:\n        /* \"#utility.yul\":14017:14091   */\n      swap2\n      pop\n        /* \"#utility.yul\":14100:14193   */\n      tag_736\n        /* \"#utility.yul\":14189:14192   */\n      dup3\n        /* \"#utility.yul\":14100:14193   */\n      tag_536\n      jump\t// in\n    tag_736:\n        /* \"#utility.yul\":14218:14220   */\n      0x20\n        /* \"#utility.yul\":14213:14216   */\n      dup3\n        /* \"#utility.yul\":14209:14221   */\n      add\n        /* \"#utility.yul\":14202:14221   */\n      swap1\n      pop\n        /* \"#utility.yul\":13861:14227   */\n      swap2\n      swap1\n      pop\n      jump\t// out\n        /* \"#utility.yul\":14233:14652   */\n    tag_194:\n        /* \"#utility.yul\":14399:14403   */\n      0x00\n        /* \"#utility.yul\":14437:14439   */\n      0x20\n        /* \"#utility.yul\":14426:14435   */\n      dup3\n        /* \"#utility.yul\":14422:14440   */\n      add\n        /* \"#utility.yul\":14414:14440   */\n      swap1\n      pop\n        /* \"#utility.yul\":14486:14495   */\n      dup2\n        /* \"#utility.yul\":14480:14484   */\n      dup2\n        /* \"#utility.yul\":14476:14496   */\n      sub\n        /* \"#utility.yul\":14472:14473   */\n      0x00\n        /* \"#utility.yul\":14461:14470   */\n      dup4\n        /* \"#utility.yul\":14457:14474   */\n      add\n        /* \"#utility.yul\":14450:14497   */\n      mstore\n        /* \"#utility.yul\":14514:14645   */\n      tag_738\n        /* \"#utility.yul\":14640:14644   */\n      dup2\n        /* \"#utility.yul\":14514:14645   */\n      tag_537\n      jump\t// in\n    tag_738:\n        /* \"#utility.yul\":14506:14645   */\n      swap1\n      pop\n        /* \"#utility.yul\":14233:14652   */\n      swap2\n      swap1\n      pop\n      jump\t// out\n        /* \"#utility.yul\":14658:14822   */\n    tag_538:\n        /* \"#utility.yul\":14798:14814   */\n      0x57697468647261774661696c6564000000000000000000000000000000000000\n        /* \"#utility.yul\":14794:14795   */\n      0x00\n        /* \"#utility.yul\":14786:14792   */\n      dup3\n        /* \"#utility.yul\":14782:14796   */\n      add\n        /* \"#utility.yul\":14775:14815   */\n      mstore\n        /* \"#utility.yul\":14658:14822   */\n      pop\n      jump\t// out\n        /* \"#utility.yul\":14828:15194   */\n    tag_539:\n        /* \"#utility.yul\":14970:14973   */\n      0x00\n        /* \"#utility.yul\":14991:15058   */\n      tag_741\n        /* \"#utility.yul\":15055:15057   */\n      0x0e\n        /* \"#utility.yul\":15050:15053   */\n      dup4\n        /* \"#utility.yul\":14991:15058   */\n      tag_533\n      jump\t// in\n    tag_741:\n        /* \"#utility.yul\":14984:15058   */\n      swap2\n      pop\n        /* \"#utility.yul\":15067:15160   */\n      tag_742\n        /* \"#utility.yul\":15156:15159   */\n      dup3\n        /* \"#utility.yul\":15067:15160   */\n      tag_538\n      jump\t// in\n    tag_742:\n        /* \"#utility.yul\":15185:15187   */\n      0x20\n        /* \"#utility.yul\":15180:15183   */\n      dup3\n        /* \"#utility.yul\":15176:15188   */\n      add\n        /* \"#utility.yul\":15169:15188   */\n      swap1\n      pop\n        /* \"#utility.yul\":14828:15194   */\n      swap2\n      swap1\n      pop\n      jump\t// out\n        /* \"#utility.yul\":15200:15619   */\n    tag_201:\n        /* \"#utility.yul\":15366:15370   */\n      0x00\n        /* \"#utility.yul\":15404:15406   */\n      0x20\n        /* \"#utility.yul\":15393:15402   */\n      dup3\n        /* \"#utility.yul\":15389:15407   */\n      add\n        /* \"#utility.yul\":15381:15407   */\n      swap1\n      pop\n        /* \"#utility.yul\":15453:15462   */\n      dup2\n        /* \"#utility.yul\":15447:15451   */\n      dup2\n        /* \"#utility.yul\":15443:15463   */\n      sub\n        /* \"#utility.yul\":15439:15440   */\n      0x00\n        /* \"#utility.yul\":15428:15437   */\n      dup4\n        /* \"#utility.yul\":15424:15441   */\n      add\n        /* \"#utility.yul\":15417:15464   */\n      mstore\n        /* \"#utility.yul\":15481:15612   */\n      tag_744\n        /* \"#utility.yul\":15607:15611   */\n      dup2\n        /* \"#utility.yul\":15481:15612   */\n      tag_539\n      jump\t// in\n    tag_744:\n        /* \"#utility.yul\":15473:15612   */\n      swap1\n      pop\n        /* \"#utility.yul\":15200:15619   */\n      swap2\n      swap1\n      pop\n      jump\t// out\n        /* \"#utility.yul\":15625:15797   */\n    tag_540:\n        /* \"#utility.yul\":15765:15789   */\n      0x4e6f7420696e20746865206f6666657220706861736500000000000000000000\n        /* \"#utility.yul\":15761:15762   */\n      0x00\n        /* \"#utility.yul\":15753:15759   */\n      dup3\n        /* \"#utility.yul\":15749:15763   */\n      add\n        /* \"#utility.yul\":15742:15790   */\n      mstore\n        /* \"#utility.yul\":15625:15797   */\n      pop\n      jump\t// out\n        /* \"#utility.yul\":15803:16169   */\n    tag_541:\n        /* \"#utility.yul\":15945:15948   */\n      0x00\n        /* \"#utility.yul\":15966:16033   */\n      tag_747\n        /* \"#utility.yul\":16030:16032   */\n      0x16\n        /* \"#utility.yul\":16025:16028   */\n      dup4\n        /* \"#utility.yul\":15966:16033   */\n      tag_533\n      jump\t// in\n    tag_747:\n        /* \"#utility.yul\":15959:16033   */\n      swap2\n      pop\n        /* \"#utility.yul\":16042:16135   */\n      tag_748\n        /* \"#utility.yul\":16131:16134   */\n      dup3\n        /* \"#utility.yul\":16042:16135   */\n      tag_540\n      jump\t// in\n    tag_748:\n        /* \"#utility.yul\":16160:16162   */\n      0x20\n        /* \"#utility.yul\":16155:16158   */\n      dup3\n        /* \"#utility.yul\":16151:16163   */\n      add\n        /* \"#utility.yul\":16144:16163   */\n      swap1\n      pop\n        /* \"#utility.yul\":15803:16169   */\n      swap2\n      swap1\n      pop\n      jump\t// out\n        /* \"#utility.yul\":16175:16594   */\n    tag_221:\n        /* \"#utility.yul\":16341:16345   */\n      0x00\n        /* \"#utility.yul\":16379:16381   */\n      0x20\n        /* \"#utility.yul\":16368:16377   */\n      dup3\n        /* \"#utility.yul\":16364:16382   */\n      add\n        /* \"#utility.yul\":16356:16382   */\n      swap1\n      pop\n        /* \"#utility.yul\":16428:16437   */\n      dup2\n        /* \"#utility.yul\":16422:16426   */\n      dup2\n        /* \"#utility.yul\":16418:16438   */\n      sub\n        /* \"#utility.yul\":16414:16415   */\n      0x00\n        /* \"#utility.yul\":16403:16412   */\n      dup4\n        /* \"#utility.yul\":16399:16416   */\n      add\n        /* \"#utility.yul\":16392:16439   */\n      mstore\n        /* \"#utility.yul\":16456:16587   */\n      tag_750\n        /* \"#utility.yul\":16582:16586   */\n      dup2\n        /* \"#utility.yul\":16456:16587   */\n      tag_541\n      jump\t// in\n    tag_750:\n        /* \"#utility.yul\":16448:16587   */\n      swap1\n      pop\n        /* \"#utility.yul\":16175:16594   */\n      swap2\n      swap1\n      pop\n      jump\t// out\n        /* \"#utility.yul\":16600:16820   */\n    tag_542:\n        /* \"#utility.yul\":16740:16774   */\n      0x4f66666572206973206e6f7420696e207468652070656e64696e672073746174\n        /* \"#utility.yul\":16736:16737   */\n      0x00\n        /* \"#utility.yul\":16728:16734   */\n      dup3\n        /* \"#utility.yul\":16724:16738   */\n      add\n        /* \"#utility.yul\":16717:16775   */\n      mstore\n        /* \"#utility.yul\":16809:16812   */\n      0x6500000000000000000000000000000000000000000000000000000000000000\n        /* \"#utility.yul\":16804:16806   */\n      0x20\n        /* \"#utility.yul\":16796:16802   */\n      dup3\n        /* \"#utility.yul\":16792:16807   */\n      add\n        /* \"#utility.yul\":16785:16813   */\n      mstore\n        /* \"#utility.yul\":16600:16820   */\n      pop\n      jump\t// out\n        /* \"#utility.yul\":16826:17192   */\n    tag_543:\n        /* \"#utility.yul\":16968:16971   */\n      0x00\n        /* \"#utility.yul\":16989:17056   */\n      tag_753\n        /* \"#utility.yul\":17053:17055   */\n      0x21\n        /* \"#utility.yul\":17048:17051   */\n      dup4\n        /* \"#utility.yul\":16989:17056   */\n      tag_533\n      jump\t// in\n    tag_753:\n        /* \"#utility.yul\":16982:17056   */\n      swap2\n      pop\n        /* \"#utility.yul\":17065:17158   */\n      tag_754\n        /* \"#utility.yul\":17154:17157   */\n      dup3\n        /* \"#utility.yul\":17065:17158   */\n      tag_542\n      jump\t// in\n    tag_754:\n        /* \"#utility.yul\":17183:17185   */\n      0x40\n        /* \"#utility.yul\":17178:17181   */\n      dup3\n        /* \"#utility.yul\":17174:17186   */\n      add\n        /* \"#utility.yul\":17167:17186   */\n      swap1\n      pop\n        /* \"#utility.yul\":16826:17192   */\n      swap2\n      swap1\n      pop\n      jump\t// out\n        /* \"#utility.yul\":17198:17617   */\n    tag_232:\n        /* \"#utility.yul\":17364:17368   */\n      0x00\n        /* \"#utility.yul\":17402:17404   */\n      0x20\n        /* \"#utility.yul\":17391:17400   */\n      dup3\n        /* \"#utility.yul\":17387:17405   */\n      add\n        /* \"#utility.yul\":17379:17405   */\n      swap1\n      pop\n        /* \"#utility.yul\":17451:17460   */\n      dup2\n        /* \"#utility.yul\":17445:17449   */\n      dup2\n        /* \"#utility.yul\":17441:17461   */\n      sub\n        /* \"#utility.yul\":17437:17438   */\n      0x00\n        /* \"#utility.yul\":17426:17435   */\n      dup4\n        /* \"#utility.yul\":17422:17439   */\n      add\n        /* \"#utility.yul\":17415:17462   */\n      mstore\n        /* \"#utility.yul\":17479:17610   */\n      tag_756\n        /* \"#utility.yul\":17605:17609   */\n      dup2\n        /* \"#utility.yul\":17479:17610   */\n      tag_543\n      jump\t// in\n    tag_756:\n        /* \"#utility.yul\":17471:17610   */\n      swap1\n      pop\n        /* \"#utility.yul\":17198:17617   */\n      swap2\n      swap1\n      pop\n      jump\t// out\n        /* \"#utility.yul\":17623:17788   */\n    tag_544:\n        /* \"#utility.yul\":17763:17780   */\n      0x5769746864726177206661696c65640000000000000000000000000000000000\n        /* \"#utility.yul\":17759:17760   */\n      0x00\n        /* \"#utility.yul\":17751:17757   */\n      dup3\n        /* \"#utility.yul\":17747:17761   */\n      add\n        /* \"#utility.yul\":17740:17781   */\n      mstore\n        /* \"#utility.yul\":17623:17788   */\n      pop\n      jump\t// out\n        /* \"#utility.yul\":17794:18160   */\n    tag_545:\n        /* \"#utility.yul\":17936:17939   */\n      0x00\n        /* \"#utility.yul\":17957:18024   */\n      tag_759\n        /* \"#utility.yul\":18021:18023   */\n      0x0f\n        /* \"#utility.yul\":18016:18019   */\n      dup4\n        /* \"#utility.yul\":17957:18024   */\n      tag_533\n      jump\t// in\n    tag_759:\n        /* \"#utility.yul\":17950:18024   */\n      swap2\n      pop\n        /* \"#utility.yul\":18033:18126   */\n      tag_760\n        /* \"#utility.yul\":18122:18125   */\n      dup3\n        /* \"#utility.yul\":18033:18126   */\n      tag_544\n      jump\t// in\n    tag_760:\n        /* \"#utility.yul\":18151:18153   */\n      0x20\n        /* \"#utility.yul\":18146:18149   */\n      dup3\n        /* \"#utility.yul\":18142:18154   */\n      add\n        /* \"#utility.yul\":18135:18154   */\n      swap1\n      pop\n        /* \"#utility.yul\":17794:18160   */\n      swap2\n      swap1\n      pop\n      jump\t// out\n        /* \"#utility.yul\":18166:18585   */\n    tag_236:\n        /* \"#utility.yul\":18332:18336   */\n      0x00\n        /* \"#utility.yul\":18370:18372   */\n      0x20\n        /* \"#utility.yul\":18359:18368   */\n      dup3\n        /* \"#utility.yul\":18355:18373   */\n      add\n        /* \"#utility.yul\":18347:18373   */\n      swap1\n      pop\n        /* \"#utility.yul\":18419:18428   */\n      dup2\n        /* \"#utility.yul\":18413:18417   */\n      dup2\n        /* \"#utility.yul\":18409:18429   */\n      sub\n        /* \"#utility.yul\":18405:18406   */\n      0x00\n        /* \"#utility.yul\":18394:18403   */\n      dup4\n        /* \"#utility.yul\":18390:18407   */\n      add\n        /* \"#utility.yul\":18383:18430   */\n      mstore\n        /* \"#utility.yul\":18447:18578   */\n      tag_762\n        /* \"#utility.yul\":18573:18577   */\n      dup2\n        /* \"#utility.yul\":18447:18578   */\n      tag_545\n      jump\t// in\n    tag_762:\n        /* \"#utility.yul\":18439:18578   */\n      swap1\n      pop\n        /* \"#utility.yul\":18166:18585   */\n      swap2\n      swap1\n      pop\n      jump\t// out\n        /* \"#utility.yul\":18591:18750   */\n    tag_546:\n        /* \"#utility.yul\":18731:18742   */\n      0x5a65726f56616c75650000000000000000000000000000000000000000000000\n        /* \"#utility.yul\":18727:18728   */\n      0x00\n        /* \"#utility.yul\":18719:18725   */\n      dup3\n        /* \"#utility.yul\":18715:18729   */\n      add\n        /* \"#utility.yul\":18708:18743   */\n      mstore\n        /* \"#utility.yul\":18591:18750   */\n      pop\n      jump\t// out\n        /* \"#utility.yul\":18756:19121   */\n    tag_547:\n        /* \"#utility.yul\":18898:18901   */\n      0x00\n        /* \"#utility.yul\":18919:18985   */\n      tag_765\n        /* \"#utility.yul\":18983:18984   */\n      0x09\n        /* \"#utility.yul\":18978:18981   */\n      dup4\n        /* \"#utility.yul\":18919:18985   */\n      tag_533\n      jump\t// in\n    tag_765:\n        /* \"#utility.yul\":18912:18985   */\n      swap2\n      pop\n        /* \"#utility.yul\":18994:19087   */\n      tag_766\n        /* \"#utility.yul\":19083:19086   */\n      dup3\n        /* \"#utility.yul\":18994:19087   */\n      tag_546\n      jump\t// in\n    tag_766:\n        /* \"#utility.yul\":19112:19114   */\n      0x20\n        /* \"#utility.yul\":19107:19110   */\n      dup3\n        /* \"#utility.yul\":19103:19115   */\n      add\n        /* \"#utility.yul\":19096:19115   */\n      swap1\n      pop\n        /* \"#utility.yul\":18756:19121   */\n      swap2\n      swap1\n      pop\n      jump\t// out\n        /* \"#utility.yul\":19127:19546   */\n    tag_246:\n        /* \"#utility.yul\":19293:19297   */\n      0x00\n        /* \"#utility.yul\":19331:19333   */\n      0x20\n        /* \"#utility.yul\":19320:19329   */\n      dup3\n        /* \"#utility.yul\":19316:19334   */\n      add\n        /* \"#utility.yul\":19308:19334   */\n      swap1\n      pop\n        /* \"#utility.yul\":19380:19389   */\n      dup2\n        /* \"#utility.yul\":19374:19378   */\n      dup2\n        /* \"#utility.yul\":19370:19390   */\n      sub\n        /* \"#utility.yul\":19366:19367   */\n      0x00\n        /* \"#utility.yul\":19355:19364   */\n      dup4\n        /* \"#utility.yul\":19351:19368   */\n      add\n        /* \"#utility.yul\":19344:19391   */\n      mstore\n        /* \"#utility.yul\":19408:19539   */\n      tag_768\n        /* \"#utility.yul\":19534:19538   */\n      dup2\n        /* \"#utility.yul\":19408:19539   */\n      tag_547\n      jump\t// in\n    tag_768:\n        /* \"#utility.yul\":19400:19539   */\n      swap1\n      pop\n        /* \"#utility.yul\":19127:19546   */\n      swap2\n      swap1\n      pop\n      jump\t// out\n        /* \"#utility.yul\":19552:19729   */\n    tag_548:\n        /* \"#utility.yul\":19692:19721   */\n      0x496e73756666696369656e7453656375726974794465706f7369740000000000\n        /* \"#utility.yul\":19688:19689   */\n      0x00\n        /* \"#utility.yul\":19680:19686   */\n      dup3\n        /* \"#utility.yul\":19676:19690   */\n      add\n        /* \"#utility.yul\":19669:19722   */\n      mstore\n        /* \"#utility.yul\":19552:19729   */\n      pop\n      jump\t// out\n        /* \"#utility.yul\":19735:20101   */\n    tag_549:\n        /* \"#utility.yul\":19877:19880   */\n      0x00\n        /* \"#utility.yul\":19898:19965   */\n      tag_771\n        /* \"#utility.yul\":19962:19964   */\n      0x1b\n        /* \"#utility.yul\":19957:19960   */\n      dup4\n        /* \"#utility.yul\":19898:19965   */\n      tag_533\n      jump\t// in\n    tag_771:\n        /* \"#utility.yul\":19891:19965   */\n      swap2\n      pop\n        /* \"#utility.yul\":19974:20067   */\n      tag_772\n        /* \"#utility.yul\":20063:20066   */\n      dup3\n        /* \"#utility.yul\":19974:20067   */\n      tag_548\n      jump\t// in\n    tag_772:\n        /* \"#utility.yul\":20092:20094   */\n      0x20\n        /* \"#utility.yul\":20087:20090   */\n      dup3\n        /* \"#utility.yul\":20083:20095   */\n      add\n        /* \"#utility.yul\":20076:20095   */\n      swap1\n      pop\n        /* \"#utility.yul\":19735:20101   */\n      swap2\n      swap1\n      pop\n      jump\t// out\n        /* \"#utility.yul\":20107:20526   */\n    tag_250:\n        /* \"#utility.yul\":20273:20277   */\n      0x00\n        /* \"#utility.yul\":20311:20313   */\n      0x20\n        /* \"#utility.yul\":20300:20309   */\n      dup3\n        /* \"#utility.yul\":20296:20314   */\n      add\n        /* \"#utility.yul\":20288:20314   */\n      swap1\n      pop\n        /* \"#utility.yul\":20360:20369   */\n      dup2\n        /* \"#utility.yul\":20354:20358   */\n      dup2\n        /* \"#utility.yul\":20350:20370   */\n      sub\n        /* \"#utility.yul\":20346:20347   */\n      0x00\n        /* \"#utility.yul\":20335:20344   */\n      dup4\n        /* \"#utility.yul\":20331:20348   */\n      add\n        /* \"#utility.yul\":20324:20371   */\n      mstore\n        /* \"#utility.yul\":20388:20519   */\n      tag_774\n        /* \"#utility.yul\":20514:20518   */\n      dup2\n        /* \"#utility.yul\":20388:20519   */\n      tag_549\n      jump\t// in\n    tag_774:\n        /* \"#utility.yul\":20380:20519   */\n      swap1\n      pop\n        /* \"#utility.yul\":20107:20526   */\n      swap2\n      swap1\n      pop\n      jump\t// out\n        /* \"#utility.yul\":20532:20765   */\n    tag_254:\n        /* \"#utility.yul\":20571:20574   */\n      0x00\n        /* \"#utility.yul\":20594:20618   */\n      tag_776\n        /* \"#utility.yul\":20612:20617   */\n      dup3\n        /* \"#utility.yul\":20594:20618   */\n      tag_502\n      jump\t// in\n    tag_776:\n        /* \"#utility.yul\":20585:20618   */\n      swap2\n      pop\n        /* \"#utility.yul\":20640:20706   */\n      0xffffffffffffffffffffffffffffffffffffffffffffffffffffffffffffffff\n        /* \"#utility.yul\":20633:20638   */\n      dup3\n        /* \"#utility.yul\":20630:20707   */\n      sub\n        /* \"#utility.yul\":20627:20730   */\n      tag_777\n      jumpi\n        /* \"#utility.yul\":20710:20728   */\n      tag_778\n      tag_531\n      jump\t// in\n    tag_778:\n        /* \"#utility.yul\":20627:20730   */\n    tag_777:\n        /* \"#utility.yul\":20757:20758   */\n      0x01\n        /* \"#utility.yul\":20750:20755   */\n      dup3\n        /* \"#utility.yul\":20746:20759   */\n      add\n        /* \"#utility.yul\":20739:20759   */\n      swap1\n      pop\n        /* \"#utility.yul\":20532:20765   */\n      swap2\n      swap1\n      pop\n      jump\t// out\n        /* \"#utility.yul\":20771:20936   */\n    tag_550:\n        /* \"#utility.yul\":20911:20928   */\n      0x4c6f616e49734e6f744163746976650000000000000000000000000000000000\n        /* \"#utility.yul\":20907:20908   */\n      0x00\n        /* \"#utility.yul\":20899:20905   */\n      dup3\n        /* \"#utility.yul\":20895:20909   */\n      add\n        /* \"#utility.yul\":20888:20929   */\n      mstore\n        /* \"#utility.yul\":20771:20936   */\n      pop\n      jump\t// out\n        /* \"#utility.yul\":20942:21308   */\n    tag_551:\n        /* \"#utility.yul\":21084:21087   */\n      0x00\n        /* \"#utility.yul\":21105:21172   */\n      tag_781\n        /* \"#utility.yul\":21169:21171   */\n      0x0f\n        /* \"#utility.yul\":21164:21167   */\n      dup4\n        /* \"#utility.yul\":21105:21172   */\n      tag_533\n      jump\t// in\n    tag_781:\n        /* \"#utility.yul\":21098:21172   */\n      swap2\n      pop\n        /* \"#utility.yul\":21181:21274   */\n      tag_782\n        /* \"#utility.yul\":21270:21273   */\n      dup3\n        /* \"#utility.yul\":21181:21274   */\n      tag_550\n      jump\t// in\n    tag_782:\n        /* \"#utility.yul\":21299:21301   */\n      0x20\n        /* \"#utility.yul\":21294:21297   */\n      dup3\n        /* \"#utility.yul\":21290:21302   */\n      add\n        /* \"#utility.yul\":21283:21302   */\n      swap1\n      pop\n        /* \"#utility.yul\":20942:21308   */\n      swap2\n      swap1\n      pop\n      jump\t// out\n        /* \"#utility.yul\":21314:21733   */\n    tag_264:\n        /* \"#utility.yul\":21480:21484   */\n      0x00\n        /* \"#utility.yul\":21518:21520   */\n      0x20\n        /* \"#utility.yul\":21507:21516   */\n      dup3\n        /* \"#utility.yul\":21503:21521   */\n      add\n        /* \"#utility.yul\":21495:21521   */\n      swap1\n      pop\n        /* \"#utility.yul\":21567:21576   */\n      dup2\n        /* \"#utility.yul\":21561:21565   */\n      dup2\n        /* \"#utility.yul\":21557:21577   */\n      sub\n        /* \"#utility.yul\":21553:21554   */\n      0x00\n        /* \"#utility.yul\":21542:21551   */\n      dup4\n        /* \"#utility.yul\":21538:21555   */\n      add\n        /* \"#utility.yul\":21531:21578   */\n      mstore\n        /* \"#utility.yul\":21595:21726   */\n      tag_784\n        /* \"#utility.yul\":21721:21725   */\n      dup2\n        /* \"#utility.yul\":21595:21726   */\n      tag_551\n      jump\t// in\n    tag_784:\n        /* \"#utility.yul\":21587:21726   */\n      swap1\n      pop\n        /* \"#utility.yul\":21314:21733   */\n      swap2\n      swap1\n      pop\n      jump\t// out\n        /* \"#utility.yul\":21739:21919   */\n    tag_552:\n        /* \"#utility.yul\":21879:21911   */\n      0x4c6f616e52657061796d656e74506572696f64416c72656164794f7665720000\n        /* \"#utility.yul\":21875:21876   */\n      0x00\n        /* \"#utility.yul\":21867:21873   */\n      dup3\n        /* \"#utility.yul\":21863:21877   */\n      add\n        /* \"#utility.yul\":21856:21912   */\n      mstore\n        /* \"#utility.yul\":21739:21919   */\n      pop\n      jump\t// out\n        /* \"#utility.yul\":21925:22291   */\n    tag_553:\n        /* \"#utility.yul\":22067:22070   */\n      0x00\n        /* \"#utility.yul\":22088:22155   */\n      tag_787\n        /* \"#utility.yul\":22152:22154   */\n      0x1e\n        /* \"#utility.yul\":22147:22150   */\n      dup4\n        /* \"#utility.yul\":22088:22155   */\n      tag_533\n      jump\t// in\n    tag_787:\n        /* \"#utility.yul\":22081:22155   */\n      swap2\n      pop\n        /* \"#utility.yul\":22164:22257   */\n      tag_788\n        /* \"#utility.yul\":22253:22256   */\n      dup3\n        /* \"#utility.yul\":22164:22257   */\n      tag_552\n      jump\t// in\n    tag_788:\n        /* \"#utility.yul\":22282:22284   */\n      0x20\n        /* \"#utility.yul\":22277:22280   */\n      dup3\n        /* \"#utility.yul\":22273:22285   */\n      add\n        /* \"#utility.yul\":22266:22285   */\n      swap1\n      pop\n        /* \"#utility.yul\":21925:22291   */\n      swap2\n      swap1\n      pop\n      jump\t// out\n        /* \"#utility.yul\":22297:22716   */\n    tag_268:\n        /* \"#utility.yul\":22463:22467   */\n      0x00\n        /* \"#utility.yul\":22501:22503   */\n      0x20\n        /* \"#utility.yul\":22490:22499   */\n      dup3\n        /* \"#utility.yul\":22486:22504   */\n      add\n        /* \"#utility.yul\":22478:22504   */\n      swap1\n      pop\n        /* \"#utility.yul\":22550:22559   */\n      dup2\n        /* \"#utility.yul\":22544:22548   */\n      dup2\n        /* \"#utility.yul\":22540:22560   */\n      sub\n        /* \"#utility.yul\":22536:22537   */\n      0x00\n        /* \"#utility.yul\":22525:22534   */\n      dup4\n        /* \"#utility.yul\":22521:22538   */\n      add\n        /* \"#utility.yul\":22514:22561   */\n      mstore\n        /* \"#utility.yul\":22578:22709   */\n      tag_790\n        /* \"#utility.yul\":22704:22708   */\n      dup2\n        /* \"#utility.yul\":22578:22709   */\n      tag_553\n      jump\t// in\n    tag_790:\n        /* \"#utility.yul\":22570:22709   */\n      swap1\n      pop\n        /* \"#utility.yul\":22297:22716   */\n      swap2\n      swap1\n      pop\n      jump\t// out\n        /* \"#utility.yul\":22722:22886   */\n    tag_554:\n        /* \"#utility.yul\":22862:22878   */\n      0x4c6f616e48617345787069726564000000000000000000000000000000000000\n        /* \"#utility.yul\":22858:22859   */\n      0x00\n        /* \"#utility.yul\":22850:22856   */\n      dup3\n        /* \"#utility.yul\":22846:22860   */\n      add\n        /* \"#utility.yul\":22839:22879   */\n      mstore\n        /* \"#utility.yul\":22722:22886   */\n      pop\n      jump\t// out\n        /* \"#utility.yul\":22892:23258   */\n    tag_555:\n        /* \"#utility.yul\":23034:23037   */\n      0x00\n        /* \"#utility.yul\":23055:23122   */\n      tag_793\n        /* \"#utility.yul\":23119:23121   */\n      0x0e\n        /* \"#utility.yul\":23114:23117   */\n      dup4\n        /* \"#utility.yul\":23055:23122   */\n      tag_533\n      jump\t// in\n    tag_793:\n        /* \"#utility.yul\":23048:23122   */\n      swap2\n      pop\n        /* \"#utility.yul\":23131:23224   */\n      tag_794\n        /* \"#utility.yul\":23220:23223   */\n      dup3\n        /* \"#utility.yul\":23131:23224   */\n      tag_554\n      jump\t// in\n    tag_794:\n        /* \"#utility.yul\":23249:23251   */\n      0x20\n        /* \"#utility.yul\":23244:23247   */\n      dup3\n        /* \"#utility.yul\":23240:23252   */\n      add\n        /* \"#utility.yul\":23233:23252   */\n      swap1\n      pop\n        /* \"#utility.yul\":22892:23258   */\n      swap2\n      swap1\n      pop\n      jump\t// out\n        /* \"#utility.yul\":23264:23683   */\n    tag_295:\n        /* \"#utility.yul\":23430:23434   */\n      0x00\n        /* \"#utility.yul\":23468:23470   */\n      0x20\n        /* \"#utility.yul\":23457:23466   */\n      dup3\n        /* \"#utility.yul\":23453:23471   */\n      add\n        /* \"#utility.yul\":23445:23471   */\n      swap1\n      pop\n        /* \"#utility.yul\":23517:23526   */\n      dup2\n        /* \"#utility.yul\":23511:23515   */\n      dup2\n        /* \"#utility.yul\":23507:23527   */\n      sub\n        /* \"#utility.yul\":23503:23504   */\n      0x00\n        /* \"#utility.yul\":23492:23501   */\n      dup4\n        /* \"#utility.yul\":23488:23505   */\n      add\n        /* \"#utility.yul\":23481:23528   */\n      mstore\n        /* \"#utility.yul\":23545:23676   */\n      tag_796\n        /* \"#utility.yul\":23671:23675   */\n      dup2\n        /* \"#utility.yul\":23545:23676   */\n      tag_555\n      jump\t// in\n    tag_796:\n        /* \"#utility.yul\":23537:23676   */\n      swap1\n      pop\n        /* \"#utility.yul\":23264:23683   */\n      swap2\n      swap1\n      pop\n      jump\t// out\n        /* \"#utility.yul\":23689:23921   */\n    tag_556:\n        /* \"#utility.yul\":23829:23863   */\n      0x5a65726f56616c75653a204e6f2076616c75652073656e742077697468207468\n        /* \"#utility.yul\":23825:23826   */\n      0x00\n        /* \"#utility.yul\":23817:23823   */\n      dup3\n        /* \"#utility.yul\":23813:23827   */\n      add\n        /* \"#utility.yul\":23806:23864   */\n      mstore\n        /* \"#utility.yul\":23898:23913   */\n      0x65207472616e73616374696f6e00000000000000000000000000000000000000\n        /* \"#utility.yul\":23893:23895   */\n      0x20\n        /* \"#utility.yul\":23885:23891   */\n      dup3\n        /* \"#utility.yul\":23881:23896   */\n      add\n        /* \"#utility.yul\":23874:23914   */\n      mstore\n        /* \"#utility.yul\":23689:23921   */\n      pop\n      jump\t// out\n        /* \"#utility.yul\":23927:24293   */\n    tag_557:\n        /* \"#utility.yul\":24069:24072   */\n      0x00\n        /* \"#utility.yul\":24090:24157   */\n      tag_799\n        /* \"#utility.yul\":24154:24156   */\n      0x2d\n        /* \"#utility.yul\":24149:24152   */\n      dup4\n        /* \"#utility.yul\":24090:24157   */\n      tag_533\n      jump\t// in\n    tag_799:\n        /* \"#utility.yul\":24083:24157   */\n      swap2\n      pop\n        /* \"#utility.yul\":24166:24259   */\n      tag_800\n        /* \"#utility.yul\":24255:24258   */\n      dup3\n        /* \"#utility.yul\":24166:24259   */\n      tag_556\n      jump\t// in\n    tag_800:\n        /* \"#utility.yul\":24284:24286   */\n      0x40\n        /* \"#utility.yul\":24279:24282   */\n      dup3\n        /* \"#utility.yul\":24275:24287   */\n      add\n        /* \"#utility.yul\":24268:24287   */\n      swap1\n      pop\n        /* \"#utility.yul\":23927:24293   */\n      swap2\n      swap1\n      pop\n      jump\t// out\n        /* \"#utility.yul\":24299:24718   */\n    tag_301:\n        /* \"#utility.yul\":24465:24469   */\n      0x00\n        /* \"#utility.yul\":24503:24505   */\n      0x20\n        /* \"#utility.yul\":24492:24501   */\n      dup3\n        /* \"#utility.yul\":24488:24506   */\n      add\n        /* \"#utility.yul\":24480:24506   */\n      swap1\n      pop\n        /* \"#utility.yul\":24552:24561   */\n      dup2\n        /* \"#utility.yul\":24546:24550   */\n      dup2\n        /* \"#utility.yul\":24542:24562   */\n      sub\n        /* \"#utility.yul\":24538:24539   */\n      0x00\n        /* \"#utility.yul\":24527:24536   */\n      dup4\n        /* \"#utility.yul\":24523:24540   */\n      add\n        /* \"#utility.yul\":24516:24563   */\n      mstore\n        /* \"#utility.yul\":24580:24711   */\n      tag_802\n        /* \"#utility.yul\":24706:24710   */\n      dup2\n        /* \"#utility.yul\":24580:24711   */\n      tag_557\n      jump\t// in\n    tag_802:\n        /* \"#utility.yul\":24572:24711   */\n      swap1\n      pop\n        /* \"#utility.yul\":24299:24718   */\n      swap2\n      swap1\n      pop\n      jump\t// out\n        /* \"#utility.yul\":24724:25025   */\n    tag_558:\n        /* \"#utility.yul\":24864:24898   */\n      0x4163746976654f66666572416c72656164794578697374733a20596f75206861\n        /* \"#utility.yul\":24860:24861   */\n      0x00\n        /* \"#utility.yul\":24852:24858   */\n      dup3\n        /* \"#utility.yul\":24848:24862   */\n      add\n        /* \"#utility.yul\":24841:24899   */\n      mstore\n        /* \"#utility.yul\":24933:24967   */\n      0x766520616c7265616479206d61646520616e20616374697665206f6666657220\n        /* \"#utility.yul\":24928:24930   */\n      0x20\n        /* \"#utility.yul\":24920:24926   */\n      dup3\n        /* \"#utility.yul\":24916:24931   */\n      add\n        /* \"#utility.yul\":24909:24968   */\n      mstore\n        /* \"#utility.yul\":25002:25017   */\n      0x666f722074686973206c6f616e00000000000000000000000000000000000000\n        /* \"#utility.yul\":24997:24999   */\n      0x40\n        /* \"#utility.yul\":24989:24995   */\n      dup3\n        /* \"#utility.yul\":24985:25000   */\n      add\n        /* \"#utility.yul\":24978:25018   */\n      mstore\n        /* \"#utility.yul\":24724:25025   */\n      pop\n      jump\t// out\n        /* \"#utility.yul\":25031:25397   */\n    tag_559:\n        /* \"#utility.yul\":25173:25176   */\n      0x00\n        /* \"#utility.yul\":25194:25261   */\n      tag_805\n        /* \"#utility.yul\":25258:25260   */\n      0x4d\n        /* \"#utility.yul\":25253:25256   */\n      dup4\n        /* \"#utility.yul\":25194:25261   */\n      tag_533\n      jump\t// in\n    tag_805:\n        /* \"#utility.yul\":25187:25261   */\n      swap2\n      pop\n        /* \"#utility.yul\":25270:25363   */\n      tag_806\n        /* \"#utility.yul\":25359:25362   */\n      dup3\n        /* \"#utility.yul\":25270:25363   */\n      tag_558\n      jump\t// in\n    tag_806:\n        /* \"#utility.yul\":25388:25390   */\n      0x60\n        /* \"#utility.yul\":25383:25386   */\n      dup3\n        /* \"#utility.yul\":25379:25391   */\n      add\n        /* \"#utility.yul\":25372:25391   */\n      swap1\n      pop\n        /* \"#utility.yul\":25031:25397   */\n      swap2\n      swap1\n      pop\n      jump\t// out\n        /* \"#utility.yul\":25403:25822   */\n    tag_309:\n        /* \"#utility.yul\":25569:25573   */\n      0x00\n        /* \"#utility.yul\":25607:25609   */\n      0x20\n        /* \"#utility.yul\":25596:25605   */\n      dup3\n        /* \"#utility.yul\":25592:25610   */\n      add\n        /* \"#utility.yul\":25584:25610   */\n      swap1\n      pop\n        /* \"#utility.yul\":25656:25665   */\n      dup2\n        /* \"#utility.yul\":25650:25654   */\n      dup2\n        /* \"#utility.yul\":25646:25666   */\n      sub\n        /* \"#utility.yul\":25642:25643   */\n      0x00\n        /* \"#utility.yul\":25631:25640   */\n      dup4\n        /* \"#utility.yul\":25627:25644   */\n      add\n        /* \"#utility.yul\":25620:25667   */\n      mstore\n        /* \"#utility.yul\":25684:25815   */\n      tag_808\n        /* \"#utility.yul\":25810:25814   */\n      dup2\n        /* \"#utility.yul\":25684:25815   */\n      tag_559\n      jump\t// in\n    tag_808:\n        /* \"#utility.yul\":25676:25815   */\n      swap1\n      pop\n        /* \"#utility.yul\":25403:25822   */\n      swap2\n      swap1\n      pop\n      jump\t// out\n        /* \"#utility.yul\":25828:26136   */\n    tag_560:\n        /* \"#utility.yul\":25968:26002   */\n      0x4578636573736976654c656e64696e67416d6f756e7453656e743a204c656e64\n        /* \"#utility.yul\":25964:25965   */\n      0x00\n        /* \"#utility.yul\":25956:25962   */\n      dup3\n        /* \"#utility.yul\":25952:25966   */\n      add\n        /* \"#utility.yul\":25945:26003   */\n      mstore\n        /* \"#utility.yul\":26037:26071   */\n      0x696e6720616d6f756e742065786365656473207468652072656d61696e696e67\n        /* \"#utility.yul\":26032:26034   */\n      0x20\n        /* \"#utility.yul\":26024:26030   */\n      dup3\n        /* \"#utility.yul\":26020:26035   */\n      add\n        /* \"#utility.yul\":26013:26072   */\n      mstore\n        /* \"#utility.yul\":26106:26128   */\n      0x206c696d697420666f722074686973206c6f616e000000000000000000000000\n        /* \"#utility.yul\":26101:26103   */\n      0x40\n        /* \"#utility.yul\":26093:26099   */\n      dup3\n        /* \"#utility.yul\":26089:26104   */\n      add\n        /* \"#utility.yul\":26082:26129   */\n      mstore\n        /* \"#utility.yul\":25828:26136   */\n      pop\n      jump\t// out\n        /* \"#utility.yul\":26142:26508   */\n    tag_561:\n        /* \"#utility.yul\":26284:26287   */\n      0x00\n        /* \"#utility.yul\":26305:26372   */\n      tag_811\n        /* \"#utility.yul\":26369:26371   */\n      0x54\n        /* \"#utility.yul\":26364:26367   */\n      dup4\n        /* \"#utility.yul\":26305:26372   */\n      tag_533\n      jump\t// in\n    tag_811:\n        /* \"#utility.yul\":26298:26372   */\n      swap2\n      pop\n        /* \"#utility.yul\":26381:26474   */\n      tag_812\n        /* \"#utility.yul\":26470:26473   */\n      dup3\n        /* \"#utility.yul\":26381:26474   */\n      tag_560\n      jump\t// in\n    tag_812:\n        /* \"#utility.yul\":26499:26501   */\n      0x60\n        /* \"#utility.yul\":26494:26497   */\n      dup3\n        /* \"#utility.yul\":26490:26502   */\n      add\n        /* \"#utility.yul\":26483:26502   */\n      swap1\n      pop\n        /* \"#utility.yul\":26142:26508   */\n      swap2\n      swap1\n      pop\n      jump\t// out\n        /* \"#utility.yul\":26514:26933   */\n    tag_312:\n        /* \"#utility.yul\":26680:26684   */\n      0x00\n        /* \"#utility.yul\":26718:26720   */\n      0x20\n        /* \"#utility.yul\":26707:26716   */\n      dup3\n        /* \"#utility.yul\":26703:26721   */\n      add\n        /* \"#utility.yul\":26695:26721   */\n      swap1\n      pop\n        /* \"#utility.yul\":26767:26776   */\n      dup2\n        /* \"#utility.yul\":26761:26765   */\n      dup2\n        /* \"#utility.yul\":26757:26777   */\n      sub\n        /* \"#utility.yul\":26753:26754   */\n      0x00\n        /* \"#utility.yul\":26742:26751   */\n      dup4\n        /* \"#utility.yul\":26738:26755   */\n      add\n        /* \"#utility.yul\":26731:26778   */\n      mstore\n        /* \"#utility.yul\":26795:26926   */\n      tag_814\n        /* \"#utility.yul\":26921:26925   */\n      dup2\n        /* \"#utility.yul\":26795:26926   */\n      tag_561\n      jump\t// in\n    tag_814:\n        /* \"#utility.yul\":26787:26926   */\n      swap1\n      pop\n        /* \"#utility.yul\":26514:26933   */\n      swap2\n      swap1\n      pop\n      jump\t// out\n        /* \"#utility.yul\":26939:27164   */\n    tag_562:\n        /* \"#utility.yul\":27079:27113   */\n      0x4e6f7420617574686f72697a656420746f20726573706f6e6420746f20746865\n        /* \"#utility.yul\":27075:27076   */\n      0x00\n        /* \"#utility.yul\":27067:27073   */\n      dup3\n        /* \"#utility.yul\":27063:27077   */\n      add\n        /* \"#utility.yul\":27056:27114   */\n      mstore\n        /* \"#utility.yul\":27148:27156   */\n      0x206f666665720000000000000000000000000000000000000000000000000000\n        /* \"#utility.yul\":27143:27145   */\n      0x20\n        /* \"#utility.yul\":27135:27141   */\n      dup3\n        /* \"#utility.yul\":27131:27146   */\n      add\n        /* \"#utility.yul\":27124:27157   */\n      mstore\n        /* \"#utility.yul\":26939:27164   */\n      pop\n      jump\t// out\n        /* \"#utility.yul\":27170:27536   */\n    tag_563:\n        /* \"#utility.yul\":27312:27315   */\n      0x00\n        /* \"#utility.yul\":27333:27400   */\n      tag_817\n        /* \"#utility.yul\":27397:27399   */\n      0x26\n        /* \"#utility.yul\":27392:27395   */\n      dup4\n        /* \"#utility.yul\":27333:27400   */\n      tag_533\n      jump\t// in\n    tag_817:\n        /* \"#utility.yul\":27326:27400   */\n      swap2\n      pop\n        /* \"#utility.yul\":27409:27502   */\n      tag_818\n        /* \"#utility.yul\":27498:27501   */\n      dup3\n        /* \"#utility.yul\":27409:27502   */\n      tag_562\n      jump\t// in\n    tag_818:\n        /* \"#utility.yul\":27527:27529   */\n      0x40\n        /* \"#utility.yul\":27522:27525   */\n      dup3\n        /* \"#utility.yul\":27518:27530   */\n      add\n        /* \"#utility.yul\":27511:27530   */\n      swap1\n      pop\n        /* \"#utility.yul\":27170:27536   */\n      swap2\n      swap1\n      pop\n      jump\t// out\n        /* \"#utility.yul\":27542:27961   */\n    tag_321:\n        /* \"#utility.yul\":27708:27712   */\n      0x00\n        /* \"#utility.yul\":27746:27748   */\n      0x20\n        /* \"#utility.yul\":27735:27744   */\n      dup3\n        /* \"#utility.yul\":27731:27749   */\n      add\n        /* \"#utility.yul\":27723:27749   */\n      swap1\n      pop\n        /* \"#utility.yul\":27795:27804   */\n      dup2\n        /* \"#utility.yul\":27789:27793   */\n      dup2\n        /* \"#utility.yul\":27785:27805   */\n      sub\n        /* \"#utility.yul\":27781:27782   */\n      0x00\n        /* \"#utility.yul\":27770:27779   */\n      dup4\n        /* \"#utility.yul\":27766:27783   */\n      add\n        /* \"#utility.yul\":27759:27806   */\n      mstore\n        /* \"#utility.yul\":27823:27954   */\n      tag_820\n        /* \"#utility.yul\":27949:27953   */\n      dup2\n        /* \"#utility.yul\":27823:27954   */\n      tag_563\n      jump\t// in\n    tag_820:\n        /* \"#utility.yul\":27815:27954   */\n      swap1\n      pop\n        /* \"#utility.yul\":27542:27961   */\n      swap2\n      swap1\n      pop\n      jump\t// out\n        /* \"#utility.yul\":27967:28147   */\n    tag_564:\n        /* \"#utility.yul\":28107:28139   */\n      0x4c6f616e206973206e6f74206f70656e20666f7220726573706f6e7365730000\n        /* \"#utility.yul\":28103:28104   */\n      0x00\n        /* \"#utility.yul\":28095:28101   */\n      dup3\n        /* \"#utility.yul\":28091:28105   */\n      add\n        /* \"#utility.yul\":28084:28140   */\n      mstore\n        /* \"#utility.yul\":27967:28147   */\n      pop\n      jump\t// out\n        /* \"#utility.yul\":28153:28519   */\n    tag_565:\n        /* \"#utility.yul\":28295:28298   */\n      0x00\n        /* \"#utility.yul\":28316:28383   */\n      tag_823\n        /* \"#utility.yul\":28380:28382   */\n      0x1e\n        /* \"#utility.yul\":28375:28378   */\n      dup4\n        /* \"#utility.yul\":28316:28383   */\n      tag_533\n      jump\t// in\n    tag_823:\n        /* \"#utility.yul\":28309:28383   */\n      swap2\n      pop\n        /* \"#utility.yul\":28392:28485   */\n      tag_824\n        /* \"#utility.yul\":28481:28484   */\n      dup3\n        /* \"#utility.yul\":28392:28485   */\n      tag_564\n      jump\t// in\n    tag_824:\n        /* \"#utility.yul\":28510:28512   */\n      0x20\n        /* \"#utility.yul\":28505:28508   */\n      dup3\n        /* \"#utility.yul\":28501:28513   */\n      add\n        /* \"#utility.yul\":28494:28513   */\n      swap1\n      pop\n        /* \"#utility.yul\":28153:28519   */\n      swap2\n      swap1\n      pop\n      jump\t// out\n        /* \"#utility.yul\":28525:28944   */\n    tag_328:\n        /* \"#utility.yul\":28691:28695   */\n      0x00\n        /* \"#utility.yul\":28729:28731   */\n      0x20\n        /* \"#utility.yul\":28718:28727   */\n      dup3\n        /* \"#utility.yul\":28714:28732   */\n      add\n        /* \"#utility.yul\":28706:28732   */\n      swap1\n      pop\n        /* \"#utility.yul\":28778:28787   */\n      dup2\n        /* \"#utility.yul\":28772:28776   */\n      dup2\n        /* \"#utility.yul\":28768:28788   */\n      sub\n        /* \"#utility.yul\":28764:28765   */\n      0x00\n        /* \"#utility.yul\":28753:28762   */\n      dup4\n        /* \"#utility.yul\":28749:28766   */\n      add\n        /* \"#utility.yul\":28742:28789   */\n      mstore\n        /* \"#utility.yul\":28806:28937   */\n      tag_826\n        /* \"#utility.yul\":28932:28936   */\n      dup2\n        /* \"#utility.yul\":28806:28937   */\n      tag_565\n      jump\t// in\n    tag_826:\n        /* \"#utility.yul\":28798:28937   */\n      swap1\n      pop\n        /* \"#utility.yul\":28525:28944   */\n      swap2\n      swap1\n      pop\n      jump\t// out\n        /* \"#utility.yul\":28950:29184   */\n    tag_566:\n        /* \"#utility.yul\":29090:29124   */\n      0x4c6f616e20686173206578706972656420616e64206973206e6f742061636365\n        /* \"#utility.yul\":29086:29087   */\n      0x00\n        /* \"#utility.yul\":29078:29084   */\n      dup3\n        /* \"#utility.yul\":29074:29088   */\n      add\n        /* \"#utility.yul\":29067:29125   */\n      mstore\n        /* \"#utility.yul\":29159:29176   */\n      0x7074696e6720726573706f6e7365730000000000000000000000000000000000\n        /* \"#utility.yul\":29154:29156   */\n      0x20\n        /* \"#utility.yul\":29146:29152   */\n      dup3\n        /* \"#utility.yul\":29142:29157   */\n      add\n        /* \"#utility.yul\":29135:29177   */\n      mstore\n        /* \"#utility.yul\":28950:29184   */\n      pop\n      jump\t// out\n        /* \"#utility.yul\":29190:29556   */\n    tag_567:\n        /* \"#utility.yul\":29332:29335   */\n      0x00\n        /* \"#utility.yul\":29353:29420   */\n      tag_829\n        /* \"#utility.yul\":29417:29419   */\n      0x2f\n        /* \"#utility.yul\":29412:29415   */\n      dup4\n        /* \"#utility.yul\":29353:29420   */\n      tag_533\n      jump\t// in\n    tag_829:\n        /* \"#utility.yul\":29346:29420   */\n      swap2\n      pop\n        /* \"#utility.yul\":29429:29522   */\n      tag_830\n        /* \"#utility.yul\":29518:29521   */\n      dup3\n        /* \"#utility.yul\":29429:29522   */\n      tag_566\n      jump\t// in\n    tag_830:\n        /* \"#utility.yul\":29547:29549   */\n      0x40\n        /* \"#utility.yul\":29542:29545   */\n      dup3\n        /* \"#utility.yul\":29538:29550   */\n      add\n        /* \"#utility.yul\":29531:29550   */\n      swap1\n      pop\n        /* \"#utility.yul\":29190:29556   */\n      swap2\n      swap1\n      pop\n      jump\t// out\n        /* \"#utility.yul\":29562:29981   */\n    tag_333:\n        /* \"#utility.yul\":29728:29732   */\n      0x00\n        /* \"#utility.yul\":29766:29768   */\n      0x20\n        /* \"#utility.yul\":29755:29764   */\n      dup3\n        /* \"#utility.yul\":29751:29769   */\n      add\n        /* \"#utility.yul\":29743:29769   */\n      swap1\n      pop\n        /* \"#utility.yul\":29815:29824   */\n      dup2\n        /* \"#utility.yul\":29809:29813   */\n      dup2\n        /* \"#utility.yul\":29805:29825   */\n      sub\n        /* \"#utility.yul\":29801:29802   */\n      0x00\n        /* \"#utility.yul\":29790:29799   */\n      dup4\n        /* \"#utility.yul\":29786:29803   */\n      add\n        /* \"#utility.yul\":29779:29826   */\n      mstore\n        /* \"#utility.yul\":29843:29974   */\n      tag_832\n        /* \"#utility.yul\":29969:29973   */\n      dup2\n        /* \"#utility.yul\":29843:29974   */\n      tag_567\n      jump\t// in\n    tag_832:\n        /* \"#utility.yul\":29835:29974   */\n      swap1\n      pop\n        /* \"#utility.yul\":29562:29981   */\n      swap2\n      swap1\n      pop\n      jump\t// out\n        /* \"#utility.yul\":29987:30219   */\n    tag_568:\n        /* \"#utility.yul\":30127:30161   */\n      0x4f6666657220616d6f756e742065786365656473207468652072656d61696e69\n        /* \"#utility.yul\":30123:30124   */\n      0x00\n        /* \"#utility.yul\":30115:30121   */\n      dup3\n        /* \"#utility.yul\":30111:30125   */\n      add\n        /* \"#utility.yul\":30104:30162   */\n      mstore\n        /* \"#utility.yul\":30196:30211   */\n      0x6e67206c6f616e206c696d697400000000000000000000000000000000000000\n        /* \"#utility.yul\":30191:30193   */\n      0x20\n        /* \"#utility.yul\":30183:30189   */\n      dup3\n        /* \"#utility.yul\":30179:30194   */\n      add\n        /* \"#utility.yul\":30172:30212   */\n      mstore\n        /* \"#utility.yul\":29987:30219   */\n      pop\n      jump\t// out\n        /* \"#utility.yul\":30225:30591   */\n    tag_569:\n        /* \"#utility.yul\":30367:30370   */\n      0x00\n        /* \"#utility.yul\":30388:30455   */\n      tag_835\n        /* \"#utility.yul\":30452:30454   */\n      0x2d\n        /* \"#utility.yul\":30447:30450   */\n      dup4\n        /* \"#utility.yul\":30388:30455   */\n      tag_533\n      jump\t// in\n    tag_835:\n        /* \"#utility.yul\":30381:30455   */\n      swap2\n      pop\n        /* \"#utility.yul\":30464:30557   */\n      tag_836\n        /* \"#utility.yul\":30553:30556   */\n      dup3\n        /* \"#utility.yul\":30464:30557   */\n      tag_568\n      jump\t// in\n    tag_836:\n        /* \"#utility.yul\":30582:30584   */\n      0x40\n        /* \"#utility.yul\":30577:30580   */\n      dup3\n        /* \"#utility.yul\":30573:30585   */\n      add\n        /* \"#utility.yul\":30566:30585   */\n      swap1\n      pop\n        /* \"#utility.yul\":30225:30591   */\n      swap2\n      swap1\n      pop\n      jump\t// out\n        /* \"#utility.yul\":30597:31016   */\n    tag_346:\n        /* \"#utility.yul\":30763:30767   */\n      0x00\n        /* \"#utility.yul\":30801:30803   */\n      0x20\n        /* \"#utility.yul\":30790:30799   */\n      dup3\n        /* \"#utility.yul\":30786:30804   */\n      add\n        /* \"#utility.yul\":30778:30804   */\n      swap1\n      pop\n        /* \"#utility.yul\":30850:30859   */\n      dup2\n        /* \"#utility.yul\":30844:30848   */\n      dup2\n        /* \"#utility.yul\":30840:30860   */\n      sub\n        /* \"#utility.yul\":30836:30837   */\n      0x00\n        /* \"#utility.yul\":30825:30834   */\n      dup4\n        /* \"#utility.yul\":30821:30838   */\n      add\n        /* \"#utility.yul\":30814:30861   */\n      mstore\n        /* \"#utility.yul\":30878:31009   */\n      tag_838\n        /* \"#utility.yul\":31004:31008   */\n      dup2\n        /* \"#utility.yul\":30878:31009   */\n      tag_569\n      jump\t// in\n    tag_838:\n        /* \"#utility.yul\":30870:31009   */\n      swap1\n      pop\n        /* \"#utility.yul\":30597:31016   */\n      swap2\n      swap1\n      pop\n      jump\t// out\n        /* \"#utility.yul\":31022:31124   */\n    tag_570:\n        /* \"#utility.yul\":31064:31072   */\n      0x00\n        /* \"#utility.yul\":31111:31116   */\n      dup2\n        /* \"#utility.yul\":31108:31109   */\n      0x01\n        /* \"#utility.yul\":31104:31117   */\n      shr\n        /* \"#utility.yul\":31083:31117   */\n      swap1\n      pop\n        /* \"#utility.yul\":31022:31124   */\n      swap2\n      swap1\n      pop\n      jump\t// out\n        /* \"#utility.yul\":31130:31978   */\n    tag_571:\n        /* \"#utility.yul\":31191:31196   */\n      0x00\n        /* \"#utility.yul\":31198:31202   */\n      dup1\n        /* \"#utility.yul\":31222:31228   */\n      dup3\n        /* \"#utility.yul\":31213:31228   */\n      swap2\n      pop\n        /* \"#utility.yul\":31246:31251   */\n      dup4\n        /* \"#utility.yul\":31237:31251   */\n      swap1\n      pop\n        /* \"#utility.yul\":31260:31972   */\n    tag_841:\n        /* \"#utility.yul\":31281:31282   */\n      0x01\n        /* \"#utility.yul\":31271:31279   */\n      dup6\n        /* \"#utility.yul\":31268:31283   */\n      gt\n        /* \"#utility.yul\":31260:31972   */\n      iszero\n      tag_843\n      jumpi\n        /* \"#utility.yul\":31376:31380   */\n      dup1\n        /* \"#utility.yul\":31371:31374   */\n      dup7\n        /* \"#utility.yul\":31367:31381   */\n      div\n        /* \"#utility.yul\":31361:31365   */\n      dup2\n        /* \"#utility.yul\":31358:31382   */\n      gt\n        /* \"#utility.yul\":31355:31405   */\n      iszero\n      tag_844\n      jumpi\n        /* \"#utility.yul\":31385:31403   */\n      tag_845\n      tag_531\n      jump\t// in\n    tag_845:\n        /* \"#utility.yul\":31355:31405   */\n    tag_844:\n        /* \"#utility.yul\":31435:31436   */\n      0x01\n        /* \"#utility.yul\":31425:31433   */\n      dup6\n        /* \"#utility.yul\":31421:31437   */\n      and\n        /* \"#utility.yul\":31418:31869   */\n      iszero\n      tag_846\n      jumpi\n        /* \"#utility.yul\":31850:31854   */\n      dup1\n        /* \"#utility.yul\":31843:31848   */\n      dup3\n        /* \"#utility.yul\":31839:31855   */\n      mul\n        /* \"#utility.yul\":31830:31855   */\n      swap2\n      pop\n        /* \"#utility.yul\":31418:31869   */\n    tag_846:\n        /* \"#utility.yul\":31900:31904   */\n      dup1\n        /* \"#utility.yul\":31894:31898   */\n      dup2\n        /* \"#utility.yul\":31890:31905   */\n      mul\n        /* \"#utility.yul\":31882:31905   */\n      swap1\n      pop\n        /* \"#utility.yul\":31930:31962   */\n      tag_847\n        /* \"#utility.yul\":31953:31961   */\n      dup6\n        /* \"#utility.yul\":31930:31962   */\n      tag_570\n      jump\t// in\n    tag_847:\n        /* \"#utility.yul\":31918:31962   */\n      swap5\n      pop\n        /* \"#utility.yul\":31260:31972   */\n      jump(tag_841)\n    tag_843:\n        /* \"#utility.yul\":31130:31978   */\n      swap5\n      pop\n      swap5\n      swap3\n      pop\n      pop\n      pop\n      jump\t// out\n        /* \"#utility.yul\":31984:33057   */\n    tag_572:\n        /* \"#utility.yul\":32038:32043   */\n      0x00\n        /* \"#utility.yul\":32229:32237   */\n      dup3\n        /* \"#utility.yul\":32219:32259   */\n      tag_849\n      jumpi\n        /* \"#utility.yul\":32250:32251   */\n      0x01\n        /* \"#utility.yul\":32241:32251   */\n      swap1\n      pop\n        /* \"#utility.yul\":32252:32257   */\n      jump(tag_848)\n        /* \"#utility.yul\":32219:32259   */\n    tag_849:\n        /* \"#utility.yul\":32278:32282   */\n      dup2\n        /* \"#utility.yul\":32268:32304   */\n      tag_850\n      jumpi\n        /* \"#utility.yul\":32295:32296   */\n      0x00\n        /* \"#utility.yul\":32286:32296   */\n      swap1\n      pop\n        /* \"#utility.yul\":32297:32302   */\n      jump(tag_848)\n        /* \"#utility.yul\":32268:32304   */\n    tag_850:\n        /* \"#utility.yul\":32364:32368   */\n      dup2\n        /* \"#utility.yul\":32412:32413   */\n      0x01\n        /* \"#utility.yul\":32407:32434   */\n      dup2\n      eq\n      tag_852\n      jumpi\n        /* \"#utility.yul\":32448:32449   */\n      0x02\n        /* \"#utility.yul\":32443:32634   */\n      dup2\n      eq\n      tag_853\n      jumpi\n        /* \"#utility.yul\":32357:32634   */\n      jump(tag_851)\n        /* \"#utility.yul\":32407:32434   */\n    tag_852:\n        /* \"#utility.yul\":32425:32426   */\n      0x01\n        /* \"#utility.yul\":32416:32426   */\n      swap2\n      pop\n        /* \"#utility.yul\":32427:32432   */\n      pop\n      jump(tag_848)\n        /* \"#utility.yul\":32443:32634   */\n    tag_853:\n        /* \"#utility.yul\":32488:32491   */\n      0xff\n        /* \"#utility.yul\":32478:32486   */\n      dup5\n        /* \"#utility.yul\":32475:32492   */\n      gt\n        /* \"#utility.yul\":32472:32515   */\n      iszero\n      tag_854\n      jumpi\n        /* \"#utility.yul\":32495:32513   */\n      tag_855\n      tag_531\n      jump\t// in\n    tag_855:\n        /* \"#utility.yul\":32472:32515   */\n    tag_854:\n        /* \"#utility.yul\":32544:32552   */\n      dup4\n        /* \"#utility.yul\":32541:32542   */\n      0x02\n        /* \"#utility.yul\":32537:32553   */\n      exp\n        /* \"#utility.yul\":32528:32553   */\n      swap2\n      pop\n        /* \"#utility.yul\":32579:32582   */\n      dup5\n        /* \"#utility.yul\":32572:32577   */\n      dup3\n        /* \"#utility.yul\":32569:32583   */\n      gt\n        /* \"#utility.yul\":32566:32606   */\n      iszero\n      tag_856\n      jumpi\n        /* \"#utility.yul\":32586:32604   */\n      tag_857\n      tag_531\n      jump\t// in\n    tag_857:\n        /* \"#utility.yul\":32566:32606   */\n    tag_856:\n        /* \"#utility.yul\":32619:32624   */\n      pop\n      jump(tag_848)\n        /* \"#utility.yul\":32357:32634   */\n    tag_851:\n      pop\n        /* \"#utility.yul\":32743:32745   */\n      0x20\n        /* \"#utility.yul\":32733:32741   */\n      dup4\n        /* \"#utility.yul\":32730:32746   */\n      lt\n        /* \"#utility.yul\":32724:32727   */\n      0x0133\n        /* \"#utility.yul\":32718:32722   */\n      dup4\n        /* \"#utility.yul\":32715:32728   */\n      lt\n        /* \"#utility.yul\":32711:32747   */\n      and\n        /* \"#utility.yul\":32693:32695   */\n      0x4e\n        /* \"#utility.yul\":32683:32691   */\n      dup5\n        /* \"#utility.yul\":32680:32696   */\n      lt\n        /* \"#utility.yul\":32675:32677   */\n      0x0b\n        /* \"#utility.yul\":32669:32673   */\n      dup5\n        /* \"#utility.yul\":32666:32678   */\n      lt\n        /* \"#utility.yul\":32662:32697   */\n      and\n        /* \"#utility.yul\":32646:32757   */\n      or\n        /* \"#utility.yul\":32643:32889   */\n      iszero\n      tag_858\n      jumpi\n        /* \"#utility.yul\":32799:32807   */\n      dup3\n        /* \"#utility.yul\":32793:32797   */\n      dup3\n        /* \"#utility.yul\":32789:32808   */\n      exp\n        /* \"#utility.yul\":32780:32808   */\n      swap1\n      pop\n        /* \"#utility.yul\":32834:32837   */\n      dup4\n        /* \"#utility.yul\":32827:32832   */\n      dup2\n        /* \"#utility.yul\":32824:32838   */\n      gt\n        /* \"#utility.yul\":32821:32861   */\n      iszero\n      tag_859\n      jumpi\n        /* \"#utility.yul\":32841:32859   */\n      tag_860\n      tag_531\n      jump\t// in\n    tag_860:\n        /* \"#utility.yul\":32821:32861   */\n    tag_859:\n        /* \"#utility.yul\":32874:32879   */\n      jump(tag_848)\n        /* \"#utility.yul\":32643:32889   */\n    tag_858:\n        /* \"#utility.yul\":32914:32956   */\n      tag_861\n        /* \"#utility.yul\":32952:32955   */\n      dup5\n        /* \"#utility.yul\":32942:32950   */\n      dup5\n        /* \"#utility.yul\":32936:32940   */\n      dup5\n        /* \"#utility.yul\":32933:32934   */\n      0x01\n        /* \"#utility.yul\":32914:32956   */\n      tag_571\n      jump\t// in\n    tag_861:\n        /* \"#utility.yul\":32899:32956   */\n      swap3\n      pop\n      swap1\n      pop\n        /* \"#utility.yul\":32988:32992   */\n      dup2\n        /* \"#utility.yul\":32983:32986   */\n      dup5\n        /* \"#utility.yul\":32979:32993   */\n      div\n        /* \"#utility.yul\":32972:32977   */\n      dup2\n        /* \"#utility.yul\":32969:32994   */\n      gt\n        /* \"#utility.yul\":32966:33017   */\n      iszero\n      tag_862\n      jumpi\n        /* \"#utility.yul\":32997:33015   */\n      tag_863\n      tag_531\n      jump\t// in\n    tag_863:\n        /* \"#utility.yul\":32966:33017   */\n    tag_862:\n        /* \"#utility.yul\":33046:33050   */\n      dup2\n        /* \"#utility.yul\":33039:33044   */\n      dup2\n        /* \"#utility.yul\":33035:33051   */\n      mul\n        /* \"#utility.yul\":33026:33051   */\n      swap1\n      pop\n        /* \"#utility.yul\":31984:33057   */\n    tag_848:\n      swap4\n      swap3\n      pop\n      pop\n      pop\n      jump\t// out\n        /* \"#utility.yul\":33063:33348   */\n    tag_361:\n        /* \"#utility.yul\":33123:33128   */\n      0x00\n        /* \"#utility.yul\":33147:33170   */\n      tag_865\n        /* \"#utility.yul\":33165:33169   */\n      dup3\n        /* \"#utility.yul\":33147:33170   */\n      tag_502\n      jump\t// in\n    tag_865:\n        /* \"#utility.yul\":33139:33170   */\n      swap2\n      pop\n        /* \"#utility.yul\":33191:33218   */\n      tag_866\n        /* \"#utility.yul\":33209:33217   */\n      dup4\n        /* \"#utility.yul\":33191:33218   */\n      tag_502\n      jump\t// in\n    tag_866:\n        /* \"#utility.yul\":33179:33218   */\n      swap3\n      pop\n        /* \"#utility.yul\":33237:33341   */\n      tag_867\n        /* \"#utility.yul\":33274:33340   */\n      0xffffffffffffffffffffffffffffffffffffffffffffffffffffffffffffffff\n        /* \"#utility.yul\":33264:33272   */\n      dup5\n        /* \"#utility.yul\":33258:33262   */\n      dup5\n        /* \"#utility.yul\":33237:33341   */\n      tag_572\n      jump\t// in\n    tag_867:\n        /* \"#utility.yul\":33228:33341   */\n      swap1\n      pop\n        /* \"#utility.yul\":33063:33348   */\n      swap3\n      swap2\n      pop\n      pop\n      jump\t// out\n        /* \"#utility.yul\":33354:33522   */\n    tag_573:\n        /* \"#utility.yul\":33494:33514   */\n      0x4c6f616e206973206e6f74206163746976650000000000000000000000000000\n        /* \"#utility.yul\":33490:33491   */\n      0x00\n        /* \"#utility.yul\":33482:33488   */\n      dup3\n        /* \"#utility.yul\":33478:33492   */\n      add\n        /* \"#utility.yul\":33471:33515   */\n      mstore\n        /* \"#utility.yul\":33354:33522   */\n      pop\n      jump\t// out\n        /* \"#utility.yul\":33528:33894   */\n    tag_574:\n        /* \"#utility.yul\":33670:33673   */\n      0x00\n        /* \"#utility.yul\":33691:33758   */\n      tag_870\n        /* \"#utility.yul\":33755:33757   */\n      0x12\n        /* \"#utility.yul\":33750:33753   */\n      dup4\n        /* \"#utility.yul\":33691:33758   */\n      tag_533\n      jump\t// in\n    tag_870:\n        /* \"#utility.yul\":33684:33758   */\n      swap2\n      pop\n        /* \"#utility.yul\":33767:33860   */\n      tag_871\n        /* \"#utility.yul\":33856:33859   */\n      dup3\n        /* \"#utility.yul\":33767:33860   */\n      tag_573\n      jump\t// in\n    tag_871:\n        /* \"#utility.yul\":33885:33887   */\n      0x20\n        /* \"#utility.yul\":33880:33883   */\n      dup3\n        /* \"#utility.yul\":33876:33888   */\n      add\n        /* \"#utility.yul\":33869:33888   */\n      swap1\n      pop\n        /* \"#utility.yul\":33528:33894   */\n      swap2\n      swap1\n      pop\n      jump\t// out\n        /* \"#utility.yul\":33900:34319   */\n    tag_376:\n        /* \"#utility.yul\":34066:34070   */\n      0x00\n        /* \"#utility.yul\":34104:34106   */\n      0x20\n        /* \"#utility.yul\":34093:34102   */\n      dup3\n        /* \"#utility.yul\":34089:34107   */\n      add\n        /* \"#utility.yul\":34081:34107   */\n      swap1\n      pop\n        /* \"#utility.yul\":34153:34162   */\n      dup2\n        /* \"#utility.yul\":34147:34151   */\n      dup2\n        /* \"#utility.yul\":34143:34163   */\n      sub\n        /* \"#utility.yul\":34139:34140   */\n      0x00\n        /* \"#utility.yul\":34128:34137   */\n      dup4\n        /* \"#utility.yul\":34124:34141   */\n      add\n        /* \"#utility.yul\":34117:34164   */\n      mstore\n        /* \"#utility.yul\":34181:34312   */\n      tag_873\n        /* \"#utility.yul\":34307:34311   */\n      dup2\n        /* \"#utility.yul\":34181:34312   */\n      tag_574\n      jump\t// in\n    tag_873:\n        /* \"#utility.yul\":34173:34312   */\n      swap1\n      pop\n        /* \"#utility.yul\":33900:34319   */\n      swap2\n      swap1\n      pop\n      jump\t// out\n        /* \"#utility.yul\":34325:34495   */\n    tag_575:\n        /* \"#utility.yul\":34465:34487   */\n      0x4c6f616e20686173206e6f742065787069726564000000000000000000000000\n        /* \"#utility.yul\":34461:34462   */\n      0x00\n        /* \"#utility.yul\":34453:34459   */\n      dup3\n        /* \"#utility.yul\":34449:34463   */\n      add\n        /* \"#utility.yul\":34442:34488   */\n      mstore\n        /* \"#utility.yul\":34325:34495   */\n      pop\n      jump\t// out\n        /* \"#utility.yul\":34501:34867   */\n    tag_576:\n        /* \"#utility.yul\":34643:34646   */\n      0x00\n        /* \"#utility.yul\":34664:34731   */\n      tag_876\n        /* \"#utility.yul\":34728:34730   */\n      0x14\n        /* \"#utility.yul\":34723:34726   */\n      dup4\n        /* \"#utility.yul\":34664:34731   */\n      tag_533\n      jump\t// in\n    tag_876:\n        /* \"#utility.yul\":34657:34731   */\n      swap2\n      pop\n        /* \"#utility.yul\":34740:34833   */\n      tag_877\n        /* \"#utility.yul\":34829:34832   */\n      dup3\n        /* \"#utility.yul\":34740:34833   */\n      tag_575\n      jump\t// in\n    tag_877:\n        /* \"#utility.yul\":34858:34860   */\n      0x20\n        /* \"#utility.yul\":34853:34856   */\n      dup3\n        /* \"#utility.yul\":34849:34861   */\n      add\n        /* \"#utility.yul\":34842:34861   */\n      swap1\n      pop\n        /* \"#utility.yul\":34501:34867   */\n      swap2\n      swap1\n      pop\n      jump\t// out\n        /* \"#utility.yul\":34873:35292   */\n    tag_380:\n        /* \"#utility.yul\":35039:35043   */\n      0x00\n        /* \"#utility.yul\":35077:35079   */\n      0x20\n        /* \"#utility.yul\":35066:35075   */\n      dup3\n        /* \"#utility.yul\":35062:35080   */\n      add\n        /* \"#utility.yul\":35054:35080   */\n      swap1\n      pop\n        /* \"#utility.yul\":35126:35135   */\n      dup2\n        /* \"#utility.yul\":35120:35124   */\n      dup2\n        /* \"#utility.yul\":35116:35136   */\n      sub\n        /* \"#utility.yul\":35112:35113   */\n      0x00\n        /* \"#utility.yul\":35101:35110   */\n      dup4\n        /* \"#utility.yul\":35097:35114   */\n      add\n        /* \"#utility.yul\":35090:35137   */\n      mstore\n        /* \"#utility.yul\":35154:35285   */\n      tag_879\n        /* \"#utility.yul\":35280:35284   */\n      dup2\n        /* \"#utility.yul\":35154:35285   */\n      tag_576\n      jump\t// in\n    tag_879:\n        /* \"#utility.yul\":35146:35285   */\n      swap1\n      pop\n        /* \"#utility.yul\":34873:35292   */\n      swap2\n      swap1\n      pop\n      jump\t// out\n\n    auxdata: 0xa264697066735822122065cd9fea8cda5ce963d0abec8cb03c54f9f1fd8de884bc7cf7331e667feb2e1a64736f6c63430008120033\n}\n",
				"bytecode": {
					"linkReferences": {},
					"object": "60806040523480156200001157600080fd5b506040516200460d3803806200460d83398181016040528101906200003791906200017d565b33600560006101000a81548173ffffffffffffffffffffffffffffffffffffffff021916908373ffffffffffffffffffffffffffffffffffffffff16021790555082600660006101000a81548173ffffffffffffffffffffffffffffffffffffffff021916908373ffffffffffffffffffffffffffffffffffffffff16021790555060006007819055508160088190555080600981905550505050620001d9565b600080fd5b600073ffffffffffffffffffffffffffffffffffffffff82169050919050565b60006200010a82620000dd565b9050919050565b6200011c81620000fd565b81146200012857600080fd5b50565b6000815190506200013c8162000111565b92915050565b6000819050919050565b620001578162000142565b81146200016357600080fd5b50565b60008151905062000177816200014c565b92915050565b600080600060608486031215620001995762000198620000d8565b5b6000620001a9868287016200012b565b9350506020620001bc8682870162000166565b9250506040620001cf8682870162000166565b9150509250925092565b61442480620001e96000396000f3fe60806040526004361061019c5760003560e01c80639624eca5116100ec578063e1ec3c681161008a578063f851a44011610064578063f851a4401461060f578063f8e157ea1461063a578063fa91422214610665578063fbeb52a4146106905761019c565b8063e1ec3c6814610566578063f4cff8b4146105a9578063f81d7f5b146105e65761019c565b8063d03b0e49116100c6578063d03b0e49146104a8578063db6f6c11146104d3578063dd186b3e146104fe578063e139a68f1461053b5761019c565b80639624eca5146104295780639ffb8b4914610452578063c3f647e81461047d5761019c565b80636110d50011610159578063729c7e8311610133578063729c7e831461037257806377b3f5f21461038e57806377f27bee146103b75780638736f1a7146103e75761019c565b80636110d500146102da5780636a99e312146103175780637078480a146103475761019c565b80633cc52b30146101a1578063466e3a3b146101cc5780634d03a9a51461020957806352ef5cef1461024957806357f3aef7146102725780636032cd95146102af575b600080fd5b3480156101ad57600080fd5b506101b66106cd565b6040516101c39190613175565b60405180910390f35b3480156101d857600080fd5b506101f360048036038101906101ee919061321f565b6106d3565b6040516102009190613175565b60405180910390f35b34801561021557600080fd5b50610230600480360381019061022b9190613272565b6107ce565b6040516102409493929190613338565b60405180910390f35b34801561025557600080fd5b50610270600480360381019061026b919061337d565b610838565b005b34801561027e57600080fd5b50610299600480360381019061029491906133aa565b610b3b565b6040516102a69190613467565b60405180910390f35b3480156102bb57600080fd5b506102c4610b93565b6040516102d19190613175565b60405180910390f35b3480156102e657600080fd5b5061030160048036038101906102fc919061337d565b610b99565b60405161030e9190613175565b60405180910390f35b610331600480360381019061032c9190613489565b611087565b60405161033e9190613175565b60405180910390f35b34801561035357600080fd5b5061035c61133d565b6040516103699190613175565b60405180910390f35b61038c6004803603810190610387919061337d565b611343565b005b34801561039a57600080fd5b506103b560048036038101906103b0919061337d565b611575565b005b6103d160048036038101906103cc9190613272565b611777565b6040516103de9190613175565b60405180910390f35b3480156103f357600080fd5b5061040e6004803603810190610409919061337d565b611b88565b60405161042096959493929190613538565b60405180910390f35b34801561043557600080fd5b50610450600480360381019061044b91906135d1565b611bd1565b005b34801561045e57600080fd5b50610467612099565b6040516104749190613175565b60405180910390f35b34801561048957600080fd5b5061049261209f565b60405161049f9190613175565b60405180910390f35b3480156104b457600080fd5b506104bd6120cb565b6040516104ca9190613624565b60405180910390f35b3480156104df57600080fd5b506104e86120f1565b6040516104f59190613175565b60405180910390f35b34801561050a57600080fd5b506105256004803603810190610520919061337d565b6120f7565b6040516105329190613175565b60405180910390f35b34801561054757600080fd5b5061055061210f565b60405161055d9190613175565b60405180910390f35b34801561057257600080fd5b5061058d6004803603810190610588919061337d565b612115565b6040516105a0979695949392919061363f565b60405180910390f35b3480156105b557600080fd5b506105d060048036038101906105cb919061337d565b612177565b6040516105dd91906136bd565b60405180910390f35b3480156105f257600080fd5b5061060d6004803603810190610608919061337d565b6122ce565b005b34801561061b57600080fd5b506106246124c5565b6040516106319190613624565b60405180910390f35b34801561064657600080fd5b5061064f6124eb565b60405161065c9190613175565b60405180910390f35b34801561067157600080fd5b5061067a6124f1565b6040516106879190613175565b60405180910390f35b34801561069c57600080fd5b506106b760048036038101906106b291906136d8565b6124f7565b6040516106c49190613175565b60405180910390f35b60035481565b600080600a60008673ffffffffffffffffffffffffffffffffffffffff1673ffffffffffffffffffffffffffffffffffffffff168152602001908152602001600020549050606481101561072a57839150506107c7565b6000612710905060006001905060006305265c0090506000848560036107509190613747565b610fa061075d9190613789565b60646107699190613747565b61077391906137ec565b905060008284896107849190613747565b61078e91906137ec565b90506000818361079e919061381d565b9050600086828c6107af9190613747565b6107b991906137ec565b905080985050505050505050505b9392505050565b600e602052816000526040600020602052806000526040600020600091509150508060000160009054906101000a900473ffffffffffffffffffffffffffffffffffffffff16908060010154908060020154908060030160009054906101000a900460ff16905084565b60003390506000600b600084815260200190815260200160002090506000600c60008581526020019081526020016000209050600042905060006009546008548560060154610887919061381d565b610891919061381d565b9050808211806108f057508360000160009054906101000a900473ffffffffffffffffffffffffffffffffffffffff1673ffffffffffffffffffffffffffffffffffffffff168573ffffffffffffffffffffffffffffffffffffffff16145b61092f576040517f08c379a0000000000000000000000000000000000000000000000000000000008152600401610926906138ae565b60405180910390fd5b60006003811115610943576109426132c1565b5b8360050160009054906101000a900460ff166003811115610967576109666132c1565b5b146109a7576040517f08c379a000000000000000000000000000000000000000000000000000000000815260040161099e9061391a565b60405180910390fd5b60006109b161209f565b905060008186600401546109c59190613789565b9050600081118015610a2d57508560000160009054906101000a900473ffffffffffffffffffffffffffffffffffffffff1673ffffffffffffffffffffffffffffffffffffffff166108fc829081150290604051600060405180830381858888f19350505050155b15610a6d576040517f08c379a0000000000000000000000000000000000000000000000000000000008152600401610a6490613986565b60405180910390fd5b610a768861251c565b610a7e61260a565b60038560050160006101000a81548160ff02191690836003811115610aa657610aa56132c1565b5b021790555084600c60008a815260200190815260200160002060008201548160000155600182015481600101556002820154816002015560038201548160030155600482015481600401556005820160009054906101000a900460ff168160050160006101000a81548160ff02191690836003811115610b2957610b286132c1565b5b02179055509050505050505050505050565b60603373ffffffffffffffffffffffffffffffffffffffff168273ffffffffffffffffffffffffffffffffffffffff1614610b7557600080fd5b60405180604001604052806001815260200160008152509050919050565b60075481565b6000803390506000600b60008581526020019081526020016000206040518060e00160405290816000820160009054906101000a900473ffffffffffffffffffffffffffffffffffffffff1673ffffffffffffffffffffffffffffffffffffffff1673ffffffffffffffffffffffffffffffffffffffff168152602001600182015481526020016002820154815260200160038201548152602001600482015481526020016005820154815260200160068201548152505090506000600c60008681526020019081526020016000206040518060c001604052908160008201548152602001600182015481526020016002820154815260200160038201548152602001600482015481526020016005820160009054906101000a900460ff166003811115610cca57610cc96132c1565b5b6003811115610cdc57610cdb6132c1565b5b815250509050610cec828261260c565b610d2b576040517f08c379a0000000000000000000000000000000000000000000000000000000008152600401610d22906139f2565b60405180910390fd5b600f600086815260200190815260200160002060008473ffffffffffffffffffffffffffffffffffffffff1673ffffffffffffffffffffffffffffffffffffffff168152602001908152602001600020546002819055506000600e6000878152602001908152602001600020600060025481526020019081526020016000206040518060800160405290816000820160009054906101000a900473ffffffffffffffffffffffffffffffffffffffff1673ffffffffffffffffffffffffffffffffffffffff1673ffffffffffffffffffffffffffffffffffffffff16815260200160018201548152602001600282015481526020016003820160009054906101000a900460ff166003811115610e4457610e436132c1565b5b6003811115610e5657610e556132c1565b5b81525050905060006003811115610e7057610e6f6132c1565b5b81606001516003811115610e8757610e866132c1565b5b14610ec7576040517f08c379a0000000000000000000000000000000000000000000000000000000008152600401610ebe90613a84565b60405180910390fd5b8373ffffffffffffffffffffffffffffffffffffffff166108fc82602001519081150290604051600060405180830381858888f19350505050610f3f576040517f08c379a0000000000000000000000000000000000000000000000000000000008152600401610f3690613af0565b60405180910390fd5b600381606001906003811115610f5857610f576132c1565b5b90816003811115610f6c57610f6b6132c1565b5b8152505080600e60008881526020019081526020016000206000600254815260200190815260200160002060008201518160000160006101000a81548173ffffffffffffffffffffffffffffffffffffffff021916908373ffffffffffffffffffffffffffffffffffffffff160217905550602082015181600101556040820151816002015560608201518160030160006101000a81548160ff0219169083600381111561101d5761101c6132c1565b5b0217905550905050600f600087815260200190815260200160002060008573ffffffffffffffffffffffffffffffffffffffff1673ffffffffffffffffffffffffffffffffffffffff16815260200190815260200160002060009055600254945050505050919050565b600080339050600084116110d0576040517f08c379a00000000000000000000000000000000000000000000000000000000081526004016110c790613b5c565b60405180910390fd5b60006110dd8286866106d3565b905080341015611122576040517f08c379a000000000000000000000000000000000000000000000000000000000815260040161111990613bc8565b60405180910390fd5b60006040518060e001604052808473ffffffffffffffffffffffffffffffffffffffff16815260200189815260200188815260200187815260200134815260200186815260200142815250905060006040518060c0016040528060008152602001600081526020018881526020016000815260200160008152602001600060038111156111b2576111b16132c1565b5b8152509050600760008154809291906111ca90613be8565b919050555081600b6000600754815260200190815260200160002060008201518160000160006101000a81548173ffffffffffffffffffffffffffffffffffffffff021916908373ffffffffffffffffffffffffffffffffffffffff1602179055506020820151816001015560408201518160020155606082015181600301556080820151816004015560a0820151816005015560c0820151816006015590505080600c60006007548152602001908152602001600020600082015181600001556020820151816001015560408201518160020155606082015181600301556080820151816004015560a08201518160050160006101000a81548160ff021916908360038111156112de576112dd6132c1565b5b02179055509050508373ffffffffffffffffffffffffffffffffffffffff166007547fde07ebe06c2610c0407853fae114c6d634a0d873b6fb8f8b5652ed1410aa1f7560405160405180910390a3600754945050505050949350505050565b60095481565b6000600b600083815260200190815260200160002090506000600c6000848152602001908152602001600020905060016003811115611385576113846132c1565b5b8160050160009054906101000a900460ff1660038111156113a9576113a86132c1565b5b146113e9576040517f08c379a00000000000000000000000000000000000000000000000000000000081526004016113e090613c7c565b60405180910390fd5b6000429050600083600501548360000154611404919061381d565b905080821115611449576040517f08c379a000000000000000000000000000000000000000000000000000000000815260040161144090613ce8565b60405180910390fd5b3483600401600082825461145d919061381d565b9250508190555082600301548360010154611478919061381d565b8360040154106114e85761148d8585856126dc565b6114ba8460000160009054906101000a900473ffffffffffffffffffffffffffffffffffffffff16612a78565b60028360050160006101000a81548160ff021916908360038111156114e2576114e16132c1565b5b02179055505b82600c600087815260200190815260200160002060008201548160000155600182015481600101556002820154816002015560038201548160030155600482015481600401556005820160009054906101000a900460ff168160050160006101000a81548160ff02191690836003811115611566576115656132c1565b5b02179055509050505050505050565b60003390506000600b600084815260200190815260200160002090506000600c600085815260200190815260200160002090508160000160009054906101000a900473ffffffffffffffffffffffffffffffffffffffff1673ffffffffffffffffffffffffffffffffffffffff168373ffffffffffffffffffffffffffffffffffffffff161461163a576040517f08c379a0000000000000000000000000000000000000000000000000000000008152600401611631906138ae565b60405180910390fd5b6000600381111561164e5761164d6132c1565b5b8160050160009054906101000a900460ff166003811115611672576116716132c1565b5b146116b2576040517f08c379a00000000000000000000000000000000000000000000000000000000081526004016116a99061391a565b60405180910390fd5b60008160010154116116f9576040517f08c379a00000000000000000000000000000000000000000000000000000000081526004016116f090613b5c565b60405180910390fd5b600042905060006009546008548560060154611715919061381d565b61171f919061381d565b905080821115611764576040517f08c379a000000000000000000000000000000000000000000000000000000000815260040161175b90613d54565b60405180910390fd5b61176f868487612b31565b505050505050565b6000803390506000349050600081116117c5576040517f08c379a00000000000000000000000000000000000000000000000000000000081526004016117bc90613de6565b60405180910390fd5b6000600b60008781526020019081526020016000206040518060e00160405290816000820160009054906101000a900473ffffffffffffffffffffffffffffffffffffffff1673ffffffffffffffffffffffffffffffffffffffff1673ffffffffffffffffffffffffffffffffffffffff168152602001600182015481526020016002820154815260200160038201548152602001600482015481526020016005820154815260200160068201548152505090506000600c60008881526020019081526020016000206040518060c001604052908160008201548152602001600182015481526020016002820154815260200160038201548152602001600482015481526020016005820160009054906101000a900460ff1660038111156118f0576118ef6132c1565b5b6003811115611902576119016132c1565b5b815250509050611912828261260c565b506000600f600089815260200190815260200160002060008673ffffffffffffffffffffffffffffffffffffffff1673ffffffffffffffffffffffffffffffffffffffff16815260200190815260200160002054146119a6576040517f08c379a000000000000000000000000000000000000000000000000000000000815260040161199d90613e9e565b60405180910390fd5b80604001518311156119ed576040517f08c379a00000000000000000000000000000000000000000000000000000000081526004016119e490613f56565b60405180910390fd5b600d6000888152602001908152602001600020549450600060405180608001604052808673ffffffffffffffffffffffffffffffffffffffff16815260200185815260200188815260200160006003811115611a4c57611a4b6132c1565b5b815250905080600e60008a8152602001908152602001600020600088815260200190815260200160002060008201518160000160006101000a81548173ffffffffffffffffffffffffffffffffffffffff021916908373ffffffffffffffffffffffffffffffffffffffff160217905550602082015181600101556040820151816002015560608201518160030160006101000a81548160ff02191690836003811115611afc57611afb6132c1565b5b021790555090505085600f60008a815260200190815260200160002060008773ffffffffffffffffffffffffffffffffffffffff1673ffffffffffffffffffffffffffffffffffffffff16815260200190815260200160002081905550600186611b66919061381d565b600d60008a815260200190815260200160002081905550505050505092915050565b600c6020528060005260406000206000915090508060000154908060010154908060020154908060030154908060040154908060050160009054906101000a900460ff16905086565b60003390506000600b600086815260200190815260200160002090506000600c600087815260200190815260200160002090508160000160009054906101000a900473ffffffffffffffffffffffffffffffffffffffff1673ffffffffffffffffffffffffffffffffffffffff168373ffffffffffffffffffffffffffffffffffffffff1614611c96576040517f08c379a0000000000000000000000000000000000000000000000000000000008152600401611c8d90613fe8565b60405180910390fd5b60006003811115611caa57611ca96132c1565b5b8160050160009054906101000a900460ff166003811115611cce57611ccd6132c1565b5b14611d0e576040517f08c379a0000000000000000000000000000000000000000000000000000000008152600401611d0590614054565b60405180910390fd5b600042905060006009546008548560060154611d2a919061381d565b611d34919061381d565b905080821115611d79576040517f08c379a0000000000000000000000000000000000000000000000000000000008152600401611d70906140e6565b60405180910390fd5b6000600e60008a81526020019081526020016000206000898152602001908152602001600020905060006003811115611db557611db46132c1565b5b8160030160009054906101000a900460ff166003811115611dd957611dd86132c1565b5b14611e19576040517f08c379a0000000000000000000000000000000000000000000000000000000008152600401611e1090613a84565b60405180910390fd5b6000151587151503611e3557611e30898983612c73565b61208e565b836002015481600101541115611e80576040517f08c379a0000000000000000000000000000000000000000000000000000000008152600401611e7790614178565b60405180910390fd5b60018160030160006101000a81548160ff02191690836003811115611ea857611ea76132c1565b5b021790555080600e60008b815260200190815260200160002060008a81526020019081526020016000206000820160009054906101000a900473ffffffffffffffffffffffffffffffffffffffff168160000160006101000a81548173ffffffffffffffffffffffffffffffffffffffff021916908373ffffffffffffffffffffffffffffffffffffffff16021790555060018201548160010155600282015481600201556003820160009054906101000a900460ff168160030160006101000a81548160ff02191690836003811115611f8557611f846132c1565b5b02179055509050508060010154846001016000828254611fa5919061381d565b925050819055508060010154846002016000828254611fc49190613789565b925050819055508060020154846003016000828254611fe3919061381d565b92505081905550600084600201540361200657612001898588612b31565b61208d565b83600c60008b815260200190815260200160002060008201548160000155600182015481600101556002820154816002015560038201548160030155600482015481600401556005820160009054906101000a900460ff168160050160006101000a81548160ff02191690836003811115612084576120836132c1565b5b02179055509050505b5b505050505050505050565b60005481565b6000806006905060006001905081600a6120b991906142cb565b816120c49190613747565b9250505090565b600660009054906101000a900473ffffffffffffffffffffffffffffffffffffffff1681565b60015481565b600d6020528060005260406000206000915090505481565b60025481565b600b6020528060005260406000206000915090508060000160009054906101000a900473ffffffffffffffffffffffffffffffffffffffff16908060010154908060020154908060030154908060040154908060050154908060060154905087565b600080600b60008481526020019081526020016000206040518060e00160405290816000820160009054906101000a900473ffffffffffffffffffffffffffffffffffffffff1673ffffffffffffffffffffffffffffffffffffffff1673ffffffffffffffffffffffffffffffffffffffff168152602001600182015481526020016002820154815260200160038201548152602001600482015481526020016005820154815260200160068201548152505090506000600c60008581526020019081526020016000206040518060c001604052908160008201548152602001600182015481526020016002820154815260200160038201548152602001600482015481526020016005820160009054906101000a900460ff1660038111156122a3576122a26132c1565b5b60038111156122b5576122b46132c1565b5b8152505090506122c5828261260c565b92505050919050565b6000600b600083815260200190815260200160002090506000600c60008481526020019081526020016000209050600160038111156123105761230f6132c1565b5b8160050160009054906101000a900460ff166003811115612334576123336132c1565b5b14612374576040517f08c379a000000000000000000000000000000000000000000000000000000000815260040161236b90614362565b60405180910390fd5b600042905060008360050154836000015461238f919061381d565b90508082116123d3576040517f08c379a00000000000000000000000000000000000000000000000000000000081526004016123ca906143ce565b60405180910390fd5b6123de8585856126dc565b61240b8460000160009054906101000a900473ffffffffffffffffffffffffffffffffffffffff16612e99565b60028360050160006101000a81548160ff02191690836003811115612433576124326132c1565b5b021790555082600c600087815260200190815260200160002060008201548160000155600182015481600101556002820154816002015560038201548160030155600482015481600401556005820160009054906101000a900460ff168160050160006101000a81548160ff021916908360038111156124b6576124b56132c1565b5b02179055509050505050505050565b600560009054906101000a900473ffffffffffffffffffffffffffffffffffffffff1681565b60045481565b60085481565b600f602052816000526040600020602052806000526040600020600091509150505481565b6000600d600083815260200190815260200160002054905060005b81811015612605576000600e6000858152602001908152602001600020600083815260200190815260200160002090506000600381111561257b5761257a6132c1565b5b8160030160009054906101000a900460ff16600381111561259f5761259e6132c1565b5b14806125e05750600160038111156125ba576125b96132c1565b5b8160030160009054906101000a900460ff1660038111156125de576125dd6132c1565b5b145b156125f1576125f0848383612c73565b5b5080806125fd90613be8565b915050612537565b505050565b565b6000806003811115612621576126206132c1565b5b8260a001516003811115612638576126376132c1565b5b14612678576040517f08c379a000000000000000000000000000000000000000000000000000000000815260040161266f906139f2565b60405180910390fd5b60004290506008548460c0015161268f919061381d565b8111156126d1576040517f08c379a00000000000000000000000000000000000000000000000000000000081526004016126c8906139f2565b60405180910390fd5b600191505092915050565b6000600d60008581526020019081526020016000205490506000836002015490506000612785846040518060c001604052908160008201548152602001600182015481526020016002820154815260200160038201548152602001600482015481526020016005820160009054906101000a900460ff166003811115612765576127646132c1565b5b6003811115612777576127766132c1565b5b815250508660020154612f34565b905060005b83811015612a67576000600e600089815260200190815260200160002060008381526020019081526020016000206040518060800160405290816000820160009054906101000a900473ffffffffffffffffffffffffffffffffffffffff1673ffffffffffffffffffffffffffffffffffffffff1673ffffffffffffffffffffffffffffffffffffffff16815260200160018201548152602001600282015481526020016003820160009054906101000a900460ff166003811115612852576128516132c1565b5b6003811115612864576128636132c1565b5b8152505090506001600381111561287e5761287d6132c1565b5b81606001516003811115612895576128946132c1565b5b03612a53576000806129be896040518060e00160405290816000820160009054906101000a900473ffffffffffffffffffffffffffffffffffffffff1673ffffffffffffffffffffffffffffffffffffffff1673ffffffffffffffffffffffffffffffffffffffff1681526020016001820154815260200160028201548152602001600382015481526020016004820154815260200160058201548152602001600682015481525050896040518060c001604052908160008201548152602001600182015481526020016002820154815260200160038201548152602001600482015481526020016005820160009054906101000a900460ff1660038111156129a1576129a06132c1565b5b60038111156129b3576129b26132c1565b5b815250508588612fa0565b9150915080866129ce9190613789565b9550826000015173ffffffffffffffffffffffffffffffffffffffff166108fc839081150290604051600060405180830381858888f19350505050612a48576040517f08c379a0000000000000000000000000000000000000000000000000000000008152600401612a3f90613986565b60405180910390fd5b612a5061260a565b50505b508080612a5f90613be8565b91505061278a565b50612a7061260a565b505050505050565b6000600a60008373ffffffffffffffffffffffffffffffffffffffff1673ffffffffffffffffffffffffffffffffffffffff16815260200190815260200160002054905060008103612aca576101f490505b601481612ad7919061381d565b90506103e8811115612ae9576103e890505b80600a60008473ffffffffffffffffffffffffffffffffffffffff1673ffffffffffffffffffffffffffffffffffffffff168152602001908152602001600020819055505050565b42826000018190555060018260050160006101000a81548160ff02191690836003811115612b6257612b616132c1565b5b021790555081600c600085815260200190815260200160002060008201548160000155600182015481600101556002820154816002015560038201548160030155600482015481600401556005820160009054906101000a900460ff168160050160006101000a81548160ff02191690836003811115612be557612be46132c1565b5b02179055509050508073ffffffffffffffffffffffffffffffffffffffff166108fc83600101549081150290604051600060405180830381858888f19350505050612c65576040517f08c379a0000000000000000000000000000000000000000000000000000000008152600401612c5c90613986565b60405180910390fd5b612c6e836130af565b505050565b8060000160009054906101000a900473ffffffffffffffffffffffffffffffffffffffff1673ffffffffffffffffffffffffffffffffffffffff166108fc82600101549081150290604051600060405180830381858888f19350505050612d0f576040517f08c379a0000000000000000000000000000000000000000000000000000000008152600401612d0690613986565b60405180910390fd5b60028160030160006101000a81548160ff02191690836003811115612d3757612d366132c1565b5b0217905550600f600084815260200190815260200160002060008260000160009054906101000a900473ffffffffffffffffffffffffffffffffffffffff1673ffffffffffffffffffffffffffffffffffffffff1673ffffffffffffffffffffffffffffffffffffffff1681526020019081526020016000206000905580600e600085815260200190815260200160002060008481526020019081526020016000206000820160009054906101000a900473ffffffffffffffffffffffffffffffffffffffff168160000160006101000a81548173ffffffffffffffffffffffffffffffffffffffff021916908373ffffffffffffffffffffffffffffffffffffffff16021790555060018201548160010155600282015481600201556003820160009054906101000a900460ff168160030160006101000a81548160ff02191690836003811115612e8c57612e8b6132c1565b5b0217905550905050505050565b6000600a60008373ffffffffffffffffffffffffffffffffffffffff1673ffffffffffffffffffffffffffffffffffffffff168152602001908152602001600020549050606481612eea9190613789565b905080600a60008473ffffffffffffffffffffffffffffffffffffffff1673ffffffffffffffffffffffffffffffffffffffff168152602001908152602001600020819055505050565b600080836020015103612f4957819050612f9a565b600083606001518460800151612f5f9190613789565b90508084602001511015612f7557836020015190505b600084602001518285612f889190613747565b612f9291906137ec565b905080925050505b92915050565b6000806000856020015103612fbf5783602001516000915091506130a6565b600085606001518660800151612fd59190613789565b90506000818760800151612fe99190613789565b9050876080015182612ffb919061381d565b9150818760200151101561301157866020015191505b600087606001518760400151836130289190613747565b61303291906137ec565b90506000886020015188602001518561304b9190613747565b61305591906137ec565b905060008282613065919061381d565b905060008a602001518a602001518a8e604001516130839190613789565b61308d9190613747565b61309791906137ec565b90508181975097505050505050505b94509492505050565b6000600d600083815260200190815260200160002054905060005b81811015613157576000600e6000858152602001908152602001600020600083815260200190815260200160002090506000600381111561310e5761310d6132c1565b5b8160030160009054906101000a900460ff166003811115613132576131316132c1565b5b0361314357613142848383612c73565b5b50808061314f90613be8565b9150506130ca565b505050565b6000819050919050565b61316f8161315c565b82525050565b600060208201905061318a6000830184613166565b92915050565b600080fd5b600073ffffffffffffffffffffffffffffffffffffffff82169050919050565b60006131c082613195565b9050919050565b6131d0816131b5565b81146131db57600080fd5b50565b6000813590506131ed816131c7565b92915050565b6131fc8161315c565b811461320757600080fd5b50565b600081359050613219816131f3565b92915050565b60008060006060848603121561323857613237613190565b5b6000613246868287016131de565b93505060206132578682870161320a565b92505060406132688682870161320a565b9150509250925092565b6000806040838503121561328957613288613190565b5b60006132978582860161320a565b92505060206132a88582860161320a565b9150509250929050565b6132bb816131b5565b82525050565b7f4e487b7100000000000000000000000000000000000000000000000000000000600052602160045260246000fd5b60048110613301576133006132c1565b5b50565b6000819050613312826132f0565b919050565b600061332282613304565b9050919050565b61333281613317565b82525050565b600060808201905061334d60008301876132b2565b61335a6020830186613166565b6133676040830185613166565b6133746060830184613329565b95945050505050565b60006020828403121561339357613392613190565b5b60006133a18482850161320a565b91505092915050565b6000602082840312156133c0576133bf613190565b5b60006133ce848285016131de565b91505092915050565b600081519050919050565b600082825260208201905092915050565b60005b838110156134115780820151818401526020810190506133f6565b60008484015250505050565b6000601f19601f8301169050919050565b6000613439826133d7565b61344381856133e2565b93506134538185602086016133f3565b61345c8161341d565b840191505092915050565b60006020820190508181036000830152613481818461342e565b905092915050565b600080600080608085870312156134a3576134a2613190565b5b60006134b18782880161320a565b94505060206134c28782880161320a565b93505060406134d38782880161320a565b92505060606134e48782880161320a565b91505092959194509250565b60048110613501576135006132c1565b5b50565b6000819050613512826134f0565b919050565b600061352282613504565b9050919050565b61353281613517565b82525050565b600060c08201905061354d6000830189613166565b61355a6020830188613166565b6135676040830187613166565b6135746060830186613166565b6135816080830185613166565b61358e60a0830184613529565b979650505050505050565b60008115159050919050565b6135ae81613599565b81146135b957600080fd5b50565b6000813590506135cb816135a5565b92915050565b6000806000606084860312156135ea576135e9613190565b5b60006135f88682870161320a565b93505060206136098682870161320a565b925050604061361a868287016135bc565b9150509250925092565b600060208201905061363960008301846132b2565b92915050565b600060e082019050613654600083018a6132b2565b6136616020830189613166565b61366e6040830188613166565b61367b6060830187613166565b6136886080830186613166565b61369560a0830185613166565b6136a260c0830184613166565b98975050505050505050565b6136b781613599565b82525050565b60006020820190506136d260008301846136ae565b92915050565b600080604083850312156136ef576136ee613190565b5b60006136fd8582860161320a565b925050602061370e858286016131de565b9150509250929050565b7f4e487b7100000000000000000000000000000000000000000000000000000000600052601160045260246000fd5b60006137528261315c565b915061375d8361315c565b925082820261376b8161315c565b9150828204841483151761378257613781613718565b5b5092915050565b60006137948261315c565b915061379f8361315c565b92508282039050818111156137b7576137b6613718565b5b92915050565b7f4e487b7100000000000000000000000000000000000000000000000000000000600052601260045260246000fd5b60006137f78261315c565b91506138028361315c565b925082613812576138116137bd565b5b828204905092915050565b60006138288261315c565b91506138338361315c565b925082820190508082111561384b5761384a613718565b5b92915050565b600082825260208201905092915050565b7f4e6f74417574686f72697a656400000000000000000000000000000000000000600082015250565b6000613898600d83613851565b91506138a382613862565b602082019050919050565b600060208201905081810360008301526138c78161388b565b9050919050565b7f4c6f616e49734e6f744f70656e00000000000000000000000000000000000000600082015250565b6000613904600d83613851565b915061390f826138ce565b602082019050919050565b60006020820190508181036000830152613933816138f7565b9050919050565b7f57697468647261774661696c6564000000000000000000000000000000000000600082015250565b6000613970600e83613851565b915061397b8261393a565b602082019050919050565b6000602082019050818103600083015261399f81613963565b9050919050565b7f4e6f7420696e20746865206f6666657220706861736500000000000000000000600082015250565b60006139dc601683613851565b91506139e7826139a6565b602082019050919050565b60006020820190508181036000830152613a0b816139cf565b9050919050565b7f4f66666572206973206e6f7420696e207468652070656e64696e67207374617460008201527f6500000000000000000000000000000000000000000000000000000000000000602082015250565b6000613a6e602183613851565b9150613a7982613a12565b604082019050919050565b60006020820190508181036000830152613a9d81613a61565b9050919050565b7f5769746864726177206661696c65640000000000000000000000000000000000600082015250565b6000613ada600f83613851565b9150613ae582613aa4565b602082019050919050565b60006020820190508181036000830152613b0981613acd565b9050919050565b7f5a65726f56616c75650000000000000000000000000000000000000000000000600082015250565b6000613b46600983613851565b9150613b5182613b10565b602082019050919050565b60006020820190508181036000830152613b7581613b39565b9050919050565b7f496e73756666696369656e7453656375726974794465706f7369740000000000600082015250565b6000613bb2601b83613851565b9150613bbd82613b7c565b602082019050919050565b60006020820190508181036000830152613be181613ba5565b9050919050565b6000613bf38261315c565b91507fffffffffffffffffffffffffffffffffffffffffffffffffffffffffffffffff8203613c2557613c24613718565b5b600182019050919050565b7f4c6f616e49734e6f744163746976650000000000000000000000000000000000600082015250565b6000613c66600f83613851565b9150613c7182613c30565b602082019050919050565b60006020820190508181036000830152613c9581613c59565b9050919050565b7f4c6f616e52657061796d656e74506572696f64416c72656164794f7665720000600082015250565b6000613cd2601e83613851565b9150613cdd82613c9c565b602082019050919050565b60006020820190508181036000830152613d0181613cc5565b9050919050565b7f4c6f616e48617345787069726564000000000000000000000000000000000000600082015250565b6000613d3e600e83613851565b9150613d4982613d08565b602082019050919050565b60006020820190508181036000830152613d6d81613d31565b9050919050565b7f5a65726f56616c75653a204e6f2076616c75652073656e74207769746820746860008201527f65207472616e73616374696f6e00000000000000000000000000000000000000602082015250565b6000613dd0602d83613851565b9150613ddb82613d74565b604082019050919050565b60006020820190508181036000830152613dff81613dc3565b9050919050565b7f4163746976654f66666572416c72656164794578697374733a20596f7520686160008201527f766520616c7265616479206d61646520616e20616374697665206f666665722060208201527f666f722074686973206c6f616e00000000000000000000000000000000000000604082015250565b6000613e88604d83613851565b9150613e9382613e06565b606082019050919050565b60006020820190508181036000830152613eb781613e7b565b9050919050565b7f4578636573736976654c656e64696e67416d6f756e7453656e743a204c656e6460008201527f696e6720616d6f756e742065786365656473207468652072656d61696e696e6760208201527f206c696d697420666f722074686973206c6f616e000000000000000000000000604082015250565b6000613f40605483613851565b9150613f4b82613ebe565b606082019050919050565b60006020820190508181036000830152613f6f81613f33565b9050919050565b7f4e6f7420617574686f72697a656420746f20726573706f6e6420746f2074686560008201527f206f666665720000000000000000000000000000000000000000000000000000602082015250565b6000613fd2602683613851565b9150613fdd82613f76565b604082019050919050565b6000602082019050818103600083015261400181613fc5565b9050919050565b7f4c6f616e206973206e6f74206f70656e20666f7220726573706f6e7365730000600082015250565b600061403e601e83613851565b915061404982614008565b602082019050919050565b6000602082019050818103600083015261406d81614031565b9050919050565b7f4c6f616e20686173206578706972656420616e64206973206e6f74206163636560008201527f7074696e6720726573706f6e7365730000000000000000000000000000000000602082015250565b60006140d0602f83613851565b91506140db82614074565b604082019050919050565b600060208201905081810360008301526140ff816140c3565b9050919050565b7f4f6666657220616d6f756e742065786365656473207468652072656d61696e6960008201527f6e67206c6f616e206c696d697400000000000000000000000000000000000000602082015250565b6000614162602d83613851565b915061416d82614106565b604082019050919050565b6000602082019050818103600083015261419181614155565b9050919050565b60008160011c9050919050565b6000808291508390505b60018511156141ef578086048111156141cb576141ca613718565b5b60018516156141da5780820291505b80810290506141e885614198565b94506141af565b94509492505050565b60008261420857600190506142c4565b8161421657600090506142c4565b816001811461422c576002811461423657614265565b60019150506142c4565b60ff84111561424857614247613718565b5b8360020a91508482111561425f5761425e613718565b5b506142c4565b5060208310610133831016604e8410600b841016171561429a5782820a90508381111561429557614294613718565b5b6142c4565b6142a784848460016141a5565b925090508184048111156142be576142bd613718565b5b81810290505b9392505050565b60006142d68261315c565b91506142e18361315c565b925061430e7fffffffffffffffffffffffffffffffffffffffffffffffffffffffffffffffff84846141f8565b905092915050565b7f4c6f616e206973206e6f74206163746976650000000000000000000000000000600082015250565b600061434c601283613851565b915061435782614316565b602082019050919050565b6000602082019050818103600083015261437b8161433f565b9050919050565b7f4c6f616e20686173206e6f742065787069726564000000000000000000000000600082015250565b60006143b8601483613851565b91506143c382614382565b602082019050919050565b600060208201905081810360008301526143e7816143ab565b905091905056fea264697066735822122065cd9fea8cda5ce963d0abec8cb03c54f9f1fd8de884bc7cf7331e667feb2e1a64736f6c63430008120033",
					"opcodes": "PUSH1 0x80 PUSH1 0x40 MSTORE CALLVALUE DUP1 ISZERO PUSH3 0x11 JUMPI PUSH1 0x0 DUP1 REVERT JUMPDEST POP PUSH1 0x40 MLOAD PUSH3 0x460D CODESIZE SUB DUP1 PUSH3 0x460D DUP4 CODECOPY DUP2 DUP2 ADD PUSH1 0x40 MSTORE DUP2 ADD SWAP1 PUSH3 0x37 SWAP2 SWAP1 PUSH3 0x17D JUMP JUMPDEST CALLER PUSH1 0x5 PUSH1 0x0 PUSH2 0x100 EXP DUP2 SLOAD DUP2 PUSH20 0xFFFFFFFFFFFFFFFFFFFFFFFFFFFFFFFFFFFFFFFF MUL NOT AND SWAP1 DUP4 PUSH20 0xFFFFFFFFFFFFFFFFFFFFFFFFFFFFFFFFFFFFFFFF AND MUL OR SWAP1 SSTORE POP DUP3 PUSH1 0x6 PUSH1 0x0 PUSH2 0x100 EXP DUP2 SLOAD DUP2 PUSH20 0xFFFFFFFFFFFFFFFFFFFFFFFFFFFFFFFFFFFFFFFF MUL NOT AND SWAP1 DUP4 PUSH20 0xFFFFFFFFFFFFFFFFFFFFFFFFFFFFFFFFFFFFFFFF AND MUL OR SWAP1 SSTORE POP PUSH1 0x0 PUSH1 0x7 DUP2 SWAP1 SSTORE POP DUP2 PUSH1 0x8 DUP2 SWAP1 SSTORE POP DUP1 PUSH1 0x9 DUP2 SWAP1 SSTORE POP POP POP POP PUSH3 0x1D9 JUMP JUMPDEST PUSH1 0x0 DUP1 REVERT JUMPDEST PUSH1 0x0 PUSH20 0xFFFFFFFFFFFFFFFFFFFFFFFFFFFFFFFFFFFFFFFF DUP3 AND SWAP1 POP SWAP2 SWAP1 POP JUMP JUMPDEST PUSH1 0x0 PUSH3 0x10A DUP3 PUSH3 0xDD JUMP JUMPDEST SWAP1 POP SWAP2 SWAP1 POP JUMP JUMPDEST PUSH3 0x11C DUP2 PUSH3 0xFD JUMP JUMPDEST DUP2 EQ PUSH3 0x128 JUMPI PUSH1 0x0 DUP1 REVERT JUMPDEST POP JUMP JUMPDEST PUSH1 0x0 DUP2 MLOAD SWAP1 POP PUSH3 0x13C DUP2 PUSH3 0x111 JUMP JUMPDEST SWAP3 SWAP2 POP POP JUMP JUMPDEST PUSH1 0x0 DUP2 SWAP1 POP SWAP2 SWAP1 POP JUMP JUMPDEST PUSH3 0x157 DUP2 PUSH3 0x142 JUMP JUMPDEST DUP2 EQ PUSH3 0x163 JUMPI PUSH1 0x0 DUP1 REVERT JUMPDEST POP JUMP JUMPDEST PUSH1 0x0 DUP2 MLOAD SWAP1 POP PUSH3 0x177 DUP2 PUSH3 0x14C JUMP JUMPDEST SWAP3 SWAP2 POP POP JUMP JUMPDEST PUSH1 0x0 DUP1 PUSH1 0x0 PUSH1 0x60 DUP5 DUP7 SUB SLT ISZERO PUSH3 0x199 JUMPI PUSH3 0x198 PUSH3 0xD8 JUMP JUMPDEST JUMPDEST PUSH1 0x0 PUSH3 0x1A9 DUP7 DUP3 DUP8 ADD PUSH3 0x12B JUMP JUMPDEST SWAP4 POP POP PUSH1 0x20 PUSH3 0x1BC DUP7 DUP3 DUP8 ADD PUSH3 0x166 JUMP JUMPDEST SWAP3 POP POP PUSH1 0x40 PUSH3 0x1CF DUP7 DUP3 DUP8 ADD PUSH3 0x166 JUMP JUMPDEST SWAP2 POP POP SWAP3 POP SWAP3 POP SWAP3 JUMP JUMPDEST PUSH2 0x4424 DUP1 PUSH3 0x1E9 PUSH1 0x0 CODECOPY PUSH1 0x0 RETURN INVALID PUSH1 0x80 PUSH1 0x40 MSTORE PUSH1 0x4 CALLDATASIZE LT PUSH2 0x19C JUMPI PUSH1 0x0 CALLDATALOAD PUSH1 0xE0 SHR DUP1 PUSH4 0x9624ECA5 GT PUSH2 0xEC JUMPI DUP1 PUSH4 0xE1EC3C68 GT PUSH2 0x8A JUMPI DUP1 PUSH4 0xF851A440 GT PUSH2 0x64 JUMPI DUP1 PUSH4 0xF851A440 EQ PUSH2 0x60F JUMPI DUP1 PUSH4 0xF8E157EA EQ PUSH2 0x63A JUMPI DUP1 PUSH4 0xFA914222 EQ PUSH2 0x665 JUMPI DUP1 PUSH4 0xFBEB52A4 EQ PUSH2 0x690 JUMPI PUSH2 0x19C JUMP JUMPDEST DUP1 PUSH4 0xE1EC3C68 EQ PUSH2 0x566 JUMPI DUP1 PUSH4 0xF4CFF8B4 EQ PUSH2 0x5A9 JUMPI DUP1 PUSH4 0xF81D7F5B EQ PUSH2 0x5E6 JUMPI PUSH2 0x19C JUMP JUMPDEST DUP1 PUSH4 0xD03B0E49 GT PUSH2 0xC6 JUMPI DUP1 PUSH4 0xD03B0E49 EQ PUSH2 0x4A8 JUMPI DUP1 PUSH4 0xDB6F6C11 EQ PUSH2 0x4D3 JUMPI DUP1 PUSH4 0xDD186B3E EQ PUSH2 0x4FE JUMPI DUP1 PUSH4 0xE139A68F EQ PUSH2 0x53B JUMPI PUSH2 0x19C JUMP JUMPDEST DUP1 PUSH4 0x9624ECA5 EQ PUSH2 0x429 JUMPI DUP1 PUSH4 0x9FFB8B49 EQ PUSH2 0x452 JUMPI DUP1 PUSH4 0xC3F647E8 EQ PUSH2 0x47D JUMPI PUSH2 0x19C JUMP JUMPDEST DUP1 PUSH4 0x6110D500 GT PUSH2 0x159 JUMPI DUP1 PUSH4 0x729C7E83 GT PUSH2 0x133 JUMPI DUP1 PUSH4 0x729C7E83 EQ PUSH2 0x372 JUMPI DUP1 PUSH4 0x77B3F5F2 EQ PUSH2 0x38E JUMPI DUP1 PUSH4 0x77F27BEE EQ PUSH2 0x3B7 JUMPI DUP1 PUSH4 0x8736F1A7 EQ PUSH2 0x3E7 JUMPI PUSH2 0x19C JUMP JUMPDEST DUP1 PUSH4 0x6110D500 EQ PUSH2 0x2DA JUMPI DUP1 PUSH4 0x6A99E312 EQ PUSH2 0x317 JUMPI DUP1 PUSH4 0x7078480A EQ PUSH2 0x347 JUMPI PUSH2 0x19C JUMP JUMPDEST DUP1 PUSH4 0x3CC52B30 EQ PUSH2 0x1A1 JUMPI DUP1 PUSH4 0x466E3A3B EQ PUSH2 0x1CC JUMPI DUP1 PUSH4 0x4D03A9A5 EQ PUSH2 0x209 JUMPI DUP1 PUSH4 0x52EF5CEF EQ PUSH2 0x249 JUMPI DUP1 PUSH4 0x57F3AEF7 EQ PUSH2 0x272 JUMPI DUP1 PUSH4 0x6032CD95 EQ PUSH2 0x2AF JUMPI JUMPDEST PUSH1 0x0 DUP1 REVERT JUMPDEST CALLVALUE DUP1 ISZERO PUSH2 0x1AD JUMPI PUSH1 0x0 DUP1 REVERT JUMPDEST POP PUSH2 0x1B6 PUSH2 0x6CD JUMP JUMPDEST PUSH1 0x40 MLOAD PUSH2 0x1C3 SWAP2 SWAP1 PUSH2 0x3175 JUMP JUMPDEST PUSH1 0x40 MLOAD DUP1 SWAP2 SUB SWAP1 RETURN JUMPDEST CALLVALUE DUP1 ISZERO PUSH2 0x1D8 JUMPI PUSH1 0x0 DUP1 REVERT JUMPDEST POP PUSH2 0x1F3 PUSH1 0x4 DUP1 CALLDATASIZE SUB DUP2 ADD SWAP1 PUSH2 0x1EE SWAP2 SWAP1 PUSH2 0x321F JUMP JUMPDEST PUSH2 0x6D3 JUMP JUMPDEST PUSH1 0x40 MLOAD PUSH2 0x200 SWAP2 SWAP1 PUSH2 0x3175 JUMP JUMPDEST PUSH1 0x40 MLOAD DUP1 SWAP2 SUB SWAP1 RETURN JUMPDEST CALLVALUE DUP1 ISZERO PUSH2 0x215 JUMPI PUSH1 0x0 DUP1 REVERT JUMPDEST POP PUSH2 0x230 PUSH1 0x4 DUP1 CALLDATASIZE SUB DUP2 ADD SWAP1 PUSH2 0x22B SWAP2 SWAP1 PUSH2 0x3272 JUMP JUMPDEST PUSH2 0x7CE JUMP JUMPDEST PUSH1 0x40 MLOAD PUSH2 0x240 SWAP5 SWAP4 SWAP3 SWAP2 SWAP1 PUSH2 0x3338 JUMP JUMPDEST PUSH1 0x40 MLOAD DUP1 SWAP2 SUB SWAP1 RETURN JUMPDEST CALLVALUE DUP1 ISZERO PUSH2 0x255 JUMPI PUSH1 0x0 DUP1 REVERT JUMPDEST POP PUSH2 0x270 PUSH1 0x4 DUP1 CALLDATASIZE SUB DUP2 ADD SWAP1 PUSH2 0x26B SWAP2 SWAP1 PUSH2 0x337D JUMP JUMPDEST PUSH2 0x838 JUMP JUMPDEST STOP JUMPDEST CALLVALUE DUP1 ISZERO PUSH2 0x27E JUMPI PUSH1 0x0 DUP1 REVERT JUMPDEST POP PUSH2 0x299 PUSH1 0x4 DUP1 CALLDATASIZE SUB DUP2 ADD SWAP1 PUSH2 0x294 SWAP2 SWAP1 PUSH2 0x33AA JUMP JUMPDEST PUSH2 0xB3B JUMP JUMPDEST PUSH1 0x40 MLOAD PUSH2 0x2A6 SWAP2 SWAP1 PUSH2 0x3467 JUMP JUMPDEST PUSH1 0x40 MLOAD DUP1 SWAP2 SUB SWAP1 RETURN JUMPDEST CALLVALUE DUP1 ISZERO PUSH2 0x2BB JUMPI PUSH1 0x0 DUP1 REVERT JUMPDEST POP PUSH2 0x2C4 PUSH2 0xB93 JUMP JUMPDEST PUSH1 0x40 MLOAD PUSH2 0x2D1 SWAP2 SWAP1 PUSH2 0x3175 JUMP JUMPDEST PUSH1 0x40 MLOAD DUP1 SWAP2 SUB SWAP1 RETURN JUMPDEST CALLVALUE DUP1 ISZERO PUSH2 0x2E6 JUMPI PUSH1 0x0 DUP1 REVERT JUMPDEST POP PUSH2 0x301 PUSH1 0x4 DUP1 CALLDATASIZE SUB DUP2 ADD SWAP1 PUSH2 0x2FC SWAP2 SWAP1 PUSH2 0x337D JUMP JUMPDEST PUSH2 0xB99 JUMP JUMPDEST PUSH1 0x40 MLOAD PUSH2 0x30E SWAP2 SWAP1 PUSH2 0x3175 JUMP JUMPDEST PUSH1 0x40 MLOAD DUP1 SWAP2 SUB SWAP1 RETURN JUMPDEST PUSH2 0x331 PUSH1 0x4 DUP1 CALLDATASIZE SUB DUP2 ADD SWAP1 PUSH2 0x32C SWAP2 SWAP1 PUSH2 0x3489 JUMP JUMPDEST PUSH2 0x1087 JUMP JUMPDEST PUSH1 0x40 MLOAD PUSH2 0x33E SWAP2 SWAP1 PUSH2 0x3175 JUMP JUMPDEST PUSH1 0x40 MLOAD DUP1 SWAP2 SUB SWAP1 RETURN JUMPDEST CALLVALUE DUP1 ISZERO PUSH2 0x353 JUMPI PUSH1 0x0 DUP1 REVERT JUMPDEST POP PUSH2 0x35C PUSH2 0x133D JUMP JUMPDEST PUSH1 0x40 MLOAD PUSH2 0x369 SWAP2 SWAP1 PUSH2 0x3175 JUMP JUMPDEST PUSH1 0x40 MLOAD DUP1 SWAP2 SUB SWAP1 RETURN JUMPDEST PUSH2 0x38C PUSH1 0x4 DUP1 CALLDATASIZE SUB DUP2 ADD SWAP1 PUSH2 0x387 SWAP2 SWAP1 PUSH2 0x337D JUMP JUMPDEST PUSH2 0x1343 JUMP JUMPDEST STOP JUMPDEST CALLVALUE DUP1 ISZERO PUSH2 0x39A JUMPI PUSH1 0x0 DUP1 REVERT JUMPDEST POP PUSH2 0x3B5 PUSH1 0x4 DUP1 CALLDATASIZE SUB DUP2 ADD SWAP1 PUSH2 0x3B0 SWAP2 SWAP1 PUSH2 0x337D JUMP JUMPDEST PUSH2 0x1575 JUMP JUMPDEST STOP JUMPDEST PUSH2 0x3D1 PUSH1 0x4 DUP1 CALLDATASIZE SUB DUP2 ADD SWAP1 PUSH2 0x3CC SWAP2 SWAP1 PUSH2 0x3272 JUMP JUMPDEST PUSH2 0x1777 JUMP JUMPDEST PUSH1 0x40 MLOAD PUSH2 0x3DE SWAP2 SWAP1 PUSH2 0x3175 JUMP JUMPDEST PUSH1 0x40 MLOAD DUP1 SWAP2 SUB SWAP1 RETURN JUMPDEST CALLVALUE DUP1 ISZERO PUSH2 0x3F3 JUMPI PUSH1 0x0 DUP1 REVERT JUMPDEST POP PUSH2 0x40E PUSH1 0x4 DUP1 CALLDATASIZE SUB DUP2 ADD SWAP1 PUSH2 0x409 SWAP2 SWAP1 PUSH2 0x337D JUMP JUMPDEST PUSH2 0x1B88 JUMP JUMPDEST PUSH1 0x40 MLOAD PUSH2 0x420 SWAP7 SWAP6 SWAP5 SWAP4 SWAP3 SWAP2 SWAP1 PUSH2 0x3538 JUMP JUMPDEST PUSH1 0x40 MLOAD DUP1 SWAP2 SUB SWAP1 RETURN JUMPDEST CALLVALUE DUP1 ISZERO PUSH2 0x435 JUMPI PUSH1 0x0 DUP1 REVERT JUMPDEST POP PUSH2 0x450 PUSH1 0x4 DUP1 CALLDATASIZE SUB DUP2 ADD SWAP1 PUSH2 0x44B SWAP2 SWAP1 PUSH2 0x35D1 JUMP JUMPDEST PUSH2 0x1BD1 JUMP JUMPDEST STOP JUMPDEST CALLVALUE DUP1 ISZERO PUSH2 0x45E JUMPI PUSH1 0x0 DUP1 REVERT JUMPDEST POP PUSH2 0x467 PUSH2 0x2099 JUMP JUMPDEST PUSH1 0x40 MLOAD PUSH2 0x474 SWAP2 SWAP1 PUSH2 0x3175 JUMP JUMPDEST PUSH1 0x40 MLOAD DUP1 SWAP2 SUB SWAP1 RETURN JUMPDEST CALLVALUE DUP1 ISZERO PUSH2 0x489 JUMPI PUSH1 0x0 DUP1 REVERT JUMPDEST POP PUSH2 0x492 PUSH2 0x209F JUMP JUMPDEST PUSH1 0x40 MLOAD PUSH2 0x49F SWAP2 SWAP1 PUSH2 0x3175 JUMP JUMPDEST PUSH1 0x40 MLOAD DUP1 SWAP2 SUB SWAP1 RETURN JUMPDEST CALLVALUE DUP1 ISZERO PUSH2 0x4B4 JUMPI PUSH1 0x0 DUP1 REVERT JUMPDEST POP PUSH2 0x4BD PUSH2 0x20CB JUMP JUMPDEST PUSH1 0x40 MLOAD PUSH2 0x4CA SWAP2 SWAP1 PUSH2 0x3624 JUMP JUMPDEST PUSH1 0x40 MLOAD DUP1 SWAP2 SUB SWAP1 RETURN JUMPDEST CALLVALUE DUP1 ISZERO PUSH2 0x4DF JUMPI PUSH1 0x0 DUP1 REVERT JUMPDEST POP PUSH2 0x4E8 PUSH2 0x20F1 JUMP JUMPDEST PUSH1 0x40 MLOAD PUSH2 0x4F5 SWAP2 SWAP1 PUSH2 0x3175 JUMP JUMPDEST PUSH1 0x40 MLOAD DUP1 SWAP2 SUB SWAP1 RETURN JUMPDEST CALLVALUE DUP1 ISZERO PUSH2 0x50A JUMPI PUSH1 0x0 DUP1 REVERT JUMPDEST POP PUSH2 0x525 PUSH1 0x4 DUP1 CALLDATASIZE SUB DUP2 ADD SWAP1 PUSH2 0x520 SWAP2 SWAP1 PUSH2 0x337D JUMP JUMPDEST PUSH2 0x20F7 JUMP JUMPDEST PUSH1 0x40 MLOAD PUSH2 0x532 SWAP2 SWAP1 PUSH2 0x3175 JUMP JUMPDEST PUSH1 0x40 MLOAD DUP1 SWAP2 SUB SWAP1 RETURN JUMPDEST CALLVALUE DUP1 ISZERO PUSH2 0x547 JUMPI PUSH1 0x0 DUP1 REVERT JUMPDEST POP PUSH2 0x550 PUSH2 0x210F JUMP JUMPDEST PUSH1 0x40 MLOAD PUSH2 0x55D SWAP2 SWAP1 PUSH2 0x3175 JUMP JUMPDEST PUSH1 0x40 MLOAD DUP1 SWAP2 SUB SWAP1 RETURN JUMPDEST CALLVALUE DUP1 ISZERO PUSH2 0x572 JUMPI PUSH1 0x0 DUP1 REVERT JUMPDEST POP PUSH2 0x58D PUSH1 0x4 DUP1 CALLDATASIZE SUB DUP2 ADD SWAP1 PUSH2 0x588 SWAP2 SWAP1 PUSH2 0x337D JUMP JUMPDEST PUSH2 0x2115 JUMP JUMPDEST PUSH1 0x40 MLOAD PUSH2 0x5A0 SWAP8 SWAP7 SWAP6 SWAP5 SWAP4 SWAP3 SWAP2 SWAP1 PUSH2 0x363F JUMP JUMPDEST PUSH1 0x40 MLOAD DUP1 SWAP2 SUB SWAP1 RETURN JUMPDEST CALLVALUE DUP1 ISZERO PUSH2 0x5B5 JUMPI PUSH1 0x0 DUP1 REVERT JUMPDEST POP PUSH2 0x5D0 PUSH1 0x4 DUP1 CALLDATASIZE SUB DUP2 ADD SWAP1 PUSH2 0x5CB SWAP2 SWAP1 PUSH2 0x337D JUMP JUMPDEST PUSH2 0x2177 JUMP JUMPDEST PUSH1 0x40 MLOAD PUSH2 0x5DD SWAP2 SWAP1 PUSH2 0x36BD JUMP JUMPDEST PUSH1 0x40 MLOAD DUP1 SWAP2 SUB SWAP1 RETURN JUMPDEST CALLVALUE DUP1 ISZERO PUSH2 0x5F2 JUMPI PUSH1 0x0 DUP1 REVERT JUMPDEST POP PUSH2 0x60D PUSH1 0x4 DUP1 CALLDATASIZE SUB DUP2 ADD SWAP1 PUSH2 0x608 SWAP2 SWAP1 PUSH2 0x337D JUMP JUMPDEST PUSH2 0x22CE JUMP JUMPDEST STOP JUMPDEST CALLVALUE DUP1 ISZERO PUSH2 0x61B JUMPI PUSH1 0x0 DUP1 REVERT JUMPDEST POP PUSH2 0x624 PUSH2 0x24C5 JUMP JUMPDEST PUSH1 0x40 MLOAD PUSH2 0x631 SWAP2 SWAP1 PUSH2 0x3624 JUMP JUMPDEST PUSH1 0x40 MLOAD DUP1 SWAP2 SUB SWAP1 RETURN JUMPDEST CALLVALUE DUP1 ISZERO PUSH2 0x646 JUMPI PUSH1 0x0 DUP1 REVERT JUMPDEST POP PUSH2 0x64F PUSH2 0x24EB JUMP JUMPDEST PUSH1 0x40 MLOAD PUSH2 0x65C SWAP2 SWAP1 PUSH2 0x3175 JUMP JUMPDEST PUSH1 0x40 MLOAD DUP1 SWAP2 SUB SWAP1 RETURN JUMPDEST CALLVALUE DUP1 ISZERO PUSH2 0x671 JUMPI PUSH1 0x0 DUP1 REVERT JUMPDEST POP PUSH2 0x67A PUSH2 0x24F1 JUMP JUMPDEST PUSH1 0x40 MLOAD PUSH2 0x687 SWAP2 SWAP1 PUSH2 0x3175 JUMP JUMPDEST PUSH1 0x40 MLOAD DUP1 SWAP2 SUB SWAP1 RETURN JUMPDEST CALLVALUE DUP1 ISZERO PUSH2 0x69C JUMPI PUSH1 0x0 DUP1 REVERT JUMPDEST POP PUSH2 0x6B7 PUSH1 0x4 DUP1 CALLDATASIZE SUB DUP2 ADD SWAP1 PUSH2 0x6B2 SWAP2 SWAP1 PUSH2 0x36D8 JUMP JUMPDEST PUSH2 0x24F7 JUMP JUMPDEST PUSH1 0x40 MLOAD PUSH2 0x6C4 SWAP2 SWAP1 PUSH2 0x3175 JUMP JUMPDEST PUSH1 0x40 MLOAD DUP1 SWAP2 SUB SWAP1 RETURN JUMPDEST PUSH1 0x3 SLOAD DUP2 JUMP JUMPDEST PUSH1 0x0 DUP1 PUSH1 0xA PUSH1 0x0 DUP7 PUSH20 0xFFFFFFFFFFFFFFFFFFFFFFFFFFFFFFFFFFFFFFFF AND PUSH20 0xFFFFFFFFFFFFFFFFFFFFFFFFFFFFFFFFFFFFFFFF AND DUP2 MSTORE PUSH1 0x20 ADD SWAP1 DUP2 MSTORE PUSH1 0x20 ADD PUSH1 0x0 KECCAK256 SLOAD SWAP1 POP PUSH1 0x64 DUP2 LT ISZERO PUSH2 0x72A JUMPI DUP4 SWAP2 POP POP PUSH2 0x7C7 JUMP JUMPDEST PUSH1 0x0 PUSH2 0x2710 SWAP1 POP PUSH1 0x0 PUSH1 0x1 SWAP1 POP PUSH1 0x0 PUSH4 0x5265C00 SWAP1 POP PUSH1 0x0 DUP5 DUP6 PUSH1 0x3 PUSH2 0x750 SWAP2 SWAP1 PUSH2 0x3747 JUMP JUMPDEST PUSH2 0xFA0 PUSH2 0x75D SWAP2 SWAP1 PUSH2 0x3789 JUMP JUMPDEST PUSH1 0x64 PUSH2 0x769 SWAP2 SWAP1 PUSH2 0x3747 JUMP JUMPDEST PUSH2 0x773 SWAP2 SWAP1 PUSH2 0x37EC JUMP JUMPDEST SWAP1 POP PUSH1 0x0 DUP3 DUP5 DUP10 PUSH2 0x784 SWAP2 SWAP1 PUSH2 0x3747 JUMP JUMPDEST PUSH2 0x78E SWAP2 SWAP1 PUSH2 0x37EC JUMP JUMPDEST SWAP1 POP PUSH1 0x0 DUP2 DUP4 PUSH2 0x79E SWAP2 SWAP1 PUSH2 0x381D JUMP JUMPDEST SWAP1 POP PUSH1 0x0 DUP7 DUP3 DUP13 PUSH2 0x7AF SWAP2 SWAP1 PUSH2 0x3747 JUMP JUMPDEST PUSH2 0x7B9 SWAP2 SWAP1 PUSH2 0x37EC JUMP JUMPDEST SWAP1 POP DUP1 SWAP9 POP POP POP POP POP POP POP POP POP JUMPDEST SWAP4 SWAP3 POP POP POP JUMP JUMPDEST PUSH1 0xE PUSH1 0x20 MSTORE DUP2 PUSH1 0x0 MSTORE PUSH1 0x40 PUSH1 0x0 KECCAK256 PUSH1 0x20 MSTORE DUP1 PUSH1 0x0 MSTORE PUSH1 0x40 PUSH1 0x0 KECCAK256 PUSH1 0x0 SWAP2 POP SWAP2 POP POP DUP1 PUSH1 0x0 ADD PUSH1 0x0 SWAP1 SLOAD SWAP1 PUSH2 0x100 EXP SWAP1 DIV PUSH20 0xFFFFFFFFFFFFFFFFFFFFFFFFFFFFFFFFFFFFFFFF AND SWAP1 DUP1 PUSH1 0x1 ADD SLOAD SWAP1 DUP1 PUSH1 0x2 ADD SLOAD SWAP1 DUP1 PUSH1 0x3 ADD PUSH1 0x0 SWAP1 SLOAD SWAP1 PUSH2 0x100 EXP SWAP1 DIV PUSH1 0xFF AND SWAP1 POP DUP5 JUMP JUMPDEST PUSH1 0x0 CALLER SWAP1 POP PUSH1 0x0 PUSH1 0xB PUSH1 0x0 DUP5 DUP2 MSTORE PUSH1 0x20 ADD SWAP1 DUP2 MSTORE PUSH1 0x20 ADD PUSH1 0x0 KECCAK256 SWAP1 POP PUSH1 0x0 PUSH1 0xC PUSH1 0x0 DUP6 DUP2 MSTORE PUSH1 0x20 ADD SWAP1 DUP2 MSTORE PUSH1 0x20 ADD PUSH1 0x0 KECCAK256 SWAP1 POP PUSH1 0x0 TIMESTAMP SWAP1 POP PUSH1 0x0 PUSH1 0x9 SLOAD PUSH1 0x8 SLOAD DUP6 PUSH1 0x6 ADD SLOAD PUSH2 0x887 SWAP2 SWAP1 PUSH2 0x381D JUMP JUMPDEST PUSH2 0x891 SWAP2 SWAP1 PUSH2 0x381D JUMP JUMPDEST SWAP1 POP DUP1 DUP3 GT DUP1 PUSH2 0x8F0 JUMPI POP DUP4 PUSH1 0x0 ADD PUSH1 0x0 SWAP1 SLOAD SWAP1 PUSH2 0x100 EXP SWAP1 DIV PUSH20 0xFFFFFFFFFFFFFFFFFFFFFFFFFFFFFFFFFFFFFFFF AND PUSH20 0xFFFFFFFFFFFFFFFFFFFFFFFFFFFFFFFFFFFFFFFF AND DUP6 PUSH20 0xFFFFFFFFFFFFFFFFFFFFFFFFFFFFFFFFFFFFFFFF AND EQ JUMPDEST PUSH2 0x92F JUMPI PUSH1 0x40 MLOAD PUSH32 0x8C379A000000000000000000000000000000000000000000000000000000000 DUP2 MSTORE PUSH1 0x4 ADD PUSH2 0x926 SWAP1 PUSH2 0x38AE JUMP JUMPDEST PUSH1 0x40 MLOAD DUP1 SWAP2 SUB SWAP1 REVERT JUMPDEST PUSH1 0x0 PUSH1 0x3 DUP2 GT ISZERO PUSH2 0x943 JUMPI PUSH2 0x942 PUSH2 0x32C1 JUMP JUMPDEST JUMPDEST DUP4 PUSH1 0x5 ADD PUSH1 0x0 SWAP1 SLOAD SWAP1 PUSH2 0x100 EXP SWAP1 DIV PUSH1 0xFF AND PUSH1 0x3 DUP2 GT ISZERO PUSH2 0x967 JUMPI PUSH2 0x966 PUSH2 0x32C1 JUMP JUMPDEST JUMPDEST EQ PUSH2 0x9A7 JUMPI PUSH1 0x40 MLOAD PUSH32 0x8C379A000000000000000000000000000000000000000000000000000000000 DUP2 MSTORE PUSH1 0x4 ADD PUSH2 0x99E SWAP1 PUSH2 0x391A JUMP JUMPDEST PUSH1 0x40 MLOAD DUP1 SWAP2 SUB SWAP1 REVERT JUMPDEST PUSH1 0x0 PUSH2 0x9B1 PUSH2 0x209F JUMP JUMPDEST SWAP1 POP PUSH1 0x0 DUP2 DUP7 PUSH1 0x4 ADD SLOAD PUSH2 0x9C5 SWAP2 SWAP1 PUSH2 0x3789 JUMP JUMPDEST SWAP1 POP PUSH1 0x0 DUP2 GT DUP1 ISZERO PUSH2 0xA2D JUMPI POP DUP6 PUSH1 0x0 ADD PUSH1 0x0 SWAP1 SLOAD SWAP1 PUSH2 0x100 EXP SWAP1 DIV PUSH20 0xFFFFFFFFFFFFFFFFFFFFFFFFFFFFFFFFFFFFFFFF AND PUSH20 0xFFFFFFFFFFFFFFFFFFFFFFFFFFFFFFFFFFFFFFFF AND PUSH2 0x8FC DUP3 SWAP1 DUP2 ISZERO MUL SWAP1 PUSH1 0x40 MLOAD PUSH1 0x0 PUSH1 0x40 MLOAD DUP1 DUP4 SUB DUP2 DUP6 DUP9 DUP9 CALL SWAP4 POP POP POP POP ISZERO JUMPDEST ISZERO PUSH2 0xA6D JUMPI PUSH1 0x40 MLOAD PUSH32 0x8C379A000000000000000000000000000000000000000000000000000000000 DUP2 MSTORE PUSH1 0x4 ADD PUSH2 0xA64 SWAP1 PUSH2 0x3986 JUMP JUMPDEST PUSH1 0x40 MLOAD DUP1 SWAP2 SUB SWAP1 REVERT JUMPDEST PUSH2 0xA76 DUP9 PUSH2 0x251C JUMP JUMPDEST PUSH2 0xA7E PUSH2 0x260A JUMP JUMPDEST PUSH1 0x3 DUP6 PUSH1 0x5 ADD PUSH1 0x0 PUSH2 0x100 EXP DUP2 SLOAD DUP2 PUSH1 0xFF MUL NOT AND SWAP1 DUP4 PUSH1 0x3 DUP2 GT ISZERO PUSH2 0xAA6 JUMPI PUSH2 0xAA5 PUSH2 0x32C1 JUMP JUMPDEST JUMPDEST MUL OR SWAP1 SSTORE POP DUP5 PUSH1 0xC PUSH1 0x0 DUP11 DUP2 MSTORE PUSH1 0x20 ADD SWAP1 DUP2 MSTORE PUSH1 0x20 ADD PUSH1 0x0 KECCAK256 PUSH1 0x0 DUP3 ADD SLOAD DUP2 PUSH1 0x0 ADD SSTORE PUSH1 0x1 DUP3 ADD SLOAD DUP2 PUSH1 0x1 ADD SSTORE PUSH1 0x2 DUP3 ADD SLOAD DUP2 PUSH1 0x2 ADD SSTORE PUSH1 0x3 DUP3 ADD SLOAD DUP2 PUSH1 0x3 ADD SSTORE PUSH1 0x4 DUP3 ADD SLOAD DUP2 PUSH1 0x4 ADD SSTORE PUSH1 0x5 DUP3 ADD PUSH1 0x0 SWAP1 SLOAD SWAP1 PUSH2 0x100 EXP SWAP1 DIV PUSH1 0xFF AND DUP2 PUSH1 0x5 ADD PUSH1 0x0 PUSH2 0x100 EXP DUP2 SLOAD DUP2 PUSH1 0xFF MUL NOT AND SWAP1 DUP4 PUSH1 0x3 DUP2 GT ISZERO PUSH2 0xB29 JUMPI PUSH2 0xB28 PUSH2 0x32C1 JUMP JUMPDEST JUMPDEST MUL OR SWAP1 SSTORE POP SWAP1 POP POP POP POP POP POP POP POP POP POP JUMP JUMPDEST PUSH1 0x60 CALLER PUSH20 0xFFFFFFFFFFFFFFFFFFFFFFFFFFFFFFFFFFFFFFFF AND DUP3 PUSH20 0xFFFFFFFFFFFFFFFFFFFFFFFFFFFFFFFFFFFFFFFF AND EQ PUSH2 0xB75 JUMPI PUSH1 0x0 DUP1 REVERT JUMPDEST PUSH1 0x40 MLOAD DUP1 PUSH1 0x40 ADD PUSH1 0x40 MSTORE DUP1 PUSH1 0x1 DUP2 MSTORE PUSH1 0x20 ADD PUSH1 0x0 DUP2 MSTORE POP SWAP1 POP SWAP2 SWAP1 POP JUMP JUMPDEST PUSH1 0x7 SLOAD DUP2 JUMP JUMPDEST PUSH1 0x0 DUP1 CALLER SWAP1 POP PUSH1 0x0 PUSH1 0xB PUSH1 0x0 DUP6 DUP2 MSTORE PUSH1 0x20 ADD SWAP1 DUP2 MSTORE PUSH1 0x20 ADD PUSH1 0x0 KECCAK256 PUSH1 0x40 MLOAD DUP1 PUSH1 0xE0 ADD PUSH1 0x40 MSTORE SWAP1 DUP2 PUSH1 0x0 DUP3 ADD PUSH1 0x0 SWAP1 SLOAD SWAP1 PUSH2 0x100 EXP SWAP1 DIV PUSH20 0xFFFFFFFFFFFFFFFFFFFFFFFFFFFFFFFFFFFFFFFF AND PUSH20 0xFFFFFFFFFFFFFFFFFFFFFFFFFFFFFFFFFFFFFFFF AND PUSH20 0xFFFFFFFFFFFFFFFFFFFFFFFFFFFFFFFFFFFFFFFF AND DUP2 MSTORE PUSH1 0x20 ADD PUSH1 0x1 DUP3 ADD SLOAD DUP2 MSTORE PUSH1 0x20 ADD PUSH1 0x2 DUP3 ADD SLOAD DUP2 MSTORE PUSH1 0x20 ADD PUSH1 0x3 DUP3 ADD SLOAD DUP2 MSTORE PUSH1 0x20 ADD PUSH1 0x4 DUP3 ADD SLOAD DUP2 MSTORE PUSH1 0x20 ADD PUSH1 0x5 DUP3 ADD SLOAD DUP2 MSTORE PUSH1 0x20 ADD PUSH1 0x6 DUP3 ADD SLOAD DUP2 MSTORE POP POP SWAP1 POP PUSH1 0x0 PUSH1 0xC PUSH1 0x0 DUP7 DUP2 MSTORE PUSH1 0x20 ADD SWAP1 DUP2 MSTORE PUSH1 0x20 ADD PUSH1 0x0 KECCAK256 PUSH1 0x40 MLOAD DUP1 PUSH1 0xC0 ADD PUSH1 0x40 MSTORE SWAP1 DUP2 PUSH1 0x0 DUP3 ADD SLOAD DUP2 MSTORE PUSH1 0x20 ADD PUSH1 0x1 DUP3 ADD SLOAD DUP2 MSTORE PUSH1 0x20 ADD PUSH1 0x2 DUP3 ADD SLOAD DUP2 MSTORE PUSH1 0x20 ADD PUSH1 0x3 DUP3 ADD SLOAD DUP2 MSTORE PUSH1 0x20 ADD PUSH1 0x4 DUP3 ADD SLOAD DUP2 MSTORE PUSH1 0x20 ADD PUSH1 0x5 DUP3 ADD PUSH1 0x0 SWAP1 SLOAD SWAP1 PUSH2 0x100 EXP SWAP1 DIV PUSH1 0xFF AND PUSH1 0x3 DUP2 GT ISZERO PUSH2 0xCCA JUMPI PUSH2 0xCC9 PUSH2 0x32C1 JUMP JUMPDEST JUMPDEST PUSH1 0x3 DUP2 GT ISZERO PUSH2 0xCDC JUMPI PUSH2 0xCDB PUSH2 0x32C1 JUMP JUMPDEST JUMPDEST DUP2 MSTORE POP POP SWAP1 POP PUSH2 0xCEC DUP3 DUP3 PUSH2 0x260C JUMP JUMPDEST PUSH2 0xD2B JUMPI PUSH1 0x40 MLOAD PUSH32 0x8C379A000000000000000000000000000000000000000000000000000000000 DUP2 MSTORE PUSH1 0x4 ADD PUSH2 0xD22 SWAP1 PUSH2 0x39F2 JUMP JUMPDEST PUSH1 0x40 MLOAD DUP1 SWAP2 SUB SWAP1 REVERT JUMPDEST PUSH1 0xF PUSH1 0x0 DUP7 DUP2 MSTORE PUSH1 0x20 ADD SWAP1 DUP2 MSTORE PUSH1 0x20 ADD PUSH1 0x0 KECCAK256 PUSH1 0x0 DUP5 PUSH20 0xFFFFFFFFFFFFFFFFFFFFFFFFFFFFFFFFFFFFFFFF AND PUSH20 0xFFFFFFFFFFFFFFFFFFFFFFFFFFFFFFFFFFFFFFFF AND DUP2 MSTORE PUSH1 0x20 ADD SWAP1 DUP2 MSTORE PUSH1 0x20 ADD PUSH1 0x0 KECCAK256 SLOAD PUSH1 0x2 DUP2 SWAP1 SSTORE POP PUSH1 0x0 PUSH1 0xE PUSH1 0x0 DUP8 DUP2 MSTORE PUSH1 0x20 ADD SWAP1 DUP2 MSTORE PUSH1 0x20 ADD PUSH1 0x0 KECCAK256 PUSH1 0x0 PUSH1 0x2 SLOAD DUP2 MSTORE PUSH1 0x20 ADD SWAP1 DUP2 MSTORE PUSH1 0x20 ADD PUSH1 0x0 KECCAK256 PUSH1 0x40 MLOAD DUP1 PUSH1 0x80 ADD PUSH1 0x40 MSTORE SWAP1 DUP2 PUSH1 0x0 DUP3 ADD PUSH1 0x0 SWAP1 SLOAD SWAP1 PUSH2 0x100 EXP SWAP1 DIV PUSH20 0xFFFFFFFFFFFFFFFFFFFFFFFFFFFFFFFFFFFFFFFF AND PUSH20 0xFFFFFFFFFFFFFFFFFFFFFFFFFFFFFFFFFFFFFFFF AND PUSH20 0xFFFFFFFFFFFFFFFFFFFFFFFFFFFFFFFFFFFFFFFF AND DUP2 MSTORE PUSH1 0x20 ADD PUSH1 0x1 DUP3 ADD SLOAD DUP2 MSTORE PUSH1 0x20 ADD PUSH1 0x2 DUP3 ADD SLOAD DUP2 MSTORE PUSH1 0x20 ADD PUSH1 0x3 DUP3 ADD PUSH1 0x0 SWAP1 SLOAD SWAP1 PUSH2 0x100 EXP SWAP1 DIV PUSH1 0xFF AND PUSH1 0x3 DUP2 GT ISZERO PUSH2 0xE44 JUMPI PUSH2 0xE43 PUSH2 0x32C1 JUMP JUMPDEST JUMPDEST PUSH1 0x3 DUP2 GT ISZERO PUSH2 0xE56 JUMPI PUSH2 0xE55 PUSH2 0x32C1 JUMP JUMPDEST JUMPDEST DUP2 MSTORE POP POP SWAP1 POP PUSH1 0x0 PUSH1 0x3 DUP2 GT ISZERO PUSH2 0xE70 JUMPI PUSH2 0xE6F PUSH2 0x32C1 JUMP JUMPDEST JUMPDEST DUP2 PUSH1 0x60 ADD MLOAD PUSH1 0x3 DUP2 GT ISZERO PUSH2 0xE87 JUMPI PUSH2 0xE86 PUSH2 0x32C1 JUMP JUMPDEST JUMPDEST EQ PUSH2 0xEC7 JUMPI PUSH1 0x40 MLOAD PUSH32 0x8C379A000000000000000000000000000000000000000000000000000000000 DUP2 MSTORE PUSH1 0x4 ADD PUSH2 0xEBE SWAP1 PUSH2 0x3A84 JUMP JUMPDEST PUSH1 0x40 MLOAD DUP1 SWAP2 SUB SWAP1 REVERT JUMPDEST DUP4 PUSH20 0xFFFFFFFFFFFFFFFFFFFFFFFFFFFFFFFFFFFFFFFF AND PUSH2 0x8FC DUP3 PUSH1 0x20 ADD MLOAD SWAP1 DUP2 ISZERO MUL SWAP1 PUSH1 0x40 MLOAD PUSH1 0x0 PUSH1 0x40 MLOAD DUP1 DUP4 SUB DUP2 DUP6 DUP9 DUP9 CALL SWAP4 POP POP POP POP PUSH2 0xF3F JUMPI PUSH1 0x40 MLOAD PUSH32 0x8C379A000000000000000000000000000000000000000000000000000000000 DUP2 MSTORE PUSH1 0x4 ADD PUSH2 0xF36 SWAP1 PUSH2 0x3AF0 JUMP JUMPDEST PUSH1 0x40 MLOAD DUP1 SWAP2 SUB SWAP1 REVERT JUMPDEST PUSH1 0x3 DUP2 PUSH1 0x60 ADD SWAP1 PUSH1 0x3 DUP2 GT ISZERO PUSH2 0xF58 JUMPI PUSH2 0xF57 PUSH2 0x32C1 JUMP JUMPDEST JUMPDEST SWAP1 DUP2 PUSH1 0x3 DUP2 GT ISZERO PUSH2 0xF6C JUMPI PUSH2 0xF6B PUSH2 0x32C1 JUMP JUMPDEST JUMPDEST DUP2 MSTORE POP POP DUP1 PUSH1 0xE PUSH1 0x0 DUP9 DUP2 MSTORE PUSH1 0x20 ADD SWAP1 DUP2 MSTORE PUSH1 0x20 ADD PUSH1 0x0 KECCAK256 PUSH1 0x0 PUSH1 0x2 SLOAD DUP2 MSTORE PUSH1 0x20 ADD SWAP1 DUP2 MSTORE PUSH1 0x20 ADD PUSH1 0x0 KECCAK256 PUSH1 0x0 DUP3 ADD MLOAD DUP2 PUSH1 0x0 ADD PUSH1 0x0 PUSH2 0x100 EXP DUP2 SLOAD DUP2 PUSH20 0xFFFFFFFFFFFFFFFFFFFFFFFFFFFFFFFFFFFFFFFF MUL NOT AND SWAP1 DUP4 PUSH20 0xFFFFFFFFFFFFFFFFFFFFFFFFFFFFFFFFFFFFFFFF AND MUL OR SWAP1 SSTORE POP PUSH1 0x20 DUP3 ADD MLOAD DUP2 PUSH1 0x1 ADD SSTORE PUSH1 0x40 DUP3 ADD MLOAD DUP2 PUSH1 0x2 ADD SSTORE PUSH1 0x60 DUP3 ADD MLOAD DUP2 PUSH1 0x3 ADD PUSH1 0x0 PUSH2 0x100 EXP DUP2 SLOAD DUP2 PUSH1 0xFF MUL NOT AND SWAP1 DUP4 PUSH1 0x3 DUP2 GT ISZERO PUSH2 0x101D JUMPI PUSH2 0x101C PUSH2 0x32C1 JUMP JUMPDEST JUMPDEST MUL OR SWAP1 SSTORE POP SWAP1 POP POP PUSH1 0xF PUSH1 0x0 DUP8 DUP2 MSTORE PUSH1 0x20 ADD SWAP1 DUP2 MSTORE PUSH1 0x20 ADD PUSH1 0x0 KECCAK256 PUSH1 0x0 DUP6 PUSH20 0xFFFFFFFFFFFFFFFFFFFFFFFFFFFFFFFFFFFFFFFF AND PUSH20 0xFFFFFFFFFFFFFFFFFFFFFFFFFFFFFFFFFFFFFFFF AND DUP2 MSTORE PUSH1 0x20 ADD SWAP1 DUP2 MSTORE PUSH1 0x20 ADD PUSH1 0x0 KECCAK256 PUSH1 0x0 SWAP1 SSTORE PUSH1 0x2 SLOAD SWAP5 POP POP POP POP POP SWAP2 SWAP1 POP JUMP JUMPDEST PUSH1 0x0 DUP1 CALLER SWAP1 POP PUSH1 0x0 DUP5 GT PUSH2 0x10D0 JUMPI PUSH1 0x40 MLOAD PUSH32 0x8C379A000000000000000000000000000000000000000000000000000000000 DUP2 MSTORE PUSH1 0x4 ADD PUSH2 0x10C7 SWAP1 PUSH2 0x3B5C JUMP JUMPDEST PUSH1 0x40 MLOAD DUP1 SWAP2 SUB SWAP1 REVERT JUMPDEST PUSH1 0x0 PUSH2 0x10DD DUP3 DUP7 DUP7 PUSH2 0x6D3 JUMP JUMPDEST SWAP1 POP DUP1 CALLVALUE LT ISZERO PUSH2 0x1122 JUMPI PUSH1 0x40 MLOAD PUSH32 0x8C379A000000000000000000000000000000000000000000000000000000000 DUP2 MSTORE PUSH1 0x4 ADD PUSH2 0x1119 SWAP1 PUSH2 0x3BC8 JUMP JUMPDEST PUSH1 0x40 MLOAD DUP1 SWAP2 SUB SWAP1 REVERT JUMPDEST PUSH1 0x0 PUSH1 0x40 MLOAD DUP1 PUSH1 0xE0 ADD PUSH1 0x40 MSTORE DUP1 DUP5 PUSH20 0xFFFFFFFFFFFFFFFFFFFFFFFFFFFFFFFFFFFFFFFF AND DUP2 MSTORE PUSH1 0x20 ADD DUP10 DUP2 MSTORE PUSH1 0x20 ADD DUP9 DUP2 MSTORE PUSH1 0x20 ADD DUP8 DUP2 MSTORE PUSH1 0x20 ADD CALLVALUE DUP2 MSTORE PUSH1 0x20 ADD DUP7 DUP2 MSTORE PUSH1 0x20 ADD TIMESTAMP DUP2 MSTORE POP SWAP1 POP PUSH1 0x0 PUSH1 0x40 MLOAD DUP1 PUSH1 0xC0 ADD PUSH1 0x40 MSTORE DUP1 PUSH1 0x0 DUP2 MSTORE PUSH1 0x20 ADD PUSH1 0x0 DUP2 MSTORE PUSH1 0x20 ADD DUP9 DUP2 MSTORE PUSH1 0x20 ADD PUSH1 0x0 DUP2 MSTORE PUSH1 0x20 ADD PUSH1 0x0 DUP2 MSTORE PUSH1 0x20 ADD PUSH1 0x0 PUSH1 0x3 DUP2 GT ISZERO PUSH2 0x11B2 JUMPI PUSH2 0x11B1 PUSH2 0x32C1 JUMP JUMPDEST JUMPDEST DUP2 MSTORE POP SWAP1 POP PUSH1 0x7 PUSH1 0x0 DUP2 SLOAD DUP1 SWAP3 SWAP2 SWAP1 PUSH2 0x11CA SWAP1 PUSH2 0x3BE8 JUMP JUMPDEST SWAP2 SWAP1 POP SSTORE POP DUP2 PUSH1 0xB PUSH1 0x0 PUSH1 0x7 SLOAD DUP2 MSTORE PUSH1 0x20 ADD SWAP1 DUP2 MSTORE PUSH1 0x20 ADD PUSH1 0x0 KECCAK256 PUSH1 0x0 DUP3 ADD MLOAD DUP2 PUSH1 0x0 ADD PUSH1 0x0 PUSH2 0x100 EXP DUP2 SLOAD DUP2 PUSH20 0xFFFFFFFFFFFFFFFFFFFFFFFFFFFFFFFFFFFFFFFF MUL NOT AND SWAP1 DUP4 PUSH20 0xFFFFFFFFFFFFFFFFFFFFFFFFFFFFFFFFFFFFFFFF AND MUL OR SWAP1 SSTORE POP PUSH1 0x20 DUP3 ADD MLOAD DUP2 PUSH1 0x1 ADD SSTORE PUSH1 0x40 DUP3 ADD MLOAD DUP2 PUSH1 0x2 ADD SSTORE PUSH1 0x60 DUP3 ADD MLOAD DUP2 PUSH1 0x3 ADD SSTORE PUSH1 0x80 DUP3 ADD MLOAD DUP2 PUSH1 0x4 ADD SSTORE PUSH1 0xA0 DUP3 ADD MLOAD DUP2 PUSH1 0x5 ADD SSTORE PUSH1 0xC0 DUP3 ADD MLOAD DUP2 PUSH1 0x6 ADD SSTORE SWAP1 POP POP DUP1 PUSH1 0xC PUSH1 0x0 PUSH1 0x7 SLOAD DUP2 MSTORE PUSH1 0x20 ADD SWAP1 DUP2 MSTORE PUSH1 0x20 ADD PUSH1 0x0 KECCAK256 PUSH1 0x0 DUP3 ADD MLOAD DUP2 PUSH1 0x0 ADD SSTORE PUSH1 0x20 DUP3 ADD MLOAD DUP2 PUSH1 0x1 ADD SSTORE PUSH1 0x40 DUP3 ADD MLOAD DUP2 PUSH1 0x2 ADD SSTORE PUSH1 0x60 DUP3 ADD MLOAD DUP2 PUSH1 0x3 ADD SSTORE PUSH1 0x80 DUP3 ADD MLOAD DUP2 PUSH1 0x4 ADD SSTORE PUSH1 0xA0 DUP3 ADD MLOAD DUP2 PUSH1 0x5 ADD PUSH1 0x0 PUSH2 0x100 EXP DUP2 SLOAD DUP2 PUSH1 0xFF MUL NOT AND SWAP1 DUP4 PUSH1 0x3 DUP2 GT ISZERO PUSH2 0x12DE JUMPI PUSH2 0x12DD PUSH2 0x32C1 JUMP JUMPDEST JUMPDEST MUL OR SWAP1 SSTORE POP SWAP1 POP POP DUP4 PUSH20 0xFFFFFFFFFFFFFFFFFFFFFFFFFFFFFFFFFFFFFFFF AND PUSH1 0x7 SLOAD PUSH32 0xDE07EBE06C2610C0407853FAE114C6D634A0D873B6FB8F8B5652ED1410AA1F75 PUSH1 0x40 MLOAD PUSH1 0x40 MLOAD DUP1 SWAP2 SUB SWAP1 LOG3 PUSH1 0x7 SLOAD SWAP5 POP POP POP POP POP SWAP5 SWAP4 POP POP POP POP JUMP JUMPDEST PUSH1 0x9 SLOAD DUP2 JUMP JUMPDEST PUSH1 0x0 PUSH1 0xB PUSH1 0x0 DUP4 DUP2 MSTORE PUSH1 0x20 ADD SWAP1 DUP2 MSTORE PUSH1 0x20 ADD PUSH1 0x0 KECCAK256 SWAP1 POP PUSH1 0x0 PUSH1 0xC PUSH1 0x0 DUP5 DUP2 MSTORE PUSH1 0x20 ADD SWAP1 DUP2 MSTORE PUSH1 0x20 ADD PUSH1 0x0 KECCAK256 SWAP1 POP PUSH1 0x1 PUSH1 0x3 DUP2 GT ISZERO PUSH2 0x1385 JUMPI PUSH2 0x1384 PUSH2 0x32C1 JUMP JUMPDEST JUMPDEST DUP2 PUSH1 0x5 ADD PUSH1 0x0 SWAP1 SLOAD SWAP1 PUSH2 0x100 EXP SWAP1 DIV PUSH1 0xFF AND PUSH1 0x3 DUP2 GT ISZERO PUSH2 0x13A9 JUMPI PUSH2 0x13A8 PUSH2 0x32C1 JUMP JUMPDEST JUMPDEST EQ PUSH2 0x13E9 JUMPI PUSH1 0x40 MLOAD PUSH32 0x8C379A000000000000000000000000000000000000000000000000000000000 DUP2 MSTORE PUSH1 0x4 ADD PUSH2 0x13E0 SWAP1 PUSH2 0x3C7C JUMP JUMPDEST PUSH1 0x40 MLOAD DUP1 SWAP2 SUB SWAP1 REVERT JUMPDEST PUSH1 0x0 TIMESTAMP SWAP1 POP PUSH1 0x0 DUP4 PUSH1 0x5 ADD SLOAD DUP4 PUSH1 0x0 ADD SLOAD PUSH2 0x1404 SWAP2 SWAP1 PUSH2 0x381D JUMP JUMPDEST SWAP1 POP DUP1 DUP3 GT ISZERO PUSH2 0x1449 JUMPI PUSH1 0x40 MLOAD PUSH32 0x8C379A000000000000000000000000000000000000000000000000000000000 DUP2 MSTORE PUSH1 0x4 ADD PUSH2 0x1440 SWAP1 PUSH2 0x3CE8 JUMP JUMPDEST PUSH1 0x40 MLOAD DUP1 SWAP2 SUB SWAP1 REVERT JUMPDEST CALLVALUE DUP4 PUSH1 0x4 ADD PUSH1 0x0 DUP3 DUP3 SLOAD PUSH2 0x145D SWAP2 SWAP1 PUSH2 0x381D JUMP JUMPDEST SWAP3 POP POP DUP2 SWAP1 SSTORE POP DUP3 PUSH1 0x3 ADD SLOAD DUP4 PUSH1 0x1 ADD SLOAD PUSH2 0x1478 SWAP2 SWAP1 PUSH2 0x381D JUMP JUMPDEST DUP4 PUSH1 0x4 ADD SLOAD LT PUSH2 0x14E8 JUMPI PUSH2 0x148D DUP6 DUP6 DUP6 PUSH2 0x26DC JUMP JUMPDEST PUSH2 0x14BA DUP5 PUSH1 0x0 ADD PUSH1 0x0 SWAP1 SLOAD SWAP1 PUSH2 0x100 EXP SWAP1 DIV PUSH20 0xFFFFFFFFFFFFFFFFFFFFFFFFFFFFFFFFFFFFFFFF AND PUSH2 0x2A78 JUMP JUMPDEST PUSH1 0x2 DUP4 PUSH1 0x5 ADD PUSH1 0x0 PUSH2 0x100 EXP DUP2 SLOAD DUP2 PUSH1 0xFF MUL NOT AND SWAP1 DUP4 PUSH1 0x3 DUP2 GT ISZERO PUSH2 0x14E2 JUMPI PUSH2 0x14E1 PUSH2 0x32C1 JUMP JUMPDEST JUMPDEST MUL OR SWAP1 SSTORE POP JUMPDEST DUP3 PUSH1 0xC PUSH1 0x0 DUP8 DUP2 MSTORE PUSH1 0x20 ADD SWAP1 DUP2 MSTORE PUSH1 0x20 ADD PUSH1 0x0 KECCAK256 PUSH1 0x0 DUP3 ADD SLOAD DUP2 PUSH1 0x0 ADD SSTORE PUSH1 0x1 DUP3 ADD SLOAD DUP2 PUSH1 0x1 ADD SSTORE PUSH1 0x2 DUP3 ADD SLOAD DUP2 PUSH1 0x2 ADD SSTORE PUSH1 0x3 DUP3 ADD SLOAD DUP2 PUSH1 0x3 ADD SSTORE PUSH1 0x4 DUP3 ADD SLOAD DUP2 PUSH1 0x4 ADD SSTORE PUSH1 0x5 DUP3 ADD PUSH1 0x0 SWAP1 SLOAD SWAP1 PUSH2 0x100 EXP SWAP1 DIV PUSH1 0xFF AND DUP2 PUSH1 0x5 ADD PUSH1 0x0 PUSH2 0x100 EXP DUP2 SLOAD DUP2 PUSH1 0xFF MUL NOT AND SWAP1 DUP4 PUSH1 0x3 DUP2 GT ISZERO PUSH2 0x1566 JUMPI PUSH2 0x1565 PUSH2 0x32C1 JUMP JUMPDEST JUMPDEST MUL OR SWAP1 SSTORE POP SWAP1 POP POP POP POP POP POP POP JUMP JUMPDEST PUSH1 0x0 CALLER SWAP1 POP PUSH1 0x0 PUSH1 0xB PUSH1 0x0 DUP5 DUP2 MSTORE PUSH1 0x20 ADD SWAP1 DUP2 MSTORE PUSH1 0x20 ADD PUSH1 0x0 KECCAK256 SWAP1 POP PUSH1 0x0 PUSH1 0xC PUSH1 0x0 DUP6 DUP2 MSTORE PUSH1 0x20 ADD SWAP1 DUP2 MSTORE PUSH1 0x20 ADD PUSH1 0x0 KECCAK256 SWAP1 POP DUP2 PUSH1 0x0 ADD PUSH1 0x0 SWAP1 SLOAD SWAP1 PUSH2 0x100 EXP SWAP1 DIV PUSH20 0xFFFFFFFFFFFFFFFFFFFFFFFFFFFFFFFFFFFFFFFF AND PUSH20 0xFFFFFFFFFFFFFFFFFFFFFFFFFFFFFFFFFFFFFFFF AND DUP4 PUSH20 0xFFFFFFFFFFFFFFFFFFFFFFFFFFFFFFFFFFFFFFFF AND EQ PUSH2 0x163A JUMPI PUSH1 0x40 MLOAD PUSH32 0x8C379A000000000000000000000000000000000000000000000000000000000 DUP2 MSTORE PUSH1 0x4 ADD PUSH2 0x1631 SWAP1 PUSH2 0x38AE JUMP JUMPDEST PUSH1 0x40 MLOAD DUP1 SWAP2 SUB SWAP1 REVERT JUMPDEST PUSH1 0x0 PUSH1 0x3 DUP2 GT ISZERO PUSH2 0x164E JUMPI PUSH2 0x164D PUSH2 0x32C1 JUMP JUMPDEST JUMPDEST DUP2 PUSH1 0x5 ADD PUSH1 0x0 SWAP1 SLOAD SWAP1 PUSH2 0x100 EXP SWAP1 DIV PUSH1 0xFF AND PUSH1 0x3 DUP2 GT ISZERO PUSH2 0x1672 JUMPI PUSH2 0x1671 PUSH2 0x32C1 JUMP JUMPDEST JUMPDEST EQ PUSH2 0x16B2 JUMPI PUSH1 0x40 MLOAD PUSH32 0x8C379A000000000000000000000000000000000000000000000000000000000 DUP2 MSTORE PUSH1 0x4 ADD PUSH2 0x16A9 SWAP1 PUSH2 0x391A JUMP JUMPDEST PUSH1 0x40 MLOAD DUP1 SWAP2 SUB SWAP1 REVERT JUMPDEST PUSH1 0x0 DUP2 PUSH1 0x1 ADD SLOAD GT PUSH2 0x16F9 JUMPI PUSH1 0x40 MLOAD PUSH32 0x8C379A000000000000000000000000000000000000000000000000000000000 DUP2 MSTORE PUSH1 0x4 ADD PUSH2 0x16F0 SWAP1 PUSH2 0x3B5C JUMP JUMPDEST PUSH1 0x40 MLOAD DUP1 SWAP2 SUB SWAP1 REVERT JUMPDEST PUSH1 0x0 TIMESTAMP SWAP1 POP PUSH1 0x0 PUSH1 0x9 SLOAD PUSH1 0x8 SLOAD DUP6 PUSH1 0x6 ADD SLOAD PUSH2 0x1715 SWAP2 SWAP1 PUSH2 0x381D JUMP JUMPDEST PUSH2 0x171F SWAP2 SWAP1 PUSH2 0x381D JUMP JUMPDEST SWAP1 POP DUP1 DUP3 GT ISZERO PUSH2 0x1764 JUMPI PUSH1 0x40 MLOAD PUSH32 0x8C379A000000000000000000000000000000000000000000000000000000000 DUP2 MSTORE PUSH1 0x4 ADD PUSH2 0x175B SWAP1 PUSH2 0x3D54 JUMP JUMPDEST PUSH1 0x40 MLOAD DUP1 SWAP2 SUB SWAP1 REVERT JUMPDEST PUSH2 0x176F DUP7 DUP5 DUP8 PUSH2 0x2B31 JUMP JUMPDEST POP POP POP POP POP POP JUMP JUMPDEST PUSH1 0x0 DUP1 CALLER SWAP1 POP PUSH1 0x0 CALLVALUE SWAP1 POP PUSH1 0x0 DUP2 GT PUSH2 0x17C5 JUMPI PUSH1 0x40 MLOAD PUSH32 0x8C379A000000000000000000000000000000000000000000000000000000000 DUP2 MSTORE PUSH1 0x4 ADD PUSH2 0x17BC SWAP1 PUSH2 0x3DE6 JUMP JUMPDEST PUSH1 0x40 MLOAD DUP1 SWAP2 SUB SWAP1 REVERT JUMPDEST PUSH1 0x0 PUSH1 0xB PUSH1 0x0 DUP8 DUP2 MSTORE PUSH1 0x20 ADD SWAP1 DUP2 MSTORE PUSH1 0x20 ADD PUSH1 0x0 KECCAK256 PUSH1 0x40 MLOAD DUP1 PUSH1 0xE0 ADD PUSH1 0x40 MSTORE SWAP1 DUP2 PUSH1 0x0 DUP3 ADD PUSH1 0x0 SWAP1 SLOAD SWAP1 PUSH2 0x100 EXP SWAP1 DIV PUSH20 0xFFFFFFFFFFFFFFFFFFFFFFFFFFFFFFFFFFFFFFFF AND PUSH20 0xFFFFFFFFFFFFFFFFFFFFFFFFFFFFFFFFFFFFFFFF AND PUSH20 0xFFFFFFFFFFFFFFFFFFFFFFFFFFFFFFFFFFFFFFFF AND DUP2 MSTORE PUSH1 0x20 ADD PUSH1 0x1 DUP3 ADD SLOAD DUP2 MSTORE PUSH1 0x20 ADD PUSH1 0x2 DUP3 ADD SLOAD DUP2 MSTORE PUSH1 0x20 ADD PUSH1 0x3 DUP3 ADD SLOAD DUP2 MSTORE PUSH1 0x20 ADD PUSH1 0x4 DUP3 ADD SLOAD DUP2 MSTORE PUSH1 0x20 ADD PUSH1 0x5 DUP3 ADD SLOAD DUP2 MSTORE PUSH1 0x20 ADD PUSH1 0x6 DUP3 ADD SLOAD DUP2 MSTORE POP POP SWAP1 POP PUSH1 0x0 PUSH1 0xC PUSH1 0x0 DUP9 DUP2 MSTORE PUSH1 0x20 ADD SWAP1 DUP2 MSTORE PUSH1 0x20 ADD PUSH1 0x0 KECCAK256 PUSH1 0x40 MLOAD DUP1 PUSH1 0xC0 ADD PUSH1 0x40 MSTORE SWAP1 DUP2 PUSH1 0x0 DUP3 ADD SLOAD DUP2 MSTORE PUSH1 0x20 ADD PUSH1 0x1 DUP3 ADD SLOAD DUP2 MSTORE PUSH1 0x20 ADD PUSH1 0x2 DUP3 ADD SLOAD DUP2 MSTORE PUSH1 0x20 ADD PUSH1 0x3 DUP3 ADD SLOAD DUP2 MSTORE PUSH1 0x20 ADD PUSH1 0x4 DUP3 ADD SLOAD DUP2 MSTORE PUSH1 0x20 ADD PUSH1 0x5 DUP3 ADD PUSH1 0x0 SWAP1 SLOAD SWAP1 PUSH2 0x100 EXP SWAP1 DIV PUSH1 0xFF AND PUSH1 0x3 DUP2 GT ISZERO PUSH2 0x18F0 JUMPI PUSH2 0x18EF PUSH2 0x32C1 JUMP JUMPDEST JUMPDEST PUSH1 0x3 DUP2 GT ISZERO PUSH2 0x1902 JUMPI PUSH2 0x1901 PUSH2 0x32C1 JUMP JUMPDEST JUMPDEST DUP2 MSTORE POP POP SWAP1 POP PUSH2 0x1912 DUP3 DUP3 PUSH2 0x260C JUMP JUMPDEST POP PUSH1 0x0 PUSH1 0xF PUSH1 0x0 DUP10 DUP2 MSTORE PUSH1 0x20 ADD SWAP1 DUP2 MSTORE PUSH1 0x20 ADD PUSH1 0x0 KECCAK256 PUSH1 0x0 DUP7 PUSH20 0xFFFFFFFFFFFFFFFFFFFFFFFFFFFFFFFFFFFFFFFF AND PUSH20 0xFFFFFFFFFFFFFFFFFFFFFFFFFFFFFFFFFFFFFFFF AND DUP2 MSTORE PUSH1 0x20 ADD SWAP1 DUP2 MSTORE PUSH1 0x20 ADD PUSH1 0x0 KECCAK256 SLOAD EQ PUSH2 0x19A6 JUMPI PUSH1 0x40 MLOAD PUSH32 0x8C379A000000000000000000000000000000000000000000000000000000000 DUP2 MSTORE PUSH1 0x4 ADD PUSH2 0x199D SWAP1 PUSH2 0x3E9E JUMP JUMPDEST PUSH1 0x40 MLOAD DUP1 SWAP2 SUB SWAP1 REVERT JUMPDEST DUP1 PUSH1 0x40 ADD MLOAD DUP4 GT ISZERO PUSH2 0x19ED JUMPI PUSH1 0x40 MLOAD PUSH32 0x8C379A000000000000000000000000000000000000000000000000000000000 DUP2 MSTORE PUSH1 0x4 ADD PUSH2 0x19E4 SWAP1 PUSH2 0x3F56 JUMP JUMPDEST PUSH1 0x40 MLOAD DUP1 SWAP2 SUB SWAP1 REVERT JUMPDEST PUSH1 0xD PUSH1 0x0 DUP9 DUP2 MSTORE PUSH1 0x20 ADD SWAP1 DUP2 MSTORE PUSH1 0x20 ADD PUSH1 0x0 KECCAK256 SLOAD SWAP5 POP PUSH1 0x0 PUSH1 0x40 MLOAD DUP1 PUSH1 0x80 ADD PUSH1 0x40 MSTORE DUP1 DUP7 PUSH20 0xFFFFFFFFFFFFFFFFFFFFFFFFFFFFFFFFFFFFFFFF AND DUP2 MSTORE PUSH1 0x20 ADD DUP6 DUP2 MSTORE PUSH1 0x20 ADD DUP9 DUP2 MSTORE PUSH1 0x20 ADD PUSH1 0x0 PUSH1 0x3 DUP2 GT ISZERO PUSH2 0x1A4C JUMPI PUSH2 0x1A4B PUSH2 0x32C1 JUMP JUMPDEST JUMPDEST DUP2 MSTORE POP SWAP1 POP DUP1 PUSH1 0xE PUSH1 0x0 DUP11 DUP2 MSTORE PUSH1 0x20 ADD SWAP1 DUP2 MSTORE PUSH1 0x20 ADD PUSH1 0x0 KECCAK256 PUSH1 0x0 DUP9 DUP2 MSTORE PUSH1 0x20 ADD SWAP1 DUP2 MSTORE PUSH1 0x20 ADD PUSH1 0x0 KECCAK256 PUSH1 0x0 DUP3 ADD MLOAD DUP2 PUSH1 0x0 ADD PUSH1 0x0 PUSH2 0x100 EXP DUP2 SLOAD DUP2 PUSH20 0xFFFFFFFFFFFFFFFFFFFFFFFFFFFFFFFFFFFFFFFF MUL NOT AND SWAP1 DUP4 PUSH20 0xFFFFFFFFFFFFFFFFFFFFFFFFFFFFFFFFFFFFFFFF AND MUL OR SWAP1 SSTORE POP PUSH1 0x20 DUP3 ADD MLOAD DUP2 PUSH1 0x1 ADD SSTORE PUSH1 0x40 DUP3 ADD MLOAD DUP2 PUSH1 0x2 ADD SSTORE PUSH1 0x60 DUP3 ADD MLOAD DUP2 PUSH1 0x3 ADD PUSH1 0x0 PUSH2 0x100 EXP DUP2 SLOAD DUP2 PUSH1 0xFF MUL NOT AND SWAP1 DUP4 PUSH1 0x3 DUP2 GT ISZERO PUSH2 0x1AFC JUMPI PUSH2 0x1AFB PUSH2 0x32C1 JUMP JUMPDEST JUMPDEST MUL OR SWAP1 SSTORE POP SWAP1 POP POP DUP6 PUSH1 0xF PUSH1 0x0 DUP11 DUP2 MSTORE PUSH1 0x20 ADD SWAP1 DUP2 MSTORE PUSH1 0x20 ADD PUSH1 0x0 KECCAK256 PUSH1 0x0 DUP8 PUSH20 0xFFFFFFFFFFFFFFFFFFFFFFFFFFFFFFFFFFFFFFFF AND PUSH20 0xFFFFFFFFFFFFFFFFFFFFFFFFFFFFFFFFFFFFFFFF AND DUP2 MSTORE PUSH1 0x20 ADD SWAP1 DUP2 MSTORE PUSH1 0x20 ADD PUSH1 0x0 KECCAK256 DUP2 SWAP1 SSTORE POP PUSH1 0x1 DUP7 PUSH2 0x1B66 SWAP2 SWAP1 PUSH2 0x381D JUMP JUMPDEST PUSH1 0xD PUSH1 0x0 DUP11 DUP2 MSTORE PUSH1 0x20 ADD SWAP1 DUP2 MSTORE PUSH1 0x20 ADD PUSH1 0x0 KECCAK256 DUP2 SWAP1 SSTORE POP POP POP POP POP POP SWAP3 SWAP2 POP POP JUMP JUMPDEST PUSH1 0xC PUSH1 0x20 MSTORE DUP1 PUSH1 0x0 MSTORE PUSH1 0x40 PUSH1 0x0 KECCAK256 PUSH1 0x0 SWAP2 POP SWAP1 POP DUP1 PUSH1 0x0 ADD SLOAD SWAP1 DUP1 PUSH1 0x1 ADD SLOAD SWAP1 DUP1 PUSH1 0x2 ADD SLOAD SWAP1 DUP1 PUSH1 0x3 ADD SLOAD SWAP1 DUP1 PUSH1 0x4 ADD SLOAD SWAP1 DUP1 PUSH1 0x5 ADD PUSH1 0x0 SWAP1 SLOAD SWAP1 PUSH2 0x100 EXP SWAP1 DIV PUSH1 0xFF AND SWAP1 POP DUP7 JUMP JUMPDEST PUSH1 0x0 CALLER SWAP1 POP PUSH1 0x0 PUSH1 0xB PUSH1 0x0 DUP7 DUP2 MSTORE PUSH1 0x20 ADD SWAP1 DUP2 MSTORE PUSH1 0x20 ADD PUSH1 0x0 KECCAK256 SWAP1 POP PUSH1 0x0 PUSH1 0xC PUSH1 0x0 DUP8 DUP2 MSTORE PUSH1 0x20 ADD SWAP1 DUP2 MSTORE PUSH1 0x20 ADD PUSH1 0x0 KECCAK256 SWAP1 POP DUP2 PUSH1 0x0 ADD PUSH1 0x0 SWAP1 SLOAD SWAP1 PUSH2 0x100 EXP SWAP1 DIV PUSH20 0xFFFFFFFFFFFFFFFFFFFFFFFFFFFFFFFFFFFFFFFF AND PUSH20 0xFFFFFFFFFFFFFFFFFFFFFFFFFFFFFFFFFFFFFFFF AND DUP4 PUSH20 0xFFFFFFFFFFFFFFFFFFFFFFFFFFFFFFFFFFFFFFFF AND EQ PUSH2 0x1C96 JUMPI PUSH1 0x40 MLOAD PUSH32 0x8C379A000000000000000000000000000000000000000000000000000000000 DUP2 MSTORE PUSH1 0x4 ADD PUSH2 0x1C8D SWAP1 PUSH2 0x3FE8 JUMP JUMPDEST PUSH1 0x40 MLOAD DUP1 SWAP2 SUB SWAP1 REVERT JUMPDEST PUSH1 0x0 PUSH1 0x3 DUP2 GT ISZERO PUSH2 0x1CAA JUMPI PUSH2 0x1CA9 PUSH2 0x32C1 JUMP JUMPDEST JUMPDEST DUP2 PUSH1 0x5 ADD PUSH1 0x0 SWAP1 SLOAD SWAP1 PUSH2 0x100 EXP SWAP1 DIV PUSH1 0xFF AND PUSH1 0x3 DUP2 GT ISZERO PUSH2 0x1CCE JUMPI PUSH2 0x1CCD PUSH2 0x32C1 JUMP JUMPDEST JUMPDEST EQ PUSH2 0x1D0E JUMPI PUSH1 0x40 MLOAD PUSH32 0x8C379A000000000000000000000000000000000000000000000000000000000 DUP2 MSTORE PUSH1 0x4 ADD PUSH2 0x1D05 SWAP1 PUSH2 0x4054 JUMP JUMPDEST PUSH1 0x40 MLOAD DUP1 SWAP2 SUB SWAP1 REVERT JUMPDEST PUSH1 0x0 TIMESTAMP SWAP1 POP PUSH1 0x0 PUSH1 0x9 SLOAD PUSH1 0x8 SLOAD DUP6 PUSH1 0x6 ADD SLOAD PUSH2 0x1D2A SWAP2 SWAP1 PUSH2 0x381D JUMP JUMPDEST PUSH2 0x1D34 SWAP2 SWAP1 PUSH2 0x381D JUMP JUMPDEST SWAP1 POP DUP1 DUP3 GT ISZERO PUSH2 0x1D79 JUMPI PUSH1 0x40 MLOAD PUSH32 0x8C379A000000000000000000000000000000000000000000000000000000000 DUP2 MSTORE PUSH1 0x4 ADD PUSH2 0x1D70 SWAP1 PUSH2 0x40E6 JUMP JUMPDEST PUSH1 0x40 MLOAD DUP1 SWAP2 SUB SWAP1 REVERT JUMPDEST PUSH1 0x0 PUSH1 0xE PUSH1 0x0 DUP11 DUP2 MSTORE PUSH1 0x20 ADD SWAP1 DUP2 MSTORE PUSH1 0x20 ADD PUSH1 0x0 KECCAK256 PUSH1 0x0 DUP10 DUP2 MSTORE PUSH1 0x20 ADD SWAP1 DUP2 MSTORE PUSH1 0x20 ADD PUSH1 0x0 KECCAK256 SWAP1 POP PUSH1 0x0 PUSH1 0x3 DUP2 GT ISZERO PUSH2 0x1DB5 JUMPI PUSH2 0x1DB4 PUSH2 0x32C1 JUMP JUMPDEST JUMPDEST DUP2 PUSH1 0x3 ADD PUSH1 0x0 SWAP1 SLOAD SWAP1 PUSH2 0x100 EXP SWAP1 DIV PUSH1 0xFF AND PUSH1 0x3 DUP2 GT ISZERO PUSH2 0x1DD9 JUMPI PUSH2 0x1DD8 PUSH2 0x32C1 JUMP JUMPDEST JUMPDEST EQ PUSH2 0x1E19 JUMPI PUSH1 0x40 MLOAD PUSH32 0x8C379A000000000000000000000000000000000000000000000000000000000 DUP2 MSTORE PUSH1 0x4 ADD PUSH2 0x1E10 SWAP1 PUSH2 0x3A84 JUMP JUMPDEST PUSH1 0x40 MLOAD DUP1 SWAP2 SUB SWAP1 REVERT JUMPDEST PUSH1 0x0 ISZERO ISZERO DUP8 ISZERO ISZERO SUB PUSH2 0x1E35 JUMPI PUSH2 0x1E30 DUP10 DUP10 DUP4 PUSH2 0x2C73 JUMP JUMPDEST PUSH2 0x208E JUMP JUMPDEST DUP4 PUSH1 0x2 ADD SLOAD DUP2 PUSH1 0x1 ADD SLOAD GT ISZERO PUSH2 0x1E80 JUMPI PUSH1 0x40 MLOAD PUSH32 0x8C379A000000000000000000000000000000000000000000000000000000000 DUP2 MSTORE PUSH1 0x4 ADD PUSH2 0x1E77 SWAP1 PUSH2 0x4178 JUMP JUMPDEST PUSH1 0x40 MLOAD DUP1 SWAP2 SUB SWAP1 REVERT JUMPDEST PUSH1 0x1 DUP2 PUSH1 0x3 ADD PUSH1 0x0 PUSH2 0x100 EXP DUP2 SLOAD DUP2 PUSH1 0xFF MUL NOT AND SWAP1 DUP4 PUSH1 0x3 DUP2 GT ISZERO PUSH2 0x1EA8 JUMPI PUSH2 0x1EA7 PUSH2 0x32C1 JUMP JUMPDEST JUMPDEST MUL OR SWAP1 SSTORE POP DUP1 PUSH1 0xE PUSH1 0x0 DUP12 DUP2 MSTORE PUSH1 0x20 ADD SWAP1 DUP2 MSTORE PUSH1 0x20 ADD PUSH1 0x0 KECCAK256 PUSH1 0x0 DUP11 DUP2 MSTORE PUSH1 0x20 ADD SWAP1 DUP2 MSTORE PUSH1 0x20 ADD PUSH1 0x0 KECCAK256 PUSH1 0x0 DUP3 ADD PUSH1 0x0 SWAP1 SLOAD SWAP1 PUSH2 0x100 EXP SWAP1 DIV PUSH20 0xFFFFFFFFFFFFFFFFFFFFFFFFFFFFFFFFFFFFFFFF AND DUP2 PUSH1 0x0 ADD PUSH1 0x0 PUSH2 0x100 EXP DUP2 SLOAD DUP2 PUSH20 0xFFFFFFFFFFFFFFFFFFFFFFFFFFFFFFFFFFFFFFFF MUL NOT AND SWAP1 DUP4 PUSH20 0xFFFFFFFFFFFFFFFFFFFFFFFFFFFFFFFFFFFFFFFF AND MUL OR SWAP1 SSTORE POP PUSH1 0x1 DUP3 ADD SLOAD DUP2 PUSH1 0x1 ADD SSTORE PUSH1 0x2 DUP3 ADD SLOAD DUP2 PUSH1 0x2 ADD SSTORE PUSH1 0x3 DUP3 ADD PUSH1 0x0 SWAP1 SLOAD SWAP1 PUSH2 0x100 EXP SWAP1 DIV PUSH1 0xFF AND DUP2 PUSH1 0x3 ADD PUSH1 0x0 PUSH2 0x100 EXP DUP2 SLOAD DUP2 PUSH1 0xFF MUL NOT AND SWAP1 DUP4 PUSH1 0x3 DUP2 GT ISZERO PUSH2 0x1F85 JUMPI PUSH2 0x1F84 PUSH2 0x32C1 JUMP JUMPDEST JUMPDEST MUL OR SWAP1 SSTORE POP SWAP1 POP POP DUP1 PUSH1 0x1 ADD SLOAD DUP5 PUSH1 0x1 ADD PUSH1 0x0 DUP3 DUP3 SLOAD PUSH2 0x1FA5 SWAP2 SWAP1 PUSH2 0x381D JUMP JUMPDEST SWAP3 POP POP DUP2 SWAP1 SSTORE POP DUP1 PUSH1 0x1 ADD SLOAD DUP5 PUSH1 0x2 ADD PUSH1 0x0 DUP3 DUP3 SLOAD PUSH2 0x1FC4 SWAP2 SWAP1 PUSH2 0x3789 JUMP JUMPDEST SWAP3 POP POP DUP2 SWAP1 SSTORE POP DUP1 PUSH1 0x2 ADD SLOAD DUP5 PUSH1 0x3 ADD PUSH1 0x0 DUP3 DUP3 SLOAD PUSH2 0x1FE3 SWAP2 SWAP1 PUSH2 0x381D JUMP JUMPDEST SWAP3 POP POP DUP2 SWAP1 SSTORE POP PUSH1 0x0 DUP5 PUSH1 0x2 ADD SLOAD SUB PUSH2 0x2006 JUMPI PUSH2 0x2001 DUP10 DUP6 DUP9 PUSH2 0x2B31 JUMP JUMPDEST PUSH2 0x208D JUMP JUMPDEST DUP4 PUSH1 0xC PUSH1 0x0 DUP12 DUP2 MSTORE PUSH1 0x20 ADD SWAP1 DUP2 MSTORE PUSH1 0x20 ADD PUSH1 0x0 KECCAK256 PUSH1 0x0 DUP3 ADD SLOAD DUP2 PUSH1 0x0 ADD SSTORE PUSH1 0x1 DUP3 ADD SLOAD DUP2 PUSH1 0x1 ADD SSTORE PUSH1 0x2 DUP3 ADD SLOAD DUP2 PUSH1 0x2 ADD SSTORE PUSH1 0x3 DUP3 ADD SLOAD DUP2 PUSH1 0x3 ADD SSTORE PUSH1 0x4 DUP3 ADD SLOAD DUP2 PUSH1 0x4 ADD SSTORE PUSH1 0x5 DUP3 ADD PUSH1 0x0 SWAP1 SLOAD SWAP1 PUSH2 0x100 EXP SWAP1 DIV PUSH1 0xFF AND DUP2 PUSH1 0x5 ADD PUSH1 0x0 PUSH2 0x100 EXP DUP2 SLOAD DUP2 PUSH1 0xFF MUL NOT AND SWAP1 DUP4 PUSH1 0x3 DUP2 GT ISZERO PUSH2 0x2084 JUMPI PUSH2 0x2083 PUSH2 0x32C1 JUMP JUMPDEST JUMPDEST MUL OR SWAP1 SSTORE POP SWAP1 POP POP JUMPDEST JUMPDEST POP POP POP POP POP POP POP POP POP JUMP JUMPDEST PUSH1 0x0 SLOAD DUP2 JUMP JUMPDEST PUSH1 0x0 DUP1 PUSH1 0x6 SWAP1 POP PUSH1 0x0 PUSH1 0x1 SWAP1 POP DUP2 PUSH1 0xA PUSH2 0x20B9 SWAP2 SWAP1 PUSH2 0x42CB JUMP JUMPDEST DUP2 PUSH2 0x20C4 SWAP2 SWAP1 PUSH2 0x3747 JUMP JUMPDEST SWAP3 POP POP POP SWAP1 JUMP JUMPDEST PUSH1 0x6 PUSH1 0x0 SWAP1 SLOAD SWAP1 PUSH2 0x100 EXP SWAP1 DIV PUSH20 0xFFFFFFFFFFFFFFFFFFFFFFFFFFFFFFFFFFFFFFFF AND DUP2 JUMP JUMPDEST PUSH1 0x1 SLOAD DUP2 JUMP JUMPDEST PUSH1 0xD PUSH1 0x20 MSTORE DUP1 PUSH1 0x0 MSTORE PUSH1 0x40 PUSH1 0x0 KECCAK256 PUSH1 0x0 SWAP2 POP SWAP1 POP SLOAD DUP2 JUMP JUMPDEST PUSH1 0x2 SLOAD DUP2 JUMP JUMPDEST PUSH1 0xB PUSH1 0x20 MSTORE DUP1 PUSH1 0x0 MSTORE PUSH1 0x40 PUSH1 0x0 KECCAK256 PUSH1 0x0 SWAP2 POP SWAP1 POP DUP1 PUSH1 0x0 ADD PUSH1 0x0 SWAP1 SLOAD SWAP1 PUSH2 0x100 EXP SWAP1 DIV PUSH20 0xFFFFFFFFFFFFFFFFFFFFFFFFFFFFFFFFFFFFFFFF AND SWAP1 DUP1 PUSH1 0x1 ADD SLOAD SWAP1 DUP1 PUSH1 0x2 ADD SLOAD SWAP1 DUP1 PUSH1 0x3 ADD SLOAD SWAP1 DUP1 PUSH1 0x4 ADD SLOAD SWAP1 DUP1 PUSH1 0x5 ADD SLOAD SWAP1 DUP1 PUSH1 0x6 ADD SLOAD SWAP1 POP DUP8 JUMP JUMPDEST PUSH1 0x0 DUP1 PUSH1 0xB PUSH1 0x0 DUP5 DUP2 MSTORE PUSH1 0x20 ADD SWAP1 DUP2 MSTORE PUSH1 0x20 ADD PUSH1 0x0 KECCAK256 PUSH1 0x40 MLOAD DUP1 PUSH1 0xE0 ADD PUSH1 0x40 MSTORE SWAP1 DUP2 PUSH1 0x0 DUP3 ADD PUSH1 0x0 SWAP1 SLOAD SWAP1 PUSH2 0x100 EXP SWAP1 DIV PUSH20 0xFFFFFFFFFFFFFFFFFFFFFFFFFFFFFFFFFFFFFFFF AND PUSH20 0xFFFFFFFFFFFFFFFFFFFFFFFFFFFFFFFFFFFFFFFF AND PUSH20 0xFFFFFFFFFFFFFFFFFFFFFFFFFFFFFFFFFFFFFFFF AND DUP2 MSTORE PUSH1 0x20 ADD PUSH1 0x1 DUP3 ADD SLOAD DUP2 MSTORE PUSH1 0x20 ADD PUSH1 0x2 DUP3 ADD SLOAD DUP2 MSTORE PUSH1 0x20 ADD PUSH1 0x3 DUP3 ADD SLOAD DUP2 MSTORE PUSH1 0x20 ADD PUSH1 0x4 DUP3 ADD SLOAD DUP2 MSTORE PUSH1 0x20 ADD PUSH1 0x5 DUP3 ADD SLOAD DUP2 MSTORE PUSH1 0x20 ADD PUSH1 0x6 DUP3 ADD SLOAD DUP2 MSTORE POP POP SWAP1 POP PUSH1 0x0 PUSH1 0xC PUSH1 0x0 DUP6 DUP2 MSTORE PUSH1 0x20 ADD SWAP1 DUP2 MSTORE PUSH1 0x20 ADD PUSH1 0x0 KECCAK256 PUSH1 0x40 MLOAD DUP1 PUSH1 0xC0 ADD PUSH1 0x40 MSTORE SWAP1 DUP2 PUSH1 0x0 DUP3 ADD SLOAD DUP2 MSTORE PUSH1 0x20 ADD PUSH1 0x1 DUP3 ADD SLOAD DUP2 MSTORE PUSH1 0x20 ADD PUSH1 0x2 DUP3 ADD SLOAD DUP2 MSTORE PUSH1 0x20 ADD PUSH1 0x3 DUP3 ADD SLOAD DUP2 MSTORE PUSH1 0x20 ADD PUSH1 0x4 DUP3 ADD SLOAD DUP2 MSTORE PUSH1 0x20 ADD PUSH1 0x5 DUP3 ADD PUSH1 0x0 SWAP1 SLOAD SWAP1 PUSH2 0x100 EXP SWAP1 DIV PUSH1 0xFF AND PUSH1 0x3 DUP2 GT ISZERO PUSH2 0x22A3 JUMPI PUSH2 0x22A2 PUSH2 0x32C1 JUMP JUMPDEST JUMPDEST PUSH1 0x3 DUP2 GT ISZERO PUSH2 0x22B5 JUMPI PUSH2 0x22B4 PUSH2 0x32C1 JUMP JUMPDEST JUMPDEST DUP2 MSTORE POP POP SWAP1 POP PUSH2 0x22C5 DUP3 DUP3 PUSH2 0x260C JUMP JUMPDEST SWAP3 POP POP POP SWAP2 SWAP1 POP JUMP JUMPDEST PUSH1 0x0 PUSH1 0xB PUSH1 0x0 DUP4 DUP2 MSTORE PUSH1 0x20 ADD SWAP1 DUP2 MSTORE PUSH1 0x20 ADD PUSH1 0x0 KECCAK256 SWAP1 POP PUSH1 0x0 PUSH1 0xC PUSH1 0x0 DUP5 DUP2 MSTORE PUSH1 0x20 ADD SWAP1 DUP2 MSTORE PUSH1 0x20 ADD PUSH1 0x0 KECCAK256 SWAP1 POP PUSH1 0x1 PUSH1 0x3 DUP2 GT ISZERO PUSH2 0x2310 JUMPI PUSH2 0x230F PUSH2 0x32C1 JUMP JUMPDEST JUMPDEST DUP2 PUSH1 0x5 ADD PUSH1 0x0 SWAP1 SLOAD SWAP1 PUSH2 0x100 EXP SWAP1 DIV PUSH1 0xFF AND PUSH1 0x3 DUP2 GT ISZERO PUSH2 0x2334 JUMPI PUSH2 0x2333 PUSH2 0x32C1 JUMP JUMPDEST JUMPDEST EQ PUSH2 0x2374 JUMPI PUSH1 0x40 MLOAD PUSH32 0x8C379A000000000000000000000000000000000000000000000000000000000 DUP2 MSTORE PUSH1 0x4 ADD PUSH2 0x236B SWAP1 PUSH2 0x4362 JUMP JUMPDEST PUSH1 0x40 MLOAD DUP1 SWAP2 SUB SWAP1 REVERT JUMPDEST PUSH1 0x0 TIMESTAMP SWAP1 POP PUSH1 0x0 DUP4 PUSH1 0x5 ADD SLOAD DUP4 PUSH1 0x0 ADD SLOAD PUSH2 0x238F SWAP2 SWAP1 PUSH2 0x381D JUMP JUMPDEST SWAP1 POP DUP1 DUP3 GT PUSH2 0x23D3 JUMPI PUSH1 0x40 MLOAD PUSH32 0x8C379A000000000000000000000000000000000000000000000000000000000 DUP2 MSTORE PUSH1 0x4 ADD PUSH2 0x23CA SWAP1 PUSH2 0x43CE JUMP JUMPDEST PUSH1 0x40 MLOAD DUP1 SWAP2 SUB SWAP1 REVERT JUMPDEST PUSH2 0x23DE DUP6 DUP6 DUP6 PUSH2 0x26DC JUMP JUMPDEST PUSH2 0x240B DUP5 PUSH1 0x0 ADD PUSH1 0x0 SWAP1 SLOAD SWAP1 PUSH2 0x100 EXP SWAP1 DIV PUSH20 0xFFFFFFFFFFFFFFFFFFFFFFFFFFFFFFFFFFFFFFFF AND PUSH2 0x2E99 JUMP JUMPDEST PUSH1 0x2 DUP4 PUSH1 0x5 ADD PUSH1 0x0 PUSH2 0x100 EXP DUP2 SLOAD DUP2 PUSH1 0xFF MUL NOT AND SWAP1 DUP4 PUSH1 0x3 DUP2 GT ISZERO PUSH2 0x2433 JUMPI PUSH2 0x2432 PUSH2 0x32C1 JUMP JUMPDEST JUMPDEST MUL OR SWAP1 SSTORE POP DUP3 PUSH1 0xC PUSH1 0x0 DUP8 DUP2 MSTORE PUSH1 0x20 ADD SWAP1 DUP2 MSTORE PUSH1 0x20 ADD PUSH1 0x0 KECCAK256 PUSH1 0x0 DUP3 ADD SLOAD DUP2 PUSH1 0x0 ADD SSTORE PUSH1 0x1 DUP3 ADD SLOAD DUP2 PUSH1 0x1 ADD SSTORE PUSH1 0x2 DUP3 ADD SLOAD DUP2 PUSH1 0x2 ADD SSTORE PUSH1 0x3 DUP3 ADD SLOAD DUP2 PUSH1 0x3 ADD SSTORE PUSH1 0x4 DUP3 ADD SLOAD DUP2 PUSH1 0x4 ADD SSTORE PUSH1 0x5 DUP3 ADD PUSH1 0x0 SWAP1 SLOAD SWAP1 PUSH2 0x100 EXP SWAP1 DIV PUSH1 0xFF AND DUP2 PUSH1 0x5 ADD PUSH1 0x0 PUSH2 0x100 EXP DUP2 SLOAD DUP2 PUSH1 0xFF MUL NOT AND SWAP1 DUP4 PUSH1 0x3 DUP2 GT ISZERO PUSH2 0x24B6 JUMPI PUSH2 0x24B5 PUSH2 0x32C1 JUMP JUMPDEST JUMPDEST MUL OR SWAP1 SSTORE POP SWAP1 POP POP POP POP POP POP POP JUMP JUMPDEST PUSH1 0x5 PUSH1 0x0 SWAP1 SLOAD SWAP1 PUSH2 0x100 EXP SWAP1 DIV PUSH20 0xFFFFFFFFFFFFFFFFFFFFFFFFFFFFFFFFFFFFFFFF AND DUP2 JUMP JUMPDEST PUSH1 0x4 SLOAD DUP2 JUMP JUMPDEST PUSH1 0x8 SLOAD DUP2 JUMP JUMPDEST PUSH1 0xF PUSH1 0x20 MSTORE DUP2 PUSH1 0x0 MSTORE PUSH1 0x40 PUSH1 0x0 KECCAK256 PUSH1 0x20 MSTORE DUP1 PUSH1 0x0 MSTORE PUSH1 0x40 PUSH1 0x0 KECCAK256 PUSH1 0x0 SWAP2 POP SWAP2 POP POP SLOAD DUP2 JUMP JUMPDEST PUSH1 0x0 PUSH1 0xD PUSH1 0x0 DUP4 DUP2 MSTORE PUSH1 0x20 ADD SWAP1 DUP2 MSTORE PUSH1 0x20 ADD PUSH1 0x0 KECCAK256 SLOAD SWAP1 POP PUSH1 0x0 JUMPDEST DUP2 DUP2 LT ISZERO PUSH2 0x2605 JUMPI PUSH1 0x0 PUSH1 0xE PUSH1 0x0 DUP6 DUP2 MSTORE PUSH1 0x20 ADD SWAP1 DUP2 MSTORE PUSH1 0x20 ADD PUSH1 0x0 KECCAK256 PUSH1 0x0 DUP4 DUP2 MSTORE PUSH1 0x20 ADD SWAP1 DUP2 MSTORE PUSH1 0x20 ADD PUSH1 0x0 KECCAK256 SWAP1 POP PUSH1 0x0 PUSH1 0x3 DUP2 GT ISZERO PUSH2 0x257B JUMPI PUSH2 0x257A PUSH2 0x32C1 JUMP JUMPDEST JUMPDEST DUP2 PUSH1 0x3 ADD PUSH1 0x0 SWAP1 SLOAD SWAP1 PUSH2 0x100 EXP SWAP1 DIV PUSH1 0xFF AND PUSH1 0x3 DUP2 GT ISZERO PUSH2 0x259F JUMPI PUSH2 0x259E PUSH2 0x32C1 JUMP JUMPDEST JUMPDEST EQ DUP1 PUSH2 0x25E0 JUMPI POP PUSH1 0x1 PUSH1 0x3 DUP2 GT ISZERO PUSH2 0x25BA JUMPI PUSH2 0x25B9 PUSH2 0x32C1 JUMP JUMPDEST JUMPDEST DUP2 PUSH1 0x3 ADD PUSH1 0x0 SWAP1 SLOAD SWAP1 PUSH2 0x100 EXP SWAP1 DIV PUSH1 0xFF AND PUSH1 0x3 DUP2 GT ISZERO PUSH2 0x25DE JUMPI PUSH2 0x25DD PUSH2 0x32C1 JUMP JUMPDEST JUMPDEST EQ JUMPDEST ISZERO PUSH2 0x25F1 JUMPI PUSH2 0x25F0 DUP5 DUP4 DUP4 PUSH2 0x2C73 JUMP JUMPDEST JUMPDEST POP DUP1 DUP1 PUSH2 0x25FD SWAP1 PUSH2 0x3BE8 JUMP JUMPDEST SWAP2 POP POP PUSH2 0x2537 JUMP JUMPDEST POP POP POP JUMP JUMPDEST JUMP JUMPDEST PUSH1 0x0 DUP1 PUSH1 0x3 DUP2 GT ISZERO PUSH2 0x2621 JUMPI PUSH2 0x2620 PUSH2 0x32C1 JUMP JUMPDEST JUMPDEST DUP3 PUSH1 0xA0 ADD MLOAD PUSH1 0x3 DUP2 GT ISZERO PUSH2 0x2638 JUMPI PUSH2 0x2637 PUSH2 0x32C1 JUMP JUMPDEST JUMPDEST EQ PUSH2 0x2678 JUMPI PUSH1 0x40 MLOAD PUSH32 0x8C379A000000000000000000000000000000000000000000000000000000000 DUP2 MSTORE PUSH1 0x4 ADD PUSH2 0x266F SWAP1 PUSH2 0x39F2 JUMP JUMPDEST PUSH1 0x40 MLOAD DUP1 SWAP2 SUB SWAP1 REVERT JUMPDEST PUSH1 0x0 TIMESTAMP SWAP1 POP PUSH1 0x8 SLOAD DUP5 PUSH1 0xC0 ADD MLOAD PUSH2 0x268F SWAP2 SWAP1 PUSH2 0x381D JUMP JUMPDEST DUP2 GT ISZERO PUSH2 0x26D1 JUMPI PUSH1 0x40 MLOAD PUSH32 0x8C379A000000000000000000000000000000000000000000000000000000000 DUP2 MSTORE PUSH1 0x4 ADD PUSH2 0x26C8 SWAP1 PUSH2 0x39F2 JUMP JUMPDEST PUSH1 0x40 MLOAD DUP1 SWAP2 SUB SWAP1 REVERT JUMPDEST PUSH1 0x1 SWAP2 POP POP SWAP3 SWAP2 POP POP JUMP JUMPDEST PUSH1 0x0 PUSH1 0xD PUSH1 0x0 DUP6 DUP2 MSTORE PUSH1 0x20 ADD SWAP1 DUP2 MSTORE PUSH1 0x20 ADD PUSH1 0x0 KECCAK256 SLOAD SWAP1 POP PUSH1 0x0 DUP4 PUSH1 0x2 ADD SLOAD SWAP1 POP PUSH1 0x0 PUSH2 0x2785 DUP5 PUSH1 0x40 MLOAD DUP1 PUSH1 0xC0 ADD PUSH1 0x40 MSTORE SWAP1 DUP2 PUSH1 0x0 DUP3 ADD SLOAD DUP2 MSTORE PUSH1 0x20 ADD PUSH1 0x1 DUP3 ADD SLOAD DUP2 MSTORE PUSH1 0x20 ADD PUSH1 0x2 DUP3 ADD SLOAD DUP2 MSTORE PUSH1 0x20 ADD PUSH1 0x3 DUP3 ADD SLOAD DUP2 MSTORE PUSH1 0x20 ADD PUSH1 0x4 DUP3 ADD SLOAD DUP2 MSTORE PUSH1 0x20 ADD PUSH1 0x5 DUP3 ADD PUSH1 0x0 SWAP1 SLOAD SWAP1 PUSH2 0x100 EXP SWAP1 DIV PUSH1 0xFF AND PUSH1 0x3 DUP2 GT ISZERO PUSH2 0x2765 JUMPI PUSH2 0x2764 PUSH2 0x32C1 JUMP JUMPDEST JUMPDEST PUSH1 0x3 DUP2 GT ISZERO PUSH2 0x2777 JUMPI PUSH2 0x2776 PUSH2 0x32C1 JUMP JUMPDEST JUMPDEST DUP2 MSTORE POP POP DUP7 PUSH1 0x2 ADD SLOAD PUSH2 0x2F34 JUMP JUMPDEST SWAP1 POP PUSH1 0x0 JUMPDEST DUP4 DUP2 LT ISZERO PUSH2 0x2A67 JUMPI PUSH1 0x0 PUSH1 0xE PUSH1 0x0 DUP10 DUP2 MSTORE PUSH1 0x20 ADD SWAP1 DUP2 MSTORE PUSH1 0x20 ADD PUSH1 0x0 KECCAK256 PUSH1 0x0 DUP4 DUP2 MSTORE PUSH1 0x20 ADD SWAP1 DUP2 MSTORE PUSH1 0x20 ADD PUSH1 0x0 KECCAK256 PUSH1 0x40 MLOAD DUP1 PUSH1 0x80 ADD PUSH1 0x40 MSTORE SWAP1 DUP2 PUSH1 0x0 DUP3 ADD PUSH1 0x0 SWAP1 SLOAD SWAP1 PUSH2 0x100 EXP SWAP1 DIV PUSH20 0xFFFFFFFFFFFFFFFFFFFFFFFFFFFFFFFFFFFFFFFF AND PUSH20 0xFFFFFFFFFFFFFFFFFFFFFFFFFFFFFFFFFFFFFFFF AND PUSH20 0xFFFFFFFFFFFFFFFFFFFFFFFFFFFFFFFFFFFFFFFF AND DUP2 MSTORE PUSH1 0x20 ADD PUSH1 0x1 DUP3 ADD SLOAD DUP2 MSTORE PUSH1 0x20 ADD PUSH1 0x2 DUP3 ADD SLOAD DUP2 MSTORE PUSH1 0x20 ADD PUSH1 0x3 DUP3 ADD PUSH1 0x0 SWAP1 SLOAD SWAP1 PUSH2 0x100 EXP SWAP1 DIV PUSH1 0xFF AND PUSH1 0x3 DUP2 GT ISZERO PUSH2 0x2852 JUMPI PUSH2 0x2851 PUSH2 0x32C1 JUMP JUMPDEST JUMPDEST PUSH1 0x3 DUP2 GT ISZERO PUSH2 0x2864 JUMPI PUSH2 0x2863 PUSH2 0x32C1 JUMP JUMPDEST JUMPDEST DUP2 MSTORE POP POP SWAP1 POP PUSH1 0x1 PUSH1 0x3 DUP2 GT ISZERO PUSH2 0x287E JUMPI PUSH2 0x287D PUSH2 0x32C1 JUMP JUMPDEST JUMPDEST DUP2 PUSH1 0x60 ADD MLOAD PUSH1 0x3 DUP2 GT ISZERO PUSH2 0x2895 JUMPI PUSH2 0x2894 PUSH2 0x32C1 JUMP JUMPDEST JUMPDEST SUB PUSH2 0x2A53 JUMPI PUSH1 0x0 DUP1 PUSH2 0x29BE DUP10 PUSH1 0x40 MLOAD DUP1 PUSH1 0xE0 ADD PUSH1 0x40 MSTORE SWAP1 DUP2 PUSH1 0x0 DUP3 ADD PUSH1 0x0 SWAP1 SLOAD SWAP1 PUSH2 0x100 EXP SWAP1 DIV PUSH20 0xFFFFFFFFFFFFFFFFFFFFFFFFFFFFFFFFFFFFFFFF AND PUSH20 0xFFFFFFFFFFFFFFFFFFFFFFFFFFFFFFFFFFFFFFFF AND PUSH20 0xFFFFFFFFFFFFFFFFFFFFFFFFFFFFFFFFFFFFFFFF AND DUP2 MSTORE PUSH1 0x20 ADD PUSH1 0x1 DUP3 ADD SLOAD DUP2 MSTORE PUSH1 0x20 ADD PUSH1 0x2 DUP3 ADD SLOAD DUP2 MSTORE PUSH1 0x20 ADD PUSH1 0x3 DUP3 ADD SLOAD DUP2 MSTORE PUSH1 0x20 ADD PUSH1 0x4 DUP3 ADD SLOAD DUP2 MSTORE PUSH1 0x20 ADD PUSH1 0x5 DUP3 ADD SLOAD DUP2 MSTORE PUSH1 0x20 ADD PUSH1 0x6 DUP3 ADD SLOAD DUP2 MSTORE POP POP DUP10 PUSH1 0x40 MLOAD DUP1 PUSH1 0xC0 ADD PUSH1 0x40 MSTORE SWAP1 DUP2 PUSH1 0x0 DUP3 ADD SLOAD DUP2 MSTORE PUSH1 0x20 ADD PUSH1 0x1 DUP3 ADD SLOAD DUP2 MSTORE PUSH1 0x20 ADD PUSH1 0x2 DUP3 ADD SLOAD DUP2 MSTORE PUSH1 0x20 ADD PUSH1 0x3 DUP3 ADD SLOAD DUP2 MSTORE PUSH1 0x20 ADD PUSH1 0x4 DUP3 ADD SLOAD DUP2 MSTORE PUSH1 0x20 ADD PUSH1 0x5 DUP3 ADD PUSH1 0x0 SWAP1 SLOAD SWAP1 PUSH2 0x100 EXP SWAP1 DIV PUSH1 0xFF AND PUSH1 0x3 DUP2 GT ISZERO PUSH2 0x29A1 JUMPI PUSH2 0x29A0 PUSH2 0x32C1 JUMP JUMPDEST JUMPDEST PUSH1 0x3 DUP2 GT ISZERO PUSH2 0x29B3 JUMPI PUSH2 0x29B2 PUSH2 0x32C1 JUMP JUMPDEST JUMPDEST DUP2 MSTORE POP POP DUP6 DUP9 PUSH2 0x2FA0 JUMP JUMPDEST SWAP2 POP SWAP2 POP DUP1 DUP7 PUSH2 0x29CE SWAP2 SWAP1 PUSH2 0x3789 JUMP JUMPDEST SWAP6 POP DUP3 PUSH1 0x0 ADD MLOAD PUSH20 0xFFFFFFFFFFFFFFFFFFFFFFFFFFFFFFFFFFFFFFFF AND PUSH2 0x8FC DUP4 SWAP1 DUP2 ISZERO MUL SWAP1 PUSH1 0x40 MLOAD PUSH1 0x0 PUSH1 0x40 MLOAD DUP1 DUP4 SUB DUP2 DUP6 DUP9 DUP9 CALL SWAP4 POP POP POP POP PUSH2 0x2A48 JUMPI PUSH1 0x40 MLOAD PUSH32 0x8C379A000000000000000000000000000000000000000000000000000000000 DUP2 MSTORE PUSH1 0x4 ADD PUSH2 0x2A3F SWAP1 PUSH2 0x3986 JUMP JUMPDEST PUSH1 0x40 MLOAD DUP1 SWAP2 SUB SWAP1 REVERT JUMPDEST PUSH2 0x2A50 PUSH2 0x260A JUMP JUMPDEST POP POP JUMPDEST POP DUP1 DUP1 PUSH2 0x2A5F SWAP1 PUSH2 0x3BE8 JUMP JUMPDEST SWAP2 POP POP PUSH2 0x278A JUMP JUMPDEST POP PUSH2 0x2A70 PUSH2 0x260A JUMP JUMPDEST POP POP POP POP POP POP JUMP JUMPDEST PUSH1 0x0 PUSH1 0xA PUSH1 0x0 DUP4 PUSH20 0xFFFFFFFFFFFFFFFFFFFFFFFFFFFFFFFFFFFFFFFF AND PUSH20 0xFFFFFFFFFFFFFFFFFFFFFFFFFFFFFFFFFFFFFFFF AND DUP2 MSTORE PUSH1 0x20 ADD SWAP1 DUP2 MSTORE PUSH1 0x20 ADD PUSH1 0x0 KECCAK256 SLOAD SWAP1 POP PUSH1 0x0 DUP2 SUB PUSH2 0x2ACA JUMPI PUSH2 0x1F4 SWAP1 POP JUMPDEST PUSH1 0x14 DUP2 PUSH2 0x2AD7 SWAP2 SWAP1 PUSH2 0x381D JUMP JUMPDEST SWAP1 POP PUSH2 0x3E8 DUP2 GT ISZERO PUSH2 0x2AE9 JUMPI PUSH2 0x3E8 SWAP1 POP JUMPDEST DUP1 PUSH1 0xA PUSH1 0x0 DUP5 PUSH20 0xFFFFFFFFFFFFFFFFFFFFFFFFFFFFFFFFFFFFFFFF AND PUSH20 0xFFFFFFFFFFFFFFFFFFFFFFFFFFFFFFFFFFFFFFFF AND DUP2 MSTORE PUSH1 0x20 ADD SWAP1 DUP2 MSTORE PUSH1 0x20 ADD PUSH1 0x0 KECCAK256 DUP2 SWAP1 SSTORE POP POP POP JUMP JUMPDEST TIMESTAMP DUP3 PUSH1 0x0 ADD DUP2 SWAP1 SSTORE POP PUSH1 0x1 DUP3 PUSH1 0x5 ADD PUSH1 0x0 PUSH2 0x100 EXP DUP2 SLOAD DUP2 PUSH1 0xFF MUL NOT AND SWAP1 DUP4 PUSH1 0x3 DUP2 GT ISZERO PUSH2 0x2B62 JUMPI PUSH2 0x2B61 PUSH2 0x32C1 JUMP JUMPDEST JUMPDEST MUL OR SWAP1 SSTORE POP DUP2 PUSH1 0xC PUSH1 0x0 DUP6 DUP2 MSTORE PUSH1 0x20 ADD SWAP1 DUP2 MSTORE PUSH1 0x20 ADD PUSH1 0x0 KECCAK256 PUSH1 0x0 DUP3 ADD SLOAD DUP2 PUSH1 0x0 ADD SSTORE PUSH1 0x1 DUP3 ADD SLOAD DUP2 PUSH1 0x1 ADD SSTORE PUSH1 0x2 DUP3 ADD SLOAD DUP2 PUSH1 0x2 ADD SSTORE PUSH1 0x3 DUP3 ADD SLOAD DUP2 PUSH1 0x3 ADD SSTORE PUSH1 0x4 DUP3 ADD SLOAD DUP2 PUSH1 0x4 ADD SSTORE PUSH1 0x5 DUP3 ADD PUSH1 0x0 SWAP1 SLOAD SWAP1 PUSH2 0x100 EXP SWAP1 DIV PUSH1 0xFF AND DUP2 PUSH1 0x5 ADD PUSH1 0x0 PUSH2 0x100 EXP DUP2 SLOAD DUP2 PUSH1 0xFF MUL NOT AND SWAP1 DUP4 PUSH1 0x3 DUP2 GT ISZERO PUSH2 0x2BE5 JUMPI PUSH2 0x2BE4 PUSH2 0x32C1 JUMP JUMPDEST JUMPDEST MUL OR SWAP1 SSTORE POP SWAP1 POP POP DUP1 PUSH20 0xFFFFFFFFFFFFFFFFFFFFFFFFFFFFFFFFFFFFFFFF AND PUSH2 0x8FC DUP4 PUSH1 0x1 ADD SLOAD SWAP1 DUP2 ISZERO MUL SWAP1 PUSH1 0x40 MLOAD PUSH1 0x0 PUSH1 0x40 MLOAD DUP1 DUP4 SUB DUP2 DUP6 DUP9 DUP9 CALL SWAP4 POP POP POP POP PUSH2 0x2C65 JUMPI PUSH1 0x40 MLOAD PUSH32 0x8C379A000000000000000000000000000000000000000000000000000000000 DUP2 MSTORE PUSH1 0x4 ADD PUSH2 0x2C5C SWAP1 PUSH2 0x3986 JUMP JUMPDEST PUSH1 0x40 MLOAD DUP1 SWAP2 SUB SWAP1 REVERT JUMPDEST PUSH2 0x2C6E DUP4 PUSH2 0x30AF JUMP JUMPDEST POP POP POP JUMP JUMPDEST DUP1 PUSH1 0x0 ADD PUSH1 0x0 SWAP1 SLOAD SWAP1 PUSH2 0x100 EXP SWAP1 DIV PUSH20 0xFFFFFFFFFFFFFFFFFFFFFFFFFFFFFFFFFFFFFFFF AND PUSH20 0xFFFFFFFFFFFFFFFFFFFFFFFFFFFFFFFFFFFFFFFF AND PUSH2 0x8FC DUP3 PUSH1 0x1 ADD SLOAD SWAP1 DUP2 ISZERO MUL SWAP1 PUSH1 0x40 MLOAD PUSH1 0x0 PUSH1 0x40 MLOAD DUP1 DUP4 SUB DUP2 DUP6 DUP9 DUP9 CALL SWAP4 POP POP POP POP PUSH2 0x2D0F JUMPI PUSH1 0x40 MLOAD PUSH32 0x8C379A000000000000000000000000000000000000000000000000000000000 DUP2 MSTORE PUSH1 0x4 ADD PUSH2 0x2D06 SWAP1 PUSH2 0x3986 JUMP JUMPDEST PUSH1 0x40 MLOAD DUP1 SWAP2 SUB SWAP1 REVERT JUMPDEST PUSH1 0x2 DUP2 PUSH1 0x3 ADD PUSH1 0x0 PUSH2 0x100 EXP DUP2 SLOAD DUP2 PUSH1 0xFF MUL NOT AND SWAP1 DUP4 PUSH1 0x3 DUP2 GT ISZERO PUSH2 0x2D37 JUMPI PUSH2 0x2D36 PUSH2 0x32C1 JUMP JUMPDEST JUMPDEST MUL OR SWAP1 SSTORE POP PUSH1 0xF PUSH1 0x0 DUP5 DUP2 MSTORE PUSH1 0x20 ADD SWAP1 DUP2 MSTORE PUSH1 0x20 ADD PUSH1 0x0 KECCAK256 PUSH1 0x0 DUP3 PUSH1 0x0 ADD PUSH1 0x0 SWAP1 SLOAD SWAP1 PUSH2 0x100 EXP SWAP1 DIV PUSH20 0xFFFFFFFFFFFFFFFFFFFFFFFFFFFFFFFFFFFFFFFF AND PUSH20 0xFFFFFFFFFFFFFFFFFFFFFFFFFFFFFFFFFFFFFFFF AND PUSH20 0xFFFFFFFFFFFFFFFFFFFFFFFFFFFFFFFFFFFFFFFF AND DUP2 MSTORE PUSH1 0x20 ADD SWAP1 DUP2 MSTORE PUSH1 0x20 ADD PUSH1 0x0 KECCAK256 PUSH1 0x0 SWAP1 SSTORE DUP1 PUSH1 0xE PUSH1 0x0 DUP6 DUP2 MSTORE PUSH1 0x20 ADD SWAP1 DUP2 MSTORE PUSH1 0x20 ADD PUSH1 0x0 KECCAK256 PUSH1 0x0 DUP5 DUP2 MSTORE PUSH1 0x20 ADD SWAP1 DUP2 MSTORE PUSH1 0x20 ADD PUSH1 0x0 KECCAK256 PUSH1 0x0 DUP3 ADD PUSH1 0x0 SWAP1 SLOAD SWAP1 PUSH2 0x100 EXP SWAP1 DIV PUSH20 0xFFFFFFFFFFFFFFFFFFFFFFFFFFFFFFFFFFFFFFFF AND DUP2 PUSH1 0x0 ADD PUSH1 0x0 PUSH2 0x100 EXP DUP2 SLOAD DUP2 PUSH20 0xFFFFFFFFFFFFFFFFFFFFFFFFFFFFFFFFFFFFFFFF MUL NOT AND SWAP1 DUP4 PUSH20 0xFFFFFFFFFFFFFFFFFFFFFFFFFFFFFFFFFFFFFFFF AND MUL OR SWAP1 SSTORE POP PUSH1 0x1 DUP3 ADD SLOAD DUP2 PUSH1 0x1 ADD SSTORE PUSH1 0x2 DUP3 ADD SLOAD DUP2 PUSH1 0x2 ADD SSTORE PUSH1 0x3 DUP3 ADD PUSH1 0x0 SWAP1 SLOAD SWAP1 PUSH2 0x100 EXP SWAP1 DIV PUSH1 0xFF AND DUP2 PUSH1 0x3 ADD PUSH1 0x0 PUSH2 0x100 EXP DUP2 SLOAD DUP2 PUSH1 0xFF MUL NOT AND SWAP1 DUP4 PUSH1 0x3 DUP2 GT ISZERO PUSH2 0x2E8C JUMPI PUSH2 0x2E8B PUSH2 0x32C1 JUMP JUMPDEST JUMPDEST MUL OR SWAP1 SSTORE POP SWAP1 POP POP POP POP POP JUMP JUMPDEST PUSH1 0x0 PUSH1 0xA PUSH1 0x0 DUP4 PUSH20 0xFFFFFFFFFFFFFFFFFFFFFFFFFFFFFFFFFFFFFFFF AND PUSH20 0xFFFFFFFFFFFFFFFFFFFFFFFFFFFFFFFFFFFFFFFF AND DUP2 MSTORE PUSH1 0x20 ADD SWAP1 DUP2 MSTORE PUSH1 0x20 ADD PUSH1 0x0 KECCAK256 SLOAD SWAP1 POP PUSH1 0x64 DUP2 PUSH2 0x2EEA SWAP2 SWAP1 PUSH2 0x3789 JUMP JUMPDEST SWAP1 POP DUP1 PUSH1 0xA PUSH1 0x0 DUP5 PUSH20 0xFFFFFFFFFFFFFFFFFFFFFFFFFFFFFFFFFFFFFFFF AND PUSH20 0xFFFFFFFFFFFFFFFFFFFFFFFFFFFFFFFFFFFFFFFF AND DUP2 MSTORE PUSH1 0x20 ADD SWAP1 DUP2 MSTORE PUSH1 0x20 ADD PUSH1 0x0 KECCAK256 DUP2 SWAP1 SSTORE POP POP POP JUMP JUMPDEST PUSH1 0x0 DUP1 DUP4 PUSH1 0x20 ADD MLOAD SUB PUSH2 0x2F49 JUMPI DUP2 SWAP1 POP PUSH2 0x2F9A JUMP JUMPDEST PUSH1 0x0 DUP4 PUSH1 0x60 ADD MLOAD DUP5 PUSH1 0x80 ADD MLOAD PUSH2 0x2F5F SWAP2 SWAP1 PUSH2 0x3789 JUMP JUMPDEST SWAP1 POP DUP1 DUP5 PUSH1 0x20 ADD MLOAD LT ISZERO PUSH2 0x2F75 JUMPI DUP4 PUSH1 0x20 ADD MLOAD SWAP1 POP JUMPDEST PUSH1 0x0 DUP5 PUSH1 0x20 ADD MLOAD DUP3 DUP6 PUSH2 0x2F88 SWAP2 SWAP1 PUSH2 0x3747 JUMP JUMPDEST PUSH2 0x2F92 SWAP2 SWAP1 PUSH2 0x37EC JUMP JUMPDEST SWAP1 POP DUP1 SWAP3 POP POP POP JUMPDEST SWAP3 SWAP2 POP POP JUMP JUMPDEST PUSH1 0x0 DUP1 PUSH1 0x0 DUP6 PUSH1 0x20 ADD MLOAD SUB PUSH2 0x2FBF JUMPI DUP4 PUSH1 0x20 ADD MLOAD PUSH1 0x0 SWAP2 POP SWAP2 POP PUSH2 0x30A6 JUMP JUMPDEST PUSH1 0x0 DUP6 PUSH1 0x60 ADD MLOAD DUP7 PUSH1 0x80 ADD MLOAD PUSH2 0x2FD5 SWAP2 SWAP1 PUSH2 0x3789 JUMP JUMPDEST SWAP1 POP PUSH1 0x0 DUP2 DUP8 PUSH1 0x80 ADD MLOAD PUSH2 0x2FE9 SWAP2 SWAP1 PUSH2 0x3789 JUMP JUMPDEST SWAP1 POP DUP8 PUSH1 0x80 ADD MLOAD DUP3 PUSH2 0x2FFB SWAP2 SWAP1 PUSH2 0x381D JUMP JUMPDEST SWAP2 POP DUP2 DUP8 PUSH1 0x20 ADD MLOAD LT ISZERO PUSH2 0x3011 JUMPI DUP7 PUSH1 0x20 ADD MLOAD SWAP2 POP JUMPDEST PUSH1 0x0 DUP8 PUSH1 0x60 ADD MLOAD DUP8 PUSH1 0x40 ADD MLOAD DUP4 PUSH2 0x3028 SWAP2 SWAP1 PUSH2 0x3747 JUMP JUMPDEST PUSH2 0x3032 SWAP2 SWAP1 PUSH2 0x37EC JUMP JUMPDEST SWAP1 POP PUSH1 0x0 DUP9 PUSH1 0x20 ADD MLOAD DUP9 PUSH1 0x20 ADD MLOAD DUP6 PUSH2 0x304B SWAP2 SWAP1 PUSH2 0x3747 JUMP JUMPDEST PUSH2 0x3055 SWAP2 SWAP1 PUSH2 0x37EC JUMP JUMPDEST SWAP1 POP PUSH1 0x0 DUP3 DUP3 PUSH2 0x3065 SWAP2 SWAP1 PUSH2 0x381D JUMP JUMPDEST SWAP1 POP PUSH1 0x0 DUP11 PUSH1 0x20 ADD MLOAD DUP11 PUSH1 0x20 ADD MLOAD DUP11 DUP15 PUSH1 0x40 ADD MLOAD PUSH2 0x3083 SWAP2 SWAP1 PUSH2 0x3789 JUMP JUMPDEST PUSH2 0x308D SWAP2 SWAP1 PUSH2 0x3747 JUMP JUMPDEST PUSH2 0x3097 SWAP2 SWAP1 PUSH2 0x37EC JUMP JUMPDEST SWAP1 POP DUP2 DUP2 SWAP8 POP SWAP8 POP POP POP POP POP POP POP JUMPDEST SWAP5 POP SWAP5 SWAP3 POP POP POP JUMP JUMPDEST PUSH1 0x0 PUSH1 0xD PUSH1 0x0 DUP4 DUP2 MSTORE PUSH1 0x20 ADD SWAP1 DUP2 MSTORE PUSH1 0x20 ADD PUSH1 0x0 KECCAK256 SLOAD SWAP1 POP PUSH1 0x0 JUMPDEST DUP2 DUP2 LT ISZERO PUSH2 0x3157 JUMPI PUSH1 0x0 PUSH1 0xE PUSH1 0x0 DUP6 DUP2 MSTORE PUSH1 0x20 ADD SWAP1 DUP2 MSTORE PUSH1 0x20 ADD PUSH1 0x0 KECCAK256 PUSH1 0x0 DUP4 DUP2 MSTORE PUSH1 0x20 ADD SWAP1 DUP2 MSTORE PUSH1 0x20 ADD PUSH1 0x0 KECCAK256 SWAP1 POP PUSH1 0x0 PUSH1 0x3 DUP2 GT ISZERO PUSH2 0x310E JUMPI PUSH2 0x310D PUSH2 0x32C1 JUMP JUMPDEST JUMPDEST DUP2 PUSH1 0x3 ADD PUSH1 0x0 SWAP1 SLOAD SWAP1 PUSH2 0x100 EXP SWAP1 DIV PUSH1 0xFF AND PUSH1 0x3 DUP2 GT ISZERO PUSH2 0x3132 JUMPI PUSH2 0x3131 PUSH2 0x32C1 JUMP JUMPDEST JUMPDEST SUB PUSH2 0x3143 JUMPI PUSH2 0x3142 DUP5 DUP4 DUP4 PUSH2 0x2C73 JUMP JUMPDEST JUMPDEST POP DUP1 DUP1 PUSH2 0x314F SWAP1 PUSH2 0x3BE8 JUMP JUMPDEST SWAP2 POP POP PUSH2 0x30CA JUMP JUMPDEST POP POP POP JUMP JUMPDEST PUSH1 0x0 DUP2 SWAP1 POP SWAP2 SWAP1 POP JUMP JUMPDEST PUSH2 0x316F DUP2 PUSH2 0x315C JUMP JUMPDEST DUP3 MSTORE POP POP JUMP JUMPDEST PUSH1 0x0 PUSH1 0x20 DUP3 ADD SWAP1 POP PUSH2 0x318A PUSH1 0x0 DUP4 ADD DUP5 PUSH2 0x3166 JUMP JUMPDEST SWAP3 SWAP2 POP POP JUMP JUMPDEST PUSH1 0x0 DUP1 REVERT JUMPDEST PUSH1 0x0 PUSH20 0xFFFFFFFFFFFFFFFFFFFFFFFFFFFFFFFFFFFFFFFF DUP3 AND SWAP1 POP SWAP2 SWAP1 POP JUMP JUMPDEST PUSH1 0x0 PUSH2 0x31C0 DUP3 PUSH2 0x3195 JUMP JUMPDEST SWAP1 POP SWAP2 SWAP1 POP JUMP JUMPDEST PUSH2 0x31D0 DUP2 PUSH2 0x31B5 JUMP JUMPDEST DUP2 EQ PUSH2 0x31DB JUMPI PUSH1 0x0 DUP1 REVERT JUMPDEST POP JUMP JUMPDEST PUSH1 0x0 DUP2 CALLDATALOAD SWAP1 POP PUSH2 0x31ED DUP2 PUSH2 0x31C7 JUMP JUMPDEST SWAP3 SWAP2 POP POP JUMP JUMPDEST PUSH2 0x31FC DUP2 PUSH2 0x315C JUMP JUMPDEST DUP2 EQ PUSH2 0x3207 JUMPI PUSH1 0x0 DUP1 REVERT JUMPDEST POP JUMP JUMPDEST PUSH1 0x0 DUP2 CALLDATALOAD SWAP1 POP PUSH2 0x3219 DUP2 PUSH2 0x31F3 JUMP JUMPDEST SWAP3 SWAP2 POP POP JUMP JUMPDEST PUSH1 0x0 DUP1 PUSH1 0x0 PUSH1 0x60 DUP5 DUP7 SUB SLT ISZERO PUSH2 0x3238 JUMPI PUSH2 0x3237 PUSH2 0x3190 JUMP JUMPDEST JUMPDEST PUSH1 0x0 PUSH2 0x3246 DUP7 DUP3 DUP8 ADD PUSH2 0x31DE JUMP JUMPDEST SWAP4 POP POP PUSH1 0x20 PUSH2 0x3257 DUP7 DUP3 DUP8 ADD PUSH2 0x320A JUMP JUMPDEST SWAP3 POP POP PUSH1 0x40 PUSH2 0x3268 DUP7 DUP3 DUP8 ADD PUSH2 0x320A JUMP JUMPDEST SWAP2 POP POP SWAP3 POP SWAP3 POP SWAP3 JUMP JUMPDEST PUSH1 0x0 DUP1 PUSH1 0x40 DUP4 DUP6 SUB SLT ISZERO PUSH2 0x3289 JUMPI PUSH2 0x3288 PUSH2 0x3190 JUMP JUMPDEST JUMPDEST PUSH1 0x0 PUSH2 0x3297 DUP6 DUP3 DUP7 ADD PUSH2 0x320A JUMP JUMPDEST SWAP3 POP POP PUSH1 0x20 PUSH2 0x32A8 DUP6 DUP3 DUP7 ADD PUSH2 0x320A JUMP JUMPDEST SWAP2 POP POP SWAP3 POP SWAP3 SWAP1 POP JUMP JUMPDEST PUSH2 0x32BB DUP2 PUSH2 0x31B5 JUMP JUMPDEST DUP3 MSTORE POP POP JUMP JUMPDEST PUSH32 0x4E487B7100000000000000000000000000000000000000000000000000000000 PUSH1 0x0 MSTORE PUSH1 0x21 PUSH1 0x4 MSTORE PUSH1 0x24 PUSH1 0x0 REVERT JUMPDEST PUSH1 0x4 DUP2 LT PUSH2 0x3301 JUMPI PUSH2 0x3300 PUSH2 0x32C1 JUMP JUMPDEST JUMPDEST POP JUMP JUMPDEST PUSH1 0x0 DUP2 SWAP1 POP PUSH2 0x3312 DUP3 PUSH2 0x32F0 JUMP JUMPDEST SWAP2 SWAP1 POP JUMP JUMPDEST PUSH1 0x0 PUSH2 0x3322 DUP3 PUSH2 0x3304 JUMP JUMPDEST SWAP1 POP SWAP2 SWAP1 POP JUMP JUMPDEST PUSH2 0x3332 DUP2 PUSH2 0x3317 JUMP JUMPDEST DUP3 MSTORE POP POP JUMP JUMPDEST PUSH1 0x0 PUSH1 0x80 DUP3 ADD SWAP1 POP PUSH2 0x334D PUSH1 0x0 DUP4 ADD DUP8 PUSH2 0x32B2 JUMP JUMPDEST PUSH2 0x335A PUSH1 0x20 DUP4 ADD DUP7 PUSH2 0x3166 JUMP JUMPDEST PUSH2 0x3367 PUSH1 0x40 DUP4 ADD DUP6 PUSH2 0x3166 JUMP JUMPDEST PUSH2 0x3374 PUSH1 0x60 DUP4 ADD DUP5 PUSH2 0x3329 JUMP JUMPDEST SWAP6 SWAP5 POP POP POP POP POP JUMP JUMPDEST PUSH1 0x0 PUSH1 0x20 DUP3 DUP5 SUB SLT ISZERO PUSH2 0x3393 JUMPI PUSH2 0x3392 PUSH2 0x3190 JUMP JUMPDEST JUMPDEST PUSH1 0x0 PUSH2 0x33A1 DUP5 DUP3 DUP6 ADD PUSH2 0x320A JUMP JUMPDEST SWAP2 POP POP SWAP3 SWAP2 POP POP JUMP JUMPDEST PUSH1 0x0 PUSH1 0x20 DUP3 DUP5 SUB SLT ISZERO PUSH2 0x33C0 JUMPI PUSH2 0x33BF PUSH2 0x3190 JUMP JUMPDEST JUMPDEST PUSH1 0x0 PUSH2 0x33CE DUP5 DUP3 DUP6 ADD PUSH2 0x31DE JUMP JUMPDEST SWAP2 POP POP SWAP3 SWAP2 POP POP JUMP JUMPDEST PUSH1 0x0 DUP2 MLOAD SWAP1 POP SWAP2 SWAP1 POP JUMP JUMPDEST PUSH1 0x0 DUP3 DUP3 MSTORE PUSH1 0x20 DUP3 ADD SWAP1 POP SWAP3 SWAP2 POP POP JUMP JUMPDEST PUSH1 0x0 JUMPDEST DUP4 DUP2 LT ISZERO PUSH2 0x3411 JUMPI DUP1 DUP3 ADD MLOAD DUP2 DUP5 ADD MSTORE PUSH1 0x20 DUP2 ADD SWAP1 POP PUSH2 0x33F6 JUMP JUMPDEST PUSH1 0x0 DUP5 DUP5 ADD MSTORE POP POP POP POP JUMP JUMPDEST PUSH1 0x0 PUSH1 0x1F NOT PUSH1 0x1F DUP4 ADD AND SWAP1 POP SWAP2 SWAP1 POP JUMP JUMPDEST PUSH1 0x0 PUSH2 0x3439 DUP3 PUSH2 0x33D7 JUMP JUMPDEST PUSH2 0x3443 DUP2 DUP6 PUSH2 0x33E2 JUMP JUMPDEST SWAP4 POP PUSH2 0x3453 DUP2 DUP6 PUSH1 0x20 DUP7 ADD PUSH2 0x33F3 JUMP JUMPDEST PUSH2 0x345C DUP2 PUSH2 0x341D JUMP JUMPDEST DUP5 ADD SWAP2 POP POP SWAP3 SWAP2 POP POP JUMP JUMPDEST PUSH1 0x0 PUSH1 0x20 DUP3 ADD SWAP1 POP DUP2 DUP2 SUB PUSH1 0x0 DUP4 ADD MSTORE PUSH2 0x3481 DUP2 DUP5 PUSH2 0x342E JUMP JUMPDEST SWAP1 POP SWAP3 SWAP2 POP POP JUMP JUMPDEST PUSH1 0x0 DUP1 PUSH1 0x0 DUP1 PUSH1 0x80 DUP6 DUP8 SUB SLT ISZERO PUSH2 0x34A3 JUMPI PUSH2 0x34A2 PUSH2 0x3190 JUMP JUMPDEST JUMPDEST PUSH1 0x0 PUSH2 0x34B1 DUP8 DUP3 DUP9 ADD PUSH2 0x320A JUMP JUMPDEST SWAP5 POP POP PUSH1 0x20 PUSH2 0x34C2 DUP8 DUP3 DUP9 ADD PUSH2 0x320A JUMP JUMPDEST SWAP4 POP POP PUSH1 0x40 PUSH2 0x34D3 DUP8 DUP3 DUP9 ADD PUSH2 0x320A JUMP JUMPDEST SWAP3 POP POP PUSH1 0x60 PUSH2 0x34E4 DUP8 DUP3 DUP9 ADD PUSH2 0x320A JUMP JUMPDEST SWAP2 POP POP SWAP3 SWAP6 SWAP2 SWAP5 POP SWAP3 POP JUMP JUMPDEST PUSH1 0x4 DUP2 LT PUSH2 0x3501 JUMPI PUSH2 0x3500 PUSH2 0x32C1 JUMP JUMPDEST JUMPDEST POP JUMP JUMPDEST PUSH1 0x0 DUP2 SWAP1 POP PUSH2 0x3512 DUP3 PUSH2 0x34F0 JUMP JUMPDEST SWAP2 SWAP1 POP JUMP JUMPDEST PUSH1 0x0 PUSH2 0x3522 DUP3 PUSH2 0x3504 JUMP JUMPDEST SWAP1 POP SWAP2 SWAP1 POP JUMP JUMPDEST PUSH2 0x3532 DUP2 PUSH2 0x3517 JUMP JUMPDEST DUP3 MSTORE POP POP JUMP JUMPDEST PUSH1 0x0 PUSH1 0xC0 DUP3 ADD SWAP1 POP PUSH2 0x354D PUSH1 0x0 DUP4 ADD DUP10 PUSH2 0x3166 JUMP JUMPDEST PUSH2 0x355A PUSH1 0x20 DUP4 ADD DUP9 PUSH2 0x3166 JUMP JUMPDEST PUSH2 0x3567 PUSH1 0x40 DUP4 ADD DUP8 PUSH2 0x3166 JUMP JUMPDEST PUSH2 0x3574 PUSH1 0x60 DUP4 ADD DUP7 PUSH2 0x3166 JUMP JUMPDEST PUSH2 0x3581 PUSH1 0x80 DUP4 ADD DUP6 PUSH2 0x3166 JUMP JUMPDEST PUSH2 0x358E PUSH1 0xA0 DUP4 ADD DUP5 PUSH2 0x3529 JUMP JUMPDEST SWAP8 SWAP7 POP POP POP POP POP POP POP JUMP JUMPDEST PUSH1 0x0 DUP2 ISZERO ISZERO SWAP1 POP SWAP2 SWAP1 POP JUMP JUMPDEST PUSH2 0x35AE DUP2 PUSH2 0x3599 JUMP JUMPDEST DUP2 EQ PUSH2 0x35B9 JUMPI PUSH1 0x0 DUP1 REVERT JUMPDEST POP JUMP JUMPDEST PUSH1 0x0 DUP2 CALLDATALOAD SWAP1 POP PUSH2 0x35CB DUP2 PUSH2 0x35A5 JUMP JUMPDEST SWAP3 SWAP2 POP POP JUMP JUMPDEST PUSH1 0x0 DUP1 PUSH1 0x0 PUSH1 0x60 DUP5 DUP7 SUB SLT ISZERO PUSH2 0x35EA JUMPI PUSH2 0x35E9 PUSH2 0x3190 JUMP JUMPDEST JUMPDEST PUSH1 0x0 PUSH2 0x35F8 DUP7 DUP3 DUP8 ADD PUSH2 0x320A JUMP JUMPDEST SWAP4 POP POP PUSH1 0x20 PUSH2 0x3609 DUP7 DUP3 DUP8 ADD PUSH2 0x320A JUMP JUMPDEST SWAP3 POP POP PUSH1 0x40 PUSH2 0x361A DUP7 DUP3 DUP8 ADD PUSH2 0x35BC JUMP JUMPDEST SWAP2 POP POP SWAP3 POP SWAP3 POP SWAP3 JUMP JUMPDEST PUSH1 0x0 PUSH1 0x20 DUP3 ADD SWAP1 POP PUSH2 0x3639 PUSH1 0x0 DUP4 ADD DUP5 PUSH2 0x32B2 JUMP JUMPDEST SWAP3 SWAP2 POP POP JUMP JUMPDEST PUSH1 0x0 PUSH1 0xE0 DUP3 ADD SWAP1 POP PUSH2 0x3654 PUSH1 0x0 DUP4 ADD DUP11 PUSH2 0x32B2 JUMP JUMPDEST PUSH2 0x3661 PUSH1 0x20 DUP4 ADD DUP10 PUSH2 0x3166 JUMP JUMPDEST PUSH2 0x366E PUSH1 0x40 DUP4 ADD DUP9 PUSH2 0x3166 JUMP JUMPDEST PUSH2 0x367B PUSH1 0x60 DUP4 ADD DUP8 PUSH2 0x3166 JUMP JUMPDEST PUSH2 0x3688 PUSH1 0x80 DUP4 ADD DUP7 PUSH2 0x3166 JUMP JUMPDEST PUSH2 0x3695 PUSH1 0xA0 DUP4 ADD DUP6 PUSH2 0x3166 JUMP JUMPDEST PUSH2 0x36A2 PUSH1 0xC0 DUP4 ADD DUP5 PUSH2 0x3166 JUMP JUMPDEST SWAP9 SWAP8 POP POP POP POP POP POP POP POP JUMP JUMPDEST PUSH2 0x36B7 DUP2 PUSH2 0x3599 JUMP JUMPDEST DUP3 MSTORE POP POP JUMP JUMPDEST PUSH1 0x0 PUSH1 0x20 DUP3 ADD SWAP1 POP PUSH2 0x36D2 PUSH1 0x0 DUP4 ADD DUP5 PUSH2 0x36AE JUMP JUMPDEST SWAP3 SWAP2 POP POP JUMP JUMPDEST PUSH1 0x0 DUP1 PUSH1 0x40 DUP4 DUP6 SUB SLT ISZERO PUSH2 0x36EF JUMPI PUSH2 0x36EE PUSH2 0x3190 JUMP JUMPDEST JUMPDEST PUSH1 0x0 PUSH2 0x36FD DUP6 DUP3 DUP7 ADD PUSH2 0x320A JUMP JUMPDEST SWAP3 POP POP PUSH1 0x20 PUSH2 0x370E DUP6 DUP3 DUP7 ADD PUSH2 0x31DE JUMP JUMPDEST SWAP2 POP POP SWAP3 POP SWAP3 SWAP1 POP JUMP JUMPDEST PUSH32 0x4E487B7100000000000000000000000000000000000000000000000000000000 PUSH1 0x0 MSTORE PUSH1 0x11 PUSH1 0x4 MSTORE PUSH1 0x24 PUSH1 0x0 REVERT JUMPDEST PUSH1 0x0 PUSH2 0x3752 DUP3 PUSH2 0x315C JUMP JUMPDEST SWAP2 POP PUSH2 0x375D DUP4 PUSH2 0x315C JUMP JUMPDEST SWAP3 POP DUP3 DUP3 MUL PUSH2 0x376B DUP2 PUSH2 0x315C JUMP JUMPDEST SWAP2 POP DUP3 DUP3 DIV DUP5 EQ DUP4 ISZERO OR PUSH2 0x3782 JUMPI PUSH2 0x3781 PUSH2 0x3718 JUMP JUMPDEST JUMPDEST POP SWAP3 SWAP2 POP POP JUMP JUMPDEST PUSH1 0x0 PUSH2 0x3794 DUP3 PUSH2 0x315C JUMP JUMPDEST SWAP2 POP PUSH2 0x379F DUP4 PUSH2 0x315C JUMP JUMPDEST SWAP3 POP DUP3 DUP3 SUB SWAP1 POP DUP2 DUP2 GT ISZERO PUSH2 0x37B7 JUMPI PUSH2 0x37B6 PUSH2 0x3718 JUMP JUMPDEST JUMPDEST SWAP3 SWAP2 POP POP JUMP JUMPDEST PUSH32 0x4E487B7100000000000000000000000000000000000000000000000000000000 PUSH1 0x0 MSTORE PUSH1 0x12 PUSH1 0x4 MSTORE PUSH1 0x24 PUSH1 0x0 REVERT JUMPDEST PUSH1 0x0 PUSH2 0x37F7 DUP3 PUSH2 0x315C JUMP JUMPDEST SWAP2 POP PUSH2 0x3802 DUP4 PUSH2 0x315C JUMP JUMPDEST SWAP3 POP DUP3 PUSH2 0x3812 JUMPI PUSH2 0x3811 PUSH2 0x37BD JUMP JUMPDEST JUMPDEST DUP3 DUP3 DIV SWAP1 POP SWAP3 SWAP2 POP POP JUMP JUMPDEST PUSH1 0x0 PUSH2 0x3828 DUP3 PUSH2 0x315C JUMP JUMPDEST SWAP2 POP PUSH2 0x3833 DUP4 PUSH2 0x315C JUMP JUMPDEST SWAP3 POP DUP3 DUP3 ADD SWAP1 POP DUP1 DUP3 GT ISZERO PUSH2 0x384B JUMPI PUSH2 0x384A PUSH2 0x3718 JUMP JUMPDEST JUMPDEST SWAP3 SWAP2 POP POP JUMP JUMPDEST PUSH1 0x0 DUP3 DUP3 MSTORE PUSH1 0x20 DUP3 ADD SWAP1 POP SWAP3 SWAP2 POP POP JUMP JUMPDEST PUSH32 0x4E6F74417574686F72697A656400000000000000000000000000000000000000 PUSH1 0x0 DUP3 ADD MSTORE POP JUMP JUMPDEST PUSH1 0x0 PUSH2 0x3898 PUSH1 0xD DUP4 PUSH2 0x3851 JUMP JUMPDEST SWAP2 POP PUSH2 0x38A3 DUP3 PUSH2 0x3862 JUMP JUMPDEST PUSH1 0x20 DUP3 ADD SWAP1 POP SWAP2 SWAP1 POP JUMP JUMPDEST PUSH1 0x0 PUSH1 0x20 DUP3 ADD SWAP1 POP DUP2 DUP2 SUB PUSH1 0x0 DUP4 ADD MSTORE PUSH2 0x38C7 DUP2 PUSH2 0x388B JUMP JUMPDEST SWAP1 POP SWAP2 SWAP1 POP JUMP JUMPDEST PUSH32 0x4C6F616E49734E6F744F70656E00000000000000000000000000000000000000 PUSH1 0x0 DUP3 ADD MSTORE POP JUMP JUMPDEST PUSH1 0x0 PUSH2 0x3904 PUSH1 0xD DUP4 PUSH2 0x3851 JUMP JUMPDEST SWAP2 POP PUSH2 0x390F DUP3 PUSH2 0x38CE JUMP JUMPDEST PUSH1 0x20 DUP3 ADD SWAP1 POP SWAP2 SWAP1 POP JUMP JUMPDEST PUSH1 0x0 PUSH1 0x20 DUP3 ADD SWAP1 POP DUP2 DUP2 SUB PUSH1 0x0 DUP4 ADD MSTORE PUSH2 0x3933 DUP2 PUSH2 0x38F7 JUMP JUMPDEST SWAP1 POP SWAP2 SWAP1 POP JUMP JUMPDEST PUSH32 0x57697468647261774661696C6564000000000000000000000000000000000000 PUSH1 0x0 DUP3 ADD MSTORE POP JUMP JUMPDEST PUSH1 0x0 PUSH2 0x3970 PUSH1 0xE DUP4 PUSH2 0x3851 JUMP JUMPDEST SWAP2 POP PUSH2 0x397B DUP3 PUSH2 0x393A JUMP JUMPDEST PUSH1 0x20 DUP3 ADD SWAP1 POP SWAP2 SWAP1 POP JUMP JUMPDEST PUSH1 0x0 PUSH1 0x20 DUP3 ADD SWAP1 POP DUP2 DUP2 SUB PUSH1 0x0 DUP4 ADD MSTORE PUSH2 0x399F DUP2 PUSH2 0x3963 JUMP JUMPDEST SWAP1 POP SWAP2 SWAP1 POP JUMP JUMPDEST PUSH32 0x4E6F7420696E20746865206F6666657220706861736500000000000000000000 PUSH1 0x0 DUP3 ADD MSTORE POP JUMP JUMPDEST PUSH1 0x0 PUSH2 0x39DC PUSH1 0x16 DUP4 PUSH2 0x3851 JUMP JUMPDEST SWAP2 POP PUSH2 0x39E7 DUP3 PUSH2 0x39A6 JUMP JUMPDEST PUSH1 0x20 DUP3 ADD SWAP1 POP SWAP2 SWAP1 POP JUMP JUMPDEST PUSH1 0x0 PUSH1 0x20 DUP3 ADD SWAP1 POP DUP2 DUP2 SUB PUSH1 0x0 DUP4 ADD MSTORE PUSH2 0x3A0B DUP2 PUSH2 0x39CF JUMP JUMPDEST SWAP1 POP SWAP2 SWAP1 POP JUMP JUMPDEST PUSH32 0x4F66666572206973206E6F7420696E207468652070656E64696E672073746174 PUSH1 0x0 DUP3 ADD MSTORE PUSH32 0x6500000000000000000000000000000000000000000000000000000000000000 PUSH1 0x20 DUP3 ADD MSTORE POP JUMP JUMPDEST PUSH1 0x0 PUSH2 0x3A6E PUSH1 0x21 DUP4 PUSH2 0x3851 JUMP JUMPDEST SWAP2 POP PUSH2 0x3A79 DUP3 PUSH2 0x3A12 JUMP JUMPDEST PUSH1 0x40 DUP3 ADD SWAP1 POP SWAP2 SWAP1 POP JUMP JUMPDEST PUSH1 0x0 PUSH1 0x20 DUP3 ADD SWAP1 POP DUP2 DUP2 SUB PUSH1 0x0 DUP4 ADD MSTORE PUSH2 0x3A9D DUP2 PUSH2 0x3A61 JUMP JUMPDEST SWAP1 POP SWAP2 SWAP1 POP JUMP JUMPDEST PUSH32 0x5769746864726177206661696C65640000000000000000000000000000000000 PUSH1 0x0 DUP3 ADD MSTORE POP JUMP JUMPDEST PUSH1 0x0 PUSH2 0x3ADA PUSH1 0xF DUP4 PUSH2 0x3851 JUMP JUMPDEST SWAP2 POP PUSH2 0x3AE5 DUP3 PUSH2 0x3AA4 JUMP JUMPDEST PUSH1 0x20 DUP3 ADD SWAP1 POP SWAP2 SWAP1 POP JUMP JUMPDEST PUSH1 0x0 PUSH1 0x20 DUP3 ADD SWAP1 POP DUP2 DUP2 SUB PUSH1 0x0 DUP4 ADD MSTORE PUSH2 0x3B09 DUP2 PUSH2 0x3ACD JUMP JUMPDEST SWAP1 POP SWAP2 SWAP1 POP JUMP JUMPDEST PUSH32 0x5A65726F56616C75650000000000000000000000000000000000000000000000 PUSH1 0x0 DUP3 ADD MSTORE POP JUMP JUMPDEST PUSH1 0x0 PUSH2 0x3B46 PUSH1 0x9 DUP4 PUSH2 0x3851 JUMP JUMPDEST SWAP2 POP PUSH2 0x3B51 DUP3 PUSH2 0x3B10 JUMP JUMPDEST PUSH1 0x20 DUP3 ADD SWAP1 POP SWAP2 SWAP1 POP JUMP JUMPDEST PUSH1 0x0 PUSH1 0x20 DUP3 ADD SWAP1 POP DUP2 DUP2 SUB PUSH1 0x0 DUP4 ADD MSTORE PUSH2 0x3B75 DUP2 PUSH2 0x3B39 JUMP JUMPDEST SWAP1 POP SWAP2 SWAP1 POP JUMP JUMPDEST PUSH32 0x496E73756666696369656E7453656375726974794465706F7369740000000000 PUSH1 0x0 DUP3 ADD MSTORE POP JUMP JUMPDEST PUSH1 0x0 PUSH2 0x3BB2 PUSH1 0x1B DUP4 PUSH2 0x3851 JUMP JUMPDEST SWAP2 POP PUSH2 0x3BBD DUP3 PUSH2 0x3B7C JUMP JUMPDEST PUSH1 0x20 DUP3 ADD SWAP1 POP SWAP2 SWAP1 POP JUMP JUMPDEST PUSH1 0x0 PUSH1 0x20 DUP3 ADD SWAP1 POP DUP2 DUP2 SUB PUSH1 0x0 DUP4 ADD MSTORE PUSH2 0x3BE1 DUP2 PUSH2 0x3BA5 JUMP JUMPDEST SWAP1 POP SWAP2 SWAP1 POP JUMP JUMPDEST PUSH1 0x0 PUSH2 0x3BF3 DUP3 PUSH2 0x315C JUMP JUMPDEST SWAP2 POP PUSH32 0xFFFFFFFFFFFFFFFFFFFFFFFFFFFFFFFFFFFFFFFFFFFFFFFFFFFFFFFFFFFFFFFF DUP3 SUB PUSH2 0x3C25 JUMPI PUSH2 0x3C24 PUSH2 0x3718 JUMP JUMPDEST JUMPDEST PUSH1 0x1 DUP3 ADD SWAP1 POP SWAP2 SWAP1 POP JUMP JUMPDEST PUSH32 0x4C6F616E49734E6F744163746976650000000000000000000000000000000000 PUSH1 0x0 DUP3 ADD MSTORE POP JUMP JUMPDEST PUSH1 0x0 PUSH2 0x3C66 PUSH1 0xF DUP4 PUSH2 0x3851 JUMP JUMPDEST SWAP2 POP PUSH2 0x3C71 DUP3 PUSH2 0x3C30 JUMP JUMPDEST PUSH1 0x20 DUP3 ADD SWAP1 POP SWAP2 SWAP1 POP JUMP JUMPDEST PUSH1 0x0 PUSH1 0x20 DUP3 ADD SWAP1 POP DUP2 DUP2 SUB PUSH1 0x0 DUP4 ADD MSTORE PUSH2 0x3C95 DUP2 PUSH2 0x3C59 JUMP JUMPDEST SWAP1 POP SWAP2 SWAP1 POP JUMP JUMPDEST PUSH32 0x4C6F616E52657061796D656E74506572696F64416C72656164794F7665720000 PUSH1 0x0 DUP3 ADD MSTORE POP JUMP JUMPDEST PUSH1 0x0 PUSH2 0x3CD2 PUSH1 0x1E DUP4 PUSH2 0x3851 JUMP JUMPDEST SWAP2 POP PUSH2 0x3CDD DUP3 PUSH2 0x3C9C JUMP JUMPDEST PUSH1 0x20 DUP3 ADD SWAP1 POP SWAP2 SWAP1 POP JUMP JUMPDEST PUSH1 0x0 PUSH1 0x20 DUP3 ADD SWAP1 POP DUP2 DUP2 SUB PUSH1 0x0 DUP4 ADD MSTORE PUSH2 0x3D01 DUP2 PUSH2 0x3CC5 JUMP JUMPDEST SWAP1 POP SWAP2 SWAP1 POP JUMP JUMPDEST PUSH32 0x4C6F616E48617345787069726564000000000000000000000000000000000000 PUSH1 0x0 DUP3 ADD MSTORE POP JUMP JUMPDEST PUSH1 0x0 PUSH2 0x3D3E PUSH1 0xE DUP4 PUSH2 0x3851 JUMP JUMPDEST SWAP2 POP PUSH2 0x3D49 DUP3 PUSH2 0x3D08 JUMP JUMPDEST PUSH1 0x20 DUP3 ADD SWAP1 POP SWAP2 SWAP1 POP JUMP JUMPDEST PUSH1 0x0 PUSH1 0x20 DUP3 ADD SWAP1 POP DUP2 DUP2 SUB PUSH1 0x0 DUP4 ADD MSTORE PUSH2 0x3D6D DUP2 PUSH2 0x3D31 JUMP JUMPDEST SWAP1 POP SWAP2 SWAP1 POP JUMP JUMPDEST PUSH32 0x5A65726F56616C75653A204E6F2076616C75652073656E742077697468207468 PUSH1 0x0 DUP3 ADD MSTORE PUSH32 0x65207472616E73616374696F6E00000000000000000000000000000000000000 PUSH1 0x20 DUP3 ADD MSTORE POP JUMP JUMPDEST PUSH1 0x0 PUSH2 0x3DD0 PUSH1 0x2D DUP4 PUSH2 0x3851 JUMP JUMPDEST SWAP2 POP PUSH2 0x3DDB DUP3 PUSH2 0x3D74 JUMP JUMPDEST PUSH1 0x40 DUP3 ADD SWAP1 POP SWAP2 SWAP1 POP JUMP JUMPDEST PUSH1 0x0 PUSH1 0x20 DUP3 ADD SWAP1 POP DUP2 DUP2 SUB PUSH1 0x0 DUP4 ADD MSTORE PUSH2 0x3DFF DUP2 PUSH2 0x3DC3 JUMP JUMPDEST SWAP1 POP SWAP2 SWAP1 POP JUMP JUMPDEST PUSH32 0x4163746976654F66666572416C72656164794578697374733A20596F75206861 PUSH1 0x0 DUP3 ADD MSTORE PUSH32 0x766520616C7265616479206D61646520616E20616374697665206F6666657220 PUSH1 0x20 DUP3 ADD MSTORE PUSH32 0x666F722074686973206C6F616E00000000000000000000000000000000000000 PUSH1 0x40 DUP3 ADD MSTORE POP JUMP JUMPDEST PUSH1 0x0 PUSH2 0x3E88 PUSH1 0x4D DUP4 PUSH2 0x3851 JUMP JUMPDEST SWAP2 POP PUSH2 0x3E93 DUP3 PUSH2 0x3E06 JUMP JUMPDEST PUSH1 0x60 DUP3 ADD SWAP1 POP SWAP2 SWAP1 POP JUMP JUMPDEST PUSH1 0x0 PUSH1 0x20 DUP3 ADD SWAP1 POP DUP2 DUP2 SUB PUSH1 0x0 DUP4 ADD MSTORE PUSH2 0x3EB7 DUP2 PUSH2 0x3E7B JUMP JUMPDEST SWAP1 POP SWAP2 SWAP1 POP JUMP JUMPDEST PUSH32 0x4578636573736976654C656E64696E67416D6F756E7453656E743A204C656E64 PUSH1 0x0 DUP3 ADD MSTORE PUSH32 0x696E6720616D6F756E742065786365656473207468652072656D61696E696E67 PUSH1 0x20 DUP3 ADD MSTORE PUSH32 0x206C696D697420666F722074686973206C6F616E000000000000000000000000 PUSH1 0x40 DUP3 ADD MSTORE POP JUMP JUMPDEST PUSH1 0x0 PUSH2 0x3F40 PUSH1 0x54 DUP4 PUSH2 0x3851 JUMP JUMPDEST SWAP2 POP PUSH2 0x3F4B DUP3 PUSH2 0x3EBE JUMP JUMPDEST PUSH1 0x60 DUP3 ADD SWAP1 POP SWAP2 SWAP1 POP JUMP JUMPDEST PUSH1 0x0 PUSH1 0x20 DUP3 ADD SWAP1 POP DUP2 DUP2 SUB PUSH1 0x0 DUP4 ADD MSTORE PUSH2 0x3F6F DUP2 PUSH2 0x3F33 JUMP JUMPDEST SWAP1 POP SWAP2 SWAP1 POP JUMP JUMPDEST PUSH32 0x4E6F7420617574686F72697A656420746F20726573706F6E6420746F20746865 PUSH1 0x0 DUP3 ADD MSTORE PUSH32 0x206F666665720000000000000000000000000000000000000000000000000000 PUSH1 0x20 DUP3 ADD MSTORE POP JUMP JUMPDEST PUSH1 0x0 PUSH2 0x3FD2 PUSH1 0x26 DUP4 PUSH2 0x3851 JUMP JUMPDEST SWAP2 POP PUSH2 0x3FDD DUP3 PUSH2 0x3F76 JUMP JUMPDEST PUSH1 0x40 DUP3 ADD SWAP1 POP SWAP2 SWAP1 POP JUMP JUMPDEST PUSH1 0x0 PUSH1 0x20 DUP3 ADD SWAP1 POP DUP2 DUP2 SUB PUSH1 0x0 DUP4 ADD MSTORE PUSH2 0x4001 DUP2 PUSH2 0x3FC5 JUMP JUMPDEST SWAP1 POP SWAP2 SWAP1 POP JUMP JUMPDEST PUSH32 0x4C6F616E206973206E6F74206F70656E20666F7220726573706F6E7365730000 PUSH1 0x0 DUP3 ADD MSTORE POP JUMP JUMPDEST PUSH1 0x0 PUSH2 0x403E PUSH1 0x1E DUP4 PUSH2 0x3851 JUMP JUMPDEST SWAP2 POP PUSH2 0x4049 DUP3 PUSH2 0x4008 JUMP JUMPDEST PUSH1 0x20 DUP3 ADD SWAP1 POP SWAP2 SWAP1 POP JUMP JUMPDEST PUSH1 0x0 PUSH1 0x20 DUP3 ADD SWAP1 POP DUP2 DUP2 SUB PUSH1 0x0 DUP4 ADD MSTORE PUSH2 0x406D DUP2 PUSH2 0x4031 JUMP JUMPDEST SWAP1 POP SWAP2 SWAP1 POP JUMP JUMPDEST PUSH32 0x4C6F616E20686173206578706972656420616E64206973206E6F742061636365 PUSH1 0x0 DUP3 ADD MSTORE PUSH32 0x7074696E6720726573706F6E7365730000000000000000000000000000000000 PUSH1 0x20 DUP3 ADD MSTORE POP JUMP JUMPDEST PUSH1 0x0 PUSH2 0x40D0 PUSH1 0x2F DUP4 PUSH2 0x3851 JUMP JUMPDEST SWAP2 POP PUSH2 0x40DB DUP3 PUSH2 0x4074 JUMP JUMPDEST PUSH1 0x40 DUP3 ADD SWAP1 POP SWAP2 SWAP1 POP JUMP JUMPDEST PUSH1 0x0 PUSH1 0x20 DUP3 ADD SWAP1 POP DUP2 DUP2 SUB PUSH1 0x0 DUP4 ADD MSTORE PUSH2 0x40FF DUP2 PUSH2 0x40C3 JUMP JUMPDEST SWAP1 POP SWAP2 SWAP1 POP JUMP JUMPDEST PUSH32 0x4F6666657220616D6F756E742065786365656473207468652072656D61696E69 PUSH1 0x0 DUP3 ADD MSTORE PUSH32 0x6E67206C6F616E206C696D697400000000000000000000000000000000000000 PUSH1 0x20 DUP3 ADD MSTORE POP JUMP JUMPDEST PUSH1 0x0 PUSH2 0x4162 PUSH1 0x2D DUP4 PUSH2 0x3851 JUMP JUMPDEST SWAP2 POP PUSH2 0x416D DUP3 PUSH2 0x4106 JUMP JUMPDEST PUSH1 0x40 DUP3 ADD SWAP1 POP SWAP2 SWAP1 POP JUMP JUMPDEST PUSH1 0x0 PUSH1 0x20 DUP3 ADD SWAP1 POP DUP2 DUP2 SUB PUSH1 0x0 DUP4 ADD MSTORE PUSH2 0x4191 DUP2 PUSH2 0x4155 JUMP JUMPDEST SWAP1 POP SWAP2 SWAP1 POP JUMP JUMPDEST PUSH1 0x0 DUP2 PUSH1 0x1 SHR SWAP1 POP SWAP2 SWAP1 POP JUMP JUMPDEST PUSH1 0x0 DUP1 DUP3 SWAP2 POP DUP4 SWAP1 POP JUMPDEST PUSH1 0x1 DUP6 GT ISZERO PUSH2 0x41EF JUMPI DUP1 DUP7 DIV DUP2 GT ISZERO PUSH2 0x41CB JUMPI PUSH2 0x41CA PUSH2 0x3718 JUMP JUMPDEST JUMPDEST PUSH1 0x1 DUP6 AND ISZERO PUSH2 0x41DA JUMPI DUP1 DUP3 MUL SWAP2 POP JUMPDEST DUP1 DUP2 MUL SWAP1 POP PUSH2 0x41E8 DUP6 PUSH2 0x4198 JUMP JUMPDEST SWAP5 POP PUSH2 0x41AF JUMP JUMPDEST SWAP5 POP SWAP5 SWAP3 POP POP POP JUMP JUMPDEST PUSH1 0x0 DUP3 PUSH2 0x4208 JUMPI PUSH1 0x1 SWAP1 POP PUSH2 0x42C4 JUMP JUMPDEST DUP2 PUSH2 0x4216 JUMPI PUSH1 0x0 SWAP1 POP PUSH2 0x42C4 JUMP JUMPDEST DUP2 PUSH1 0x1 DUP2 EQ PUSH2 0x422C JUMPI PUSH1 0x2 DUP2 EQ PUSH2 0x4236 JUMPI PUSH2 0x4265 JUMP JUMPDEST PUSH1 0x1 SWAP2 POP POP PUSH2 0x42C4 JUMP JUMPDEST PUSH1 0xFF DUP5 GT ISZERO PUSH2 0x4248 JUMPI PUSH2 0x4247 PUSH2 0x3718 JUMP JUMPDEST JUMPDEST DUP4 PUSH1 0x2 EXP SWAP2 POP DUP5 DUP3 GT ISZERO PUSH2 0x425F JUMPI PUSH2 0x425E PUSH2 0x3718 JUMP JUMPDEST JUMPDEST POP PUSH2 0x42C4 JUMP JUMPDEST POP PUSH1 0x20 DUP4 LT PUSH2 0x133 DUP4 LT AND PUSH1 0x4E DUP5 LT PUSH1 0xB DUP5 LT AND OR ISZERO PUSH2 0x429A JUMPI DUP3 DUP3 EXP SWAP1 POP DUP4 DUP2 GT ISZERO PUSH2 0x4295 JUMPI PUSH2 0x4294 PUSH2 0x3718 JUMP JUMPDEST JUMPDEST PUSH2 0x42C4 JUMP JUMPDEST PUSH2 0x42A7 DUP5 DUP5 DUP5 PUSH1 0x1 PUSH2 0x41A5 JUMP JUMPDEST SWAP3 POP SWAP1 POP DUP2 DUP5 DIV DUP2 GT ISZERO PUSH2 0x42BE JUMPI PUSH2 0x42BD PUSH2 0x3718 JUMP JUMPDEST JUMPDEST DUP2 DUP2 MUL SWAP1 POP JUMPDEST SWAP4 SWAP3 POP POP POP JUMP JUMPDEST PUSH1 0x0 PUSH2 0x42D6 DUP3 PUSH2 0x315C JUMP JUMPDEST SWAP2 POP PUSH2 0x42E1 DUP4 PUSH2 0x315C JUMP JUMPDEST SWAP3 POP PUSH2 0x430E PUSH32 0xFFFFFFFFFFFFFFFFFFFFFFFFFFFFFFFFFFFFFFFFFFFFFFFFFFFFFFFFFFFFFFFF DUP5 DUP5 PUSH2 0x41F8 JUMP JUMPDEST SWAP1 POP SWAP3 SWAP2 POP POP JUMP JUMPDEST PUSH32 0x4C6F616E206973206E6F74206163746976650000000000000000000000000000 PUSH1 0x0 DUP3 ADD MSTORE POP JUMP JUMPDEST PUSH1 0x0 PUSH2 0x434C PUSH1 0x12 DUP4 PUSH2 0x3851 JUMP JUMPDEST SWAP2 POP PUSH2 0x4357 DUP3 PUSH2 0x4316 JUMP JUMPDEST PUSH1 0x20 DUP3 ADD SWAP1 POP SWAP2 SWAP1 POP JUMP JUMPDEST PUSH1 0x0 PUSH1 0x20 DUP3 ADD SWAP1 POP DUP2 DUP2 SUB PUSH1 0x0 DUP4 ADD MSTORE PUSH2 0x437B DUP2 PUSH2 0x433F JUMP JUMPDEST SWAP1 POP SWAP2 SWAP1 POP JUMP JUMPDEST PUSH32 0x4C6F616E20686173206E6F742065787069726564000000000000000000000000 PUSH1 0x0 DUP3 ADD MSTORE POP JUMP JUMPDEST PUSH1 0x0 PUSH2 0x43B8 PUSH1 0x14 DUP4 PUSH2 0x3851 JUMP JUMPDEST SWAP2 POP PUSH2 0x43C3 DUP3 PUSH2 0x4382 JUMP JUMPDEST PUSH1 0x20 DUP3 ADD SWAP1 POP SWAP2 SWAP1 POP JUMP JUMPDEST PUSH1 0x0 PUSH1 0x20 DUP3 ADD SWAP1 POP DUP2 DUP2 SUB PUSH1 0x0 DUP4 ADD MSTORE PUSH2 0x43E7 DUP2 PUSH2 0x43AB JUMP JUMPDEST SWAP1 POP SWAP2 SWAP1 POP JUMP INVALID LOG2 PUSH5 0x6970667358 0x22 SLT KECCAK256 PUSH6 0xCD9FEA8CDA5C 0xE9 PUSH4 0xD0ABEC8C 0xB0 EXTCODECOPY SLOAD 0xF9 CALL REVERT DUP14 0xE8 DUP5 0xBC PUSH29 0xF7331E667FEB2E1A64736F6C6343000812003300000000000000000000 "
				},
				"gasEstimates": {
					"creation": {
						"codeDepositCost": "3488800",
						"executionCost": "infinite",
						"totalCost": "infinite"
					},
					"external": {
						"CreditScore()": "2453",
						"LoanId()": "2496",
						"OfferId()": "2540",
						"Time()": "2495",
						"TokenId()": "2497",
						"active_offer_id(uint256,address)": "infinite",
						"admin()": "2558",
						"cancel_loan(uint256)": "infinite",
						"claim_loan_default(uint256)": "infinite",
						"cooldown_phase_duration()": "2519",
						"fractionalizer()": "2559",
						"get_cancellation_charges()": "infinite",
						"get_collateral_required(address,uint256,uint256)": "infinite",
						"is_offer_phase(uint256)": "infinite",
						"list_advertisement(uint256,uint256,uint256,uint256)": "infinite",
						"loan_nonce()": "2563",
						"loan_stats(uint256)": "infinite",
						"loans(uint256)": "infinite",
						"make_offer(uint256,uint256)": "infinite",
						"offer_phase_duration()": "2517",
						"offers(uint256,uint256)": "infinite",
						"offers_nonce(uint256)": "infinite",
						"repay_loan(uint256)": "infinite",
						"respond_to_offer(uint256,uint256,bool)": "infinite",
						"signal_erc1155_support(address)": "infinite",
						"start_loan(uint256)": "infinite",
						"withdraw_offer(uint256)": "infinite"
					},
					"internal": {
						"dec_credit_score(address)": "infinite",
						"inc_credit_score(address)": "infinite",
						"ref_get_borrower_settlement(struct NFTLending.LoanStats memory,uint256)": "infinite",
						"ref_get_lender_settlement(struct NFTLending.LoanMetadata memory,struct NFTLending.LoanStats memory,struct NFTLending.OfferMetadata memory,uint256)": "infinite",
						"ref_is_offer_phase(struct NFTLending.LoanMetadata memory,struct NFTLending.LoanStats memory)": "infinite",
						"ref_reject_all_offers(uint256)": "infinite",
						"ref_reject_offer(uint256,uint256,struct NFTLending.OfferMetadata storage pointer)": "infinite",
						"ref_settle_loan(uint256,struct NFTLending.LoanMetadata storage pointer,struct NFTLending.LoanStats storage pointer)": "infinite",
						"ref_start_loan(uint256,struct NFTLending.LoanStats storage pointer,address)": "infinite",
						"reject_all_pending_offers(uint256)": "infinite",
						"transfer_fractional_nft()": "9"
					}
				},
				"methodIdentifiers": {
					"CreditScore()": "3cc52b30",
					"LoanId()": "db6f6c11",
					"OfferId()": "e139a68f",
					"Time()": "f8e157ea",
					"TokenId()": "9ffb8b49",
					"active_offer_id(uint256,address)": "fbeb52a4",
					"admin()": "f851a440",
					"cancel_loan(uint256)": "52ef5cef",
					"claim_loan_default(uint256)": "f81d7f5b",
					"cooldown_phase_duration()": "7078480a",
					"fractionalizer()": "d03b0e49",
					"get_cancellation_charges()": "c3f647e8",
					"get_collateral_required(address,uint256,uint256)": "466e3a3b",
					"is_offer_phase(uint256)": "f4cff8b4",
					"list_advertisement(uint256,uint256,uint256,uint256)": "6a99e312",
					"loan_nonce()": "6032cd95",
					"loan_stats(uint256)": "8736f1a7",
					"loans(uint256)": "e1ec3c68",
					"make_offer(uint256,uint256)": "77f27bee",
					"offer_phase_duration()": "fa914222",
					"offers(uint256,uint256)": "4d03a9a5",
					"offers_nonce(uint256)": "dd186b3e",
					"repay_loan(uint256)": "729c7e83",
					"respond_to_offer(uint256,uint256,bool)": "9624eca5",
					"signal_erc1155_support(address)": "57f3aef7",
					"start_loan(uint256)": "77b3f5f2",
					"withdraw_offer(uint256)": "6110d500"
				}
			},
			"storageLayout": {
				"storage": [
					{
						"astId": 3,
						"contract": "contracts/NFTLending.sol:NFTLending",
						"label": "TokenId",
						"offset": 0,
						"slot": "0",
						"type": "t_uint256"
					},
					{
						"astId": 5,
						"contract": "contracts/NFTLending.sol:NFTLending",
						"label": "LoanId",
						"offset": 0,
						"slot": "1",
						"type": "t_uint256"
					},
					{
						"astId": 7,
						"contract": "contracts/NFTLending.sol:NFTLending",
						"label": "OfferId",
						"offset": 0,
						"slot": "2",
						"type": "t_uint256"
					},
					{
						"astId": 9,
						"contract": "contracts/NFTLending.sol:NFTLending",
						"label": "CreditScore",
						"offset": 0,
						"slot": "3",
						"type": "t_uint256"
					},
					{
						"astId": 11,
						"contract": "contracts/NFTLending.sol:NFTLending",
						"label": "Time",
						"offset": 0,
						"slot": "4",
						"type": "t_uint256"
					},
					{
						"astId": 94,
						"contract": "contracts/NFTLending.sol:NFTLending",
						"label": "admin",
						"offset": 0,
						"slot": "5",
						"type": "t_address"
					},
					{
						"astId": 96,
						"contract": "contracts/NFTLending.sol:NFTLending",
						"label": "fractionalizer",
						"offset": 0,
						"slot": "6",
						"type": "t_address"
					},
					{
						"astId": 98,
						"contract": "contracts/NFTLending.sol:NFTLending",
						"label": "loan_nonce",
						"offset": 0,
						"slot": "7",
						"type": "t_uint256"
					},
					{
						"astId": 100,
						"contract": "contracts/NFTLending.sol:NFTLending",
						"label": "offer_phase_duration",
						"offset": 0,
						"slot": "8",
						"type": "t_uint256"
					},
					{
						"astId": 102,
						"contract": "contracts/NFTLending.sol:NFTLending",
						"label": "cooldown_phase_duration",
						"offset": 0,
						"slot": "9",
						"type": "t_uint256"
					},
					{
						"astId": 106,
						"contract": "contracts/NFTLending.sol:NFTLending",
						"label": "credit_score",
						"offset": 0,
						"slot": "10",
						"type": "t_mapping(t_address,t_uint256)"
					},
					{
						"astId": 111,
						"contract": "contracts/NFTLending.sol:NFTLending",
						"label": "loans",
						"offset": 0,
						"slot": "11",
						"type": "t_mapping(t_uint256,t_struct(LoanMetadata)26_storage)"
					},
					{
						"astId": 116,
						"contract": "contracts/NFTLending.sol:NFTLending",
						"label": "loan_stats",
						"offset": 0,
						"slot": "12",
						"type": "t_mapping(t_uint256,t_struct(LoanStats)45_storage)"
					},
					{
						"astId": 120,
						"contract": "contracts/NFTLending.sol:NFTLending",
						"label": "offers_nonce",
						"offset": 0,
						"slot": "13",
						"type": "t_mapping(t_uint256,t_uint256)"
					},
					{
						"astId": 127,
						"contract": "contracts/NFTLending.sol:NFTLending",
						"label": "offers",
						"offset": 0,
						"slot": "14",
						"type": "t_mapping(t_uint256,t_mapping(t_uint256,t_struct(OfferMetadata)71_storage))"
					},
					{
						"astId": 133,
						"contract": "contracts/NFTLending.sol:NFTLending",
						"label": "active_offer_id",
						"offset": 0,
						"slot": "15",
						"type": "t_mapping(t_uint256,t_mapping(t_address,t_uint256))"
					}
				],
				"types": {
					"t_address": {
						"encoding": "inplace",
						"label": "address",
						"numberOfBytes": "20"
					},
					"t_enum(LoanStatus)31": {
						"encoding": "inplace",
						"label": "enum NFTLending.LoanStatus",
						"numberOfBytes": "1"
					},
					"t_enum(OfferStatus)50": {
						"encoding": "inplace",
						"label": "enum NFTLending.OfferStatus",
						"numberOfBytes": "1"
					},
					"t_mapping(t_address,t_uint256)": {
						"encoding": "mapping",
						"key": "t_address",
						"label": "mapping(address => uint256)",
						"numberOfBytes": "32",
						"value": "t_uint256"
					},
					"t_mapping(t_uint256,t_mapping(t_address,t_uint256))": {
						"encoding": "mapping",
						"key": "t_uint256",
						"label": "mapping(uint256 => mapping(address => uint256))",
						"numberOfBytes": "32",
						"value": "t_mapping(t_address,t_uint256)"
					},
					"t_mapping(t_uint256,t_mapping(t_uint256,t_struct(OfferMetadata)71_storage))": {
						"encoding": "mapping",
						"key": "t_uint256",
						"label": "mapping(uint256 => mapping(uint256 => struct NFTLending.OfferMetadata))",
						"numberOfBytes": "32",
						"value": "t_mapping(t_uint256,t_struct(OfferMetadata)71_storage)"
					},
					"t_mapping(t_uint256,t_struct(LoanMetadata)26_storage)": {
						"encoding": "mapping",
						"key": "t_uint256",
						"label": "mapping(uint256 => struct NFTLending.LoanMetadata)",
						"numberOfBytes": "32",
						"value": "t_struct(LoanMetadata)26_storage"
					},
					"t_mapping(t_uint256,t_struct(LoanStats)45_storage)": {
						"encoding": "mapping",
						"key": "t_uint256",
						"label": "mapping(uint256 => struct NFTLending.LoanStats)",
						"numberOfBytes": "32",
						"value": "t_struct(LoanStats)45_storage"
					},
					"t_mapping(t_uint256,t_struct(OfferMetadata)71_storage)": {
						"encoding": "mapping",
						"key": "t_uint256",
						"label": "mapping(uint256 => struct NFTLending.OfferMetadata)",
						"numberOfBytes": "32",
						"value": "t_struct(OfferMetadata)71_storage"
					},
					"t_mapping(t_uint256,t_uint256)": {
						"encoding": "mapping",
						"key": "t_uint256",
						"label": "mapping(uint256 => uint256)",
						"numberOfBytes": "32",
						"value": "t_uint256"
					},
					"t_struct(LoanMetadata)26_storage": {
						"encoding": "inplace",
						"label": "struct NFTLending.LoanMetadata",
						"members": [
							{
								"astId": 13,
								"contract": "contracts/NFTLending.sol:NFTLending",
								"label": "borrower",
								"offset": 0,
								"slot": "0",
								"type": "t_address"
							},
							{
								"astId": 15,
								"contract": "contracts/NFTLending.sol:NFTLending",
								"label": "token_id",
								"offset": 0,
								"slot": "1",
								"type": "t_uint256"
							},
							{
								"astId": 17,
								"contract": "contracts/NFTLending.sol:NFTLending",
								"label": "shares_locked",
								"offset": 0,
								"slot": "2",
								"type": "t_uint256"
							},
							{
								"astId": 19,
								"contract": "contracts/NFTLending.sol:NFTLending",
								"label": "amount_asked",
								"offset": 0,
								"slot": "3",
								"type": "t_uint256"
							},
							{
								"astId": 21,
								"contract": "contracts/NFTLending.sol:NFTLending",
								"label": "security_deposit",
								"offset": 0,
								"slot": "4",
								"type": "t_uint256"
							},
							{
								"astId": 23,
								"contract": "contracts/NFTLending.sol:NFTLending",
								"label": "loan_period",
								"offset": 0,
								"slot": "5",
								"type": "t_uint256"
							},
							{
								"astId": 25,
								"contract": "contracts/NFTLending.sol:NFTLending",
								"label": "listing_timestamp",
								"offset": 0,
								"slot": "6",
								"type": "t_uint256"
							}
						],
						"numberOfBytes": "224"
					},
					"t_struct(LoanStats)45_storage": {
						"encoding": "inplace",
						"label": "struct NFTLending.LoanStats",
						"members": [
							{
								"astId": 33,
								"contract": "contracts/NFTLending.sol:NFTLending",
								"label": "start_timestamp",
								"offset": 0,
								"slot": "0",
								"type": "t_uint256"
							},
							{
								"astId": 35,
								"contract": "contracts/NFTLending.sol:NFTLending",
								"label": "raised",
								"offset": 0,
								"slot": "1",
								"type": "t_uint256"
							},
							{
								"astId": 37,
								"contract": "contracts/NFTLending.sol:NFTLending",
								"label": "limit_left",
								"offset": 0,
								"slot": "2",
								"type": "t_uint256"
							},
							{
								"astId": 39,
								"contract": "contracts/NFTLending.sol:NFTLending",
								"label": "interest",
								"offset": 0,
								"slot": "3",
								"type": "t_uint256"
							},
							{
								"astId": 41,
								"contract": "contracts/NFTLending.sol:NFTLending",
								"label": "repaid",
								"offset": 0,
								"slot": "4",
								"type": "t_uint256"
							},
							{
								"astId": 44,
								"contract": "contracts/NFTLending.sol:NFTLending",
								"label": "loan_status",
								"offset": 0,
								"slot": "5",
								"type": "t_enum(LoanStatus)31"
							}
						],
						"numberOfBytes": "192"
					},
					"t_struct(OfferMetadata)71_storage": {
						"encoding": "inplace",
						"label": "struct NFTLending.OfferMetadata",
						"members": [
							{
								"astId": 63,
								"contract": "contracts/NFTLending.sol:NFTLending",
								"label": "lender",
								"offset": 0,
								"slot": "0",
								"type": "t_address"
							},
							{
								"astId": 65,
								"contract": "contracts/NFTLending.sol:NFTLending",
								"label": "amount",
								"offset": 0,
								"slot": "1",
								"type": "t_uint256"
							},
							{
								"astId": 67,
								"contract": "contracts/NFTLending.sol:NFTLending",
								"label": "interest",
								"offset": 0,
								"slot": "2",
								"type": "t_uint256"
							},
							{
								"astId": 70,
								"contract": "contracts/NFTLending.sol:NFTLending",
								"label": "status",
								"offset": 0,
								"slot": "3",
								"type": "t_enum(OfferStatus)50"
							}
						],
						"numberOfBytes": "128"
					},
					"t_uint256": {
						"encoding": "inplace",
						"label": "uint256",
						"numberOfBytes": "32"
					}
				}
			},
			"userdoc": {
				"kind": "user",
				"methods": {},
				"version": 1
			}
		}
	}
}